{
  "abi": [
    {
      "inputs": [
        {
          "internalType": "string",
          "name": "uri",
          "type": "string"
        },
        {
          "internalType": "address",
          "name": "_weth",
          "type": "address"
        }
      ],
      "stateMutability": "nonpayable",
      "type": "constructor"
    },
    {
      "inputs": [],
      "name": "getBetterAtAssemblyBro",
      "type": "error"
    },
    {
      "anonymous": false,
      "inputs": [
        {
          "indexed": true,
          "internalType": "address",
          "name": "account",
          "type": "address"
        },
        {
          "indexed": true,
          "internalType": "address",
          "name": "operator",
          "type": "address"
        },
        {
          "indexed": false,
          "internalType": "bool",
          "name": "approved",
          "type": "bool"
        }
      ],
      "name": "ApprovalForAll",
      "type": "event"
    },
    {
      "anonymous": false,
      "inputs": [
        {
          "indexed": true,
          "internalType": "address",
          "name": "previousOwner",
          "type": "address"
        },
        {
          "indexed": true,
          "internalType": "address",
          "name": "newOwner",
          "type": "address"
        }
      ],
      "name": "OwnershipTransferred",
      "type": "event"
    },
    {
      "anonymous": false,
      "inputs": [
        {
          "indexed": true,
          "internalType": "address",
          "name": "operator",
          "type": "address"
        },
        {
          "indexed": true,
          "internalType": "address",
          "name": "from",
          "type": "address"
        },
        {
          "indexed": true,
          "internalType": "address",
          "name": "to",
          "type": "address"
        },
        {
          "indexed": false,
          "internalType": "uint256[]",
          "name": "ids",
          "type": "uint256[]"
        },
        {
          "indexed": false,
          "internalType": "uint256[]",
          "name": "values",
          "type": "uint256[]"
        }
      ],
      "name": "TransferBatch",
      "type": "event"
    },
    {
      "anonymous": false,
      "inputs": [
        {
          "indexed": true,
          "internalType": "address",
          "name": "operator",
          "type": "address"
        },
        {
          "indexed": true,
          "internalType": "address",
          "name": "from",
          "type": "address"
        },
        {
          "indexed": true,
          "internalType": "address",
          "name": "to",
          "type": "address"
        },
        {
          "indexed": false,
          "internalType": "uint256",
          "name": "id",
          "type": "uint256"
        },
        {
          "indexed": false,
          "internalType": "uint256",
          "name": "value",
          "type": "uint256"
        }
      ],
      "name": "TransferSingle",
      "type": "event"
    },
    {
      "anonymous": false,
      "inputs": [
        {
          "indexed": false,
          "internalType": "string",
          "name": "value",
          "type": "string"
        },
        {
          "indexed": true,
          "internalType": "uint256",
          "name": "id",
          "type": "uint256"
        }
      ],
      "name": "URI",
      "type": "event"
    },
    {
      "inputs": [
        {
          "internalType": "address",
          "name": "account",
          "type": "address"
        },
        {
          "internalType": "uint256",
          "name": "id",
          "type": "uint256"
        }
      ],
      "name": "balanceOf",
      "outputs": [
        {
          "internalType": "uint256",
          "name": "",
          "type": "uint256"
        }
      ],
      "stateMutability": "view",
      "type": "function"
    },
    {
      "inputs": [
        {
          "internalType": "address[]",
          "name": "accounts",
          "type": "address[]"
        },
        {
          "internalType": "uint256[]",
          "name": "ids",
          "type": "uint256[]"
        }
      ],
      "name": "balanceOfBatch",
      "outputs": [
        {
          "internalType": "uint256[]",
          "name": "",
          "type": "uint256[]"
        }
      ],
      "stateMutability": "view",
      "type": "function"
    },
    {
      "inputs": [
        {
          "internalType": "address",
          "name": "",
          "type": "address"
        }
      ],
      "name": "diceRollLastWin",
      "outputs": [
        {
          "internalType": "uint256",
          "name": "",
          "type": "uint256"
        }
      ],
      "stateMutability": "view",
      "type": "function"
    },
    {
      "inputs": [
        {
          "internalType": "address",
          "name": "",
          "type": "address"
        }
      ],
      "name": "diceRollWins",
      "outputs": [
        {
          "internalType": "uint256",
          "name": "",
          "type": "uint256"
        }
      ],
      "stateMutability": "view",
      "type": "function"
    },
    {
      "inputs": [
        {
          "internalType": "address",
          "name": "",
          "type": "address"
        }
      ],
      "name": "entryCount",
      "outputs": [
        {
          "internalType": "uint256",
          "name": "",
          "type": "uint256"
        }
      ],
      "stateMutability": "view",
      "type": "function"
    },
    {
      "inputs": [],
      "name": "extendTime",
      "outputs": [],
      "stateMutability": "nonpayable",
      "type": "function"
    },
    {
      "inputs": [
        {
          "internalType": "bool",
          "name": "val",
          "type": "bool"
        }
      ],
      "name": "f0",
      "outputs": [],
      "stateMutability": "nonpayable",
      "type": "function"
    },
    {
      "inputs": [],
      "name": "f1",
      "outputs": [],
      "stateMutability": "payable",
      "type": "function"
    },
    {
      "inputs": [
        {
          "internalType": "int256",
          "name": "num1",
          "type": "int256"
        },
        {
          "internalType": "int256",
          "name": "num2",
          "type": "int256"
        }
      ],
      "name": "f10",
      "outputs": [],
      "stateMutability": "nonpayable",
      "type": "function"
    },
    {
      "inputs": [
        {
          "internalType": "int256",
          "name": "num1",
          "type": "int256"
        },
        {
          "internalType": "int256",
          "name": "num2",
          "type": "int256"
        }
      ],
      "name": "f11",
      "outputs": [],
      "stateMutability": "nonpayable",
      "type": "function"
    },
    {
      "inputs": [
        {
          "internalType": "bytes",
          "name": "data",
          "type": "bytes"
        }
      ],
      "name": "f12",
      "outputs": [],
      "stateMutability": "nonpayable",
      "type": "function"
    },
    {
      "inputs": [],
      "name": "f13",
      "outputs": [],
      "stateMutability": "payable",
      "type": "function"
    },
    {
      "inputs": [
        {
          "internalType": "uint256",
          "name": "diceRoll",
          "type": "uint256"
        }
      ],
      "name": "f14",
      "outputs": [],
      "stateMutability": "payable",
      "type": "function"
    },
    {
      "inputs": [
        {
          "internalType": "uint256",
          "name": "difficulty",
          "type": "uint256"
        }
      ],
      "name": "f15",
      "outputs": [],
      "stateMutability": "nonpayable",
      "type": "function"
    },
    {
      "inputs": [
        {
          "internalType": "address",
          "name": "team",
          "type": "address"
        }
      ],
      "name": "f16",
      "outputs": [],
      "stateMutability": "nonpayable",
      "type": "function"
    },
    {
      "inputs": [
        {
          "internalType": "address",
          "name": "team",
          "type": "address"
        },
        {
          "internalType": "address",
          "name": "expectedSigner",
          "type": "address"
        },
        {
          "internalType": "bytes",
          "name": "signature",
          "type": "bytes"
        }
      ],
      "name": "f17",
      "outputs": [],
      "stateMutability": "nonpayable",
      "type": "function"
    },
    {
      "inputs": [
        {
          "internalType": "uint256",
          "name": "amount",
          "type": "uint256"
        },
        {
          "internalType": "address",
          "name": "dest",
          "type": "address"
        },
        {
          "internalType": "address",
          "name": "team",
          "type": "address"
        }
      ],
      "name": "f18",
      "outputs": [],
      "stateMutability": "nonpayable",
      "type": "function"
    },
    {
      "inputs": [
        {
          "internalType": "address",
          "name": "team",
          "type": "address"
        }
      ],
      "name": "f19",
      "outputs": [],
      "stateMutability": "nonpayable",
      "type": "function"
    },
    {
      "inputs": [
        {
          "internalType": "uint256",
          "name": "val",
          "type": "uint256"
        }
      ],
      "name": "f2",
      "outputs": [],
      "stateMutability": "nonpayable",
      "type": "function"
    },
    {
      "inputs": [
        {
          "internalType": "address",
          "name": "newContract",
          "type": "address"
        },
        {
          "internalType": "address",
          "name": "team",
          "type": "address"
        }
      ],
      "name": "f20",
      "outputs": [],
      "stateMutability": "nonpayable",
      "type": "function"
    },
    {
      "inputs": [
        {
          "internalType": "address",
          "name": "team",
          "type": "address"
        }
      ],
      "name": "f21",
      "outputs": [],
      "stateMutability": "nonpayable",
      "type": "function"
    },
    {
      "inputs": [
        {
          "internalType": "address",
          "name": "team",
          "type": "address"
        }
      ],
      "name": "f22",
      "outputs": [],
      "stateMutability": "nonpayable",
      "type": "function"
    },
    {
      "inputs": [
        {
          "internalType": "address",
          "name": "team",
          "type": "address"
        },
        {
          "internalType": "bytes32[]",
          "name": "proof",
          "type": "bytes32[]"
        },
        {
          "internalType": "bytes32",
          "name": "leaf",
          "type": "bytes32"
        }
      ],
      "name": "f23",
      "outputs": [],
      "stateMutability": "nonpayable",
      "type": "function"
    },
    {
      "inputs": [
        {
          "internalType": "address",
          "name": "team",
          "type": "address"
        },
        {
          "internalType": "uint256",
          "name": "value",
          "type": "uint256"
        }
      ],
      "name": "f24",
      "outputs": [],
      "stateMutability": "nonpayable",
      "type": "function"
    },
    {
      "inputs": [
        {
          "internalType": "address",
          "name": "team",
          "type": "address"
        },
        {
          "internalType": "uint256",
          "name": "value",
          "type": "uint256"
        }
      ],
      "name": "f25",
      "outputs": [],
      "stateMutability": "nonpayable",
      "type": "function"
    },
    {
      "inputs": [
        {
          "internalType": "address",
          "name": "team",
          "type": "address"
        },
        {
          "internalType": "bytes",
          "name": "data",
          "type": "bytes"
        },
        {
          "internalType": "bytes32",
          "name": "hashSlingingSlasher",
          "type": "bytes32"
        }
      ],
      "name": "f26",
      "outputs": [],
      "stateMutability": "nonpayable",
      "type": "function"
    },
    {
      "inputs": [
        {
          "internalType": "uint256",
          "name": "data",
          "type": "uint256"
        }
      ],
      "name": "f3",
      "outputs": [],
      "stateMutability": "nonpayable",
      "type": "function"
    },
    {
      "inputs": [
        {
          "internalType": "address",
          "name": "destAddr",
          "type": "address"
        }
      ],
      "name": "f4",
      "outputs": [],
      "stateMutability": "nonpayable",
      "type": "function"
    },
    {
      "inputs": [
        {
          "internalType": "address",
          "name": "destAddr",
          "type": "address"
        }
      ],
      "name": "f5",
      "outputs": [],
      "stateMutability": "nonpayable",
      "type": "function"
    },
    {
      "inputs": [
        {
          "internalType": "address",
          "name": "destAddr",
          "type": "address"
        }
      ],
      "name": "f6",
      "outputs": [],
      "stateMutability": "nonpayable",
      "type": "function"
    },
    {
      "inputs": [],
      "name": "f7",
      "outputs": [],
      "stateMutability": "nonpayable",
      "type": "function"
    },
    {
      "inputs": [
        {
          "internalType": "bytes",
          "name": "data",
          "type": "bytes"
        }
      ],
      "name": "f8",
      "outputs": [],
      "stateMutability": "nonpayable",
      "type": "function"
    },
    {
      "inputs": [
        {
          "internalType": "bytes",
          "name": "data",
          "type": "bytes"
        }
      ],
      "name": "f9",
      "outputs": [],
      "stateMutability": "nonpayable",
      "type": "function"
    },
    {
      "inputs": [],
      "name": "internalChallengeHook",
      "outputs": [
        {
          "internalType": "uint256",
          "name": "",
          "type": "uint256"
        }
      ],
      "stateMutability": "view",
      "type": "function"
    },
    {
      "inputs": [
        {
          "internalType": "address",
          "name": "account",
          "type": "address"
        },
        {
          "internalType": "address",
          "name": "operator",
          "type": "address"
        }
      ],
      "name": "isApprovedForAll",
      "outputs": [
        {
          "internalType": "bool",
          "name": "",
          "type": "bool"
        }
      ],
      "stateMutability": "view",
      "type": "function"
    },
    {
      "inputs": [],
      "name": "live",
      "outputs": [
        {
          "internalType": "bool",
          "name": "",
          "type": "bool"
        }
      ],
      "stateMutability": "view",
      "type": "function"
    },
    {
      "inputs": [],
      "name": "merkleRoot",
      "outputs": [
        {
          "internalType": "bytes32",
          "name": "",
          "type": "bytes32"
        }
      ],
      "stateMutability": "view",
      "type": "function"
    },
    {
      "inputs": [],
      "name": "owner",
      "outputs": [
        {
          "internalType": "address",
          "name": "",
          "type": "address"
        }
      ],
      "stateMutability": "view",
      "type": "function"
    },
    {
      "inputs": [
        {
          "internalType": "uint256",
          "name": "",
          "type": "uint256"
        }
      ],
      "name": "points",
      "outputs": [
        {
          "internalType": "uint256",
          "name": "",
          "type": "uint256"
        }
      ],
      "stateMutability": "view",
      "type": "function"
    },
    {
      "inputs": [
        {
          "internalType": "address",
          "name": "",
          "type": "address"
        },
        {
          "internalType": "uint256",
          "name": "",
          "type": "uint256"
        }
      ],
      "name": "progress",
      "outputs": [
        {
          "internalType": "bool",
          "name": "",
          "type": "bool"
        }
      ],
      "stateMutability": "view",
      "type": "function"
    },
    {
      "inputs": [
        {
          "internalType": "string",
          "name": "team",
          "type": "string"
        }
      ],
      "name": "registerTeam",
      "outputs": [],
      "stateMutability": "nonpayable",
      "type": "function"
    },
    {
      "inputs": [],
      "name": "renounceOwnership",
      "outputs": [],
      "stateMutability": "nonpayable",
      "type": "function"
    },
    {
      "inputs": [
        {
          "internalType": "address",
          "name": "from",
          "type": "address"
        },
        {
          "internalType": "address",
          "name": "to",
          "type": "address"
        },
        {
          "internalType": "uint256[]",
          "name": "ids",
          "type": "uint256[]"
        },
        {
          "internalType": "uint256[]",
          "name": "amounts",
          "type": "uint256[]"
        },
        {
          "internalType": "bytes",
          "name": "data",
          "type": "bytes"
        }
      ],
      "name": "safeBatchTransferFrom",
      "outputs": [],
      "stateMutability": "nonpayable",
      "type": "function"
    },
    {
      "inputs": [
        {
          "internalType": "address",
          "name": "from",
          "type": "address"
        },
        {
          "internalType": "address",
          "name": "to",
          "type": "address"
        },
        {
          "internalType": "uint256",
          "name": "id",
          "type": "uint256"
        },
        {
          "internalType": "uint256",
          "name": "amount",
          "type": "uint256"
        },
        {
          "internalType": "bytes",
          "name": "data",
          "type": "bytes"
        }
      ],
      "name": "safeTransferFrom",
      "outputs": [],
      "stateMutability": "nonpayable",
      "type": "function"
    },
    {
      "inputs": [
        {
          "internalType": "address",
          "name": "",
          "type": "address"
        }
      ],
      "name": "scores",
      "outputs": [
        {
          "internalType": "uint256",
          "name": "",
          "type": "uint256"
        }
      ],
      "stateMutability": "view",
      "type": "function"
    },
    {
      "inputs": [
        {
          "internalType": "address",
          "name": "",
          "type": "address"
        }
      ],
      "name": "secondEntryCount",
      "outputs": [
        {
          "internalType": "uint256",
          "name": "",
          "type": "uint256"
        }
      ],
      "stateMutability": "view",
      "type": "function"
    },
    {
      "inputs": [
        {
          "internalType": "address",
          "name": "operator",
          "type": "address"
        },
        {
          "internalType": "bool",
          "name": "approved",
          "type": "bool"
        }
      ],
      "name": "setApprovalForAll",
      "outputs": [],
      "stateMutability": "nonpayable",
      "type": "function"
    },
    {
      "inputs": [
        {
          "internalType": "address",
          "name": "",
          "type": "address"
        }
      ],
      "name": "signers",
      "outputs": [
        {
          "internalType": "bool",
          "name": "",
          "type": "bool"
        }
      ],
      "stateMutability": "view",
      "type": "function"
    },
    {
      "inputs": [
        {
          "internalType": "uint256",
          "name": "",
          "type": "uint256"
        }
      ],
      "name": "solves",
      "outputs": [
        {
          "internalType": "uint256",
          "name": "",
          "type": "uint256"
        }
      ],
      "stateMutability": "view",
      "type": "function"
    },
    {
      "inputs": [],
      "name": "start",
      "outputs": [],
      "stateMutability": "nonpayable",
      "type": "function"
    },
    {
      "inputs": [],
      "name": "stop",
      "outputs": [],
      "stateMutability": "nonpayable",
      "type": "function"
    },
    {
      "inputs": [
        {
          "internalType": "bytes4",
          "name": "interfaceId",
          "type": "bytes4"
        }
      ],
      "name": "supportsInterface",
      "outputs": [
        {
          "internalType": "bool",
          "name": "",
          "type": "bool"
        }
      ],
      "stateMutability": "view",
      "type": "function"
    },
    {
      "inputs": [
        {
          "internalType": "uint256",
          "name": "",
          "type": "uint256"
        }
      ],
      "name": "teamAddresses",
      "outputs": [
        {
          "internalType": "address",
          "name": "",
          "type": "address"
        }
      ],
      "stateMutability": "view",
      "type": "function"
    },
    {
      "inputs": [
        {
          "internalType": "address",
          "name": "",
          "type": "address"
        }
      ],
      "name": "teams",
      "outputs": [
        {
          "internalType": "string",
          "name": "",
          "type": "string"
        }
      ],
      "stateMutability": "view",
      "type": "function"
    },
    {
      "inputs": [],
      "name": "template",
      "outputs": [
        {
          "internalType": "contract create2Challenge",
          "name": "",
          "type": "address"
        }
      ],
      "stateMutability": "view",
      "type": "function"
    },
    {
      "inputs": [],
      "name": "timeExtended",
      "outputs": [
        {
          "internalType": "bool",
          "name": "",
          "type": "bool"
        }
      ],
      "stateMutability": "view",
      "type": "function"
    },
    {
      "inputs": [
        {
          "internalType": "address",
          "name": "",
          "type": "address"
        }
      ],
      "name": "totallyLegitMapping",
      "outputs": [
        {
          "internalType": "uint256",
          "name": "",
          "type": "uint256"
        }
      ],
      "stateMutability": "view",
      "type": "function"
    },
    {
      "inputs": [
        {
          "internalType": "address",
          "name": "newOwner",
          "type": "address"
        }
      ],
      "name": "transferOwnership",
      "outputs": [],
      "stateMutability": "nonpayable",
      "type": "function"
    },
    {
      "inputs": [
        {
          "internalType": "uint256",
          "name": "",
          "type": "uint256"
        }
      ],
      "name": "uri",
      "outputs": [
        {
          "internalType": "string",
          "name": "",
          "type": "string"
        }
      ],
      "stateMutability": "view",
      "type": "function"
    },
    {
      "inputs": [
        {
          "internalType": "bytes32",
          "name": "",
          "type": "bytes32"
        }
      ],
      "name": "usedLeaves",
      "outputs": [
        {
          "internalType": "bool",
          "name": "",
          "type": "bool"
        }
      ],
      "stateMutability": "view",
      "type": "function"
    },
    {
      "inputs": [],
      "name": "weth",
      "outputs": [
        {
          "internalType": "address",
          "name": "",
          "type": "address"
        }
      ],
      "stateMutability": "view",
      "type": "function"
    }
  ],
  "bytecode": {
    "object": "0x60c06040526004805461ff001916905560006013553480156200002157600080fd5b506040516200609d3803806200609d83398101604081905262000044916200035c565b8162000050336200020c565b6200005b816200025c565b5060005b601a8111620000a657620000758160c862000463565b620000829060c862000485565b600082815260086020526040902055806200009d81620004a0565b9150506200005f565b5042601455604051620000b99062000275565b604051809103906000f080158015620000d6573d6000803e3d6000fd5b50601280546001600160a01b0319166001600160a01b0392831617905581166080526040805160148082526102a08201909252600091602082016102808036833701905050905060005b6014811015620001815760408051602081018390520160405160208183030381529060405280519060200120828281518110620001615762000161620004bc565b6020908102919091010152806200017881620004a0565b91505062000120565b506040516317046b0160e11b815273__$c60b12d58dd7f461ff4845dd59be76adc9$__90632e08d60290620001bb908490600401620004d2565b602060405180830381865af4158015620001d9573d6000803e3d6000fd5b505050506040513d601f19601f82011682018060405250810190620001ff919062000518565b60a052506200056e915050565b600080546001600160a01b038381166001600160a01b0319831681178455604051919092169283917f8be0079c531659141344cd1fd0a4f28419497f9722a3daafe3b4186f6b6457e09190a35050565b80516200027190600390602084019062000283565b5050565b6101418062005f5c83390190565b828054620002919062000532565b90600052602060002090601f016020900481019282620002b5576000855562000300565b82601f10620002d057805160ff191683800117855562000300565b8280016001018555821562000300579182015b8281111562000300578251825591602001919060010190620002e3565b506200030e92915062000312565b5090565b5b808211156200030e576000815560010162000313565b634e487b7160e01b600052604160045260246000fd5b80516001600160a01b03811681146200035757600080fd5b919050565b600080604083850312156200037057600080fd5b82516001600160401b03808211156200038857600080fd5b818501915085601f8301126200039d57600080fd5b815181811115620003b257620003b262000329565b604051601f8201601f19908116603f01168101908382118183101715620003dd57620003dd62000329565b81604052828152602093508884848701011115620003fa57600080fd5b600091505b828210156200041e5784820184015181830185015290830190620003ff565b82821115620004305760008484830101525b9550620004429150508582016200033f565b925050509250929050565b634e487b7160e01b600052601160045260246000fd5b60008160001904831182151516156200048057620004806200044d565b500290565b600082198211156200049b576200049b6200044d565b500190565b600060018201620004b557620004b56200044d565b5060010190565b634e487b7160e01b600052603260045260246000fd5b6020808252825182820181905260009190848201906040850190845b818110156200050c57835183529284019291840191600101620004ee565b50909695505050505050565b6000602082840312156200052b57600080fd5b5051919050565b600181811c908216806200054757607f821691505b6020821081036200056857634e487b7160e01b600052602260045260246000fd5b50919050565b60805160a0516159b3620005a96000396000818161054701526120f50152600081816105f801528181610ec7015261292d01526159b36000f3fe6080604052600436106103a15760003560e01c80638da5cb5b116101e7578063bf3724af1161010d578063d75203c3116100a0578063e985e9c51161006f578063e985e9c514610b60578063ed6a990414610ba9578063f242432a14610bc9578063f2fde38b14610be957600080fd5b8063d75203c314610aec578063d7b7913b14610b0c578063db0fff3714610b2c578063df2025dc14610b4b57600080fd5b8063c28cb1d4116100dc578063c28cb1d414610a6c578063c458324014610a7f578063c78de83814610a9f578063ca9eaf5914610abf57600080fd5b8063bf3724af146109f7578063c191764f14610a17578063c1a8f2c614610a37578063c27fc30514610a6457600080fd5b8063a481b0e411610185578063b1d8dd5611610154578063b1d8dd5614610975578063b33260a214610995578063bd8d97c0146109b5578063be9a6555146109e257600080fd5b8063a481b0e414610900578063a60463e414610920578063aa91c62e14610940578063abb6ae891461096057600080fd5b8063957aa58c116101c1578063957aa58c14610879578063964ef96b146108935780639799b4e7146108b3578063a22cb465146108e057600080fd5b80638da5cb5b14610833578063920f5c731461085157806393d1758c1461085957600080fd5b806341dd1ef8116102cc578063715018a61161026a57806381e0f90c1161023957806381e0f90c146107a657806383e9ff47146107c65780638729e5c1146107f35780638b1fe8de1461081357600080fd5b8063715018a614610714578063736c0d5b1461072957806376dd110f14610759578063787f485a1461078657600080fd5b806350a48d2e116102a657806350a48d2e14610694578063604f7523146106b45780636f0514c6146106d45780636f2ddd93146106f457600080fd5b806341dd1ef81461061a57806349b9dbe6146106475780634e1273f41461066757600080fd5b8063237b3bde116103445780632f4dc9da116103135780632f4dc9da146105695780633b5e60c2146105895780633d056172146105b95780633fc8cef3146105e657600080fd5b8063237b3bde146104bd5780632419217e146104dd5780632eb2c2d6146105155780632eb4a7ab1461053557600080fd5b80630c91cdbc116103805780630c91cdbc146104205780630e89341c1461045b578063100a818c146104885780631625d7fe146104a857600080fd5b8062fdd58e146103a657806301ffc9a7146103d957806307da68f514610409575b600080fd5b3480156103b257600080fd5b506103c66103c1366004614c01565b610c09565b6040519081526020015b60405180910390f35b3480156103e557600080fd5b506103f96103f4366004614c41565b610ca4565b60405190151581526020016103d0565b34801561041557600080fd5b5061041e610cf4565b005b34801561042c57600080fd5b506103f961043b366004614c01565b600760209081526000928352604080842090915290825290205460ff1681565b34801561046757600080fd5b5061047b610476366004614c5e565b610d08565b6040516103d09190614ccf565b34801561049457600080fd5b5061041e6104a3366004614ce2565b610d9c565b3480156104b457600080fd5b506103c6610f8e565b3480156104c957600080fd5b5061041e6104d8366004614ce2565b611071565b3480156104e957600080fd5b506104fd6104f8366004614c5e565b611241565b6040516001600160a01b0390911681526020016103d0565b34801561052157600080fd5b5061041e610530366004614e50565b61126b565b34801561054157600080fd5b506103c67f000000000000000000000000000000000000000000000000000000000000000081565b34801561057557600080fd5b5061041e610584366004614c5e565b6112b7565b34801561059557600080fd5b506103f96105a4366004614c5e565b600f6020526000908152604090205460ff1681565b3480156105c557600080fd5b506103c66105d4366004614c5e565b600e6020526000908152604090205481565b3480156105f257600080fd5b506104fd7f000000000000000000000000000000000000000000000000000000000000000081565b34801561062657600080fd5b506103c6610635366004614ce2565b60096020526000908152604090205481565b34801561065357600080fd5b5061041e610662366004614ef9565b61144b565b34801561067357600080fd5b50610687610682366004614f2c565b61160a565b6040516103d09190615031565b3480156106a057600080fd5b5061041e6106af366004614ce2565b611733565b3480156106c057600080fd5b5061041e6106cf366004614ce2565b611862565b3480156106e057600080fd5b5061041e6106ef36600461508c565b611996565b34801561070057600080fd5b506012546104fd906001600160a01b031681565b34801561072057600080fd5b5061041e611b11565b34801561073557600080fd5b506103f9610744366004614ce2565b600d6020526000908152604090205460ff1681565b34801561076557600080fd5b506103c6610774366004614ce2565b60066020526000908152604090205481565b34801561079257600080fd5b5061041e6107a13660046150e5565b611b25565b3480156107b257600080fd5b5061041e6107c1366004615121565b611c6a565b3480156107d257600080fd5b506103c66107e1366004614ce2565b600a6020526000908152604090205481565b3480156107ff57600080fd5b5061041e61080e366004615143565b611e0b565b34801561081f57600080fd5b5061041e61082e36600461518b565b611f3b565b34801561083f57600080fd5b506000546001600160a01b03166104fd565b61041e612188565b34801561086557600080fd5b5061041e610874366004614ce2565b61235e565b34801561088557600080fd5b506004546103f99060ff1681565b34801561089f57600080fd5b5061041e6108ae366004615216565b61248d565b3480156108bf57600080fd5b506103c66108ce366004614c5e565b60086020526000908152604090205481565b3480156108ec57600080fd5b5061041e6108fb366004615265565b6125e7565b34801561090c57600080fd5b5061041e61091b3660046150e5565b6125f2565b34801561092c57600080fd5b5061041e61093b366004614ce2565b6127f8565b34801561094c57600080fd5b5061041e61095b36600461529c565b6129ad565b34801561096c57600080fd5b5061041e612b00565b34801561098157600080fd5b5061041e6109903660046152b9565b612b19565b3480156109a157600080fd5b5061041e6109b0366004614c01565b612d35565b3480156109c157600080fd5b506103c66109d0366004614ce2565b60106020526000908152604090205481565b3480156109ee57600080fd5b5061041e612ebc565b348015610a0357600080fd5b5061041e610a12366004614c5e565b612ed3565b348015610a2357600080fd5b5061041e610a32366004614c01565b613078565b348015610a4357600080fd5b506103c6610a52366004614ce2565b600b6020526000908152604090205481565b61041e6131ba565b61041e610a7a366004614c5e565b613309565b348015610a8b57600080fd5b5061047b610a9a366004614ce2565b613594565b348015610aab57600080fd5b5061041e610aba3660046152f5565b61362e565b348015610acb57600080fd5b506103c6610ada366004614ce2565b600c6020526000908152604090205481565b348015610af857600080fd5b5061041e610b07366004615121565b6138e8565b348015610b1857600080fd5b5061041e610b27366004614c5e565b613a8c565b348015610b3857600080fd5b506004546103f990610100900460ff1681565b348015610b5757600080fd5b5061041e613bdf565b348015610b6c57600080fd5b506103f9610b7b366004614ef9565b6001600160a01b03918216600090815260026020908152604080832093909416825291909152205460ff1690565b348015610bb557600080fd5b5061041e610bc4366004614ce2565b613d37565b348015610bd557600080fd5b5061041e610be4366004615352565b613f6a565b348015610bf557600080fd5b5061041e610c04366004614ce2565b613faf565b60006001600160a01b038316610c795760405162461bcd60e51b815260206004820152602a60248201527f455243313135353a2061646472657373207a65726f206973206e6f742061207660448201526930b634b21037bbb732b960b11b60648201526084015b60405180910390fd5b5060008181526001602090815260408083206001600160a01b03861684529091529020545b92915050565b60006001600160e01b03198216636cdb3d1360e11b1480610cd557506001600160e01b031982166303a24d0760e21b145b80610c9e57506301ffc9a760e01b6001600160e01b0319831614610c9e565b610cfc614025565b6004805460ff19169055565b606060038054610d17906153b6565b80601f0160208091040260200160405190810160405280929190818152602001828054610d43906153b6565b8015610d905780601f10610d6557610100808354040283529160200191610d90565b820191906000526020600020905b815481529060010190602001808311610d7357829003601f168201915b50505050509050919050565b60045460ff16610dbe5760405162461bcd60e51b8152600401610c70906153f0565b3360009081526005602052604090208054610dd8906153b6565b159050610df75760405162461bcd60e51b8152600401610c7090615427565b600454610100900460ff1615610e3957601454610e1690612a30615474565b4210610e345760405162461bcd60e51b8152600401610c709061548c565b610e66565b601454610e4890611c20615474565b4210610e665760405162461bcd60e51b8152600401610c709061548c565b6001600160a01b0381166000908152600760209081526040808320601580855292529091205460ff1615610eac5760405162461bcd60e51b8152600401610c70906154b6565b6040516370a0823160e01b8152336004820152633b9aca00907f00000000000000000000000000000000000000000000000000000000000000006001600160a01b0316906370a0823190602401602060405180830381865afa158015610f16573d6000803e3d6000fd5b505050506040513d601f19601f82011682018060405250810190610f3a91906154ed565b11610f805760405162461bcd60e51b815260206004820152601660248201527562616c616e63652063616e6e6f74206265207a65726f60501b6044820152606401610c70565b610f8a818361407f565b5050565b60045460009060ff16610fb35760405162461bcd60e51b8152600401610c70906153f0565b3360009081526005602052604090208054610fcd906153b6565b159050610fec5760405162461bcd60e51b8152600401610c7090615427565b600454610100900460ff161561102e5760145461100b90612a30615474565b42106110295760405162461bcd60e51b8152600401610c709061548c565b61105b565b60145461103d90611c20615474565b421061105b5760405162461bcd60e51b8152600401610c709061548c565b33301461106757600080fd5b5063deadbeef5b90565b60045460ff166110935760405162461bcd60e51b8152600401610c70906153f0565b33600090815260056020526040902080546110ad906153b6565b1590506110cc5760405162461bcd60e51b8152600401610c7090615427565b600454610100900460ff161561110e576014546110eb90612a30615474565b42106111095760405162461bcd60e51b8152600401610c709061548c565b61113b565b60145461111d90611c20615474565b421061113b5760405162461bcd60e51b8152600401610c709061548c565b6001600160a01b0381166000908152600760209081526040808320601380855292529091205460ff16156111815760405162461bcd60e51b8152600401610c70906154b6565b6040516301ffc9a760e01b81526336372b0760e01b600482015233906301ffc9a790602401602060405180830381865afa1580156111c3573d6000803e3d6000fd5b505050506040513d601f19601f820116820180604052508101906111e79190615506565b610f805760405162461bcd60e51b815260206004820152602560248201527f6d73672073656e64657220646f6573206e6f7420737570706f727420696e7465604482015264726661636560d81b6064820152608401610c70565b6011818154811061125157600080fd5b6000918252602090912001546001600160a01b0316905081565b6001600160a01b03851633148061128757506112878533610b7b565b6112a35760405162461bcd60e51b8152600401610c7090615523565b6112b085858585856141a4565b5050505050565b60045460ff166112d95760405162461bcd60e51b8152600401610c70906153f0565b33600090815260056020526040902080546112f3906153b6565b1590506113125760405162461bcd60e51b8152600401610c7090615427565b600454610100900460ff16156113545760145461133190612a30615474565b421061134f5760405162461bcd60e51b8152600401610c709061548c565b611381565b60145461136390611c20615474565b42106113815760405162461bcd60e51b8152600401610c709061548c565b336000908152600760209081526040808320600f80855292529091205460ff16156113be5760405162461bcd60e51b8152600401610c70906154b6565b60408051446020820152016040516020818303038152906040528051906020012060001c82146114415760405162461bcd60e51b815260206004820152602860248201527f4469642049206d616b652074686973206368616c6c656e676520746f6f20646960448201526766666963756c743f60c01b6064820152608401610c70565b610f8a813361407f565b60045460ff1661146d5760405162461bcd60e51b8152600401610c70906153f0565b3360009081526005602052604090208054611487906153b6565b1590506114a65760405162461bcd60e51b8152600401610c7090615427565b600454610100900460ff16156114e8576014546114c590612a30615474565b42106114e35760405162461bcd60e51b8152600401610c709061548c565b611515565b6014546114f790611c20615474565b42106115155760405162461bcd60e51b8152600401610c709061548c565b6001600160a01b0381166000908152600760209081526040808320601480855292529091205460ff161561155b5760405162461bcd60e51b8152600401610c70906154b6565b60125460408051336020820152600092611597926001600160a01b0390911691016040516020818303038152906040528051906020012061437c565b9050806001600160a01b0316846001600160a01b0316146115fa5760405162461bcd60e51b815260206004820152601b60248201527f507265646963746564206164647265737320696e636f727265637400000000006044820152606401610c70565b611604828461407f565b50505050565b6060815183511461166f5760405162461bcd60e51b815260206004820152602960248201527f455243313135353a206163636f756e747320616e6420696473206c656e677468604482015268040dad2e6dac2e8c6d60bb1b6064820152608401610c70565b600083516001600160401b0381111561168a5761168a614cfd565b6040519080825280602002602001820160405280156116b3578160200160208202803683370190505b50905060005b845181101561172b576116fe8582815181106116d7576116d7615572565b60200260200101518583815181106116f1576116f1615572565b6020026020010151610c09565b82828151811061171057611710615572565b602090810291909101015261172481615588565b90506116b9565b509392505050565b60045460ff166117555760405162461bcd60e51b8152600401610c70906153f0565b336000908152600560205260409020805461176f906153b6565b15905061178e5760405162461bcd60e51b8152600401610c7090615427565b600454610100900460ff16156117d0576014546117ad90612a30615474565b42106117cb5760405162461bcd60e51b8152600401610c709061548c565b6117fd565b6014546117df90611c20615474565b42106117fd5760405162461bcd60e51b8152600401610c709061548c565b336000908152600760209081526040808320600480855292529091205460ff161561183a5760405162461bcd60e51b8152600401610c70906154b6565b6001600160a01b03821630146114415760405162461bcd60e51b8152600401610c70906155a1565b60045460ff166118845760405162461bcd60e51b8152600401610c70906153f0565b336000908152600560205260409020805461189e906153b6565b1590506118bd5760405162461bcd60e51b8152600401610c7090615427565b600454610100900460ff16156118ff576014546118dc90612a30615474565b42106118fa5760405162461bcd60e51b8152600401610c709061548c565b61192c565b60145461190e90611c20615474565b421061192c5760405162461bcd60e51b8152600401610c709061548c565b336000908152600760209081526040808320600680855292529091205460ff16156119695760405162461bcd60e51b8152600401610c70906154b6565b6000546001600160a01b038381169116146114415760405162461bcd60e51b8152600401610c70906155a1565b60045460ff166119b85760405162461bcd60e51b8152600401610c70906153f0565b33600090815260056020526040902080546119d2906153b6565b1590506119f15760405162461bcd60e51b8152600401610c7090615427565b600454610100900460ff1615611a3357601454611a1090612a30615474565b4210611a2e5760405162461bcd60e51b8152600401610c709061548c565b611a60565b601454611a4290611c20615474565b4210611a605760405162461bcd60e51b8152600401610c709061548c565b6001600160a01b0384166000908152600760209081526040808320601a80855292529091205460ff1615611aa65760405162461bcd60e51b8152600401610c70906154b6565b60008484604051611ab89291906155d8565b604051908190039020905033803b80611ad057600080fd5b328203611adc57600080fd5b828514611ae857600080fd5b80600080843c600020828114611afd57600080fd5b50611b08838861407f565b50505050505050565b611b19614025565b611b23600061441c565b565b60045460ff16611b475760405162461bcd60e51b8152600401610c70906153f0565b3360009081526005602052604090208054611b61906153b6565b159050611b805760405162461bcd60e51b8152600401610c7090615427565b600454610100900460ff1615611bc257601454611b9f90612a30615474565b4210611bbd5760405162461bcd60e51b8152600401610c709061548c565b611bef565b601454611bd190611c20615474565b4210611bef5760405162461bcd60e51b8152600401610c709061548c565b336000908152600760209081526040808320600980855292529091205460ff1615611c2c5760405162461bcd60e51b8152600401610c70906154b6565b6000356001600160e01b03191682604051602001611c4b9291906155e8565b6040516020818303038152906040529150815160201461144157600080fd5b60045460ff16611c8c5760405162461bcd60e51b8152600401610c70906153f0565b3360009081526005602052604090208054611ca6906153b6565b159050611cc55760405162461bcd60e51b8152600401610c7090615427565b600454610100900460ff1615611d0757601454611ce490612a30615474565b4210611d025760405162461bcd60e51b8152600401610c709061548c565b611d34565b601454611d1690611c20615474565b4210611d345760405162461bcd60e51b8152600401610c709061548c565b336000908152600760209081526040808320600b80855292529091205460ff1615611d715760405162461bcd60e51b8152600401610c70906154b6565b600083138015611d815750600082135b611dd75760405162461bcd60e51b815260206004820152602160248201527f4e756d62657273206d7573742062652067726561746572207468616e207a65726044820152606f60f81b6064820152608401610c70565b8282016009198112611dfb5760405162461bcd60e51b8152600401610c7090615619565b50611e06813361407f565b505050565b60045460ff16611e2d5760405162461bcd60e51b8152600401610c70906153f0565b3360009081526005602052604090208054611e47906153b6565b159050611e665760405162461bcd60e51b8152600401610c7090615427565b600454610100900460ff1615611ea857601454611e8590612a30615474565b4210611ea35760405162461bcd60e51b8152600401610c709061548c565b611ed5565b601454611eb790611c20615474565b4210611ed55760405162461bcd60e51b8152600401610c709061548c565b3360009081526005602090815260409091208251611ef592840190614b4c565b5050601180546001810182556000919091527f31ecc21a745e3968a04e9570e4425bc18fa8019c68028196b546d1669c200c680180546001600160a01b03191633179055565b60045460ff16611f5d5760405162461bcd60e51b8152600401610c70906153f0565b3360009081526005602052604090208054611f77906153b6565b159050611f965760405162461bcd60e51b8152600401610c7090615427565b600454610100900460ff1615611fd857601454611fb590612a30615474565b4210611fd35760405162461bcd60e51b8152600401610c709061548c565b612005565b601454611fe790611c20615474565b42106120055760405162461bcd60e51b8152600401610c709061548c565b6001600160a01b0384166000908152600760209081526040808320601780855292529091205460ff161561204b5760405162461bcd60e51b8152600401610c70906154b6565b6000828152600f602052604090205460ff16156120c05760405162461bcd60e51b815260206004820152602d60248201527f50726f6f66206f662074686973206c6561642068617320616c7265616479206260448201526c195959881cdd589b5a5d1d1959609a1b6064820152608401610c70565b6121208484808060200260200160405190810160405280939291908181526020018383602002808284376000920191909152507f0000000000000000000000000000000000000000000000000000000000000000925086915061446c9050565b6121655760405162461bcd60e51b815260206004820152601660248201527550726f6f6620636f756c64206e6f742076657269667960501b6044820152606401610c70565b6000828152600f60205260409020805460ff191660011790556112b0818661407f565b60045460ff166121aa5760405162461bcd60e51b8152600401610c70906153f0565b33600090815260056020526040902080546121c4906153b6565b1590506121e35760405162461bcd60e51b8152600401610c7090615427565b600454610100900460ff16156122255760145461220290612a30615474565b42106122205760405162461bcd60e51b8152600401610c709061548c565b612252565b60145461223490611c20615474565b42106122525760405162461bcd60e51b8152600401610c709061548c565b336000908152600760209081526040808320600d80855292529091205460ff161561228f5760405162461bcd60e51b8152600401610c70906154b6565b33600090815260096020526040902054600a10612351573360009081526009602052604081208054916122c183615588565b909155505060405160009033908281818181865af19150503d8060008114612305576040519150601f19603f3d011682016040523d82523d6000602084013e61230a565b606091505b505090508061234f5760405162461bcd60e51b81526020600482015260116024820152701d985b1d59481cd95b990819985a5b1959607a1b6044820152606401610c70565b505b61235b813361407f565b50565b60045460ff166123805760405162461bcd60e51b8152600401610c70906153f0565b336000908152600560205260409020805461239a906153b6565b1590506123b95760405162461bcd60e51b8152600401610c7090615427565b600454610100900460ff16156123fb576014546123d890612a30615474565b42106123f65760405162461bcd60e51b8152600401610c709061548c565b612428565b60145461240a90611c20615474565b42106124285760405162461bcd60e51b8152600401610c709061548c565b336000908152600760209081526040808320600580855292529091205460ff16156124655760405162461bcd60e51b8152600401610c70906154b6565b6001600160a01b03821633146114415760405162461bcd60e51b8152600401610c70906155a1565b60045460ff166124af5760405162461bcd60e51b8152600401610c70906153f0565b33600090815260056020526040902080546124c9906153b6565b1590506124e85760405162461bcd60e51b8152600401610c7090615427565b600454610100900460ff161561252a5760145461250790612a30615474565b42106125255760405162461bcd60e51b8152600401610c709061548c565b612557565b60145461253990611c20615474565b42106125575760405162461bcd60e51b8152600401610c709061548c565b336000908152600760209081526040808320600880855292529091205460ff16156125945760405162461bcd60e51b8152600401610c70906154b6565b602082146125dd5760405162461bcd60e51b8152602060048201526016602482015275696e76616c6964206c656e677468206f66206461746160501b6044820152606401610c70565b611e06813361407f565b610f8a338383614482565b60045460ff166126145760405162461bcd60e51b8152600401610c70906153f0565b336000908152600560205260409020805461262e906153b6565b15905061264d5760405162461bcd60e51b8152600401610c7090615427565b600454610100900460ff161561268f5760145461266c90612a30615474565b421061268a5760405162461bcd60e51b8152600401610c709061548c565b6126bc565b60145461269e90611c20615474565b42106126bc5760405162461bcd60e51b8152600401610c709061548c565b336000908152600760209081526040808320600c80855292529091205460ff16156126f95760405162461bcd60e51b8152600401610c70906154b6565b600080306001600160a01b0316846040516127149190615665565b6000604051808303816000865af19150503d8060008114612751576040519150601f19603f3d011682016040523d82523d6000602084013e612756565b606091505b5091509150816127b75760405162461bcd60e51b815260206004820152602660248201527f696e7465726e616c2066756e6374696f6e2063616c6c20646964206e6f7420736044820152651d58d8d9595960d21b6064820152608401610c70565b6040805163deadbeef602082015201604051602081830303815290604052805190602001208180519060200120146127ee57600080fd5b611604833361407f565b60045460ff1661281a5760405162461bcd60e51b8152600401610c70906153f0565b3360009081526005602052604090208054612834906153b6565b1590506128535760405162461bcd60e51b8152600401610c7090615427565b600454610100900460ff16156128955760145461287290612a30615474565b42106128905760405162461bcd60e51b8152600401610c709061548c565b6128c2565b6014546128a490611c20615474565b42106128c25760405162461bcd60e51b8152600401610c709061548c565b6001600160a01b0381166000908152600760209081526040808320601680855292529091205460ff16156129085760405162461bcd60e51b8152600401610c70906154b6565b6040516323b872dd60e01b8152336004820152306024820152633b9aca0060448201527f00000000000000000000000000000000000000000000000000000000000000006001600160a01b0316906323b872dd906064016020604051808303816000875af115801561297e573d6000803e3d6000fd5b505050506040513d601f19601f820116820180604052508101906129a29190615506565b50610f8a818361407f565b60045460ff166129cf5760405162461bcd60e51b8152600401610c70906153f0565b33600090815260056020526040902080546129e9906153b6565b159050612a085760405162461bcd60e51b8152600401610c7090615427565b600454610100900460ff1615612a4a57601454612a2790612a30615474565b4210612a455760405162461bcd60e51b8152600401610c709061548c565b612a77565b601454612a5990611c20615474565b4210612a775760405162461bcd60e51b8152600401610c709061548c565b33600090815260076020908152604080832083805290915281205460ff1615612ab25760405162461bcd60e51b8152600401610c70906154b6565b81156114415760405162461bcd60e51b815260206004820152601760248201527f696e636f727265637420626f6f6c65616e2076616c75650000000000000000006044820152606401610c70565b612b08614025565b6004805461ff001916610100179055565b60045460ff16612b3b5760405162461bcd60e51b8152600401610c70906153f0565b3360009081526005602052604090208054612b55906153b6565b159050612b745760405162461bcd60e51b8152600401610c7090615427565b600454610100900460ff1615612bb657601454612b9390612a30615474565b4210612bb15760405162461bcd60e51b8152600401610c709061548c565b612be3565b601454612bc590611c20615474565b4210612be35760405162461bcd60e51b8152600401610c709061548c565b6001600160a01b0381166000908152600760209081526040808320601280855292529091205460ff1615612c295760405162461bcd60e51b8152600401610c70906154b6565b333b15801590612c395750323314155b612c785760405162461bcd60e51b815260206004820152601060248201526f135d5cdd0818994818dbdb9d1c9858dd60821b6044820152606401610c70565b60008411612cde5760405162461bcd60e51b815260206004820152602d60248201527f6d7573742070726f76696465206e6f6e2d7a65726f20616d6f756e74206f662060448201526c119391951cc81d1bc81b5a5b9d609a1b6064820152608401610c70565b60408051336020820152600091016040516020818303038152906040528051906020012060001c9050612d2b84828760405180606001604052806030815260200161594e60309139614562565b6112b0828461407f565b60045460ff16612d575760405162461bcd60e51b8152600401610c70906153f0565b3360009081526005602052604090208054612d71906153b6565b159050612d905760405162461bcd60e51b8152600401610c7090615427565b600454610100900460ff1615612dd257601454612daf90612a30615474565b4210612dcd5760405162461bcd60e51b8152600401610c709061548c565b612dff565b601454612de190611c20615474565b4210612dff5760405162461bcd60e51b8152600401610c709061548c565b6001600160a01b0382166000908152600760209081526040808320601880855292529091205460ff1615612e455760405162461bcd60e51b8152600401610c70906154b6565b601860005260086020527f83ba890607818823e46eb1e5ed8f7282277ac60de8c863727688b48d92a8da6d54828114612eb25760405162461bcd60e51b815260206004820152600f60248201526e696e636f72726563742076616c756560881b6044820152606401610c70565b611604828561407f565b612ec4614025565b6004805460ff19166001179055565b60045460ff16612ef55760405162461bcd60e51b8152600401610c70906153f0565b3360009081526005602052604090208054612f0f906153b6565b159050612f2e5760405162461bcd60e51b8152600401610c7090615427565b600454610100900460ff1615612f7057601454612f4d90612a30615474565b4210612f6b5760405162461bcd60e51b8152600401610c709061548c565b612f9d565b601454612f7f90611c20615474565b4210612f9d5760405162461bcd60e51b8152600401610c709061548c565b336000908152600760209081526040808320600280855292529091205460ff1615612fda5760405162461bcd60e51b8152600401610c70906154b6565b6000823360405160200161300a92919091825260601b6bffffffffffffffffffffffff1916602082015260340190565b60408051601f198184030181529190528051602090910120905061302f600582615697565b1561306e5760405162461bcd60e51b815260206004820152600f60248201526e19dd595cdcc81a5b98dbdc9c9958dd608a1b6044820152606401610c70565b611e06823361407f565b60045460ff1661309a5760405162461bcd60e51b8152600401610c70906153f0565b33600090815260056020526040902080546130b4906153b6565b1590506130d35760405162461bcd60e51b8152600401610c7090615427565b600454610100900460ff1615613115576014546130f290612a30615474565b42106131105760405162461bcd60e51b8152600401610c709061548c565b613142565b60145461312490611c20615474565b42106131425760405162461bcd60e51b8152600401610c709061548c565b6001600160a01b0382166000908152600760209081526040808320601980855292529091205460ff16156131885760405162461bcd60e51b8152600401610c70906154b6565b60008381526006602052604090208054908390558290611450810182146131ae57600080fd5b5050611e06818461407f565b60045460ff166131dc5760405162461bcd60e51b8152600401610c70906153f0565b33600090815260056020526040902080546131f6906153b6565b1590506132155760405162461bcd60e51b8152600401610c7090615427565b600454610100900460ff16156132575760145461323490612a30615474565b42106132525760405162461bcd60e51b8152600401610c709061548c565b613284565b60145461326690611c20615474565b42106132845760405162461bcd60e51b8152600401610c709061548c565b336000908152600760209081526040808320600180855292529091205460ff16156132c15760405162461bcd60e51b8152600401610c70906154b6565b34600a146123515760405162461bcd60e51b8152602060048201526015602482015274496e76616c6964204d6573736167652056616c756560581b6044820152606401610c70565b60045460ff1661332b5760405162461bcd60e51b8152600401610c70906153f0565b3360009081526005602052604090208054613345906153b6565b1590506133645760405162461bcd60e51b8152600401610c7090615427565b600454610100900460ff16156133a65760145461338390612a30615474565b42106133a15760405162461bcd60e51b8152600401610c709061548c565b6133d3565b6014546133b590611c20615474565b42106133d35760405162461bcd60e51b8152600401610c709061548c565b336000908152600760209081526040808320600e80855292529091205460ff16156134105760405162461bcd60e51b8152600401610c70906154b6565b336000908152600c6020526040902054421161347c5760405162461bcd60e51b815260206004820152602560248201527f63616e6e6f7420706c6179206d756c7469706c652074696d657320696e2073616044820152640daca40e8f60db1b6064820152608401610c70565b604080514260208201526bffffffffffffffffffffffff193360601b169181019190915243605482015260009060740160408051601f198184030181529190528051602090910120905060006134d3600683615697565b905080841461354657336000908152600b6020526040808220919091555162461bcd60e51b8152610c709060040160208082526025908201527f476f74746120737465616c2074696d652066726f6d20746865206661756c747960408201526410383630b760d91b606082015260800190565b336000908152600b6020526040812080549161356183615588565b9091555050336000908152600c60209081526040808320429055600b90915290205460050361160457611604833361407f565b600560205260009081526040902080546135ad906153b6565b80601f01602080910402602001604051908101604052809291908181526020018280546135d9906153b6565b80156136265780601f106135fb57610100808354040283529160200191613626565b820191906000526020600020905b81548152906001019060200180831161360957829003601f168201915b505050505081565b60045460ff166136505760405162461bcd60e51b8152600401610c70906153f0565b336000908152600560205260409020805461366a906153b6565b1590506136895760405162461bcd60e51b8152600401610c7090615427565b600454610100900460ff16156136cb576014546136a890612a30615474565b42106136c65760405162461bcd60e51b8152600401610c709061548c565b6136f8565b6014546136da90611c20615474565b42106136f85760405162461bcd60e51b8152600401610c709061548c565b6001600160a01b0383166000908152600760209081526040808320601180855292529091205460ff161561373e5760405162461bcd60e51b8152600401610c70906154b6565b7f5c8aed31bcb9e9889970b4a7647843b7ab31487f575ba97a73c104aeacc53223600061376b828561466f565b90506001600160a01b0381166137cf5760405162461bcd60e51b8152602060048201526024808201527f6d75737420626520612076616c6964207369676e617475726520627920736f6d604482015263656f6e6560e01b6064820152608401610c70565b846001600160a01b0316816001600160a01b0316146138565760405162461bcd60e51b815260206004820152603960248201527f5369676e6572206f6620746865206d65737361676520646964206e6f74206d6160448201527f7463682061637475616c206d657373616765207369676e6572000000000000006064820152608401610c70565b6001600160a01b0381166000908152600d602052604090205460ff16156138b35760405162461bcd60e51b81526020600482015260116024820152704e4f205245504c41592041545441434b5360781b6044820152606401610c70565b6001600160a01b0381166000908152600d60205260409020805460ff191660011790556138e0838761407f565b505050505050565b60045460ff1661390a5760405162461bcd60e51b8152600401610c70906153f0565b3360009081526005602052604090208054613924906153b6565b1590506139435760405162461bcd60e51b8152600401610c7090615427565b600454610100900460ff16156139855760145461396290612a30615474565b42106139805760405162461bcd60e51b8152600401610c709061548c565b6139b2565b60145461399490611c20615474565b42106139b25760405162461bcd60e51b8152600401610c709061548c565b336000908152600760209081526040808320600a80855292529091205460ff16156139ef5760405162461bcd60e51b8152600401610c70906154b6565b6000831280156139ff5750600082135b613a695760405162461bcd60e51b815260206004820152603560248201527f6669727374206e756d626572206d757374206265206e6567617469766520616e6044820152746420326e64206e756d62657220706f73697469766560581b6064820152608401610c70565b818303600a8113611dfb5760405162461bcd60e51b8152600401610c7090615619565b60045460ff16613aae5760405162461bcd60e51b8152600401610c70906153f0565b3360009081526005602052604090208054613ac8906153b6565b159050613ae75760405162461bcd60e51b8152600401610c7090615427565b600454610100900460ff1615613b2957601454613b0690612a30615474565b4210613b245760405162461bcd60e51b8152600401610c709061548c565b613b56565b601454613b3890611c20615474565b4210613b565760405162461bcd60e51b8152600401610c709061548c565b336000908152600760209081526040808320600380855292529091205464098765432183189060ff1615613b9c5760405162461bcd60e51b8152600401610c70906154b6565b8063beefdead1461306e5760405162461bcd60e51b815260206004820152600d60248201526c125b9d985b1a5908125b9c1d5d609a1b6044820152606401610c70565b60045460ff16613c015760405162461bcd60e51b8152600401610c70906153f0565b3360009081526005602052604090208054613c1b906153b6565b159050613c3a5760405162461bcd60e51b8152600401610c7090615427565b600454610100900460ff1615613c7c57601454613c5990612a30615474565b4210613c775760405162461bcd60e51b8152600401610c709061548c565b613ca9565b601454613c8b90611c20615474565b4210613ca95760405162461bcd60e51b8152600401610c709061548c565b3360009081526007602081815260408084208385529091529091205460ff1615613ce55760405162461bcd60e51b8152600401610c70906154b6565b626a584c5a116123515760405162461bcd60e51b815260206004820152601b60248201527f6e6f7420656e6f7567682067617320666f722066756e6374696f6e00000000006044820152606401610c70565b60045460ff16613d595760405162461bcd60e51b8152600401610c70906153f0565b3360009081526005602052604090208054613d73906153b6565b159050613d925760405162461bcd60e51b8152600401610c7090615427565b600454610100900460ff1615613dd457601454613db190612a30615474565b4210613dcf5760405162461bcd60e51b8152600401610c709061548c565b613e01565b601454613de390611c20615474565b4210613e015760405162461bcd60e51b8152600401610c709061548c565b6001600160a01b0381166000908152600760209081526040808320601080855292529091205460ff1615613e475760405162461bcd60e51b8152600401610c70906154b6565b333b15613e965760405162461bcd60e51b815260206004820152601760248201527f4e6f20636f6e74726163747320746869732074696d65210000000000000000006044820152606401610c70565b6001600160a01b0382166000908152600a60205260408120549003610f80576001600160a01b0382166000908152600a60205260408120805491613ed983615588565b909155505060405160009033908281818181865af19150503d8060008114613f1d576040519150601f19603f3d011682016040523d82523d6000602084013e613f22565b606091505b50509050806129a25760405162461bcd60e51b8152602060048201526014602482015273195e1d195c9b985b0818d85b1b0819985a5b195960621b6044820152606401610c70565b6001600160a01b038516331480613f865750613f868533610b7b565b613fa25760405162461bcd60e51b8152600401610c7090615523565b6112b08585858585614746565b613fb7614025565b6001600160a01b03811661401c5760405162461bcd60e51b815260206004820152602660248201527f4f776e61626c653a206e6577206f776e657220697320746865207a65726f206160448201526564647265737360d01b6064820152608401610c70565b61235b8161441c565b6000546001600160a01b03163314611b235760405162461bcd60e51b815260206004820181905260248201527f4f776e61626c653a2063616c6c6572206973206e6f7420746865206f776e65726044820152606401610c70565b6000828152600e6020526040812080549161409983615588565b90915550506001600160a01b03811660009081526007602090815260408083208584529091529020805460ff1916600117905560198214614110576000828152600860209081526040808320546001600160a01b03851684526006909252822080549192909161410a908490615474565b90915550505b6000828152600e60205260408120549003614154576001600160a01b038116600090815260066020526040812080546005929061414e908490615474565b90915550505b6009821061418157600082815260086020526040812080546002929061417b9084906156ab565b90915550505b6000828152600e6020526040812080549161419b83615588565b91905055505050565b81518351146142065760405162461bcd60e51b815260206004820152602860248201527f455243313135353a2069647320616e6420616d6f756e7473206c656e677468206044820152670dad2e6dac2e8c6d60c31b6064820152608401610c70565b6001600160a01b03841661422c5760405162461bcd60e51b8152600401610c70906156bf565b3360005b845181101561431657600085828151811061424d5761424d615572565b60200260200101519050600085838151811061426b5761426b615572565b60209081029190910181015160008481526001835260408082206001600160a01b038e1683529093529190912054909150818110156142bc5760405162461bcd60e51b8152600401610c7090615704565b60008381526001602090815260408083206001600160a01b038e8116855292528083208585039055908b168252812080548492906142fb908490615474565b925050819055505050508061430f90615588565b9050614230565b50846001600160a01b0316866001600160a01b0316826001600160a01b03167f4a39dc06d4c0dbc64b70af90fd698a233a518aa5d07e595d983b8c0526c8f7fb878760405161436692919061574e565b60405180910390a46138e0818787878787614874565b6000604051733d602d80600a3d3981f3363d3d373d3d3d363d7360601b81528360601b60148201526e5af43d82803e903d91602b57fd5bf360881b6028820152826037826000f59150506001600160a01b038116610c9e5760405162461bcd60e51b815260206004820152601760248201527f455243313136373a2063726561746532206661696c65640000000000000000006044820152606401610c70565b600080546001600160a01b038381166001600160a01b0319831681178455604051919092169283917f8be0079c531659141344cd1fd0a4f28419497f9722a3daafe3b4186f6b6457e09190a35050565b60008261447985846149cf565b14949350505050565b816001600160a01b0316836001600160a01b0316036144f55760405162461bcd60e51b815260206004820152602960248201527f455243313135353a2073657474696e6720617070726f76616c20737461747573604482015268103337b91039b2b63360b91b6064820152608401610c70565b6001600160a01b03838116600081815260026020908152604080832094871680845294825291829020805460ff191686151590811790915591519182527f17307eab39ab6107e8899845ad3d59bd9653f200f220920489ca2b5937696c31910160405180910390a3505050565b6001600160a01b0384166145c25760405162461bcd60e51b815260206004820152602160248201527f455243313135353a206d696e7420746f20746865207a65726f206164647265736044820152607360f81b6064820152608401610c70565b3360006145ce85614a14565b905060006145db85614a14565b905060008681526001602090815260408083206001600160a01b038b1684529091528120805487929061460f908490615474565b909155505060408051878152602081018790526001600160a01b03808a1692600092918716917fc3d58168c5ae7397731d063d5bbf3d657854427343f4c083240f7aacaa2d0f62910160405180910390a4611b0883600089898989614a5f565b600080600080845160411461468a5760009350505050610c9e565b50505060208201516040830151606084015160001a601b8110156146b6576146b3601b8261577c565b90505b8060ff16601b141580156146ce57508060ff16601c14155b156146df5760009350505050610c9e565b60408051600081526020810180835288905260ff831691810191909152606081018490526080810183905260019060a0016020604051602081039080840390855afa158015614732573d6000803e3d6000fd5b505050602060405103519350505050610c9e565b6001600160a01b03841661476c5760405162461bcd60e51b8152600401610c70906156bf565b33600061477885614a14565b9050600061478585614a14565b905060008681526001602090815260408083206001600160a01b038c168452909152902054858110156147ca5760405162461bcd60e51b8152600401610c7090615704565b60008781526001602090815260408083206001600160a01b038d8116855292528083208985039055908a16825281208054889290614809908490615474565b909155505060408051888152602081018890526001600160a01b03808b16928c821692918816917fc3d58168c5ae7397731d063d5bbf3d657854427343f4c083240f7aacaa2d0f62910160405180910390a4614869848a8a8a8a8a614a5f565b505050505050505050565b6001600160a01b0384163b156138e05760405163bc197c8160e01b81526001600160a01b0385169063bc197c81906148b890899089908890889088906004016157a1565b6020604051808303816000875af19250505080156148f3575060408051601f3d908101601f191682019092526148f0918101906157ff565b60015b61499f576148ff61581c565b806308c379a0036149385750614913615837565b8061491e575061493a565b8060405162461bcd60e51b8152600401610c709190614ccf565b505b60405162461bcd60e51b815260206004820152603460248201527f455243313135353a207472616e7366657220746f206e6f6e20455243313135356044820152732932b1b2b4bb32b91034b6b83632b6b2b73a32b960611b6064820152608401610c70565b6001600160e01b0319811663bc197c8160e01b14611b085760405162461bcd60e51b8152600401610c70906158c0565b600081815b845181101561172b57614a00828683815181106149f3576149f3615572565b6020026020010151614b1a565b915080614a0c81615588565b9150506149d4565b60408051600180825281830190925260609160009190602080830190803683370190505090508281600081518110614a4e57614a4e615572565b602090810291909101015292915050565b6001600160a01b0384163b156138e05760405163f23a6e6160e01b81526001600160a01b0385169063f23a6e6190614aa39089908990889088908890600401615908565b6020604051808303816000875af1925050508015614ade575060408051601f3d908101601f19168201909252614adb918101906157ff565b60015b614aea576148ff61581c565b6001600160e01b0319811663f23a6e6160e01b14611b085760405162461bcd60e51b8152600401610c70906158c0565b6000818310614b36576000828152602084905260409020614b45565b60008381526020839052604090205b9392505050565b828054614b58906153b6565b90600052602060002090601f016020900481019282614b7a5760008555614bc0565b82601f10614b9357805160ff1916838001178555614bc0565b82800160010185558215614bc0579182015b82811115614bc0578251825591602001919060010190614ba5565b50614bcc929150614bd0565b5090565b5b80821115614bcc5760008155600101614bd1565b80356001600160a01b0381168114614bfc57600080fd5b919050565b60008060408385031215614c1457600080fd5b614c1d83614be5565b946020939093013593505050565b6001600160e01b03198116811461235b57600080fd5b600060208284031215614c5357600080fd5b8135614b4581614c2b565b600060208284031215614c7057600080fd5b5035919050565b60005b83811015614c92578181015183820152602001614c7a565b838111156116045750506000910152565b60008151808452614cbb816020860160208601614c77565b601f01601f19169290920160200192915050565b602081526000614b456020830184614ca3565b600060208284031215614cf457600080fd5b614b4582614be5565b634e487b7160e01b600052604160045260246000fd5b601f8201601f191681016001600160401b0381118282101715614d3857614d38614cfd565b6040525050565b60006001600160401b03821115614d5857614d58614cfd565b5060051b60200190565b600082601f830112614d7357600080fd5b81356020614d8082614d3f565b604051614d8d8282614d13565b83815260059390931b8501820192828101915086841115614dad57600080fd5b8286015b84811015614dc85780358352918301918301614db1565b509695505050505050565b60006001600160401b03831115614dec57614dec614cfd565b604051614e03601f8501601f191660200182614d13565b809150838152848484011115614e1857600080fd5b83836020830137600060208583010152509392505050565b600082601f830112614e4157600080fd5b614b4583833560208501614dd3565b600080600080600060a08688031215614e6857600080fd5b614e7186614be5565b9450614e7f60208701614be5565b935060408601356001600160401b0380821115614e9b57600080fd5b614ea789838a01614d62565b94506060880135915080821115614ebd57600080fd5b614ec989838a01614d62565b93506080880135915080821115614edf57600080fd5b50614eec88828901614e30565b9150509295509295909350565b60008060408385031215614f0c57600080fd5b614f1583614be5565b9150614f2360208401614be5565b90509250929050565b60008060408385031215614f3f57600080fd5b82356001600160401b0380821115614f5657600080fd5b818501915085601f830112614f6a57600080fd5b81356020614f7782614d3f565b604051614f848282614d13565b83815260059390931b8501820192828101915089841115614fa457600080fd5b948201945b83861015614fc957614fba86614be5565b82529482019490820190614fa9565b96505086013592505080821115614fdf57600080fd5b50614fec85828601614d62565b9150509250929050565b600081518084526020808501945080840160005b838110156150265781518752958201959082019060010161500a565b509495945050505050565b602081526000614b456020830184614ff6565b60008083601f84011261505657600080fd5b5081356001600160401b0381111561506d57600080fd5b60208301915083602082850101111561508557600080fd5b9250929050565b600080600080606085870312156150a257600080fd5b6150ab85614be5565b935060208501356001600160401b038111156150c657600080fd5b6150d287828801615044565b9598909750949560400135949350505050565b6000602082840312156150f757600080fd5b81356001600160401b0381111561510d57600080fd5b61511984828501614e30565b949350505050565b6000806040838503121561513457600080fd5b50508035926020909101359150565b60006020828403121561515557600080fd5b81356001600160401b0381111561516b57600080fd5b8201601f8101841361517c57600080fd5b61511984823560208401614dd3565b600080600080606085870312156151a157600080fd5b6151aa85614be5565b935060208501356001600160401b03808211156151c657600080fd5b818701915087601f8301126151da57600080fd5b8135818111156151e957600080fd5b8860208260051b85010111156151fe57600080fd5b95986020929092019750949560400135945092505050565b6000806020838503121561522957600080fd5b82356001600160401b0381111561523f57600080fd5b61524b85828601615044565b90969095509350505050565b801515811461235b57600080fd5b6000806040838503121561527857600080fd5b61528183614be5565b9150602083013561529181615257565b809150509250929050565b6000602082840312156152ae57600080fd5b8135614b4581615257565b6000806000606084860312156152ce57600080fd5b833592506152de60208501614be5565b91506152ec60408501614be5565b90509250925092565b60008060006060848603121561530a57600080fd5b61531384614be5565b925061532160208501614be5565b915060408401356001600160401b0381111561533c57600080fd5b61534886828701614e30565b9150509250925092565b600080600080600060a0868803121561536a57600080fd5b61537386614be5565b945061538160208701614be5565b9350604086013592506060860135915060808601356001600160401b038111156153aa57600080fd5b614eec88828901614e30565b600181811c908216806153ca57607f821691505b6020821081036153ea57634e487b7160e01b600052602260045260246000fd5b50919050565b6020808252601b908201527f4861636b6174686f6e206973206e6f7420696e2073657373696f6e0000000000604082015260600190565b60208082526017908201527f416c72656164792072656769737465726564207465616d000000000000000000604082015260600190565b634e487b7160e01b600052601160045260246000fd5b600082198211156154875761548761545e565b500190565b60208082526010908201526f151a5b59481a185cc8195e1c1a5c995960821b604082015260600190565b6020808252601f908201527f416c726561647920636f6d706c6574656420746869732066756e6374696f6e00604082015260600190565b6000602082840312156154ff57600080fd5b5051919050565b60006020828403121561551857600080fd5b8151614b4581615257565b6020808252602f908201527f455243313135353a2063616c6c6572206973206e6f7420746f6b656e206f776e60408201526e195c881b9bdc88185c1c1c9bdd9959608a1b606082015260800190565b634e487b7160e01b600052603260045260246000fd5b60006001820161559a5761559a61545e565b5060010190565b6020808252601c908201527f696e636f727265637420616464726573732e2074727920616761696e00000000604082015260600190565b8183823760009101908152919050565b6001600160e01b031983168152815160009061560b816004850160208701614c77565b919091016004019392505050565b6020808252602c908201527f446966666572656e6365206f66207468652074776f206d757374206265206d6f60408201526b7265207468616e207a65726f60a01b606082015260800190565b60008251615677818460208701614c77565b9190910192915050565b634e487b7160e01b600052601260045260246000fd5b6000826156a6576156a6615681565b500690565b6000826156ba576156ba615681565b500490565b60208082526025908201527f455243313135353a207472616e7366657220746f20746865207a65726f206164604082015264647265737360d81b606082015260800190565b6020808252602a908201527f455243313135353a20696e73756666696369656e742062616c616e636520666f60408201526939103a3930b739b332b960b11b606082015260800190565b6040815260006157616040830185614ff6565b82810360208401526157738185614ff6565b95945050505050565b600060ff821660ff84168060ff038211156157995761579961545e565b019392505050565b6001600160a01b0386811682528516602082015260a0604082018190526000906157cd90830186614ff6565b82810360608401526157df8186614ff6565b905082810360808401526157f38185614ca3565b98975050505050505050565b60006020828403121561581157600080fd5b8151614b4581614c2b565b600060033d111561106e5760046000803e5060005160e01c90565b600060443d10156158455790565b6040516003193d81016004833e81513d6001600160401b03816024840111818411171561587457505050505090565b828501915081518181111561588c5750505050505090565b843d87010160208285010111156158a65750505050505090565b6158b560208286010187614d13565b509095945050505050565b60208082526028908201527f455243313135353a204552433131353552656365697665722072656a656374656040820152676420746f6b656e7360c01b606082015260800190565b6001600160a01b03868116825285166020820152604081018490526060810183905260a06080820181905260009061594290830184614ca3565b97965050505050505056fe736574207468652067656172736869667420666f722074686520686967682067656172206f6620796f757220736f756ca264697066735822122048ded0889dcff0ebd5453bf11228c1d41422dea9608bc82b28148237afbefe2264736f6c634300080d0033608060405234801561001057600080fd5b50610121806100206000396000f3fe6080604052348015600f57600080fd5b506004361060285760003560e01c8063d1f5d67014602d575b600080fd5b60336047565b604051603e91906063565b60405180910390f35b6040518060600160405280603681526020016100b66036913981565b600060208083528351808285015260005b81811015608e578581018301518582016040015282016074565b81811115609f576000604083870101525b50601f01601f191692909201604001939250505056fe62657420796f752063616e2774206775657373206d792061646472657373206265666f726520696d206576656e206465706c6f796564a264697066735822122072c65c99710035bf3dea2f2e5c20c0eeb8f44cb8663f37feb97306abd3850c5e64736f6c634300080d0033",
    "linkReferences": {
      "contracts/MerkleTree.sol": {
        "merkleTree": [
          {
            "start": 401,
            "length": 20
          }
        ]
      }
    }
  },
  "methodIdentifiers": {
    "balanceOf(address,uint256)": "00fdd58e",
    "balanceOfBatch(address[],uint256[])": "4e1273f4",
    "diceRollLastWin(address)": "ca9eaf59",
    "diceRollWins(address)": "c1a8f2c6",
    "entryCount(address)": "41dd1ef8",
    "extendTime()": "abb6ae89",
    "f0(bool)": "aa91c62e",
    "f1()": "c27fc305",
    "f10(int256,int256)": "d75203c3",
    "f11(int256,int256)": "81e0f90c",
    "f12(bytes)": "a481b0e4",
    "f13()": "920f5c73",
    "f14(uint256)": "c28cb1d4",
    "f15(uint256)": "2f4dc9da",
    "f16(address)": "ed6a9904",
    "f17(address,address,bytes)": "c78de838",
    "f18(uint256,address,address)": "b1d8dd56",
    "f19(address)": "237b3bde",
    "f2(uint256)": "bf3724af",
    "f20(address,address)": "49b9dbe6",
    "f21(address)": "100a818c",
    "f22(address)": "a60463e4",
    "f23(address,bytes32[],bytes32)": "8b1fe8de",
    "f24(address,uint256)": "b33260a2",
    "f25(address,uint256)": "c191764f",
    "f26(address,bytes,bytes32)": "6f0514c6",
    "f3(uint256)": "d7b7913b",
    "f4(address)": "50a48d2e",
    "f5(address)": "93d1758c",
    "f6(address)": "604f7523",
    "f7()": "df2025dc",
    "f8(bytes)": "964ef96b",
    "f9(bytes)": "787f485a",
    "internalChallengeHook()": "1625d7fe",
    "isApprovedForAll(address,address)": "e985e9c5",
    "live()": "957aa58c",
    "merkleRoot()": "2eb4a7ab",
    "owner()": "8da5cb5b",
    "points(uint256)": "9799b4e7",
    "progress(address,uint256)": "0c91cdbc",
    "registerTeam(string)": "8729e5c1",
    "renounceOwnership()": "715018a6",
    "safeBatchTransferFrom(address,address,uint256[],uint256[],bytes)": "2eb2c2d6",
    "safeTransferFrom(address,address,uint256,uint256,bytes)": "f242432a",
    "scores(address)": "76dd110f",
    "secondEntryCount(address)": "83e9ff47",
    "setApprovalForAll(address,bool)": "a22cb465",
    "signers(address)": "736c0d5b",
    "solves(uint256)": "3d056172",
    "start()": "be9a6555",
    "stop()": "07da68f5",
    "supportsInterface(bytes4)": "01ffc9a7",
    "teamAddresses(uint256)": "2419217e",
    "teams(address)": "c4583240",
    "template()": "6f2ddd93",
    "timeExtended()": "db0fff37",
    "totallyLegitMapping(address)": "bd8d97c0",
    "transferOwnership(address)": "f2fde38b",
    "uri(uint256)": "0e89341c",
    "usedLeaves(bytes32)": "3b5e60c2",
    "weth()": "3fc8cef3"
  },
  "id": 0
}