{
  "abi": [
    {
      "inputs": [],
      "stateMutability": "nonpayable",
      "type": "constructor"
    },
    {
      "anonymous": false,
      "inputs": [
        {
          "indexed": true,
          "internalType": "address",
          "name": "previousOwner",
          "type": "address"
        },
        {
          "indexed": true,
          "internalType": "address",
          "name": "newOwner",
          "type": "address"
        }
      ],
      "name": "OwnershipTransferred",
      "type": "event"
    },
    {
      "inputs": [
        {
          "internalType": "bool",
          "name": "val",
          "type": "bool"
        }
      ],
      "name": "f0",
      "outputs": [],
      "stateMutability": "nonpayable",
      "type": "function"
    },
    {
      "inputs": [
        {
          "internalType": "uint256",
          "name": "val",
          "type": "uint256"
        }
      ],
      "name": "f1",
      "outputs": [],
      "stateMutability": "nonpayable",
      "type": "function"
    },
    {
      "inputs": [
        {
          "internalType": "int256",
          "name": "num1",
          "type": "int256"
        },
        {
          "internalType": "int256",
          "name": "num2",
          "type": "int256"
        }
      ],
      "name": "f10",
      "outputs": [],
      "stateMutability": "nonpayable",
      "type": "function"
    },
    {
      "inputs": [
        {
          "internalType": "int256",
          "name": "num1",
          "type": "int256"
        },
        {
          "internalType": "int256",
          "name": "num2",
          "type": "int256"
        }
      ],
      "name": "f11",
      "outputs": [],
      "stateMutability": "nonpayable",
      "type": "function"
    },
    {
      "inputs": [
        {
          "internalType": "bytes",
          "name": "data",
          "type": "bytes"
        }
      ],
      "name": "f12",
      "outputs": [],
      "stateMutability": "nonpayable",
      "type": "function"
    },
    {
      "inputs": [],
      "name": "f2",
      "outputs": [],
      "stateMutability": "payable",
      "type": "function"
    },
    {
      "inputs": [
        {
          "internalType": "uint256",
          "name": "data",
          "type": "uint256"
        }
      ],
      "name": "f3",
      "outputs": [],
      "stateMutability": "nonpayable",
      "type": "function"
    },
    {
      "inputs": [
        {
          "internalType": "address",
          "name": "destAddr",
          "type": "address"
        }
      ],
      "name": "f4",
      "outputs": [],
      "stateMutability": "nonpayable",
      "type": "function"
    },
    {
      "inputs": [
        {
          "internalType": "address",
          "name": "destAddr",
          "type": "address"
        }
      ],
      "name": "f5",
      "outputs": [],
      "stateMutability": "nonpayable",
      "type": "function"
    },
    {
      "inputs": [
        {
          "internalType": "address",
          "name": "destAddr",
          "type": "address"
        }
      ],
      "name": "f6",
      "outputs": [],
      "stateMutability": "nonpayable",
      "type": "function"
    },
    {
      "inputs": [],
      "name": "f7",
      "outputs": [],
      "stateMutability": "nonpayable",
      "type": "function"
    },
    {
      "inputs": [
        {
          "internalType": "bytes",
          "name": "data",
          "type": "bytes"
        }
      ],
      "name": "f8",
      "outputs": [],
      "stateMutability": "nonpayable",
      "type": "function"
    },
    {
      "inputs": [
        {
          "internalType": "bytes",
          "name": "data",
          "type": "bytes"
        }
      ],
      "name": "f9",
      "outputs": [],
      "stateMutability": "nonpayable",
      "type": "function"
    },
    {
      "inputs": [],
      "name": "live",
      "outputs": [
        {
          "internalType": "bool",
          "name": "",
          "type": "bool"
        }
      ],
      "stateMutability": "view",
      "type": "function"
    },
    {
      "inputs": [],
      "name": "owner",
      "outputs": [
        {
          "internalType": "address",
          "name": "",
          "type": "address"
        }
      ],
      "stateMutability": "view",
      "type": "function"
    },
    {
      "inputs": [
        {
          "internalType": "uint256",
          "name": "",
          "type": "uint256"
        }
      ],
      "name": "points",
      "outputs": [
        {
          "internalType": "uint256",
          "name": "",
          "type": "uint256"
        }
      ],
      "stateMutability": "view",
      "type": "function"
    },
    {
      "inputs": [
        {
          "internalType": "address",
          "name": "",
          "type": "address"
        },
        {
          "internalType": "uint256",
          "name": "",
          "type": "uint256"
        }
      ],
      "name": "progress",
      "outputs": [
        {
          "internalType": "uint256",
          "name": "",
          "type": "uint256"
        }
      ],
      "stateMutability": "view",
      "type": "function"
    },
    {
      "inputs": [
        {
          "internalType": "string",
          "name": "team",
          "type": "string"
        }
      ],
      "name": "registerTeam",
      "outputs": [],
      "stateMutability": "nonpayable",
      "type": "function"
    },
    {
      "inputs": [],
      "name": "renounceOwnership",
      "outputs": [],
      "stateMutability": "nonpayable",
      "type": "function"
    },
    {
      "inputs": [
        {
          "internalType": "address",
          "name": "",
          "type": "address"
        }
      ],
      "name": "scores",
      "outputs": [
        {
          "internalType": "uint256",
          "name": "",
          "type": "uint256"
        }
      ],
      "stateMutability": "view",
      "type": "function"
    },
    {
      "inputs": [],
      "name": "start",
      "outputs": [],
      "stateMutability": "nonpayable",
      "type": "function"
    },
    {
      "inputs": [],
      "name": "stop",
      "outputs": [],
      "stateMutability": "nonpayable",
      "type": "function"
    },
    {
      "inputs": [
        {
          "internalType": "address",
          "name": "",
          "type": "address"
        }
      ],
      "name": "teams",
      "outputs": [
        {
          "internalType": "string",
          "name": "",
          "type": "string"
        }
      ],
      "stateMutability": "view",
      "type": "function"
    },
    {
      "inputs": [
        {
          "internalType": "address",
          "name": "newOwner",
          "type": "address"
        }
      ],
      "name": "transferOwnership",
      "outputs": [],
      "stateMutability": "nonpayable",
      "type": "function"
    }
  ],
  "bytecode": {
    "object": "0x60c060405260016080908152600260a0819052620000209160049162000090565b503480156200002e57600080fd5b506200003a3362000040565b620000ef565b600080546001600160a01b038381166001600160a01b0319831681178455604051919092169283917f8be0079c531659141344cd1fd0a4f28419497f9722a3daafe3b4186f6b6457e09190a35050565b8260028101928215620000c6579160200282015b82811115620000c6578251829060ff16905591602001919060010190620000a4565b50620000d4929150620000d8565b5090565b5b80821115620000d45760008155600101620000d9565b611c2d80620000ff6000396000f3fe60806040526004361061014b5760003560e01c8063964ef96b116100b6578063be9a65551161006f578063be9a65551461039d578063c4583240146103b2578063d75203c3146103df578063d7b7913b146103ff578063df2025dc1461041f578063f2fde38b1461043457600080fd5b8063964ef96b146102f55780639799b4e7146103155780639942ec6f146103355780639adbf6911461033d578063a481b0e41461035d578063aa91c62e1461037d57600080fd5b8063787f485a11610108578063787f485a1461021c57806381e0f90c1461023c5780638729e5c11461025c5780638da5cb5b1461027c57806393d1758c146102a4578063957aa58c146102c457600080fd5b806307da68f5146101505780630c91cdbc1461016757806350a48d2e1461019a578063604f7523146101ba578063715018a6146101da57806376dd110f146101ef575b600080fd5b34801561015c57600080fd5b50610165610454565b005b34801561017357600080fd5b506101876101823660046116b1565b61046b565b6040519081526020015b60405180910390f35b3480156101a657600080fd5b506101656101b53660046116db565b610490565b3480156101c657600080fd5b506101656101d53660046116db565b6105de565b3480156101e657600080fd5b506101656106c6565b3480156101fb57600080fd5b5061018761020a3660046116db565b60026020526000908152604090205481565b34801561022857600080fd5b506101656102373660046116fd565b6106da565b34801561024857600080fd5b5061016561025736600461176f565b610841565b34801561026857600080fd5b506101656102773660046117a7565b61099f565b34801561028857600080fd5b506000546040516001600160a01b039091168152602001610191565b3480156102b057600080fd5b506101656102bf3660046116db565b610a3d565b3480156102d057600080fd5b506000546102e590600160a01b900460ff1681565b6040519015158152602001610191565b34801561030157600080fd5b506101656103103660046116fd565b610b20565b34801561032157600080fd5b50610187610330366004611858565b610c24565b610165610c3b565b34801561034957600080fd5b50610165610358366004611858565b610d9f565b34801561036957600080fd5b506101656103783660046116fd565b610ed1565b34801561038957600080fd5b50610165610398366004611871565b611074565b3480156103a957600080fd5b5061016561114a565b3480156103be57600080fd5b506103d26103cd3660046116db565b611167565b6040516101919190611893565b3480156103eb57600080fd5b506101656103fa36600461176f565b611201565b34801561040b57600080fd5b5061016561041a366004611858565b61133b565b34801561042b57600080fd5b50610165611465565b34801561044057600080fd5b5061016561044f3660046116db565b611572565b61045c6115eb565b6000805460ff60a01b19169055565b6003602052816000526040600020816002811061048757600080fd5b01549150829050565b600054600160a01b900460ff166104c25760405162461bcd60e51b81526004016104b9906118e1565b60405180910390fd5b33600090815260016020526040902080546104dc90611918565b1590506104fb5760405162461bcd60e51b81526004016104b990611952565b333b1561051a5760405162461bcd60e51b81526004016104b990611989565b336000908152600360205260409020600490816105356119c0565b0154156105545760405162461bcd60e51b81526004016104b9906119d6565b6001600160a01b038216301461057c5760405162461bcd60e51b81526004016104b990611a0d565b336000908152600360205260409020600190826002811061059f5761059f6119c0565b0155600481600281106105b4576105b46119c0565b015433600090815260026020526040812080549091906105d5908490611a44565b90915550505050565b600054600160a01b900460ff166106075760405162461bcd60e51b81526004016104b9906118e1565b336000908152600160205260409020805461062190611918565b1590506106405760405162461bcd60e51b81526004016104b990611952565b333b1561065f5760405162461bcd60e51b81526004016104b990611989565b3360009081526003602052604090206006908161067a6119c0565b0154156106995760405162461bcd60e51b81526004016104b9906119d6565b6000546001600160a01b0383811691161461057c5760405162461bcd60e51b81526004016104b990611a0d565b6106ce6115eb565b6106d86000611645565b565b600054600160a01b900460ff166107035760405162461bcd60e51b81526004016104b9906118e1565b336000908152600160205260409020805461071d90611918565b15905061073c5760405162461bcd60e51b81526004016104b990611952565b333b1561075b5760405162461bcd60e51b81526004016104b990611989565b336000908152600360205260409020600990816107766119c0565b0154156107955760405162461bcd60e51b81526004016104b9906119d6565b601036146107de5760405162461bcd60e51b8152602060048201526016602482015275696e76616c6964206c656e677468206f66206461746160501b60448201526064016104b9565b3360009081526003602052604090206001908260028110610801576108016119c0565b015560048160028110610816576108166119c0565b01543360009081526002602052604081208054909190610837908490611a44565b9091555050505050565b600054600160a01b900460ff1661086a5760405162461bcd60e51b81526004016104b9906118e1565b336000908152600160205260409020805461088490611918565b1590506108a35760405162461bcd60e51b81526004016104b990611952565b333b156108c25760405162461bcd60e51b81526004016104b990611989565b336000908152600360205260409020600b90816108dd6119c0565b0154156108fc5760405162461bcd60e51b81526004016104b9906119d6565b60008313801561090c5750600082135b6109585760405162461bcd60e51b815260206004820152601e60248201527f4e756d62657273206d757374206265206c657373207468616e207a65726f000060448201526064016104b9565b8282016000811261097b5760405162461bcd60e51b81526004016104b990611a6b565b503360009081526003602052604090206001908260028110610801576108016119c0565b600054600160a01b900460ff166109c85760405162461bcd60e51b81526004016104b9906118e1565b33600090815260016020526040902080546109e290611918565b159050610a015760405162461bcd60e51b81526004016104b990611952565b333b15610a205760405162461bcd60e51b81526004016104b990611989565b336000908152600160205260409020610a398282611b05565b5050565b600054600160a01b900460ff16610a665760405162461bcd60e51b81526004016104b9906118e1565b3360009081526001602052604090208054610a8090611918565b159050610a9f5760405162461bcd60e51b81526004016104b990611952565b333b15610abe5760405162461bcd60e51b81526004016104b990611989565b33600090815260036020526040902060059081610ad96119c0565b015415610af85760405162461bcd60e51b81526004016104b9906119d6565b6001600160a01b038216331461057c5760405162461bcd60e51b81526004016104b990611a0d565b600054600160a01b900460ff16610b495760405162461bcd60e51b81526004016104b9906118e1565b3360009081526001602052604090208054610b6390611918565b159050610b825760405162461bcd60e51b81526004016104b990611952565b333b15610ba15760405162461bcd60e51b81526004016104b990611989565b33600090815260036020526040902060089081610bbc6119c0565b015415610bdb5760405162461bcd60e51b81526004016104b9906119d6565b601082146107de5760405162461bcd60e51b8152602060048201526016602482015275696e76616c6964206c656e677468206f66206461746160501b60448201526064016104b9565b60048160028110610c3457600080fd5b0154905081565b600054600160a01b900460ff16610c645760405162461bcd60e51b81526004016104b9906118e1565b3360009081526001602052604090208054610c7e90611918565b159050610c9d5760405162461bcd60e51b81526004016104b990611952565b333b15610cbc5760405162461bcd60e51b81526004016104b990611989565b33600090815260036020526040902060029081610cd76119c0565b015415610cf65760405162461bcd60e51b81526004016104b9906119d6565b34600114610d3e5760405162461bcd60e51b8152602060048201526015602482015274496e76616c6964204d6573736167652056616c756560581b60448201526064016104b9565b3360009081526003602052604090206001908260028110610d6157610d616119c0565b015560048160028110610d7657610d766119c0565b01543360009081526002602052604081208054909190610d97908490611a44565b909155505050565b600054600160a01b900460ff16610dc85760405162461bcd60e51b81526004016104b9906118e1565b3360009081526001602052604090208054610de290611918565b159050610e015760405162461bcd60e51b81526004016104b990611952565b333b15610e205760405162461bcd60e51b81526004016104b990611989565b33600090815260036020526040902060019081015415610e525760405162461bcd60e51b81526004016104b9906119d6565b600082604051602001610e6791815260200190565b60408051601f1981840301815291905280516020909101209050610e8d61019482611bc5565b600003610ecc573360009081526003602052604090206001908360028110610eb757610eb76119c0565b015560048260028110610816576108166119c0565b505050565b600054600160a01b900460ff16610efa5760405162461bcd60e51b81526004016104b9906118e1565b3360009081526001602052604090208054610f1490611918565b159050610f335760405162461bcd60e51b81526004016104b990611952565b333b15610f525760405162461bcd60e51b81526004016104b990611989565b604051600d9060009081903090610f6c9087908790611be7565b6000604051808303816000865af19150503d8060008114610fa9576040519150601f19603f3d011682016040523d82523d6000602084013e610fae565b606091505b50915091508161100f5760405162461bcd60e51b815260206004820152602660248201527f696e7465726e616c2066756e6374696f6e2063616c6c20646964206e6f7420736044820152651d58d8d9595960d21b60648201526084016104b9565b3360009081526003602052604090206001908460028110611032576110326119c0565b015560048360028110611047576110476119c0565b01543360009081526002602052604081208054909190611068908490611a44565b90915550505050505050565b600054600160a01b900460ff1661109d5760405162461bcd60e51b81526004016104b9906118e1565b33600090815260016020526040902080546110b790611918565b1590506110d65760405162461bcd60e51b81526004016104b990611952565b333b156110f55760405162461bcd60e51b81526004016104b990611989565b33600090815260036020526040812054156111225760405162461bcd60e51b81526004016104b9906119d6565b81610a3957336000908152600360205260409020600190826002811061059f5761059f6119c0565b6111526115eb565b6000805460ff60a01b1916600160a01b179055565b6001602052600090815260409020805461118090611918565b80601f01602080910402602001604051908101604052809291908181526020018280546111ac90611918565b80156111f95780601f106111ce576101008083540402835291602001916111f9565b820191906000526020600020905b8154815290600101906020018083116111dc57829003601f168201915b505050505081565b600054600160a01b900460ff1661122a5760405162461bcd60e51b81526004016104b9906118e1565b336000908152600160205260409020805461124490611918565b1590506112635760405162461bcd60e51b81526004016104b990611952565b333b156112825760405162461bcd60e51b81526004016104b990611989565b336000908152600360205260409020600a908161129d6119c0565b0154156112bc5760405162461bcd60e51b81526004016104b9906119d6565b6000831280156112cc5750600082125b6113185760405162461bcd60e51b815260206004820152601e60248201527f4e756d62657273206d757374206265206c657373207468616e207a65726f000060448201526064016104b9565b8183036000811361097b5760405162461bcd60e51b81526004016104b990611a6b565b600054600160a01b900460ff166113645760405162461bcd60e51b81526004016104b9906118e1565b336000908152600160205260409020805461137e90611918565b15905061139d5760405162461bcd60e51b81526004016104b990611952565b333b156113bc5760405162461bcd60e51b81526004016104b990611989565b336000908152600360208190526040909120640123456789831890826113e06119c0565b0154156113ff5760405162461bcd60e51b81526004016104b9906119d6565b8063deadbeef146114425760405162461bcd60e51b815260206004820152600d60248201526c125b9d985b1a5908125b9c1d5d609a1b60448201526064016104b9565b3360009081526003602052604090206001908360028110610eb757610eb76119c0565b600054600160a01b900460ff1661148e5760405162461bcd60e51b81526004016104b9906118e1565b33600090815260016020526040902080546114a890611918565b1590506114c75760405162461bcd60e51b81526004016104b990611952565b333b156114e65760405162461bcd60e51b81526004016104b990611989565b336000908152600360205260409020600790816115016119c0565b0154156115205760405162461bcd60e51b81526004016104b9906119d6565b624c4b405a11610d3e5760405162461bcd60e51b815260206004820152601b60248201527f6e6f7420656e6f7567682067617320666f722066756e6374696f6e000000000060448201526064016104b9565b61157a6115eb565b6001600160a01b0381166115df5760405162461bcd60e51b815260206004820152602660248201527f4f776e61626c653a206e6577206f776e657220697320746865207a65726f206160448201526564647265737360d01b60648201526084016104b9565b6115e881611645565b50565b6000546001600160a01b031633146106d85760405162461bcd60e51b815260206004820181905260248201527f4f776e61626c653a2063616c6c6572206973206e6f7420746865206f776e657260448201526064016104b9565b600080546001600160a01b038381166001600160a01b0319831681178455604051919092169283917f8be0079c531659141344cd1fd0a4f28419497f9722a3daafe3b4186f6b6457e09190a35050565b80356001600160a01b03811681146116ac57600080fd5b919050565b600080604083850312156116c457600080fd5b6116cd83611695565b946020939093013593505050565b6000602082840312156116ed57600080fd5b6116f682611695565b9392505050565b6000806020838503121561171057600080fd5b823567ffffffffffffffff8082111561172857600080fd5b818501915085601f83011261173c57600080fd5b81358181111561174b57600080fd5b86602082850101111561175d57600080fd5b60209290920196919550909350505050565b6000806040838503121561178257600080fd5b50508035926020909101359150565b634e487b7160e01b600052604160045260246000fd5b6000602082840312156117b957600080fd5b813567ffffffffffffffff808211156117d157600080fd5b818401915084601f8301126117e557600080fd5b8135818111156117f7576117f7611791565b604051601f8201601f19908116603f0116810190838211818310171561181f5761181f611791565b8160405282815287602084870101111561183857600080fd5b826020860160208301376000928101602001929092525095945050505050565b60006020828403121561186a57600080fd5b5035919050565b60006020828403121561188357600080fd5b813580151581146116f657600080fd5b600060208083528351808285015260005b818110156118c0578581018301518582016040015282016118a4565b506000604082860101526040601f19601f8301168501019250505092915050565b6020808252601b908201527f4861636b6174686f6e206973206e6f7420696e2073657373696f6e0000000000604082015260600190565b600181811c9082168061192c57607f821691505b60208210810361194c57634e487b7160e01b600052602260045260246000fd5b50919050565b60208082526017908201527f416c72656164792072656769737465726564207465616d000000000000000000604082015260600190565b6020808252601f908201527f454f412773204f6e6c7920666f72207468697320636f646520737072696e7400604082015260600190565b634e487b7160e01b600052603260045260246000fd5b6020808252601f908201527f416c726561647920636f6d706c6574656420746869732066756e6374696f6e00604082015260600190565b6020808252601c908201527f696e636f727265637420616464726573732e2074727920616761696e00000000604082015260600190565b80820180821115611a6557634e487b7160e01b600052601160045260246000fd5b92915050565b6020808252602c908201527f446966666572656e6365206f66207468652074776f206d757374206265206d6f60408201526b7265207468616e207a65726f60a01b606082015260800190565b601f821115610ecc57600081815260208120601f850160051c81016020861015611ade5750805b601f850160051c820191505b81811015611afd57828155600101611aea565b505050505050565b815167ffffffffffffffff811115611b1f57611b1f611791565b611b3381611b2d8454611918565b84611ab7565b602080601f831160018114611b685760008415611b505750858301515b600019600386901b1c1916600185901b178555611afd565b600085815260208120601f198616915b82811015611b9757888601518255948401946001909101908401611b78565b5085821015611bb55787850151600019600388901b60f8161c191681555b5050505050600190811b01905550565b600082611be257634e487b7160e01b600052601260045260246000fd5b500690565b818382376000910190815291905056fea2646970667358221220dd9b340067e47a80a8ae7170247aedee5732f9f8b0eaff1bd23e309d3090c2d164736f6c63430008100033",
    "linkReferences": {}
  },
  "methodIdentifiers": {
    "f0(bool)": "aa91c62e",
    "f1(uint256)": "9adbf691",
    "f10(int256,int256)": "d75203c3",
    "f11(int256,int256)": "81e0f90c",
    "f12(bytes)": "a481b0e4",
    "f2()": "9942ec6f",
    "f3(uint256)": "d7b7913b",
    "f4(address)": "50a48d2e",
    "f5(address)": "93d1758c",
    "f6(address)": "604f7523",
    "f7()": "df2025dc",
    "f8(bytes)": "964ef96b",
    "f9(bytes)": "787f485a",
    "live()": "957aa58c",
    "owner()": "8da5cb5b",
    "points(uint256)": "9799b4e7",
    "progress(address,uint256)": "0c91cdbc",
    "registerTeam(string)": "8729e5c1",
    "renounceOwnership()": "715018a6",
    "scores(address)": "76dd110f",
    "start()": "be9a6555",
    "stop()": "07da68f5",
    "teams(address)": "c4583240",
    "transferOwnership(address)": "f2fde38b"
  },
  "id": 0
}