{
  "abi": [
    {
      "inputs": [
        {
          "internalType": "string",
          "name": "uri",
          "type": "string"
        },
        {
          "internalType": "address",
          "name": "_weth",
          "type": "address"
        }
      ],
      "stateMutability": "nonpayable",
      "type": "constructor"
    },
    {
      "anonymous": false,
      "inputs": [
        {
          "indexed": true,
          "internalType": "address",
          "name": "account",
          "type": "address"
        },
        {
          "indexed": true,
          "internalType": "address",
          "name": "operator",
          "type": "address"
        },
        {
          "indexed": false,
          "internalType": "bool",
          "name": "approved",
          "type": "bool"
        }
      ],
      "name": "ApprovalForAll",
      "type": "event"
    },
    {
      "anonymous": false,
      "inputs": [
        {
          "indexed": true,
          "internalType": "address",
          "name": "previousOwner",
          "type": "address"
        },
        {
          "indexed": true,
          "internalType": "address",
          "name": "newOwner",
          "type": "address"
        }
      ],
      "name": "OwnershipTransferred",
      "type": "event"
    },
    {
      "anonymous": false,
      "inputs": [
        {
          "indexed": true,
          "internalType": "address",
          "name": "operator",
          "type": "address"
        },
        {
          "indexed": true,
          "internalType": "address",
          "name": "from",
          "type": "address"
        },
        {
          "indexed": true,
          "internalType": "address",
          "name": "to",
          "type": "address"
        },
        {
          "indexed": false,
          "internalType": "uint256[]",
          "name": "ids",
          "type": "uint256[]"
        },
        {
          "indexed": false,
          "internalType": "uint256[]",
          "name": "values",
          "type": "uint256[]"
        }
      ],
      "name": "TransferBatch",
      "type": "event"
    },
    {
      "anonymous": false,
      "inputs": [
        {
          "indexed": true,
          "internalType": "address",
          "name": "operator",
          "type": "address"
        },
        {
          "indexed": true,
          "internalType": "address",
          "name": "from",
          "type": "address"
        },
        {
          "indexed": true,
          "internalType": "address",
          "name": "to",
          "type": "address"
        },
        {
          "indexed": false,
          "internalType": "uint256",
          "name": "id",
          "type": "uint256"
        },
        {
          "indexed": false,
          "internalType": "uint256",
          "name": "value",
          "type": "uint256"
        }
      ],
      "name": "TransferSingle",
      "type": "event"
    },
    {
      "anonymous": false,
      "inputs": [
        {
          "indexed": false,
          "internalType": "string",
          "name": "value",
          "type": "string"
        },
        {
          "indexed": true,
          "internalType": "uint256",
          "name": "id",
          "type": "uint256"
        }
      ],
      "name": "URI",
      "type": "event"
    },
    {
      "inputs": [
        {
          "internalType": "address",
          "name": "account",
          "type": "address"
        },
        {
          "internalType": "uint256",
          "name": "id",
          "type": "uint256"
        }
      ],
      "name": "balanceOf",
      "outputs": [
        {
          "internalType": "uint256",
          "name": "",
          "type": "uint256"
        }
      ],
      "stateMutability": "view",
      "type": "function"
    },
    {
      "inputs": [
        {
          "internalType": "address[]",
          "name": "accounts",
          "type": "address[]"
        },
        {
          "internalType": "uint256[]",
          "name": "ids",
          "type": "uint256[]"
        }
      ],
      "name": "balanceOfBatch",
      "outputs": [
        {
          "internalType": "uint256[]",
          "name": "",
          "type": "uint256[]"
        }
      ],
      "stateMutability": "view",
      "type": "function"
    },
    {
      "inputs": [
        {
          "internalType": "address",
          "name": "",
          "type": "address"
        }
      ],
      "name": "diceRollLastWin",
      "outputs": [
        {
          "internalType": "uint256",
          "name": "",
          "type": "uint256"
        }
      ],
      "stateMutability": "view",
      "type": "function"
    },
    {
      "inputs": [
        {
          "internalType": "address",
          "name": "",
          "type": "address"
        }
      ],
      "name": "diceRollWins",
      "outputs": [
        {
          "internalType": "uint256",
          "name": "",
          "type": "uint256"
        }
      ],
      "stateMutability": "view",
      "type": "function"
    },
    {
      "inputs": [
        {
          "internalType": "address",
          "name": "",
          "type": "address"
        }
      ],
      "name": "entryCount",
      "outputs": [
        {
          "internalType": "uint256",
          "name": "",
          "type": "uint256"
        }
      ],
      "stateMutability": "view",
      "type": "function"
    },
    {
      "inputs": [],
      "name": "extendTime",
      "outputs": [],
      "stateMutability": "nonpayable",
      "type": "function"
    },
    {
      "inputs": [
        {
          "internalType": "bool",
          "name": "val",
          "type": "bool"
        }
      ],
      "name": "f0",
      "outputs": [],
      "stateMutability": "nonpayable",
      "type": "function"
    },
    {
      "inputs": [],
      "name": "f1",
      "outputs": [],
      "stateMutability": "payable",
      "type": "function"
    },
    {
      "inputs": [
        {
          "internalType": "int256",
          "name": "num1",
          "type": "int256"
        },
        {
          "internalType": "int256",
          "name": "num2",
          "type": "int256"
        }
      ],
      "name": "f10",
      "outputs": [],
      "stateMutability": "nonpayable",
      "type": "function"
    },
    {
      "inputs": [
        {
          "internalType": "int256",
          "name": "num1",
          "type": "int256"
        },
        {
          "internalType": "int256",
          "name": "num2",
          "type": "int256"
        }
      ],
      "name": "f11",
      "outputs": [],
      "stateMutability": "nonpayable",
      "type": "function"
    },
    {
      "inputs": [
        {
          "internalType": "bytes",
          "name": "data",
          "type": "bytes"
        }
      ],
      "name": "f12",
      "outputs": [],
      "stateMutability": "nonpayable",
      "type": "function"
    },
    {
      "inputs": [],
      "name": "f13",
      "outputs": [],
      "stateMutability": "payable",
      "type": "function"
    },
    {
      "inputs": [
        {
          "internalType": "uint256",
          "name": "diceRoll",
          "type": "uint256"
        }
      ],
      "name": "f14",
      "outputs": [],
      "stateMutability": "payable",
      "type": "function"
    },
    {
      "inputs": [
        {
          "internalType": "uint256",
          "name": "difficulty",
          "type": "uint256"
        }
      ],
      "name": "f15",
      "outputs": [],
      "stateMutability": "nonpayable",
      "type": "function"
    },
    {
      "inputs": [
        {
          "internalType": "address",
          "name": "team",
          "type": "address"
        }
      ],
      "name": "f16",
      "outputs": [],
      "stateMutability": "nonpayable",
      "type": "function"
    },
    {
      "inputs": [
        {
          "internalType": "address",
          "name": "team",
          "type": "address"
        },
        {
          "internalType": "address",
          "name": "expectedSigner",
          "type": "address"
        },
        {
          "internalType": "bytes",
          "name": "signature",
          "type": "bytes"
        }
      ],
      "name": "f17",
      "outputs": [],
      "stateMutability": "nonpayable",
      "type": "function"
    },
    {
      "inputs": [
        {
          "internalType": "uint256",
          "name": "amount",
          "type": "uint256"
        },
        {
          "internalType": "address",
          "name": "dest",
          "type": "address"
        },
        {
          "internalType": "address",
          "name": "team",
          "type": "address"
        }
      ],
      "name": "f18",
      "outputs": [],
      "stateMutability": "nonpayable",
      "type": "function"
    },
    {
      "inputs": [
        {
          "internalType": "address",
          "name": "team",
          "type": "address"
        }
      ],
      "name": "f19",
      "outputs": [],
      "stateMutability": "nonpayable",
      "type": "function"
    },
    {
      "inputs": [
        {
          "internalType": "uint256",
          "name": "val",
          "type": "uint256"
        }
      ],
      "name": "f2",
      "outputs": [],
      "stateMutability": "nonpayable",
      "type": "function"
    },
    {
      "inputs": [
        {
          "internalType": "address",
          "name": "newContract",
          "type": "address"
        },
        {
          "internalType": "address",
          "name": "team",
          "type": "address"
        }
      ],
      "name": "f20",
      "outputs": [],
      "stateMutability": "nonpayable",
      "type": "function"
    },
    {
      "inputs": [
        {
          "internalType": "uint256",
          "name": "gasNeeded",
          "type": "uint256"
        },
        {
          "internalType": "address",
          "name": "team",
          "type": "address"
        }
      ],
      "name": "f21",
      "outputs": [],
      "stateMutability": "nonpayable",
      "type": "function"
    },
    {
      "inputs": [
        {
          "internalType": "address",
          "name": "team",
          "type": "address"
        }
      ],
      "name": "f22",
      "outputs": [],
      "stateMutability": "nonpayable",
      "type": "function"
    },
    {
      "inputs": [
        {
          "internalType": "address",
          "name": "team",
          "type": "address"
        }
      ],
      "name": "f23",
      "outputs": [],
      "stateMutability": "nonpayable",
      "type": "function"
    },
    {
      "inputs": [
        {
          "internalType": "address",
          "name": "team",
          "type": "address"
        },
        {
          "internalType": "bytes32[]",
          "name": "proof",
          "type": "bytes32[]"
        },
        {
          "internalType": "bytes32",
          "name": "leaf",
          "type": "bytes32"
        }
      ],
      "name": "f24",
      "outputs": [],
      "stateMutability": "nonpayable",
      "type": "function"
    },
    {
      "inputs": [
        {
          "internalType": "uint256",
          "name": "data",
          "type": "uint256"
        }
      ],
      "name": "f3",
      "outputs": [],
      "stateMutability": "nonpayable",
      "type": "function"
    },
    {
      "inputs": [
        {
          "internalType": "address",
          "name": "destAddr",
          "type": "address"
        }
      ],
      "name": "f4",
      "outputs": [],
      "stateMutability": "nonpayable",
      "type": "function"
    },
    {
      "inputs": [
        {
          "internalType": "address",
          "name": "destAddr",
          "type": "address"
        }
      ],
      "name": "f5",
      "outputs": [],
      "stateMutability": "nonpayable",
      "type": "function"
    },
    {
      "inputs": [
        {
          "internalType": "address",
          "name": "destAddr",
          "type": "address"
        }
      ],
      "name": "f6",
      "outputs": [],
      "stateMutability": "nonpayable",
      "type": "function"
    },
    {
      "inputs": [],
      "name": "f7",
      "outputs": [],
      "stateMutability": "nonpayable",
      "type": "function"
    },
    {
      "inputs": [
        {
          "internalType": "bytes",
          "name": "data",
          "type": "bytes"
        }
      ],
      "name": "f8",
      "outputs": [],
      "stateMutability": "nonpayable",
      "type": "function"
    },
    {
      "inputs": [
        {
          "internalType": "bytes",
          "name": "data",
          "type": "bytes"
        }
      ],
      "name": "f9",
      "outputs": [],
      "stateMutability": "nonpayable",
      "type": "function"
    },
    {
      "inputs": [],
      "name": "internalChallengeHook",
      "outputs": [
        {
          "internalType": "uint256",
          "name": "",
          "type": "uint256"
        }
      ],
      "stateMutability": "view",
      "type": "function"
    },
    {
      "inputs": [
        {
          "internalType": "address",
          "name": "account",
          "type": "address"
        },
        {
          "internalType": "address",
          "name": "operator",
          "type": "address"
        }
      ],
      "name": "isApprovedForAll",
      "outputs": [
        {
          "internalType": "bool",
          "name": "",
          "type": "bool"
        }
      ],
      "stateMutability": "view",
      "type": "function"
    },
    {
      "inputs": [],
      "name": "live",
      "outputs": [
        {
          "internalType": "bool",
          "name": "",
          "type": "bool"
        }
      ],
      "stateMutability": "view",
      "type": "function"
    },
    {
      "inputs": [],
      "name": "merkleRoot",
      "outputs": [
        {
          "internalType": "bytes32",
          "name": "",
          "type": "bytes32"
        }
      ],
      "stateMutability": "view",
      "type": "function"
    },
    {
      "inputs": [],
      "name": "owner",
      "outputs": [
        {
          "internalType": "address",
          "name": "",
          "type": "address"
        }
      ],
      "stateMutability": "view",
      "type": "function"
    },
    {
      "inputs": [
        {
          "internalType": "uint256",
          "name": "",
          "type": "uint256"
        }
      ],
      "name": "points",
      "outputs": [
        {
          "internalType": "uint256",
          "name": "",
          "type": "uint256"
        }
      ],
      "stateMutability": "view",
      "type": "function"
    },
    {
      "inputs": [
        {
          "internalType": "address",
          "name": "",
          "type": "address"
        },
        {
          "internalType": "uint256",
          "name": "",
          "type": "uint256"
        }
      ],
      "name": "progress",
      "outputs": [
        {
          "internalType": "bool",
          "name": "",
          "type": "bool"
        }
      ],
      "stateMutability": "view",
      "type": "function"
    },
    {
      "inputs": [
        {
          "internalType": "string",
          "name": "team",
          "type": "string"
        }
      ],
      "name": "registerTeam",
      "outputs": [],
      "stateMutability": "nonpayable",
      "type": "function"
    },
    {
      "inputs": [],
      "name": "renounceOwnership",
      "outputs": [],
      "stateMutability": "nonpayable",
      "type": "function"
    },
    {
      "inputs": [
        {
          "internalType": "address",
          "name": "from",
          "type": "address"
        },
        {
          "internalType": "address",
          "name": "to",
          "type": "address"
        },
        {
          "internalType": "uint256[]",
          "name": "ids",
          "type": "uint256[]"
        },
        {
          "internalType": "uint256[]",
          "name": "amounts",
          "type": "uint256[]"
        },
        {
          "internalType": "bytes",
          "name": "data",
          "type": "bytes"
        }
      ],
      "name": "safeBatchTransferFrom",
      "outputs": [],
      "stateMutability": "nonpayable",
      "type": "function"
    },
    {
      "inputs": [
        {
          "internalType": "address",
          "name": "from",
          "type": "address"
        },
        {
          "internalType": "address",
          "name": "to",
          "type": "address"
        },
        {
          "internalType": "uint256",
          "name": "id",
          "type": "uint256"
        },
        {
          "internalType": "uint256",
          "name": "amount",
          "type": "uint256"
        },
        {
          "internalType": "bytes",
          "name": "data",
          "type": "bytes"
        }
      ],
      "name": "safeTransferFrom",
      "outputs": [],
      "stateMutability": "nonpayable",
      "type": "function"
    },
    {
      "inputs": [
        {
          "internalType": "address",
          "name": "",
          "type": "address"
        }
      ],
      "name": "scores",
      "outputs": [
        {
          "internalType": "uint256",
          "name": "",
          "type": "uint256"
        }
      ],
      "stateMutability": "view",
      "type": "function"
    },
    {
      "inputs": [
        {
          "internalType": "address",
          "name": "",
          "type": "address"
        }
      ],
      "name": "secondEntryCount",
      "outputs": [
        {
          "internalType": "uint256",
          "name": "",
          "type": "uint256"
        }
      ],
      "stateMutability": "view",
      "type": "function"
    },
    {
      "inputs": [
        {
          "internalType": "address",
          "name": "operator",
          "type": "address"
        },
        {
          "internalType": "bool",
          "name": "approved",
          "type": "bool"
        }
      ],
      "name": "setApprovalForAll",
      "outputs": [],
      "stateMutability": "nonpayable",
      "type": "function"
    },
    {
      "inputs": [
        {
          "internalType": "address",
          "name": "",
          "type": "address"
        }
      ],
      "name": "signers",
      "outputs": [
        {
          "internalType": "bool",
          "name": "",
          "type": "bool"
        }
      ],
      "stateMutability": "view",
      "type": "function"
    },
    {
      "inputs": [
        {
          "internalType": "uint256",
          "name": "",
          "type": "uint256"
        }
      ],
      "name": "solves",
      "outputs": [
        {
          "internalType": "uint256",
          "name": "",
          "type": "uint256"
        }
      ],
      "stateMutability": "view",
      "type": "function"
    },
    {
      "inputs": [],
      "name": "start",
      "outputs": [],
      "stateMutability": "nonpayable",
      "type": "function"
    },
    {
      "inputs": [],
      "name": "stop",
      "outputs": [],
      "stateMutability": "nonpayable",
      "type": "function"
    },
    {
      "inputs": [
        {
          "internalType": "bytes4",
          "name": "interfaceId",
          "type": "bytes4"
        }
      ],
      "name": "supportsInterface",
      "outputs": [
        {
          "internalType": "bool",
          "name": "",
          "type": "bool"
        }
      ],
      "stateMutability": "view",
      "type": "function"
    },
    {
      "inputs": [
        {
          "internalType": "uint256",
          "name": "",
          "type": "uint256"
        }
      ],
      "name": "teamAddresses",
      "outputs": [
        {
          "internalType": "address",
          "name": "",
          "type": "address"
        }
      ],
      "stateMutability": "view",
      "type": "function"
    },
    {
      "inputs": [
        {
          "internalType": "address",
          "name": "",
          "type": "address"
        }
      ],
      "name": "teams",
      "outputs": [
        {
          "internalType": "string",
          "name": "",
          "type": "string"
        }
      ],
      "stateMutability": "view",
      "type": "function"
    },
    {
      "inputs": [],
      "name": "template",
      "outputs": [
        {
          "internalType": "contract create2Challenge",
          "name": "",
          "type": "address"
        }
      ],
      "stateMutability": "view",
      "type": "function"
    },
    {
      "inputs": [],
      "name": "timeExtended",
      "outputs": [
        {
          "internalType": "bool",
          "name": "",
          "type": "bool"
        }
      ],
      "stateMutability": "view",
      "type": "function"
    },
    {
      "inputs": [
        {
          "internalType": "address",
          "name": "newOwner",
          "type": "address"
        }
      ],
      "name": "transferOwnership",
      "outputs": [],
      "stateMutability": "nonpayable",
      "type": "function"
    },
    {
      "inputs": [
        {
          "internalType": "uint256",
          "name": "",
          "type": "uint256"
        }
      ],
      "name": "uri",
      "outputs": [
        {
          "internalType": "string",
          "name": "",
          "type": "string"
        }
      ],
      "stateMutability": "view",
      "type": "function"
    },
    {
      "inputs": [
        {
          "internalType": "bytes32",
          "name": "",
          "type": "bytes32"
        }
      ],
      "name": "usedLeaves",
      "outputs": [
        {
          "internalType": "bool",
          "name": "",
          "type": "bool"
        }
      ],
      "stateMutability": "view",
      "type": "function"
    },
    {
      "inputs": [],
      "name": "weth",
      "outputs": [
        {
          "internalType": "address",
          "name": "",
          "type": "address"
        }
      ],
      "stateMutability": "view",
      "type": "function"
    }
  ],
  "bytecode": {
    "object": "0x60c06040526004805461ff001916905560006012553480156200002157600080fd5b5060405162005d1f38038062005d1f83398101604081905262000044916200035c565b8162000050336200020c565b6200005b816200025c565b5060005b60188111620000a657620000758160c862000463565b620000829060c862000485565b600082815260086020526040902055806200009d81620004a0565b9150506200005f565b5042601355604051620000b99062000275565b604051809103906000f080158015620000d6573d6000803e3d6000fd5b50601180546001600160a01b0319166001600160a01b0392831617905581166080526040805160148082526102a08201909252600091602082016102808036833701905050905060005b6014811015620001815760408051602081018390520160405160208183030381529060405280519060200120828281518110620001615762000161620004bc565b6020908102919091010152806200017881620004a0565b91505062000120565b506040516317046b0160e11b815273__$c60b12d58dd7f461ff4845dd59be76adc9$__90632e08d60290620001bb908490600401620004d2565b602060405180830381865af4158015620001d9573d6000803e3d6000fd5b505050506040513d601f19601f82011682018060405250810190620001ff919062000518565b60a052506200056e915050565b600080546001600160a01b038381166001600160a01b0319831681178455604051919092169283917f8be0079c531659141344cd1fd0a4f28419497f9722a3daafe3b4186f6b6457e09190a35050565b80516200027190600390602084019062000283565b5050565b6101418062005bde83390190565b828054620002919062000532565b90600052602060002090601f016020900481019282620002b5576000855562000300565b82601f10620002d057805160ff191683800117855562000300565b8280016001018555821562000300579182015b8281111562000300578251825591602001919060010190620002e3565b506200030e92915062000312565b5090565b5b808211156200030e576000815560010162000313565b634e487b7160e01b600052604160045260246000fd5b80516001600160a01b03811681146200035757600080fd5b919050565b600080604083850312156200037057600080fd5b82516001600160401b03808211156200038857600080fd5b818501915085601f8301126200039d57600080fd5b815181811115620003b257620003b262000329565b604051601f8201601f19908116603f01168101908382118183101715620003dd57620003dd62000329565b81604052828152602093508884848701011115620003fa57600080fd5b600091505b828210156200041e5784820184015181830185015290830190620003ff565b82821115620004305760008484830101525b9550620004429150508582016200033f565b925050509250929050565b634e487b7160e01b600052601160045260246000fd5b60008160001904831182151516156200048057620004806200044d565b500290565b600082198211156200049b576200049b6200044d565b500190565b600060018201620004b557620004b56200044d565b5060010190565b634e487b7160e01b600052603260045260246000fd5b6020808252825182820181905260009190848201906040850190845b818110156200050c57835183529284019291840191600101620004ee565b50909695505050505050565b6000602082840312156200052b57600080fd5b5051919050565b600181811c908216806200054757607f821691505b6020821081036200056857634e487b7160e01b600052602260045260246000fd5b50919050565b60805160a051615635620005a96000396000818161052601526139a30152600081816105f70152818161112e015261266f01526156356000f3fe6080604052600436106103805760003560e01c80638da5cb5b116101d1578063c1a8f2c611610102578063d7b7913b116100a0578063e985e9c51161006f578063e985e9c514610ad2578063ed6a990414610b1b578063f242432a14610b3b578063f2fde38b14610b5b57600080fd5b8063d7b7913b14610a5e578063db0fff3714610a7e578063df2025dc14610a9d578063e144678314610ab257600080fd5b8063c4583240116100dc578063c4583240146109d1578063c78de838146109f1578063ca9eaf5914610a11578063d75203c314610a3e57600080fd5b8063c1a8f2c614610989578063c27fc305146109b6578063c28cb1d4146109be57600080fd5b8063a481b0e41161016f578063abb6ae8911610149578063abb6ae891461091f578063b1d8dd5614610934578063be9a655514610954578063bf3724af1461096957600080fd5b8063a481b0e4146108bf578063a60463e4146108df578063aa91c62e146108ff57600080fd5b8063957aa58c116101ab578063957aa58c14610838578063964ef96b146108525780639799b4e714610872578063a22cb4651461089f57600080fd5b80638da5cb5b146107f2578063920f5c731461081057806393d1758c1461081857600080fd5b80633d056172116102b65780636f2ddd9311610254578063787f485a11610223578063787f485a1461076557806381e0f90c1461078557806383e9ff47146107a55780638729e5c1146107d257600080fd5b80636f2ddd93146106d3578063715018a6146106f3578063736c0d5b1461070857806376dd110f1461073857600080fd5b806349b9dbe61161029057806349b9dbe6146106465780634e1273f41461066657806350a48d2e14610693578063604f7523146106b357600080fd5b80633d056172146105b85780633fc8cef3146105e557806341dd1ef81461061957600080fd5b80632419217e116103235780632eb4a7ab116102fd5780632eb4a7ab146105145780632f4dc9da146105485780633b5e60c2146105685780633cc730501461059857600080fd5b80632419217e1461049c5780632c9b3119146104d45780632eb2c2d6146104f457600080fd5b80630c91cdbc1161035f5780630c91cdbc146103ff5780630e89341c1461043a5780631625d7fe14610467578063237b3bde1461047c57600080fd5b8062fdd58e1461038557806301ffc9a7146103b857806307da68f5146103e8575b600080fd5b34801561039157600080fd5b506103a56103a03660046148ca565b610b7b565b6040519081526020015b60405180910390f35b3480156103c457600080fd5b506103d86103d336600461490a565b610c16565b60405190151581526020016103af565b3480156103f457600080fd5b506103fd610c66565b005b34801561040b57600080fd5b506103d861041a3660046148ca565b600760209081526000928352604080842090915290825290205460ff1681565b34801561044657600080fd5b5061045a610455366004614927565b610c7a565b6040516103af9190614998565b34801561047357600080fd5b506103a5610d0e565b34801561048857600080fd5b506103fd6104973660046149ab565b610df1565b3480156104a857600080fd5b506104bc6104b7366004614927565b610fcf565b6040516001600160a01b0390911681526020016103af565b3480156104e057600080fd5b506103fd6104ef3660046149ab565b610ff9565b34801561050057600080fd5b506103fd61050f366004614b19565b6111ae565b34801561052057600080fd5b506103a57f000000000000000000000000000000000000000000000000000000000000000081565b34801561055457600080fd5b506103fd610563366004614927565b6111fa565b34801561057457600080fd5b506103d8610583366004614927565b600f6020526000908152604090205460ff1681565b3480156105a457600080fd5b506103fd6105b3366004614bc2565b61138e565b3480156105c457600080fd5b506103a56105d3366004614927565b600e6020526000908152604090205481565b3480156105f157600080fd5b506104bc7f000000000000000000000000000000000000000000000000000000000000000081565b34801561062557600080fd5b506103a56106343660046149ab565b60096020526000908152604090205481565b34801561065257600080fd5b506103fd610661366004614bee565b61155f565b34801561067257600080fd5b50610686610681366004614c18565b61171e565b6040516103af9190614d1d565b34801561069f57600080fd5b506103fd6106ae3660046149ab565b611847565b3480156106bf57600080fd5b506103fd6106ce3660046149ab565b611976565b3480156106df57600080fd5b506011546104bc906001600160a01b031681565b3480156106ff57600080fd5b506103fd611aaa565b34801561071457600080fd5b506103d86107233660046149ab565b600d6020526000908152604090205460ff1681565b34801561074457600080fd5b506103a56107533660046149ab565b60066020526000908152604090205481565b34801561077157600080fd5b506103fd610780366004614d30565b611abe565b34801561079157600080fd5b506103fd6107a0366004614d6c565b611c03565b3480156107b157600080fd5b506103a56107c03660046149ab565b600a6020526000908152604090205481565b3480156107de57600080fd5b506103fd6107ed366004614d8e565b611da4565b3480156107fe57600080fd5b506000546001600160a01b03166104bc565b6103fd611ed4565b34801561082457600080fd5b506103fd6108333660046149ab565b6120aa565b34801561084457600080fd5b506004546103d89060ff1681565b34801561085e57600080fd5b506103fd61086d366004614dd6565b6121d9565b34801561087e57600080fd5b506103a561088d366004614927565b60086020526000908152604090205481565b3480156108ab57600080fd5b506103fd6108ba366004614e55565b612333565b3480156108cb57600080fd5b506103fd6108da366004614d30565b61233e565b3480156108eb57600080fd5b506103fd6108fa3660046149ab565b612544565b34801561090b57600080fd5b506103fd61091a366004614e8c565b612728565b34801561092b57600080fd5b506103fd61287b565b34801561094057600080fd5b506103fd61094f366004614ea9565b612894565b34801561096057600080fd5b506103fd612ab0565b34801561097557600080fd5b506103fd610984366004614927565b612ac7565b34801561099557600080fd5b506103a56109a43660046149ab565b600b6020526000908152604090205481565b6103fd612c6c565b6103fd6109cc366004614927565b612dbb565b3480156109dd57600080fd5b5061045a6109ec3660046149ab565b613046565b3480156109fd57600080fd5b506103fd610a0c366004614ee5565b6130e0565b348015610a1d57600080fd5b506103a5610a2c3660046149ab565b600c6020526000908152604090205481565b348015610a4a57600080fd5b506103fd610a59366004614d6c565b61339a565b348015610a6a57600080fd5b506103fd610a79366004614927565b61353e565b348015610a8a57600080fd5b506004546103d890610100900460ff1681565b348015610aa957600080fd5b506103fd613691565b348015610abe57600080fd5b506103fd610acd366004614f42565b6137e9565b348015610ade57600080fd5b506103d8610aed366004614bee565b6001600160a01b03918216600090815260026020908152604080832093909416825291909152205460ff1690565b348015610b2757600080fd5b506103fd610b363660046149ab565b613a1d565b348015610b4757600080fd5b506103fd610b56366004614fcd565b613c50565b348015610b6757600080fd5b506103fd610b763660046149ab565b613c95565b60006001600160a01b038316610beb5760405162461bcd60e51b815260206004820152602a60248201527f455243313135353a2061646472657373207a65726f206973206e6f742061207660448201526930b634b21037bbb732b960b11b60648201526084015b60405180910390fd5b5060008181526001602090815260408083206001600160a01b03861684529091529020545b92915050565b60006001600160e01b03198216636cdb3d1360e11b1480610c4757506001600160e01b031982166303a24d0760e21b145b80610c1057506301ffc9a760e01b6001600160e01b0319831614610c10565b610c6e613d0b565b6004805460ff19169055565b606060038054610c8990615031565b80601f0160208091040260200160405190810160405280929190818152602001828054610cb590615031565b8015610d025780601f10610cd757610100808354040283529160200191610d02565b820191906000526020600020905b815481529060010190602001808311610ce557829003601f168201915b50505050509050919050565b60045460009060ff16610d335760405162461bcd60e51b8152600401610be29061506b565b3360009081526005602052604090208054610d4d90615031565b159050610d6c5760405162461bcd60e51b8152600401610be2906150a2565b600454610100900460ff1615610dae57601354610d8b90612a306150ef565b4210610da95760405162461bcd60e51b8152600401610be290615107565b610ddb565b601354610dbd90611c206150ef565b4210610ddb5760405162461bcd60e51b8152600401610be290615107565b333014610de757600080fd5b5063deadbeef5b90565b60045460ff16610e135760405162461bcd60e51b8152600401610be29061506b565b3360009081526005602052604090208054610e2d90615031565b159050610e4c5760405162461bcd60e51b8152600401610be2906150a2565b600454610100900460ff1615610e8e57601354610e6b90612a306150ef565b4210610e895760405162461bcd60e51b8152600401610be290615107565b610ebb565b601354610e9d90611c206150ef565b4210610ebb5760405162461bcd60e51b8152600401610be290615107565b6001600160a01b0381166000908152600760209081526040808320601380855292529091205460ff1615610f015760405162461bcd60e51b8152600401610be290615131565b6040516301ffc9a760e01b81526336372b0760e01b600482015233906301ffc9a790602401602060405180830381865afa158015610f43573d6000803e3d6000fd5b505050506040513d601f19601f82011682018060405250810190610f679190615168565b610fc15760405162461bcd60e51b815260206004820152602560248201527f6d73672073656e64657220646f6573206e6f7420737570706f727420696e7465604482015264726661636560d81b6064820152608401610be2565b610fcb8183613d65565b5050565b60108181548110610fdf57600080fd5b6000918252602090912001546001600160a01b0316905081565b60045460ff1661101b5760405162461bcd60e51b8152600401610be29061506b565b336000908152600560205260409020805461103590615031565b1590506110545760405162461bcd60e51b8152600401610be2906150a2565b600454610100900460ff16156110965760135461107390612a306150ef565b42106110915760405162461bcd60e51b8152600401610be290615107565b6110c3565b6013546110a590611c206150ef565b42106110c35760405162461bcd60e51b8152600401610be290615107565b6001600160a01b0381166000908152600760209081526040808320601780855292529091205460ff16156111095760405162461bcd60e51b8152600401610be290615131565b6040516323b872dd60e01b8152336004820152306024820152633b9aca0060448201527f00000000000000000000000000000000000000000000000000000000000000006001600160a01b0316906323b872dd906064016020604051808303816000875af115801561117f573d6000803e3d6000fd5b505050506040513d601f19601f820116820180604052508101906111a39190615168565b50610fcb8183613d65565b6001600160a01b0385163314806111ca57506111ca8533610aed565b6111e65760405162461bcd60e51b8152600401610be290615185565b6111f38585858585613e6d565b5050505050565b60045460ff1661121c5760405162461bcd60e51b8152600401610be29061506b565b336000908152600560205260409020805461123690615031565b1590506112555760405162461bcd60e51b8152600401610be2906150a2565b600454610100900460ff16156112975760135461127490612a306150ef565b42106112925760405162461bcd60e51b8152600401610be290615107565b6112c4565b6013546112a690611c206150ef565b42106112c45760405162461bcd60e51b8152600401610be290615107565b336000908152600760209081526040808320600f80855292529091205460ff16156113015760405162461bcd60e51b8152600401610be290615131565b60408051446020820152016040516020818303038152906040528051906020012060001c82146113845760405162461bcd60e51b815260206004820152602860248201527f4469642049206d616b652074686973206368616c6c656e676520746f6f20646960448201526766666963756c743f60c01b6064820152608401610be2565b610fcb8133613d65565b60045460ff166113b05760405162461bcd60e51b8152600401610be29061506b565b33600090815260056020526040902080546113ca90615031565b1590506113e95760405162461bcd60e51b8152600401610be2906150a2565b600454610100900460ff161561142b5760135461140890612a306150ef565b42106114265760405162461bcd60e51b8152600401610be290615107565b611458565b60135461143a90611c206150ef565b42106114585760405162461bcd60e51b8152600401610be290615107565b6001600160a01b0381166000908152600760209081526040808320601580855292529091205460ff161561149e5760405162461bcd60e51b8152600401610be290615131565b60005a90506247a4d16000816114b56034436151d4565b6040805160208101939093529040908201524260608201524560808201524160a08201523260c082015260e0016040516020818303038152906040528051906020012060001c905060005a61150a90856151d4565b905080871461154c5760405162461bcd60e51b815260206004820152600e60248201526d4e6f7420456e6f7567682047617360901b6044820152606401610be2565b6115568587613d65565b50505050505050565b60045460ff166115815760405162461bcd60e51b8152600401610be29061506b565b336000908152600560205260409020805461159b90615031565b1590506115ba5760405162461bcd60e51b8152600401610be2906150a2565b600454610100900460ff16156115fc576013546115d990612a306150ef565b42106115f75760405162461bcd60e51b8152600401610be290615107565b611629565b60135461160b90611c206150ef565b42106116295760405162461bcd60e51b8152600401610be290615107565b6001600160a01b0381166000908152600760209081526040808320601480855292529091205460ff161561166f5760405162461bcd60e51b8152600401610be290615131565b601154604080513360208201526000926116ab926001600160a01b03909116910160405160208183030381529060405280519060200120614045565b9050806001600160a01b0316846001600160a01b03161461170e5760405162461bcd60e51b815260206004820152601b60248201527f507265646963746564206164647265737320696e636f727265637400000000006044820152606401610be2565b6117188284613d65565b50505050565b606081518351146117835760405162461bcd60e51b815260206004820152602960248201527f455243313135353a206163636f756e747320616e6420696473206c656e677468604482015268040dad2e6dac2e8c6d60bb1b6064820152608401610be2565b600083516001600160401b0381111561179e5761179e6149c6565b6040519080825280602002602001820160405280156117c7578160200160208202803683370190505b50905060005b845181101561183f576118128582815181106117eb576117eb6151eb565b6020026020010151858381518110611805576118056151eb565b6020026020010151610b7b565b828281518110611824576118246151eb565b602090810291909101015261183881615201565b90506117cd565b509392505050565b60045460ff166118695760405162461bcd60e51b8152600401610be29061506b565b336000908152600560205260409020805461188390615031565b1590506118a25760405162461bcd60e51b8152600401610be2906150a2565b600454610100900460ff16156118e4576013546118c190612a306150ef565b42106118df5760405162461bcd60e51b8152600401610be290615107565b611911565b6013546118f390611c206150ef565b42106119115760405162461bcd60e51b8152600401610be290615107565b336000908152600760209081526040808320600480855292529091205460ff161561194e5760405162461bcd60e51b8152600401610be290615131565b6001600160a01b03821630146113845760405162461bcd60e51b8152600401610be29061521a565b60045460ff166119985760405162461bcd60e51b8152600401610be29061506b565b33600090815260056020526040902080546119b290615031565b1590506119d15760405162461bcd60e51b8152600401610be2906150a2565b600454610100900460ff1615611a13576013546119f090612a306150ef565b4210611a0e5760405162461bcd60e51b8152600401610be290615107565b611a40565b601354611a2290611c206150ef565b4210611a405760405162461bcd60e51b8152600401610be290615107565b336000908152600760209081526040808320600680855292529091205460ff1615611a7d5760405162461bcd60e51b8152600401610be290615131565b6000546001600160a01b038381169116146113845760405162461bcd60e51b8152600401610be29061521a565b611ab2613d0b565b611abc60006140e5565b565b60045460ff16611ae05760405162461bcd60e51b8152600401610be29061506b565b3360009081526005602052604090208054611afa90615031565b159050611b195760405162461bcd60e51b8152600401610be2906150a2565b600454610100900460ff1615611b5b57601354611b3890612a306150ef565b4210611b565760405162461bcd60e51b8152600401610be290615107565b611b88565b601354611b6a90611c206150ef565b4210611b885760405162461bcd60e51b8152600401610be290615107565b336000908152600760209081526040808320600980855292529091205460ff1615611bc55760405162461bcd60e51b8152600401610be290615131565b6000356001600160e01b03191682604051602001611be4929190615251565b6040516020818303038152906040529150815160201461138457600080fd5b60045460ff16611c255760405162461bcd60e51b8152600401610be29061506b565b3360009081526005602052604090208054611c3f90615031565b159050611c5e5760405162461bcd60e51b8152600401610be2906150a2565b600454610100900460ff1615611ca057601354611c7d90612a306150ef565b4210611c9b5760405162461bcd60e51b8152600401610be290615107565b611ccd565b601354611caf90611c206150ef565b4210611ccd5760405162461bcd60e51b8152600401610be290615107565b336000908152600760209081526040808320600b80855292529091205460ff1615611d0a5760405162461bcd60e51b8152600401610be290615131565b600083138015611d1a5750600082135b611d705760405162461bcd60e51b815260206004820152602160248201527f4e756d62657273206d7573742062652067726561746572207468616e207a65726044820152606f60f81b6064820152608401610be2565b8282016009198112611d945760405162461bcd60e51b8152600401610be290615282565b50611d9f8133613d65565b505050565b60045460ff16611dc65760405162461bcd60e51b8152600401610be29061506b565b3360009081526005602052604090208054611de090615031565b159050611dff5760405162461bcd60e51b8152600401610be2906150a2565b600454610100900460ff1615611e4157601354611e1e90612a306150ef565b4210611e3c5760405162461bcd60e51b8152600401610be290615107565b611e6e565b601354611e5090611c206150ef565b4210611e6e5760405162461bcd60e51b8152600401610be290615107565b3360009081526005602090815260409091208251611e8e92840190614815565b5050601080546001810182556000919091527f1b6847dc741a1b0cd08d278845f9d819d87b734759afb55fe2de5cb82a9ae6720180546001600160a01b03191633179055565b60045460ff16611ef65760405162461bcd60e51b8152600401610be29061506b565b3360009081526005602052604090208054611f1090615031565b159050611f2f5760405162461bcd60e51b8152600401610be2906150a2565b600454610100900460ff1615611f7157601354611f4e90612a306150ef565b4210611f6c5760405162461bcd60e51b8152600401610be290615107565b611f9e565b601354611f8090611c206150ef565b4210611f9e5760405162461bcd60e51b8152600401610be290615107565b336000908152600760209081526040808320600d80855292529091205460ff1615611fdb5760405162461bcd60e51b8152600401610be290615131565b33600090815260096020526040902054600a1061209d5733600090815260096020526040812080549161200d83615201565b909155505060405160009033908281818181865af19150503d8060008114612051576040519150601f19603f3d011682016040523d82523d6000602084013e612056565b606091505b505090508061209b5760405162461bcd60e51b81526020600482015260116024820152701d985b1d59481cd95b990819985a5b1959607a1b6044820152606401610be2565b505b6120a78133613d65565b50565b60045460ff166120cc5760405162461bcd60e51b8152600401610be29061506b565b33600090815260056020526040902080546120e690615031565b1590506121055760405162461bcd60e51b8152600401610be2906150a2565b600454610100900460ff16156121475760135461212490612a306150ef565b42106121425760405162461bcd60e51b8152600401610be290615107565b612174565b60135461215690611c206150ef565b42106121745760405162461bcd60e51b8152600401610be290615107565b336000908152600760209081526040808320600580855292529091205460ff16156121b15760405162461bcd60e51b8152600401610be290615131565b6001600160a01b03821633146113845760405162461bcd60e51b8152600401610be29061521a565b60045460ff166121fb5760405162461bcd60e51b8152600401610be29061506b565b336000908152600560205260409020805461221590615031565b1590506122345760405162461bcd60e51b8152600401610be2906150a2565b600454610100900460ff16156122765760135461225390612a306150ef565b42106122715760405162461bcd60e51b8152600401610be290615107565b6122a3565b60135461228590611c206150ef565b42106122a35760405162461bcd60e51b8152600401610be290615107565b336000908152600760209081526040808320600880855292529091205460ff16156122e05760405162461bcd60e51b8152600401610be290615131565b602082146123295760405162461bcd60e51b8152602060048201526016602482015275696e76616c6964206c656e677468206f66206461746160501b6044820152606401610be2565b611d9f8133613d65565b610fcb338383614135565b60045460ff166123605760405162461bcd60e51b8152600401610be29061506b565b336000908152600560205260409020805461237a90615031565b1590506123995760405162461bcd60e51b8152600401610be2906150a2565b600454610100900460ff16156123db576013546123b890612a306150ef565b42106123d65760405162461bcd60e51b8152600401610be290615107565b612408565b6013546123ea90611c206150ef565b42106124085760405162461bcd60e51b8152600401610be290615107565b336000908152600760209081526040808320600c80855292529091205460ff16156124455760405162461bcd60e51b8152600401610be290615131565b600080306001600160a01b03168460405161246091906152ce565b6000604051808303816000865af19150503d806000811461249d576040519150601f19603f3d011682016040523d82523d6000602084013e6124a2565b606091505b5091509150816125035760405162461bcd60e51b815260206004820152602660248201527f696e7465726e616c2066756e6374696f6e2063616c6c20646964206e6f7420736044820152651d58d8d9595960d21b6064820152608401610be2565b6040805163deadbeef6020820152016040516020818303038152906040528051906020012081805190602001201461253a57600080fd5b6117188333613d65565b60045460ff166125665760405162461bcd60e51b8152600401610be29061506b565b336000908152600560205260409020805461258090615031565b15905061259f5760405162461bcd60e51b8152600401610be2906150a2565b600454610100900460ff16156125e1576013546125be90612a306150ef565b42106125dc5760405162461bcd60e51b8152600401610be290615107565b61260e565b6013546125f090611c206150ef565b421061260e5760405162461bcd60e51b8152600401610be290615107565b6001600160a01b0381166000908152600760209081526040808320601680855292529091205460ff16156126545760405162461bcd60e51b8152600401610be290615131565b6040516370a0823160e01b8152336004820152633b9aca00907f00000000000000000000000000000000000000000000000000000000000000006001600160a01b0316906370a0823190602401602060405180830381865afa1580156126be573d6000803e3d6000fd5b505050506040513d601f19601f820116820180604052508101906126e291906152ea565b11610fc15760405162461bcd60e51b815260206004820152601660248201527562616c616e63652063616e6e6f74206265207a65726f60501b6044820152606401610be2565b60045460ff1661274a5760405162461bcd60e51b8152600401610be29061506b565b336000908152600560205260409020805461276490615031565b1590506127835760405162461bcd60e51b8152600401610be2906150a2565b600454610100900460ff16156127c5576013546127a290612a306150ef565b42106127c05760405162461bcd60e51b8152600401610be290615107565b6127f2565b6013546127d490611c206150ef565b42106127f25760405162461bcd60e51b8152600401610be290615107565b33600090815260076020908152604080832083805290915281205460ff161561282d5760405162461bcd60e51b8152600401610be290615131565b81156113845760405162461bcd60e51b815260206004820152601760248201527f696e636f727265637420626f6f6c65616e2076616c75650000000000000000006044820152606401610be2565b612883613d0b565b6004805461ff001916610100179055565b60045460ff166128b65760405162461bcd60e51b8152600401610be29061506b565b33600090815260056020526040902080546128d090615031565b1590506128ef5760405162461bcd60e51b8152600401610be2906150a2565b600454610100900460ff16156129315760135461290e90612a306150ef565b421061292c5760405162461bcd60e51b8152600401610be290615107565b61295e565b60135461294090611c206150ef565b421061295e5760405162461bcd60e51b8152600401610be290615107565b6001600160a01b0381166000908152600760209081526040808320601280855292529091205460ff16156129a45760405162461bcd60e51b8152600401610be290615131565b333b158015906129b45750323314155b6129f35760405162461bcd60e51b815260206004820152601060248201526f135d5cdd0818994818dbdb9d1c9858dd60821b6044820152606401610be2565b60008411612a595760405162461bcd60e51b815260206004820152602d60248201527f6d7573742070726f76696465206e6f6e2d7a65726f20616d6f756e74206f662060448201526c119391951cc81d1bc81b5a5b9d609a1b6064820152608401610be2565b60408051336020820152600091016040516020818303038152906040528051906020012060001c9050612aa68482876040518060600160405280603081526020016155d060309139614215565b6111f38284613d65565b612ab8613d0b565b6004805460ff19166001179055565b60045460ff16612ae95760405162461bcd60e51b8152600401610be29061506b565b3360009081526005602052604090208054612b0390615031565b159050612b225760405162461bcd60e51b8152600401610be2906150a2565b600454610100900460ff1615612b6457601354612b4190612a306150ef565b4210612b5f5760405162461bcd60e51b8152600401610be290615107565b612b91565b601354612b7390611c206150ef565b4210612b915760405162461bcd60e51b8152600401610be290615107565b336000908152600760209081526040808320600280855292529091205460ff1615612bce5760405162461bcd60e51b8152600401610be290615131565b60008233604051602001612bfe92919091825260601b6bffffffffffffffffffffffff1916602082015260340190565b60408051601f1981840301815291905280516020909101209050612c23600582615319565b15612c625760405162461bcd60e51b815260206004820152600f60248201526e19dd595cdcc81a5b98dbdc9c9958dd608a1b6044820152606401610be2565b611d9f8233613d65565b60045460ff16612c8e5760405162461bcd60e51b8152600401610be29061506b565b3360009081526005602052604090208054612ca890615031565b159050612cc75760405162461bcd60e51b8152600401610be2906150a2565b600454610100900460ff1615612d0957601354612ce690612a306150ef565b4210612d045760405162461bcd60e51b8152600401610be290615107565b612d36565b601354612d1890611c206150ef565b4210612d365760405162461bcd60e51b8152600401610be290615107565b336000908152600760209081526040808320600180855292529091205460ff1615612d735760405162461bcd60e51b8152600401610be290615131565b34600a1461209d5760405162461bcd60e51b8152602060048201526015602482015274496e76616c6964204d6573736167652056616c756560581b6044820152606401610be2565b60045460ff16612ddd5760405162461bcd60e51b8152600401610be29061506b565b3360009081526005602052604090208054612df790615031565b159050612e165760405162461bcd60e51b8152600401610be2906150a2565b600454610100900460ff1615612e5857601354612e3590612a306150ef565b4210612e535760405162461bcd60e51b8152600401610be290615107565b612e85565b601354612e6790611c206150ef565b4210612e855760405162461bcd60e51b8152600401610be290615107565b336000908152600760209081526040808320600e80855292529091205460ff1615612ec25760405162461bcd60e51b8152600401610be290615131565b336000908152600c60205260409020544211612f2e5760405162461bcd60e51b815260206004820152602560248201527f63616e6e6f7420706c6179206d756c7469706c652074696d657320696e2073616044820152640daca40e8f60db1b6064820152608401610be2565b604080514260208201526bffffffffffffffffffffffff193360601b169181019190915243605482015260009060740160408051601f19818403018152919052805160209091012090506000612f85600683615319565b9050808414612ff857336000908152600b6020526040808220919091555162461bcd60e51b8152610be29060040160208082526025908201527f476f74746120737465616c2074696d652066726f6d20746865206661756c747960408201526410383630b760d91b606082015260800190565b336000908152600b6020526040812080549161301383615201565b9091555050336000908152600c60209081526040808320429055600b909152902054600503611718576117188333613d65565b6005602052600090815260409020805461305f90615031565b80601f016020809104026020016040519081016040528092919081815260200182805461308b90615031565b80156130d85780601f106130ad576101008083540402835291602001916130d8565b820191906000526020600020905b8154815290600101906020018083116130bb57829003601f168201915b505050505081565b60045460ff166131025760405162461bcd60e51b8152600401610be29061506b565b336000908152600560205260409020805461311c90615031565b15905061313b5760405162461bcd60e51b8152600401610be2906150a2565b600454610100900460ff161561317d5760135461315a90612a306150ef565b42106131785760405162461bcd60e51b8152600401610be290615107565b6131aa565b60135461318c90611c206150ef565b42106131aa5760405162461bcd60e51b8152600401610be290615107565b6001600160a01b0383166000908152600760209081526040808320601180855292529091205460ff16156131f05760405162461bcd60e51b8152600401610be290615131565b7f5c8aed31bcb9e9889970b4a7647843b7ab31487f575ba97a73c104aeacc53223600061321d8285614322565b90506001600160a01b0381166132815760405162461bcd60e51b8152602060048201526024808201527f6d75737420626520612076616c6964207369676e617475726520627920736f6d604482015263656f6e6560e01b6064820152608401610be2565b846001600160a01b0316816001600160a01b0316146133085760405162461bcd60e51b815260206004820152603960248201527f5369676e6572206f6620746865206d65737361676520646964206e6f74206d6160448201527f7463682061637475616c206d657373616765207369676e6572000000000000006064820152608401610be2565b6001600160a01b0381166000908152600d602052604090205460ff16156133655760405162461bcd60e51b81526020600482015260116024820152704e4f205245504c41592041545441434b5360781b6044820152606401610be2565b6001600160a01b0381166000908152600d60205260409020805460ff191660011790556133928387613d65565b505050505050565b60045460ff166133bc5760405162461bcd60e51b8152600401610be29061506b565b33600090815260056020526040902080546133d690615031565b1590506133f55760405162461bcd60e51b8152600401610be2906150a2565b600454610100900460ff16156134375760135461341490612a306150ef565b42106134325760405162461bcd60e51b8152600401610be290615107565b613464565b60135461344690611c206150ef565b42106134645760405162461bcd60e51b8152600401610be290615107565b336000908152600760209081526040808320600a80855292529091205460ff16156134a15760405162461bcd60e51b8152600401610be290615131565b6000831280156134b15750600082135b61351b5760405162461bcd60e51b815260206004820152603560248201527f6669727374206e756d626572206d757374206265206e6567617469766520616e6044820152746420326e64206e756d62657220706f73697469766560581b6064820152608401610be2565b818303600a8113611d945760405162461bcd60e51b8152600401610be290615282565b60045460ff166135605760405162461bcd60e51b8152600401610be29061506b565b336000908152600560205260409020805461357a90615031565b1590506135995760405162461bcd60e51b8152600401610be2906150a2565b600454610100900460ff16156135db576013546135b890612a306150ef565b42106135d65760405162461bcd60e51b8152600401610be290615107565b613608565b6013546135ea90611c206150ef565b42106136085760405162461bcd60e51b8152600401610be290615107565b336000908152600760209081526040808320600380855292529091205464098765432183189060ff161561364e5760405162461bcd60e51b8152600401610be290615131565b8063beefdead14612c625760405162461bcd60e51b815260206004820152600d60248201526c125b9d985b1a5908125b9c1d5d609a1b6044820152606401610be2565b60045460ff166136b35760405162461bcd60e51b8152600401610be29061506b565b33600090815260056020526040902080546136cd90615031565b1590506136ec5760405162461bcd60e51b8152600401610be2906150a2565b600454610100900460ff161561372e5760135461370b90612a306150ef565b42106137295760405162461bcd60e51b8152600401610be290615107565b61375b565b60135461373d90611c206150ef565b421061375b5760405162461bcd60e51b8152600401610be290615107565b3360009081526007602081815260408084208385529091529091205460ff16156137975760405162461bcd60e51b8152600401610be290615131565b626a584c5a1161209d5760405162461bcd60e51b815260206004820152601b60248201527f6e6f7420656e6f7567682067617320666f722066756e6374696f6e00000000006044820152606401610be2565b60045460ff1661380b5760405162461bcd60e51b8152600401610be29061506b565b336000908152600560205260409020805461382590615031565b1590506138445760405162461bcd60e51b8152600401610be2906150a2565b600454610100900460ff16156138865760135461386390612a306150ef565b42106138815760405162461bcd60e51b8152600401610be290615107565b6138b3565b60135461389590611c206150ef565b42106138b35760405162461bcd60e51b8152600401610be290615107565b6001600160a01b0384166000908152600760209081526040808320601880855292529091205460ff16156138f95760405162461bcd60e51b8152600401610be290615131565b6000828152600f602052604090205460ff161561396e5760405162461bcd60e51b815260206004820152602d60248201527f50726f6f66206f662074686973206c6561642068617320616c7265616479206260448201526c195959881cdd589b5a5d1d1959609a1b6064820152608401610be2565b6139ce8484808060200260200160405190810160405280939291908181526020018383602002808284376000920191909152507f000000000000000000000000000000000000000000000000000000000000000092508691506143f99050565b613a135760405162461bcd60e51b815260206004820152601660248201527550726f6f6620636f756c64206e6f742076657269667960501b6044820152606401610be2565b6111f38186613d65565b60045460ff16613a3f5760405162461bcd60e51b8152600401610be29061506b565b3360009081526005602052604090208054613a5990615031565b159050613a785760405162461bcd60e51b8152600401610be2906150a2565b600454610100900460ff1615613aba57601354613a9790612a306150ef565b4210613ab55760405162461bcd60e51b8152600401610be290615107565b613ae7565b601354613ac990611c206150ef565b4210613ae75760405162461bcd60e51b8152600401610be290615107565b6001600160a01b0381166000908152600760209081526040808320601080855292529091205460ff1615613b2d5760405162461bcd60e51b8152600401610be290615131565b333b15613b7c5760405162461bcd60e51b815260206004820152601760248201527f4e6f20636f6e74726163747320746869732074696d65210000000000000000006044820152606401610be2565b6001600160a01b0382166000908152600a60205260408120549003610fc1576001600160a01b0382166000908152600a60205260408120805491613bbf83615201565b909155505060405160009033908281818181865af19150503d8060008114613c03576040519150601f19603f3d011682016040523d82523d6000602084013e613c08565b606091505b50509050806111a35760405162461bcd60e51b8152602060048201526014602482015273195e1d195c9b985b0818d85b1b0819985a5b195960621b6044820152606401610be2565b6001600160a01b038516331480613c6c5750613c6c8533610aed565b613c885760405162461bcd60e51b8152600401610be290615185565b6111f3858585858561440f565b613c9d613d0b565b6001600160a01b038116613d025760405162461bcd60e51b815260206004820152602660248201527f4f776e61626c653a206e6577206f776e657220697320746865207a65726f206160448201526564647265737360d01b6064820152608401610be2565b6120a7816140e5565b6000546001600160a01b03163314611abc5760405162461bcd60e51b815260206004820181905260248201527f4f776e61626c653a2063616c6c6572206973206e6f7420746865206f776e65726044820152606401610be2565b6000828152600e60205260408120805491613d7f83615201565b90915550506001600160a01b03811660008181526007602090815260408083208684528252808320805460ff191660011790556008825280832054938352600690915281208054909190613dd49084906150ef565b90915550506000828152600e60205260408120549003613e1d576001600160a01b0381166000908152600660205260408120805460059290613e179084906150ef565b90915550505b60098210613e4a576000828152600860205260408120805460029290613e4490849061532d565b90915550505b6000828152600e60205260408120805491613e6483615201565b91905055505050565b8151835114613ecf5760405162461bcd60e51b815260206004820152602860248201527f455243313135353a2069647320616e6420616d6f756e7473206c656e677468206044820152670dad2e6dac2e8c6d60c31b6064820152608401610be2565b6001600160a01b038416613ef55760405162461bcd60e51b8152600401610be290615341565b3360005b8451811015613fdf576000858281518110613f1657613f166151eb565b602002602001015190506000858381518110613f3457613f346151eb565b60209081029190910181015160008481526001835260408082206001600160a01b038e168352909352919091205490915081811015613f855760405162461bcd60e51b8152600401610be290615386565b60008381526001602090815260408083206001600160a01b038e8116855292528083208585039055908b16825281208054849290613fc49084906150ef565b9250508190555050505080613fd890615201565b9050613ef9565b50846001600160a01b0316866001600160a01b0316826001600160a01b03167f4a39dc06d4c0dbc64b70af90fd698a233a518aa5d07e595d983b8c0526c8f7fb878760405161402f9291906153d0565b60405180910390a461339281878787878761453d565b6000604051733d602d80600a3d3981f3363d3d373d3d3d363d7360601b81528360601b60148201526e5af43d82803e903d91602b57fd5bf360881b6028820152826037826000f59150506001600160a01b038116610c105760405162461bcd60e51b815260206004820152601760248201527f455243313136373a2063726561746532206661696c65640000000000000000006044820152606401610be2565b600080546001600160a01b038381166001600160a01b0319831681178455604051919092169283917f8be0079c531659141344cd1fd0a4f28419497f9722a3daafe3b4186f6b6457e09190a35050565b816001600160a01b0316836001600160a01b0316036141a85760405162461bcd60e51b815260206004820152602960248201527f455243313135353a2073657474696e6720617070726f76616c20737461747573604482015268103337b91039b2b63360b91b6064820152608401610be2565b6001600160a01b03838116600081815260026020908152604080832094871680845294825291829020805460ff191686151590811790915591519182527f17307eab39ab6107e8899845ad3d59bd9653f200f220920489ca2b5937696c31910160405180910390a3505050565b6001600160a01b0384166142755760405162461bcd60e51b815260206004820152602160248201527f455243313135353a206d696e7420746f20746865207a65726f206164647265736044820152607360f81b6064820152608401610be2565b33600061428185614698565b9050600061428e85614698565b905060008681526001602090815260408083206001600160a01b038b168452909152812080548792906142c29084906150ef565b909155505060408051878152602081018790526001600160a01b03808a1692600092918716917fc3d58168c5ae7397731d063d5bbf3d657854427343f4c083240f7aacaa2d0f62910160405180910390a4611556836000898989896146e3565b600080600080845160411461433d5760009350505050610c10565b50505060208201516040830151606084015160001a601b81101561436957614366601b826153fe565b90505b8060ff16601b1415801561438157508060ff16601c14155b156143925760009350505050610c10565b60408051600081526020810180835288905260ff831691810191909152606081018490526080810183905260019060a0016020604051602081039080840390855afa1580156143e5573d6000803e3d6000fd5b505050602060405103519350505050610c10565b600082614406858461479e565b14949350505050565b6001600160a01b0384166144355760405162461bcd60e51b8152600401610be290615341565b33600061444185614698565b9050600061444e85614698565b905060008681526001602090815260408083206001600160a01b038c168452909152902054858110156144935760405162461bcd60e51b8152600401610be290615386565b60008781526001602090815260408083206001600160a01b038d8116855292528083208985039055908a168252812080548892906144d29084906150ef565b909155505060408051888152602081018890526001600160a01b03808b16928c821692918816917fc3d58168c5ae7397731d063d5bbf3d657854427343f4c083240f7aacaa2d0f62910160405180910390a4614532848a8a8a8a8a6146e3565b505050505050505050565b6001600160a01b0384163b156133925760405163bc197c8160e01b81526001600160a01b0385169063bc197c81906145819089908990889088908890600401615423565b6020604051808303816000875af19250505080156145bc575060408051601f3d908101601f191682019092526145b991810190615481565b60015b614668576145c861549e565b806308c379a00361460157506145dc6154b9565b806145e75750614603565b8060405162461bcd60e51b8152600401610be29190614998565b505b60405162461bcd60e51b815260206004820152603460248201527f455243313135353a207472616e7366657220746f206e6f6e20455243313135356044820152732932b1b2b4bb32b91034b6b83632b6b2b73a32b960611b6064820152608401610be2565b6001600160e01b0319811663bc197c8160e01b146115565760405162461bcd60e51b8152600401610be290615542565b604080516001808252818301909252606091600091906020808301908036833701905050905082816000815181106146d2576146d26151eb565b602090810291909101015292915050565b6001600160a01b0384163b156133925760405163f23a6e6160e01b81526001600160a01b0385169063f23a6e6190614727908990899088908890889060040161558a565b6020604051808303816000875af1925050508015614762575060408051601f3d908101601f1916820190925261475f91810190615481565b60015b61476e576145c861549e565b6001600160e01b0319811663f23a6e6160e01b146115565760405162461bcd60e51b8152600401610be290615542565b600081815b845181101561183f576147cf828683815181106147c2576147c26151eb565b60200260200101516147e3565b9150806147db81615201565b9150506147a3565b60008183106147ff57600082815260208490526040902061480e565b60008381526020839052604090205b9392505050565b82805461482190615031565b90600052602060002090601f0160209004810192826148435760008555614889565b82601f1061485c57805160ff1916838001178555614889565b82800160010185558215614889579182015b8281111561488957825182559160200191906001019061486e565b50614895929150614899565b5090565b5b80821115614895576000815560010161489a565b80356001600160a01b03811681146148c557600080fd5b919050565b600080604083850312156148dd57600080fd5b6148e6836148ae565b946020939093013593505050565b6001600160e01b0319811681146120a757600080fd5b60006020828403121561491c57600080fd5b813561480e816148f4565b60006020828403121561493957600080fd5b5035919050565b60005b8381101561495b578181015183820152602001614943565b838111156117185750506000910152565b60008151808452614984816020860160208601614940565b601f01601f19169290920160200192915050565b60208152600061480e602083018461496c565b6000602082840312156149bd57600080fd5b61480e826148ae565b634e487b7160e01b600052604160045260246000fd5b601f8201601f191681016001600160401b0381118282101715614a0157614a016149c6565b6040525050565b60006001600160401b03821115614a2157614a216149c6565b5060051b60200190565b600082601f830112614a3c57600080fd5b81356020614a4982614a08565b604051614a5682826149dc565b83815260059390931b8501820192828101915086841115614a7657600080fd5b8286015b84811015614a915780358352918301918301614a7a565b509695505050505050565b60006001600160401b03831115614ab557614ab56149c6565b604051614acc601f8501601f1916602001826149dc565b809150838152848484011115614ae157600080fd5b83836020830137600060208583010152509392505050565b600082601f830112614b0a57600080fd5b61480e83833560208501614a9c565b600080600080600060a08688031215614b3157600080fd5b614b3a866148ae565b9450614b48602087016148ae565b935060408601356001600160401b0380821115614b6457600080fd5b614b7089838a01614a2b565b94506060880135915080821115614b8657600080fd5b614b9289838a01614a2b565b93506080880135915080821115614ba857600080fd5b50614bb588828901614af9565b9150509295509295909350565b60008060408385031215614bd557600080fd5b82359150614be5602084016148ae565b90509250929050565b60008060408385031215614c0157600080fd5b614c0a836148ae565b9150614be5602084016148ae565b60008060408385031215614c2b57600080fd5b82356001600160401b0380821115614c4257600080fd5b818501915085601f830112614c5657600080fd5b81356020614c6382614a08565b604051614c7082826149dc565b83815260059390931b8501820192828101915089841115614c9057600080fd5b948201945b83861015614cb557614ca6866148ae565b82529482019490820190614c95565b96505086013592505080821115614ccb57600080fd5b50614cd885828601614a2b565b9150509250929050565b600081518084526020808501945080840160005b83811015614d1257815187529582019590820190600101614cf6565b509495945050505050565b60208152600061480e6020830184614ce2565b600060208284031215614d4257600080fd5b81356001600160401b03811115614d5857600080fd5b614d6484828501614af9565b949350505050565b60008060408385031215614d7f57600080fd5b50508035926020909101359150565b600060208284031215614da057600080fd5b81356001600160401b03811115614db657600080fd5b8201601f81018413614dc757600080fd5b614d6484823560208401614a9c565b60008060208385031215614de957600080fd5b82356001600160401b0380821115614e0057600080fd5b818501915085601f830112614e1457600080fd5b813581811115614e2357600080fd5b866020828501011115614e3557600080fd5b60209290920196919550909350505050565b80151581146120a757600080fd5b60008060408385031215614e6857600080fd5b614e71836148ae565b91506020830135614e8181614e47565b809150509250929050565b600060208284031215614e9e57600080fd5b813561480e81614e47565b600080600060608486031215614ebe57600080fd5b83359250614ece602085016148ae565b9150614edc604085016148ae565b90509250925092565b600080600060608486031215614efa57600080fd5b614f03846148ae565b9250614f11602085016148ae565b915060408401356001600160401b03811115614f2c57600080fd5b614f3886828701614af9565b9150509250925092565b60008060008060608587031215614f5857600080fd5b614f61856148ae565b935060208501356001600160401b0380821115614f7d57600080fd5b818701915087601f830112614f9157600080fd5b813581811115614fa057600080fd5b8860208260051b8501011115614fb557600080fd5b95986020929092019750949560400135945092505050565b600080600080600060a08688031215614fe557600080fd5b614fee866148ae565b9450614ffc602087016148ae565b9350604086013592506060860135915060808601356001600160401b0381111561502557600080fd5b614bb588828901614af9565b600181811c9082168061504557607f821691505b60208210810361506557634e487b7160e01b600052602260045260246000fd5b50919050565b6020808252601b908201527f4861636b6174686f6e206973206e6f7420696e2073657373696f6e0000000000604082015260600190565b60208082526017908201527f416c72656164792072656769737465726564207465616d000000000000000000604082015260600190565b634e487b7160e01b600052601160045260246000fd5b60008219821115615102576151026150d9565b500190565b60208082526010908201526f151a5b59481a185cc8195e1c1a5c995960821b604082015260600190565b6020808252601f908201527f416c726561647920636f6d706c6574656420746869732066756e6374696f6e00604082015260600190565b60006020828403121561517a57600080fd5b815161480e81614e47565b6020808252602f908201527f455243313135353a2063616c6c6572206973206e6f7420746f6b656e206f776e60408201526e195c881b9bdc88185c1c1c9bdd9959608a1b606082015260800190565b6000828210156151e6576151e66150d9565b500390565b634e487b7160e01b600052603260045260246000fd5b600060018201615213576152136150d9565b5060010190565b6020808252601c908201527f696e636f727265637420616464726573732e2074727920616761696e00000000604082015260600190565b6001600160e01b0319831681528151600090615274816004850160208701614940565b919091016004019392505050565b6020808252602c908201527f446966666572656e6365206f66207468652074776f206d757374206265206d6f60408201526b7265207468616e207a65726f60a01b606082015260800190565b600082516152e0818460208701614940565b9190910192915050565b6000602082840312156152fc57600080fd5b5051919050565b634e487b7160e01b600052601260045260246000fd5b60008261532857615328615303565b500690565b60008261533c5761533c615303565b500490565b60208082526025908201527f455243313135353a207472616e7366657220746f20746865207a65726f206164604082015264647265737360d81b606082015260800190565b6020808252602a908201527f455243313135353a20696e73756666696369656e742062616c616e636520666f60408201526939103a3930b739b332b960b11b606082015260800190565b6040815260006153e36040830185614ce2565b82810360208401526153f58185614ce2565b95945050505050565b600060ff821660ff84168060ff0382111561541b5761541b6150d9565b019392505050565b6001600160a01b0386811682528516602082015260a06040820181905260009061544f90830186614ce2565b82810360608401526154618186614ce2565b90508281036080840152615475818561496c565b98975050505050505050565b60006020828403121561549357600080fd5b815161480e816148f4565b600060033d1115610dee5760046000803e5060005160e01c90565b600060443d10156154c75790565b6040516003193d81016004833e81513d6001600160401b0381602484011181841117156154f657505050505090565b828501915081518181111561550e5750505050505090565b843d87010160208285010111156155285750505050505090565b615537602082860101876149dc565b509095945050505050565b60208082526028908201527f455243313135353a204552433131353552656365697665722072656a656374656040820152676420746f6b656e7360c01b606082015260800190565b6001600160a01b03868116825285166020820152604081018490526060810183905260a0608082018190526000906155c49083018461496c565b97965050505050505056fe736574207468652067656172736869667420666f722074686520686967682067656172206f6620796f757220736f756ca26469706673582212206755890f9b3292e7b3a87c02c5ce8ad47b4d50bac70e6c1eb68723a7dc10a70964736f6c634300080d0033608060405234801561001057600080fd5b50610121806100206000396000f3fe6080604052348015600f57600080fd5b506004361060285760003560e01c8063d1f5d67014602d575b600080fd5b60336047565b604051603e91906063565b60405180910390f35b6040518060600160405280603681526020016100b66036913981565b600060208083528351808285015260005b81811015608e578581018301518582016040015282016074565b81811115609f576000604083870101525b50601f01601f191692909201604001939250505056fe62657420796f752063616e2774206775657373206d792061646472657373206265666f726520696d206576656e206465706c6f796564a264697066735822122060b88856ce30437630688ea8f87d4e76e2383d2e5d6e263199cafdbc08f6d17864736f6c634300080d0033",
    "linkReferences": {
      "contracts/MerkleTree.sol": {
        "merkleTree": [
          {
            "start": 401,
            "length": 20
          }
        ]
      }
    }
  },
  "methodIdentifiers": {
    "balanceOf(address,uint256)": "00fdd58e",
    "balanceOfBatch(address[],uint256[])": "4e1273f4",
    "diceRollLastWin(address)": "ca9eaf59",
    "diceRollWins(address)": "c1a8f2c6",
    "entryCount(address)": "41dd1ef8",
    "extendTime()": "abb6ae89",
    "f0(bool)": "aa91c62e",
    "f1()": "c27fc305",
    "f10(int256,int256)": "d75203c3",
    "f11(int256,int256)": "81e0f90c",
    "f12(bytes)": "a481b0e4",
    "f13()": "920f5c73",
    "f14(uint256)": "c28cb1d4",
    "f15(uint256)": "2f4dc9da",
    "f16(address)": "ed6a9904",
    "f17(address,address,bytes)": "c78de838",
    "f18(uint256,address,address)": "b1d8dd56",
    "f19(address)": "237b3bde",
    "f2(uint256)": "bf3724af",
    "f20(address,address)": "49b9dbe6",
    "f21(uint256,address)": "3cc73050",
    "f22(address)": "a60463e4",
    "f23(address)": "2c9b3119",
    "f24(address,bytes32[],bytes32)": "e1446783",
    "f3(uint256)": "d7b7913b",
    "f4(address)": "50a48d2e",
    "f5(address)": "93d1758c",
    "f6(address)": "604f7523",
    "f7()": "df2025dc",
    "f8(bytes)": "964ef96b",
    "f9(bytes)": "787f485a",
    "internalChallengeHook()": "1625d7fe",
    "isApprovedForAll(address,address)": "e985e9c5",
    "live()": "957aa58c",
    "merkleRoot()": "2eb4a7ab",
    "owner()": "8da5cb5b",
    "points(uint256)": "9799b4e7",
    "progress(address,uint256)": "0c91cdbc",
    "registerTeam(string)": "8729e5c1",
    "renounceOwnership()": "715018a6",
    "safeBatchTransferFrom(address,address,uint256[],uint256[],bytes)": "2eb2c2d6",
    "safeTransferFrom(address,address,uint256,uint256,bytes)": "f242432a",
    "scores(address)": "76dd110f",
    "secondEntryCount(address)": "83e9ff47",
    "setApprovalForAll(address,bool)": "a22cb465",
    "signers(address)": "736c0d5b",
    "solves(uint256)": "3d056172",
    "start()": "be9a6555",
    "stop()": "07da68f5",
    "supportsInterface(bytes4)": "01ffc9a7",
    "teamAddresses(uint256)": "2419217e",
    "teams(address)": "c4583240",
    "template()": "6f2ddd93",
    "timeExtended()": "db0fff37",
    "transferOwnership(address)": "f2fde38b",
    "uri(uint256)": "0e89341c",
    "usedLeaves(bytes32)": "3b5e60c2",
    "weth()": "3fc8cef3"
  },
  "id": 0
}