{
  "abi": [
    {
      "inputs": [],
      "stateMutability": "nonpayable",
      "type": "constructor"
    },
    {
      "anonymous": false,
      "inputs": [
        {
          "indexed": true,
          "internalType": "address",
          "name": "previousOwner",
          "type": "address"
        },
        {
          "indexed": true,
          "internalType": "address",
          "name": "newOwner",
          "type": "address"
        }
      ],
      "name": "OwnershipTransferred",
      "type": "event"
    },
    {
      "inputs": [
        {
          "internalType": "bool",
          "name": "val",
          "type": "bool"
        }
      ],
      "name": "f0",
      "outputs": [],
      "stateMutability": "nonpayable",
      "type": "function"
    },
    {
      "inputs": [
        {
          "internalType": "uint256",
          "name": "val",
          "type": "uint256"
        }
      ],
      "name": "f1",
      "outputs": [],
      "stateMutability": "nonpayable",
      "type": "function"
    },
    {
      "inputs": [
        {
          "internalType": "int256",
          "name": "num1",
          "type": "int256"
        },
        {
          "internalType": "int256",
          "name": "num2",
          "type": "int256"
        }
      ],
      "name": "f10",
      "outputs": [],
      "stateMutability": "nonpayable",
      "type": "function"
    },
    {
      "inputs": [
        {
          "internalType": "int256",
          "name": "num1",
          "type": "int256"
        },
        {
          "internalType": "int256",
          "name": "num2",
          "type": "int256"
        }
      ],
      "name": "f11",
      "outputs": [],
      "stateMutability": "nonpayable",
      "type": "function"
    },
    {
      "inputs": [
        {
          "internalType": "bytes",
          "name": "data",
          "type": "bytes"
        }
      ],
      "name": "f12",
      "outputs": [],
      "stateMutability": "nonpayable",
      "type": "function"
    },
    {
      "inputs": [],
      "name": "f13",
      "outputs": [],
      "stateMutability": "nonpayable",
      "type": "function"
    },
    {
      "inputs": [],
      "name": "f2",
      "outputs": [],
      "stateMutability": "payable",
      "type": "function"
    },
    {
      "inputs": [
        {
          "internalType": "uint256",
          "name": "data",
          "type": "uint256"
        }
      ],
      "name": "f3",
      "outputs": [],
      "stateMutability": "nonpayable",
      "type": "function"
    },
    {
      "inputs": [
        {
          "internalType": "address",
          "name": "destAddr",
          "type": "address"
        }
      ],
      "name": "f4",
      "outputs": [],
      "stateMutability": "nonpayable",
      "type": "function"
    },
    {
      "inputs": [
        {
          "internalType": "address",
          "name": "destAddr",
          "type": "address"
        }
      ],
      "name": "f5",
      "outputs": [],
      "stateMutability": "nonpayable",
      "type": "function"
    },
    {
      "inputs": [
        {
          "internalType": "address",
          "name": "destAddr",
          "type": "address"
        }
      ],
      "name": "f6",
      "outputs": [],
      "stateMutability": "nonpayable",
      "type": "function"
    },
    {
      "inputs": [],
      "name": "f7",
      "outputs": [],
      "stateMutability": "nonpayable",
      "type": "function"
    },
    {
      "inputs": [
        {
          "internalType": "bytes",
          "name": "data",
          "type": "bytes"
        }
      ],
      "name": "f8",
      "outputs": [],
      "stateMutability": "nonpayable",
      "type": "function"
    },
    {
      "inputs": [
        {
          "internalType": "bytes",
          "name": "data",
          "type": "bytes"
        }
      ],
      "name": "f9",
      "outputs": [],
      "stateMutability": "nonpayable",
      "type": "function"
    },
    {
      "inputs": [],
      "name": "internalHook",
      "outputs": [
        {
          "internalType": "bool",
          "name": "",
          "type": "bool"
        }
      ],
      "stateMutability": "nonpayable",
      "type": "function"
    },
    {
      "inputs": [],
      "name": "live",
      "outputs": [
        {
          "internalType": "bool",
          "name": "",
          "type": "bool"
        }
      ],
      "stateMutability": "view",
      "type": "function"
    },
    {
      "inputs": [],
      "name": "owner",
      "outputs": [
        {
          "internalType": "address",
          "name": "",
          "type": "address"
        }
      ],
      "stateMutability": "view",
      "type": "function"
    },
    {
      "inputs": [
        {
          "internalType": "uint256",
          "name": "",
          "type": "uint256"
        }
      ],
      "name": "points",
      "outputs": [
        {
          "internalType": "uint256",
          "name": "",
          "type": "uint256"
        }
      ],
      "stateMutability": "view",
      "type": "function"
    },
    {
      "inputs": [
        {
          "internalType": "address",
          "name": "",
          "type": "address"
        },
        {
          "internalType": "uint256",
          "name": "",
          "type": "uint256"
        }
      ],
      "name": "progress",
      "outputs": [
        {
          "internalType": "bool",
          "name": "",
          "type": "bool"
        }
      ],
      "stateMutability": "view",
      "type": "function"
    },
    {
      "inputs": [
        {
          "internalType": "string",
          "name": "team",
          "type": "string"
        }
      ],
      "name": "registerTeam",
      "outputs": [],
      "stateMutability": "nonpayable",
      "type": "function"
    },
    {
      "inputs": [],
      "name": "renounceOwnership",
      "outputs": [],
      "stateMutability": "nonpayable",
      "type": "function"
    },
    {
      "inputs": [
        {
          "internalType": "address",
          "name": "",
          "type": "address"
        }
      ],
      "name": "scores",
      "outputs": [
        {
          "internalType": "uint256",
          "name": "",
          "type": "uint256"
        }
      ],
      "stateMutability": "view",
      "type": "function"
    },
    {
      "inputs": [],
      "name": "start",
      "outputs": [],
      "stateMutability": "nonpayable",
      "type": "function"
    },
    {
      "inputs": [],
      "name": "stop",
      "outputs": [],
      "stateMutability": "nonpayable",
      "type": "function"
    },
    {
      "inputs": [
        {
          "internalType": "address",
          "name": "",
          "type": "address"
        }
      ],
      "name": "teams",
      "outputs": [
        {
          "internalType": "string",
          "name": "",
          "type": "string"
        }
      ],
      "stateMutability": "view",
      "type": "function"
    },
    {
      "inputs": [
        {
          "internalType": "address",
          "name": "newOwner",
          "type": "address"
        }
      ],
      "name": "transferOwnership",
      "outputs": [],
      "stateMutability": "nonpayable",
      "type": "function"
    }
  ],
  "bytecode": {
    "object": "0x60806040523480156200001157600080fd5b506200001d3362000062565b60005b60148110156200005b5762000037816001620000c8565b600082815260046020526040902055806200005281620000e3565b91505062000020565b50620000ff565b600080546001600160a01b038381166001600160a01b0319831681178455604051919092169283917f8be0079c531659141344cd1fd0a4f28419497f9722a3daafe3b4186f6b6457e09190a35050565b634e487b7160e01b600052601160045260246000fd5b60008219821115620000de57620000de620000b2565b500190565b600060018201620000f857620000f8620000b2565b5060010190565b611c49806200010f6000396000f3fe6080604052600436106101815760003560e01c8063957aa58c116100d1578063aa91c62e1161008a578063d75203c311610064578063d75203c314610467578063d7b7913b14610487578063df2025dc146104a7578063f2fde38b146104bc57600080fd5b8063aa91c62e14610405578063be9a655514610425578063c45832401461043a57600080fd5b8063957aa58c1461034f578063964ef96b146103705780639799b4e7146103905780639942ec6f146103bd5780639adbf691146103c5578063a481b0e4146103e557600080fd5b806376dd110f1161013e5780638729e5c1116101185780638729e5c1146102d25780638da5cb5b146102f2578063920f5c731461031a57806393d1758c1461032f57600080fd5b806376dd110f14610257578063787f485a1461029257806381e0f90c146102b257600080fd5b806307da68f5146101865780630c91cdbc1461019d57806350a48d2e146101ed578063604f75231461020d5780636b6ca1ec1461022d578063715018a614610242575b600080fd5b34801561019257600080fd5b5061019b6104dc565b005b3480156101a957600080fd5b506101d86101b83660046117c4565b600360209081526000928352604080842090915290825290205460ff1681565b60405190151581526020015b60405180910390f35b3480156101f957600080fd5b5061019b6102083660046117ee565b6104f3565b34801561021957600080fd5b5061019b6102283660046117ee565b610613565b34801561023957600080fd5b506101d86106df565b34801561024e57600080fd5b5061019b610748565b34801561026357600080fd5b506102846102723660046117ee565b60026020526000908152604090205481565b6040519081526020016101e4565b34801561029e57600080fd5b5061019b6102ad366004611810565b61075c565b3480156102be57600080fd5b5061019b6102cd366004611882565b6108ae565b3480156102de57600080fd5b5061019b6102ed366004611930565b610a14565b3480156102fe57600080fd5b506000546040516001600160a01b0390911681526020016101e4565b34801561032657600080fd5b5061019b610a9a565b34801561033b57600080fd5b5061019b61034a3660046117ee565b610afc565b34801561035b57600080fd5b506000546101d890600160a01b900460ff1681565b34801561037c57600080fd5b5061019b61038b366004611810565b610bc3565b34801561039c57600080fd5b506102846103ab366004611981565b60046020526000908152604090205481565b61019b610cd9565b3480156103d157600080fd5b5061019b6103e0366004611981565b610e0f565b3480156103f157600080fd5b5061019b610400366004611930565b610f3c565b34801561041157600080fd5b5061019b61042036600461199a565b6110ab565b34801561043157600080fd5b5061019b611194565b34801561044657600080fd5b5061045a6104553660046117ee565b6111b1565b6040516101e49190611a18565b34801561047357600080fd5b5061019b610482366004611882565b61124b565b34801561049357600080fd5b5061019b6104a2366004611981565b611369565b3480156104b357600080fd5b5061019b61149a565b3480156104c857600080fd5b5061019b6104d73660046117ee565b61158b565b6104e4611604565b6000805460ff60a01b19169055565b600054600160a01b900460ff166105255760405162461bcd60e51b815260040161051c90611a2b565b60405180910390fd5b336000908152600160205260409020805461053f90611a62565b15905061055e5760405162461bcd60e51b815260040161051c90611a9c565b336000908152600360209081526040808320600480855292529091205460ff161561059b5760405162461bcd60e51b815260040161051c90611ad3565b6001600160a01b03821630146105c35760405162461bcd60e51b815260040161051c90611b0a565b3360008181526003602090815260408083208584528252808320805460ff19166001179055600482528083205493835260029091528120805490919061060a908490611b41565b90915550505050565b600054600160a01b900460ff1661063c5760405162461bcd60e51b815260040161051c90611a2b565b336000908152600160205260409020805461065690611a62565b1590506106755760405162461bcd60e51b815260040161051c90611a9c565b336000908152600360209081526040808320600680855292529091205460ff16156106b25760405162461bcd60e51b815260040161051c90611ad3565b6000546001600160a01b038381169116146105c35760405162461bcd60e51b815260040161051c90611b0a565b60008054600160a01b900460ff166107095760405162461bcd60e51b815260040161051c90611a2b565b336000908152600160205260409020805461072390611a62565b1590506107425760405162461bcd60e51b815260040161051c90611a9c565b50600190565b610750611604565b61075a600061165e565b565b600054600160a01b900460ff166107855760405162461bcd60e51b815260040161051c90611a2b565b336000908152600160205260409020805461079f90611a62565b1590506107be5760405162461bcd60e51b815260040161051c90611a9c565b336000908152600360209081526040808320600980855292529091205460ff16156107fb5760405162461bcd60e51b815260040161051c90611ad3565b633c3fa42d60e11b6001600160e01b0319600035161461085d5760405162461bcd60e51b815260206004820152601960248201527f696e76616c69642066756e6374696f6e2073656c6563746f7200000000000000604482015260640161051c565b3360008181526003602090815260408083208584528252808320805460ff1916600117905560048252808320549383526002909152812080549091906108a4908490611b41565b9091555050505050565b600054600160a01b900460ff166108d75760405162461bcd60e51b815260040161051c90611a2b565b33600090815260016020526040902080546108f190611a62565b1590506109105760405162461bcd60e51b815260040161051c90611a9c565b336000908152600360209081526040808320600b80855292529091205460ff161561094d5760405162461bcd60e51b815260040161051c90611ad3565b60008313801561095d5750600082135b6109a95760405162461bcd60e51b815260206004820152601e60248201527f4e756d62657273206d757374206265206c657373207468616e207a65726f0000604482015260640161051c565b828201600081126109cc5760405162461bcd60e51b815260040161051c90611b67565b503360008181526003602090815260408083208584528252808320805460ff1916600117905560048252808320549383526002909152812080549091906108a4908490611b41565b600054600160a01b900460ff16610a3d5760405162461bcd60e51b815260040161051c90611a2b565b3360009081526001602052604090208054610a5790611a62565b159050610a765760405162461bcd60e51b815260040161051c90611a9c565b3360009081526001602090815260409091208251610a969284019061170f565b5050565b600054600160a01b900460ff16610ac35760405162461bcd60e51b815260040161051c90611a2b565b3360009081526001602052604090208054610add90611a62565b15905061075a5760405162461bcd60e51b815260040161051c90611a9c565b600054600160a01b900460ff16610b255760405162461bcd60e51b815260040161051c90611a2b565b3360009081526001602052604090208054610b3f90611a62565b159050610b5e5760405162461bcd60e51b815260040161051c90611a9c565b336000908152600360209081526040808320600580855292529091205460ff1615610b9b5760405162461bcd60e51b815260040161051c90611ad3565b6001600160a01b03821633146105c35760405162461bcd60e51b815260040161051c90611b0a565b600054600160a01b900460ff16610bec5760405162461bcd60e51b815260040161051c90611a2b565b3360009081526001602052604090208054610c0690611a62565b159050610c255760405162461bcd60e51b815260040161051c90611a9c565b336000908152600360209081526040808320600880855292529091205460ff1615610c625760405162461bcd60e51b815260040161051c90611ad3565b60408051808201909152600d81526c03230ba30903632b733ba341d1609d1b6020820152610c9090836116ae565b6010821461085d5760405162461bcd60e51b8152602060048201526016602482015275696e76616c6964206c656e677468206f66206461746160501b604482015260640161051c565b600054600160a01b900460ff16610d025760405162461bcd60e51b815260040161051c90611a2b565b3360009081526001602052604090208054610d1c90611a62565b159050610d3b5760405162461bcd60e51b815260040161051c90611a9c565b336000908152600360209081526040808320600280855292529091205460ff1615610d785760405162461bcd60e51b815260040161051c90611ad3565b34600114610dc05760405162461bcd60e51b8152602060048201526015602482015274496e76616c6964204d6573736167652056616c756560581b604482015260640161051c565b3360008181526003602090815260408083208584528252808320805460ff191660011790556004825280832054938352600290915281208054909190610e07908490611b41565b909155505050565b600054600160a01b900460ff16610e385760405162461bcd60e51b815260040161051c90611a2b565b3360009081526001602052604090208054610e5290611a62565b159050610e715760405162461bcd60e51b815260040161051c90611a9c565b336000908152600360209081526040808320600180855292529091205460ff1615610eae5760405162461bcd60e51b815260040161051c90611ad3565b600082604051602001610ec391815260200190565b60408051601f1981840301815291905280516020909101209050610ee961019482611bb3565b600003610f37573360008181526003602090815260408083208684528252808320805460ff1916600117905560048252808320549383526002909152812080549091906108a4908490611b41565b505050565b600054600160a01b900460ff16610f655760405162461bcd60e51b815260040161051c90611a2b565b3360009081526001602052604090208054610f7f90611a62565b159050610f9e5760405162461bcd60e51b815260040161051c90611a9c565b604051600c9060009081903090610fb6908690611bd5565b6000604051808303816000865af19150503d8060008114610ff3576040519150601f19603f3d011682016040523d82523d6000602084013e610ff8565b606091505b5091509150816110595760405162461bcd60e51b815260206004820152602660248201527f696e7465726e616c2066756e6374696f6e2063616c6c20646964206e6f7420736044820152651d58d8d9595960d21b606482015260840161051c565b3360008181526003602090815260408083208784528252808320805460ff1916600117905560048252808320549383526002909152812080549091906110a0908490611b41565b909155505050505050565b600054600160a01b900460ff166110d45760405162461bcd60e51b815260040161051c90611a2b565b33600090815260016020526040902080546110ee90611a62565b15905061110d5760405162461bcd60e51b815260040161051c90611a9c565b33600090815260036020908152604080832083805290915281205460ff16156111485760405162461bcd60e51b815260040161051c90611ad3565b81610a96573360008181526003602090815260408083208584528252808320805460ff19166001179055600482528083205493835260029091528120805490919061060a908490611b41565b61119c611604565b6000805460ff60a01b1916600160a01b179055565b600160205260009081526040902080546111ca90611a62565b80601f01602080910402602001604051908101604052809291908181526020018280546111f690611a62565b80156112435780601f1061121857610100808354040283529160200191611243565b820191906000526020600020905b81548152906001019060200180831161122657829003601f168201915b505050505081565b600054600160a01b900460ff166112745760405162461bcd60e51b815260040161051c90611a2b565b336000908152600160205260409020805461128e90611a62565b1590506112ad5760405162461bcd60e51b815260040161051c90611a9c565b336000908152600360209081526040808320600a80855292529091205460ff16156112ea5760405162461bcd60e51b815260040161051c90611ad3565b6000831280156112fa5750600082135b6113465760405162461bcd60e51b815260206004820152601e60248201527f4e756d62657273206d757374206265206c657373207468616e207a65726f0000604482015260640161051c565b818303600081136109cc5760405162461bcd60e51b815260040161051c90611b67565b600054600160a01b900460ff166113925760405162461bcd60e51b815260040161051c90611a2b565b33600090815260016020526040902080546113ac90611a62565b1590506113cb5760405162461bcd60e51b815260040161051c90611a9c565b3360009081526003602081815260408084208385529091529091205464012345678983189060ff16156114105760405162461bcd60e51b815260040161051c90611ad3565b8063deadbeef146114535760405162461bcd60e51b815260206004820152600d60248201526c125b9d985b1a5908125b9c1d5d609a1b604482015260640161051c565b3360008181526003602090815260408083208684528252808320805460ff1916600117905560048252808320549383526002909152812080549091906108a4908490611b41565b600054600160a01b900460ff166114c35760405162461bcd60e51b815260040161051c90611a2b565b33600090815260016020526040902080546114dd90611a62565b1590506114fc5760405162461bcd60e51b815260040161051c90611a9c565b336000908152600360209081526040808320600780855292529091205460ff16156115395760405162461bcd60e51b815260040161051c90611ad3565b624c4b405a11610dc05760405162461bcd60e51b815260206004820152601b60248201527f6e6f7420656e6f7567682067617320666f722066756e6374696f6e0000000000604482015260640161051c565b611593611604565b6001600160a01b0381166115f85760405162461bcd60e51b815260206004820152602660248201527f4f776e61626c653a206e6577206f776e657220697320746865207a65726f206160448201526564647265737360d01b606482015260840161051c565b6116018161165e565b50565b6000546001600160a01b0316331461075a5760405162461bcd60e51b815260206004820181905260248201527f4f776e61626c653a2063616c6c6572206973206e6f7420746865206f776e6572604482015260640161051c565b600080546001600160a01b038381166001600160a01b0319831681178455604051919092169283917f8be0079c531659141344cd1fd0a4f28419497f9722a3daafe3b4186f6b6457e09190a35050565b610a9682826040516024016116c4929190611bf1565b60408051601f198184030181529190526020810180516001600160e01b0316632d839cb360e21b17905280516a636f6e736f6c652e6c6f67602083016000808483855afa5050505050565b82805461171b90611a62565b90600052602060002090601f01602090048101928261173d5760008555611783565b82601f1061175657805160ff1916838001178555611783565b82800160010185558215611783579182015b82811115611783578251825591602001919060010190611768565b5061178f929150611793565b5090565b5b8082111561178f5760008155600101611794565b80356001600160a01b03811681146117bf57600080fd5b919050565b600080604083850312156117d757600080fd5b6117e0836117a8565b946020939093013593505050565b60006020828403121561180057600080fd5b611809826117a8565b9392505050565b6000806020838503121561182357600080fd5b823567ffffffffffffffff8082111561183b57600080fd5b818501915085601f83011261184f57600080fd5b81358181111561185e57600080fd5b86602082850101111561187057600080fd5b60209290920196919550909350505050565b6000806040838503121561189557600080fd5b50508035926020909101359150565b634e487b7160e01b600052604160045260246000fd5b600067ffffffffffffffff808411156118d5576118d56118a4565b604051601f8501601f19908116603f011681019082821181831017156118fd576118fd6118a4565b8160405280935085815286868601111561191657600080fd5b858560208301376000602087830101525050509392505050565b60006020828403121561194257600080fd5b813567ffffffffffffffff81111561195957600080fd5b8201601f8101841361196a57600080fd5b611979848235602084016118ba565b949350505050565b60006020828403121561199357600080fd5b5035919050565b6000602082840312156119ac57600080fd5b8135801515811461180957600080fd5b60005b838110156119d75781810151838201526020016119bf565b838111156119e6576000848401525b50505050565b60008151808452611a048160208601602086016119bc565b601f01601f19169290920160200192915050565b60208152600061180960208301846119ec565b6020808252601b908201527f4861636b6174686f6e206973206e6f7420696e2073657373696f6e0000000000604082015260600190565b600181811c90821680611a7657607f821691505b602082108103611a9657634e487b7160e01b600052602260045260246000fd5b50919050565b60208082526017908201527f416c72656164792072656769737465726564207465616d000000000000000000604082015260600190565b6020808252601f908201527f416c726561647920636f6d706c6574656420746869732066756e6374696f6e00604082015260600190565b6020808252601c908201527f696e636f727265637420616464726573732e2074727920616761696e00000000604082015260600190565b60008219821115611b6257634e487b7160e01b600052601160045260246000fd5b500190565b6020808252602c908201527f446966666572656e6365206f66207468652074776f206d757374206265206d6f60408201526b7265207468616e207a65726f60a01b606082015260800190565b600082611bd057634e487b7160e01b600052601260045260246000fd5b500690565b60008251611be78184602087016119bc565b9190910192915050565b604081526000611c0460408301856119ec565b9050826020830152939250505056fea2646970667358221220931b40f3b7ae8a45a75aa81a942c29eb5d87d36dce10ed712c13924fac0eb68764736f6c634300080d0033",
    "linkReferences": {}
  },
  "methodIdentifiers": {
    "f0(bool)": "aa91c62e",
    "f1(uint256)": "9adbf691",
    "f10(int256,int256)": "d75203c3",
    "f11(int256,int256)": "81e0f90c",
    "f12(bytes)": "a481b0e4",
    "f13()": "920f5c73",
    "f2()": "9942ec6f",
    "f3(uint256)": "d7b7913b",
    "f4(address)": "50a48d2e",
    "f5(address)": "93d1758c",
    "f6(address)": "604f7523",
    "f7()": "df2025dc",
    "f8(bytes)": "964ef96b",
    "f9(bytes)": "787f485a",
    "internalHook()": "6b6ca1ec",
    "live()": "957aa58c",
    "owner()": "8da5cb5b",
    "points(uint256)": "9799b4e7",
    "progress(address,uint256)": "0c91cdbc",
    "registerTeam(string)": "8729e5c1",
    "renounceOwnership()": "715018a6",
    "scores(address)": "76dd110f",
    "start()": "be9a6555",
    "stop()": "07da68f5",
    "teams(address)": "c4583240",
    "transferOwnership(address)": "f2fde38b"
  },
  "id": 0
}