{
  "abi": [
    {
      "inputs": [
        {
          "internalType": "string",
          "name": "uri",
          "type": "string"
        }
      ],
      "stateMutability": "nonpayable",
      "type": "constructor"
    },
    {
      "anonymous": false,
      "inputs": [
        {
          "indexed": true,
          "internalType": "address",
          "name": "account",
          "type": "address"
        },
        {
          "indexed": true,
          "internalType": "address",
          "name": "operator",
          "type": "address"
        },
        {
          "indexed": false,
          "internalType": "bool",
          "name": "approved",
          "type": "bool"
        }
      ],
      "name": "ApprovalForAll",
      "type": "event"
    },
    {
      "anonymous": false,
      "inputs": [
        {
          "indexed": true,
          "internalType": "address",
          "name": "previousOwner",
          "type": "address"
        },
        {
          "indexed": true,
          "internalType": "address",
          "name": "newOwner",
          "type": "address"
        }
      ],
      "name": "OwnershipTransferred",
      "type": "event"
    },
    {
      "anonymous": false,
      "inputs": [
        {
          "indexed": true,
          "internalType": "address",
          "name": "operator",
          "type": "address"
        },
        {
          "indexed": true,
          "internalType": "address",
          "name": "from",
          "type": "address"
        },
        {
          "indexed": true,
          "internalType": "address",
          "name": "to",
          "type": "address"
        },
        {
          "indexed": false,
          "internalType": "uint256[]",
          "name": "ids",
          "type": "uint256[]"
        },
        {
          "indexed": false,
          "internalType": "uint256[]",
          "name": "values",
          "type": "uint256[]"
        }
      ],
      "name": "TransferBatch",
      "type": "event"
    },
    {
      "anonymous": false,
      "inputs": [
        {
          "indexed": true,
          "internalType": "address",
          "name": "operator",
          "type": "address"
        },
        {
          "indexed": true,
          "internalType": "address",
          "name": "from",
          "type": "address"
        },
        {
          "indexed": true,
          "internalType": "address",
          "name": "to",
          "type": "address"
        },
        {
          "indexed": false,
          "internalType": "uint256",
          "name": "id",
          "type": "uint256"
        },
        {
          "indexed": false,
          "internalType": "uint256",
          "name": "value",
          "type": "uint256"
        }
      ],
      "name": "TransferSingle",
      "type": "event"
    },
    {
      "anonymous": false,
      "inputs": [
        {
          "indexed": false,
          "internalType": "string",
          "name": "value",
          "type": "string"
        },
        {
          "indexed": true,
          "internalType": "uint256",
          "name": "id",
          "type": "uint256"
        }
      ],
      "name": "URI",
      "type": "event"
    },
    {
      "inputs": [
        {
          "internalType": "address",
          "name": "account",
          "type": "address"
        },
        {
          "internalType": "uint256",
          "name": "id",
          "type": "uint256"
        }
      ],
      "name": "balanceOf",
      "outputs": [
        {
          "internalType": "uint256",
          "name": "",
          "type": "uint256"
        }
      ],
      "stateMutability": "view",
      "type": "function"
    },
    {
      "inputs": [
        {
          "internalType": "address[]",
          "name": "accounts",
          "type": "address[]"
        },
        {
          "internalType": "uint256[]",
          "name": "ids",
          "type": "uint256[]"
        }
      ],
      "name": "balanceOfBatch",
      "outputs": [
        {
          "internalType": "uint256[]",
          "name": "",
          "type": "uint256[]"
        }
      ],
      "stateMutability": "view",
      "type": "function"
    },
    {
      "inputs": [],
      "name": "challengeHook",
      "outputs": [
        {
          "internalType": "uint256",
          "name": "",
          "type": "uint256"
        }
      ],
      "stateMutability": "view",
      "type": "function"
    },
    {
      "inputs": [
        {
          "internalType": "address",
          "name": "",
          "type": "address"
        }
      ],
      "name": "diceRollLastWin",
      "outputs": [
        {
          "internalType": "uint256",
          "name": "",
          "type": "uint256"
        }
      ],
      "stateMutability": "view",
      "type": "function"
    },
    {
      "inputs": [
        {
          "internalType": "address",
          "name": "",
          "type": "address"
        }
      ],
      "name": "diceRollWins",
      "outputs": [
        {
          "internalType": "uint256",
          "name": "",
          "type": "uint256"
        }
      ],
      "stateMutability": "view",
      "type": "function"
    },
    {
      "inputs": [
        {
          "internalType": "address",
          "name": "",
          "type": "address"
        }
      ],
      "name": "entryCount",
      "outputs": [
        {
          "internalType": "uint256",
          "name": "",
          "type": "uint256"
        }
      ],
      "stateMutability": "view",
      "type": "function"
    },
    {
      "inputs": [
        {
          "internalType": "bool",
          "name": "val",
          "type": "bool"
        }
      ],
      "name": "f0",
      "outputs": [],
      "stateMutability": "nonpayable",
      "type": "function"
    },
    {
      "inputs": [],
      "name": "f1",
      "outputs": [],
      "stateMutability": "payable",
      "type": "function"
    },
    {
      "inputs": [
        {
          "internalType": "int256",
          "name": "num1",
          "type": "int256"
        },
        {
          "internalType": "int256",
          "name": "num2",
          "type": "int256"
        }
      ],
      "name": "f10",
      "outputs": [],
      "stateMutability": "nonpayable",
      "type": "function"
    },
    {
      "inputs": [
        {
          "internalType": "int256",
          "name": "num1",
          "type": "int256"
        },
        {
          "internalType": "int256",
          "name": "num2",
          "type": "int256"
        }
      ],
      "name": "f11",
      "outputs": [],
      "stateMutability": "nonpayable",
      "type": "function"
    },
    {
      "inputs": [
        {
          "internalType": "bytes",
          "name": "data",
          "type": "bytes"
        }
      ],
      "name": "f12",
      "outputs": [],
      "stateMutability": "nonpayable",
      "type": "function"
    },
    {
      "inputs": [],
      "name": "f13",
      "outputs": [],
      "stateMutability": "payable",
      "type": "function"
    },
    {
      "inputs": [
        {
          "internalType": "uint256",
          "name": "diceRoll",
          "type": "uint256"
        }
      ],
      "name": "f14",
      "outputs": [],
      "stateMutability": "payable",
      "type": "function"
    },
    {
      "inputs": [
        {
          "internalType": "uint256",
          "name": "difficulty",
          "type": "uint256"
        }
      ],
      "name": "f15",
      "outputs": [],
      "stateMutability": "nonpayable",
      "type": "function"
    },
    {
      "inputs": [
        {
          "internalType": "address",
          "name": "team",
          "type": "address"
        }
      ],
      "name": "f16",
      "outputs": [],
      "stateMutability": "nonpayable",
      "type": "function"
    },
    {
      "inputs": [
        {
          "internalType": "address",
          "name": "team",
          "type": "address"
        },
        {
          "internalType": "address",
          "name": "expectedSigner",
          "type": "address"
        },
        {
          "internalType": "bytes",
          "name": "signature",
          "type": "bytes"
        }
      ],
      "name": "f17",
      "outputs": [],
      "stateMutability": "nonpayable",
      "type": "function"
    },
    {
      "inputs": [
        {
          "internalType": "uint256",
          "name": "amount",
          "type": "uint256"
        },
        {
          "internalType": "address",
          "name": "dest",
          "type": "address"
        },
        {
          "internalType": "address",
          "name": "team",
          "type": "address"
        }
      ],
      "name": "f18",
      "outputs": [],
      "stateMutability": "nonpayable",
      "type": "function"
    },
    {
      "inputs": [
        {
          "internalType": "address",
          "name": "team",
          "type": "address"
        }
      ],
      "name": "f19",
      "outputs": [],
      "stateMutability": "nonpayable",
      "type": "function"
    },
    {
      "inputs": [
        {
          "internalType": "uint256",
          "name": "val",
          "type": "uint256"
        }
      ],
      "name": "f2",
      "outputs": [],
      "stateMutability": "nonpayable",
      "type": "function"
    },
    {
      "inputs": [
        {
          "internalType": "address",
          "name": "newContract",
          "type": "address"
        },
        {
          "internalType": "address",
          "name": "team",
          "type": "address"
        }
      ],
      "name": "f20",
      "outputs": [],
      "stateMutability": "nonpayable",
      "type": "function"
    },
    {
      "inputs": [
        {
          "internalType": "uint256",
          "name": "gasNeeded",
          "type": "uint256"
        },
        {
          "internalType": "address",
          "name": "team",
          "type": "address"
        }
      ],
      "name": "f21",
      "outputs": [],
      "stateMutability": "nonpayable",
      "type": "function"
    },
    {
      "inputs": [
        {
          "internalType": "uint256",
          "name": "data",
          "type": "uint256"
        }
      ],
      "name": "f3",
      "outputs": [],
      "stateMutability": "nonpayable",
      "type": "function"
    },
    {
      "inputs": [
        {
          "internalType": "address",
          "name": "destAddr",
          "type": "address"
        }
      ],
      "name": "f4",
      "outputs": [],
      "stateMutability": "nonpayable",
      "type": "function"
    },
    {
      "inputs": [
        {
          "internalType": "address",
          "name": "destAddr",
          "type": "address"
        }
      ],
      "name": "f5",
      "outputs": [],
      "stateMutability": "nonpayable",
      "type": "function"
    },
    {
      "inputs": [
        {
          "internalType": "address",
          "name": "destAddr",
          "type": "address"
        }
      ],
      "name": "f6",
      "outputs": [],
      "stateMutability": "nonpayable",
      "type": "function"
    },
    {
      "inputs": [],
      "name": "f7",
      "outputs": [],
      "stateMutability": "nonpayable",
      "type": "function"
    },
    {
      "inputs": [
        {
          "internalType": "bytes",
          "name": "data",
          "type": "bytes"
        }
      ],
      "name": "f8",
      "outputs": [],
      "stateMutability": "nonpayable",
      "type": "function"
    },
    {
      "inputs": [
        {
          "internalType": "bytes",
          "name": "data",
          "type": "bytes"
        }
      ],
      "name": "f9",
      "outputs": [],
      "stateMutability": "nonpayable",
      "type": "function"
    },
    {
      "inputs": [
        {
          "internalType": "address",
          "name": "account",
          "type": "address"
        },
        {
          "internalType": "address",
          "name": "operator",
          "type": "address"
        }
      ],
      "name": "isApprovedForAll",
      "outputs": [
        {
          "internalType": "bool",
          "name": "",
          "type": "bool"
        }
      ],
      "stateMutability": "view",
      "type": "function"
    },
    {
      "inputs": [],
      "name": "live",
      "outputs": [
        {
          "internalType": "bool",
          "name": "",
          "type": "bool"
        }
      ],
      "stateMutability": "view",
      "type": "function"
    },
    {
      "inputs": [],
      "name": "owner",
      "outputs": [
        {
          "internalType": "address",
          "name": "",
          "type": "address"
        }
      ],
      "stateMutability": "view",
      "type": "function"
    },
    {
      "inputs": [
        {
          "internalType": "uint256",
          "name": "",
          "type": "uint256"
        }
      ],
      "name": "points",
      "outputs": [
        {
          "internalType": "uint256",
          "name": "",
          "type": "uint256"
        }
      ],
      "stateMutability": "view",
      "type": "function"
    },
    {
      "inputs": [
        {
          "internalType": "address",
          "name": "",
          "type": "address"
        },
        {
          "internalType": "uint256",
          "name": "",
          "type": "uint256"
        }
      ],
      "name": "progress",
      "outputs": [
        {
          "internalType": "bool",
          "name": "",
          "type": "bool"
        }
      ],
      "stateMutability": "view",
      "type": "function"
    },
    {
      "inputs": [
        {
          "internalType": "string",
          "name": "team",
          "type": "string"
        }
      ],
      "name": "registerTeam",
      "outputs": [],
      "stateMutability": "nonpayable",
      "type": "function"
    },
    {
      "inputs": [],
      "name": "renounceOwnership",
      "outputs": [],
      "stateMutability": "nonpayable",
      "type": "function"
    },
    {
      "inputs": [
        {
          "internalType": "address",
          "name": "from",
          "type": "address"
        },
        {
          "internalType": "address",
          "name": "to",
          "type": "address"
        },
        {
          "internalType": "uint256[]",
          "name": "ids",
          "type": "uint256[]"
        },
        {
          "internalType": "uint256[]",
          "name": "amounts",
          "type": "uint256[]"
        },
        {
          "internalType": "bytes",
          "name": "data",
          "type": "bytes"
        }
      ],
      "name": "safeBatchTransferFrom",
      "outputs": [],
      "stateMutability": "nonpayable",
      "type": "function"
    },
    {
      "inputs": [
        {
          "internalType": "address",
          "name": "from",
          "type": "address"
        },
        {
          "internalType": "address",
          "name": "to",
          "type": "address"
        },
        {
          "internalType": "uint256",
          "name": "id",
          "type": "uint256"
        },
        {
          "internalType": "uint256",
          "name": "amount",
          "type": "uint256"
        },
        {
          "internalType": "bytes",
          "name": "data",
          "type": "bytes"
        }
      ],
      "name": "safeTransferFrom",
      "outputs": [],
      "stateMutability": "nonpayable",
      "type": "function"
    },
    {
      "inputs": [
        {
          "internalType": "address",
          "name": "",
          "type": "address"
        }
      ],
      "name": "scores",
      "outputs": [
        {
          "internalType": "uint256",
          "name": "",
          "type": "uint256"
        }
      ],
      "stateMutability": "view",
      "type": "function"
    },
    {
      "inputs": [
        {
          "internalType": "address",
          "name": "",
          "type": "address"
        }
      ],
      "name": "secondEntryCount",
      "outputs": [
        {
          "internalType": "uint256",
          "name": "",
          "type": "uint256"
        }
      ],
      "stateMutability": "view",
      "type": "function"
    },
    {
      "inputs": [
        {
          "internalType": "address",
          "name": "operator",
          "type": "address"
        },
        {
          "internalType": "bool",
          "name": "approved",
          "type": "bool"
        }
      ],
      "name": "setApprovalForAll",
      "outputs": [],
      "stateMutability": "nonpayable",
      "type": "function"
    },
    {
      "inputs": [
        {
          "internalType": "address",
          "name": "",
          "type": "address"
        }
      ],
      "name": "signers",
      "outputs": [
        {
          "internalType": "bool",
          "name": "",
          "type": "bool"
        }
      ],
      "stateMutability": "view",
      "type": "function"
    },
    {
      "inputs": [
        {
          "internalType": "uint256",
          "name": "",
          "type": "uint256"
        }
      ],
      "name": "solves",
      "outputs": [
        {
          "internalType": "uint256",
          "name": "",
          "type": "uint256"
        }
      ],
      "stateMutability": "view",
      "type": "function"
    },
    {
      "inputs": [],
      "name": "start",
      "outputs": [],
      "stateMutability": "nonpayable",
      "type": "function"
    },
    {
      "inputs": [],
      "name": "stop",
      "outputs": [],
      "stateMutability": "nonpayable",
      "type": "function"
    },
    {
      "inputs": [
        {
          "internalType": "bytes4",
          "name": "interfaceId",
          "type": "bytes4"
        }
      ],
      "name": "supportsInterface",
      "outputs": [
        {
          "internalType": "bool",
          "name": "",
          "type": "bool"
        }
      ],
      "stateMutability": "view",
      "type": "function"
    },
    {
      "inputs": [
        {
          "internalType": "uint256",
          "name": "",
          "type": "uint256"
        }
      ],
      "name": "teamAddresses",
      "outputs": [
        {
          "internalType": "address",
          "name": "",
          "type": "address"
        }
      ],
      "stateMutability": "view",
      "type": "function"
    },
    {
      "inputs": [
        {
          "internalType": "address",
          "name": "",
          "type": "address"
        }
      ],
      "name": "teams",
      "outputs": [
        {
          "internalType": "string",
          "name": "",
          "type": "string"
        }
      ],
      "stateMutability": "view",
      "type": "function"
    },
    {
      "inputs": [],
      "name": "template",
      "outputs": [
        {
          "internalType": "contract create2Challenge",
          "name": "",
          "type": "address"
        }
      ],
      "stateMutability": "view",
      "type": "function"
    },
    {
      "inputs": [
        {
          "internalType": "address",
          "name": "newOwner",
          "type": "address"
        }
      ],
      "name": "transferOwnership",
      "outputs": [],
      "stateMutability": "nonpayable",
      "type": "function"
    },
    {
      "inputs": [
        {
          "internalType": "uint256",
          "name": "",
          "type": "uint256"
        }
      ],
      "name": "uri",
      "outputs": [
        {
          "internalType": "string",
          "name": "",
          "type": "string"
        }
      ],
      "stateMutability": "view",
      "type": "function"
    }
  ],
  "bytecode": {
    "object": "0x608060405260006011553480156200001657600080fd5b506040516200484138038062004841833981016040819052620000399162000222565b806200004533620000ef565b62000050816200013f565b5060005b601581116200009b576200006a8160c862000314565b620000779060c862000336565b60008281526008602052604090205580620000928162000351565b91505062000054565b50604051620000aa9062000158565b604051809103906000f080158015620000c7573d6000803e3d6000fd5b50601080546001600160a01b0319166001600160a01b039290921691909117905550620003a9565b600080546001600160a01b038381166001600160a01b0319831681178455604051919092169283917f8be0079c531659141344cd1fd0a4f28419497f9722a3daafe3b4186f6b6457e09190a35050565b80516200015490600390602084019062000166565b5050565b610141806200470083390190565b82805462000174906200036d565b90600052602060002090601f016020900481019282620001985760008555620001e3565b82601f10620001b357805160ff1916838001178555620001e3565b82800160010185558215620001e3579182015b82811115620001e3578251825591602001919060010190620001c6565b50620001f1929150620001f5565b5090565b5b80821115620001f15760008155600101620001f6565b634e487b7160e01b600052604160045260246000fd5b600060208083850312156200023657600080fd5b82516001600160401b03808211156200024e57600080fd5b818501915085601f8301126200026357600080fd5b8151818111156200027857620002786200020c565b604051601f8201601f19908116603f01168101908382118183101715620002a357620002a36200020c565b816040528281528886848701011115620002bc57600080fd5b600093505b82841015620002e05784840186015181850187015292850192620002c1565b82841115620002f25760008684830101525b98975050505050505050565b634e487b7160e01b600052601160045260246000fd5b6000816000190483118215151615620003315762000331620002fe565b500290565b600082198211156200034c576200034c620002fe565b500190565b600060018201620003665762000366620002fe565b5060010190565b600181811c908216806200038257607f821691505b602082108103620003a357634e487b7160e01b600052602260045260246000fd5b50919050565b61434780620003b96000396000f3fe6080604052600436106102c85760003560e01c80638da5cb5b11610175578063c1a8f2c6116100dc578063d75203c311610095578063e985e9c51161006f578063e985e9c5146108ee578063ed6a990414610937578063f242432a14610957578063f2fde38b1461097757600080fd5b8063d75203c314610899578063d7b7913b146108b9578063df2025dc146108d957600080fd5b8063c1a8f2c6146107e4578063c27fc30514610811578063c28cb1d414610819578063c45832401461082c578063c78de8381461084c578063ca9eaf591461086c57600080fd5b8063a22cb4651161012e578063a22cb4651461072f578063a481b0e41461074f578063aa91c62e1461076f578063b1d8dd561461078f578063be9a6555146107af578063bf3724af146107c457600080fd5b80638da5cb5b14610682578063920f5c73146106a057806393d1758c146106a8578063957aa58c146106c8578063964ef96b146106e25780639799b4e71461070257600080fd5b806341dd1ef811610234578063715018a6116101ed578063787f485a116101c7578063787f485a146105f557806381e0f90c1461061557806383e9ff47146106355780638729e5c11461066257600080fd5b8063715018a614610583578063736c0d5b1461059857806376dd110f146105c857600080fd5b806341dd1ef8146104a957806349b9dbe6146104d65780634e1273f4146104f657806350a48d2e14610523578063604f7523146105435780636f2ddd931461056357600080fd5b8063237b3bde11610286578063237b3bde146103c45780632419217e146103e45780632eb2c2d61461041c5780632f4dc9da1461043c5780633cc730501461045c5780633d0561721461047c57600080fd5b8062fdd58e146102cd57806301ffc9a71461030057806307da68f5146103305780630c91cdbc146103475780630e89341c146103825780631545847c146103af575b600080fd5b3480156102d957600080fd5b506102ed6102e8366004613698565b610997565b6040519081526020015b60405180910390f35b34801561030c57600080fd5b5061032061031b3660046136d8565b610a32565b60405190151581526020016102f7565b34801561033c57600080fd5b50610345610a82565b005b34801561035357600080fd5b50610320610362366004613698565b600760209081526000928352604080842090915290825290205460ff1681565b34801561038e57600080fd5b506103a261039d3660046136fc565b610a96565b6040516102f7919061376d565b3480156103bb57600080fd5b506102ed610b2a565b3480156103d057600080fd5b506103456103df366004613780565b610b9e565b3480156103f057600080fd5b506104046103ff3660046136fc565b610d0d565b6040516001600160a01b0390911681526020016102f7565b34801561042857600080fd5b506103456104373660046138f1565b610d37565b34801561044857600080fd5b506103456104573660046136fc565b610d83565b34801561046857600080fd5b5061034561047736600461399b565b610ea8565b34801561048857600080fd5b506102ed6104973660046136fc565b600e6020526000908152604090205481565b3480156104b557600080fd5b506102ed6104c4366004613780565b60096020526000908152604090205481565b3480156104e257600080fd5b506103456104f13660046139c7565b611025565b34801561050257600080fd5b506105166105113660046139f1565b611175565b6040516102f79190613af7565b34801561052f57600080fd5b5061034561053e366004613780565b61129f565b34801561054f57600080fd5b5061034561055e366004613780565b61135f565b34801561056f57600080fd5b50601054610404906001600160a01b031681565b34801561058f57600080fd5b50610345611424565b3480156105a457600080fd5b506103206105b3366004613780565b600d6020526000908152604090205460ff1681565b3480156105d457600080fd5b506102ed6105e3366004613780565b60066020526000908152604090205481565b34801561060157600080fd5b50610345610610366004613b0a565b611438565b34801561062157600080fd5b50610345610630366004613b47565b61150e565b34801561064157600080fd5b506102ed610650366004613780565b600a6020526000908152604090205481565b34801561066e57600080fd5b5061034561067d366004613b69565b611640565b34801561068e57600080fd5b506000546001600160a01b0316610404565b610345611701565b3480156106b457600080fd5b506103456106c3366004613780565b611868565b3480156106d457600080fd5b506004546103209060ff1681565b3480156106ee57600080fd5b506103456106fd366004613bb2565b611928565b34801561070e57600080fd5b506102ed61071d3660046136fc565b60086020526000908152604090205481565b34801561073b57600080fd5b5061034561074a366004613c32565b611a13565b34801561075b57600080fd5b5061034561076a366004613b0a565b611a1e565b34801561077b57600080fd5b5061034561078a366004613c69565b611bb5565b34801561079b57600080fd5b506103456107aa366004613c86565b611c99565b3480156107bb57600080fd5b50610345611e46565b3480156107d057600080fd5b506103456107df3660046136fc565b611e5d565b3480156107f057600080fd5b506102ed6107ff366004613780565b600b6020526000908152604090205481565b610345611f93565b6103456108273660046136fc565b612073565b34801561083857600080fd5b506103a2610847366004613780565b61228f565b34801561085857600080fd5b50610345610867366004613cc2565b612329565b34801561087857600080fd5b506102ed610887366004613780565b600c6020526000908152604090205481565b3480156108a557600080fd5b506103456108b4366004613b47565b612574565b3480156108c557600080fd5b506103456108d43660046136fc565b6126a9565b3480156108e557600080fd5b5061034561278d565b3480156108fa57600080fd5b506103206109093660046139c7565b6001600160a01b03918216600090815260026020908152604080832093909416825291909152205460ff1690565b34801561094357600080fd5b50610345610952366004613780565b612876565b34801561096357600080fd5b50610345610972366004613d20565b612a45565b34801561098357600080fd5b50610345610992366004613780565b612a8a565b60006001600160a01b038316610a075760405162461bcd60e51b815260206004820152602a60248201527f455243313135353a2061646472657373207a65726f206973206e6f742061207660448201526930b634b21037bbb732b960b11b60648201526084015b60405180910390fd5b5060008181526001602090815260408083206001600160a01b03861684529091529020545b92915050565b60006001600160e01b03198216636cdb3d1360e11b1480610a6357506001600160e01b031982166303a24d0760e21b145b80610a2c57506301ffc9a760e01b6001600160e01b0319831614610a2c565b610a8a612b00565b6004805460ff19169055565b606060038054610aa590613d85565b80601f0160208091040260200160405190810160405280929190818152602001828054610ad190613d85565b8015610b1e5780601f10610af357610100808354040283529160200191610b1e565b820191906000526020600020905b815481529060010190602001808311610b0157829003601f168201915b50505050509050919050565b60045460009060ff16610b4f5760405162461bcd60e51b81526004016109fe90613dbf565b3360009081526005602052604090208054610b6990613d85565b159050610b885760405162461bcd60e51b81526004016109fe90613df6565b333014610b9457600080fd5b5063deadbeef5b90565b60045460ff16610bc05760405162461bcd60e51b81526004016109fe90613dbf565b3360009081526005602052604090208054610bda90613d85565b159050610bf95760405162461bcd60e51b81526004016109fe90613df6565b6001600160a01b0381166000908152600760209081526040808320601380855292529091205460ff1615610c3f5760405162461bcd60e51b81526004016109fe90613e2d565b6040516301ffc9a760e01b81526336372b0760e01b600482015233906301ffc9a790602401602060405180830381865afa158015610c81573d6000803e3d6000fd5b505050506040513d601f19601f82011682018060405250810190610ca59190613e64565b610cff5760405162461bcd60e51b815260206004820152602560248201527f6d73672073656e64657220646f6573206e6f7420737570706f727420696e7465604482015264726661636560d81b60648201526084016109fe565b610d098183612b5a565b5050565b600f8181548110610d1d57600080fd5b6000918252602090912001546001600160a01b0316905081565b6001600160a01b038516331480610d535750610d538533610909565b610d6f5760405162461bcd60e51b81526004016109fe90613e81565b610d7c8585858585612c62565b5050505050565b60045460ff16610da55760405162461bcd60e51b81526004016109fe90613dbf565b3360009081526005602052604090208054610dbf90613d85565b159050610dde5760405162461bcd60e51b81526004016109fe90613df6565b336000908152600760209081526040808320600f80855292529091205460ff1615610e1b5760405162461bcd60e51b81526004016109fe90613e2d565b60408051446020820152016040516020818303038152906040528051906020012060001c8214610e9e5760405162461bcd60e51b815260206004820152602860248201527f4469642049206d616b652074686973206368616c6c656e676520746f6f20646960448201526766666963756c743f60c01b60648201526084016109fe565b610d098133612b5a565b60045460ff16610eca5760405162461bcd60e51b81526004016109fe90613dbf565b3360009081526005602052604090208054610ee490613d85565b159050610f035760405162461bcd60e51b81526004016109fe90613df6565b6001600160a01b0381166000908152600760209081526040808320601580855292529091205460ff1615610f495760405162461bcd60e51b81526004016109fe90613e2d565b60005a90506247a4d1600081610f60603443613ee6565b6040805160208101939093529040908201524260608201524560808201524160a08201523260c082015260e0016040516020818303038152906040528051906020012060001c905060005a610fb59085613ee6565b9050610fc087612e3a565b610fd2610fcd8286613ee6565b612e3a565b8087146110125760405162461bcd60e51b815260206004820152600e60248201526d4e6f7420456e6f7567682047617360901b60448201526064016109fe565b61101c8587612b5a565b50505050505050565b60045460ff166110475760405162461bcd60e51b81526004016109fe90613dbf565b336000908152600560205260409020805461106190613d85565b1590506110805760405162461bcd60e51b81526004016109fe90613df6565b6001600160a01b0381166000908152600760209081526040808320601480855292529091205460ff16156110c65760405162461bcd60e51b81526004016109fe90613e2d565b60105460408051336020820152600092611102926001600160a01b03909116910160405160208183030381529060405280519060200120612e7f565b9050806001600160a01b0316846001600160a01b0316146111655760405162461bcd60e51b815260206004820152601b60248201527f507265646963746564206164647265737320696e636f7272656374000000000060448201526064016109fe565b61116f8284612b5a565b50505050565b606081518351146111da5760405162461bcd60e51b815260206004820152602960248201527f455243313135353a206163636f756e747320616e6420696473206c656e677468604482015268040dad2e6dac2e8c6d60bb1b60648201526084016109fe565b6000835167ffffffffffffffff8111156111f6576111f661379b565b60405190808252806020026020018201604052801561121f578160200160208202803683370190505b50905060005b84518110156112975761126a85828151811061124357611243613efd565b602002602001015185838151811061125d5761125d613efd565b6020026020010151610997565b82828151811061127c5761127c613efd565b602090810291909101015261129081613f13565b9050611225565b509392505050565b60045460ff166112c15760405162461bcd60e51b81526004016109fe90613dbf565b33600090815260056020526040902080546112db90613d85565b1590506112fa5760405162461bcd60e51b81526004016109fe90613df6565b336000908152600760209081526040808320600480855292529091205460ff16156113375760405162461bcd60e51b81526004016109fe90613e2d565b6001600160a01b0382163014610e9e5760405162461bcd60e51b81526004016109fe90613f2c565b60045460ff166113815760405162461bcd60e51b81526004016109fe90613dbf565b336000908152600560205260409020805461139b90613d85565b1590506113ba5760405162461bcd60e51b81526004016109fe90613df6565b336000908152600760209081526040808320600680855292529091205460ff16156113f75760405162461bcd60e51b81526004016109fe90613e2d565b6000546001600160a01b03838116911614610e9e5760405162461bcd60e51b81526004016109fe90613f2c565b61142c612b00565b6114366000612f1f565b565b60045460ff1661145a5760405162461bcd60e51b81526004016109fe90613dbf565b336000908152600560205260409020805461147490613d85565b1590506114935760405162461bcd60e51b81526004016109fe90613df6565b336000908152600760209081526040808320600980855292529091205460ff16156114d05760405162461bcd60e51b81526004016109fe90613e2d565b6000356001600160e01b031916826040516020016114ef929190613f63565b60405160208183030381529060405291508151602014610e9e57600080fd5b60045460ff166115305760405162461bcd60e51b81526004016109fe90613dbf565b336000908152600560205260409020805461154a90613d85565b1590506115695760405162461bcd60e51b81526004016109fe90613df6565b336000908152600760209081526040808320600b80855292529091205460ff16156115a65760405162461bcd60e51b81526004016109fe90613e2d565b6000831380156115b65750600082135b61160c5760405162461bcd60e51b815260206004820152602160248201527f4e756d62657273206d7573742062652067726561746572207468616e207a65726044820152606f60f81b60648201526084016109fe565b82820160091981126116305760405162461bcd60e51b81526004016109fe90613f94565b5061163b8133612b5a565b505050565b60045460ff166116625760405162461bcd60e51b81526004016109fe90613dbf565b336000908152600560205260409020805461167c90613d85565b15905061169b5760405162461bcd60e51b81526004016109fe90613df6565b33600090815260056020908152604090912082516116bb928401906135e3565b5050600f80546001810182556000919091527f8d1108e10bcb7c27dddfc02ed9d693a074039d026cf4ea4240b40f7d581ac8020180546001600160a01b03191633179055565b60045460ff166117235760405162461bcd60e51b81526004016109fe90613dbf565b336000908152600560205260409020805461173d90613d85565b15905061175c5760405162461bcd60e51b81526004016109fe90613df6565b336000908152600760209081526040808320600d80855292529091205460ff16156117995760405162461bcd60e51b81526004016109fe90613e2d565b33600090815260096020526040902054600a1061185b573360009081526009602052604081208054916117cb83613f13565b909155505060405160009033908281818181865af19150503d806000811461180f576040519150601f19603f3d011682016040523d82523d6000602084013e611814565b606091505b50509050806118595760405162461bcd60e51b81526020600482015260116024820152701d985b1d59481cd95b990819985a5b1959607a1b60448201526064016109fe565b505b6118658133612b5a565b50565b60045460ff1661188a5760405162461bcd60e51b81526004016109fe90613dbf565b33600090815260056020526040902080546118a490613d85565b1590506118c35760405162461bcd60e51b81526004016109fe90613df6565b336000908152600760209081526040808320600580855292529091205460ff16156119005760405162461bcd60e51b81526004016109fe90613e2d565b6001600160a01b0382163314610e9e5760405162461bcd60e51b81526004016109fe90613f2c565b60045460ff1661194a5760405162461bcd60e51b81526004016109fe90613dbf565b336000908152600560205260409020805461196490613d85565b1590506119835760405162461bcd60e51b81526004016109fe90613df6565b336000908152600760209081526040808320600880855292529091205460ff16156119c05760405162461bcd60e51b81526004016109fe90613e2d565b60208214611a095760405162461bcd60e51b8152602060048201526016602482015275696e76616c6964206c656e677468206f66206461746160501b60448201526064016109fe565b61163b8133612b5a565b610d09338383612f6f565b60045460ff16611a405760405162461bcd60e51b81526004016109fe90613dbf565b3360009081526005602052604090208054611a5a90613d85565b159050611a795760405162461bcd60e51b81526004016109fe90613df6565b336000908152600760209081526040808320600c80855292529091205460ff1615611ab65760405162461bcd60e51b81526004016109fe90613e2d565b600080306001600160a01b031684604051611ad19190613fe0565b6000604051808303816000865af19150503d8060008114611b0e576040519150601f19603f3d011682016040523d82523d6000602084013e611b13565b606091505b509150915081611b745760405162461bcd60e51b815260206004820152602660248201527f696e7465726e616c2066756e6374696f6e2063616c6c20646964206e6f7420736044820152651d58d8d9595960d21b60648201526084016109fe565b6040805163deadbeef60208201520160405160208183030381529060405280519060200120818051906020012014611bab57600080fd5b61116f8333612b5a565b60045460ff16611bd75760405162461bcd60e51b81526004016109fe90613dbf565b3360009081526005602052604090208054611bf190613d85565b159050611c105760405162461bcd60e51b81526004016109fe90613df6565b33600090815260076020908152604080832083805290915281205460ff1615611c4b5760405162461bcd60e51b81526004016109fe90613e2d565b8115610e9e5760405162461bcd60e51b815260206004820152601760248201527f696e636f727265637420626f6f6c65616e2076616c756500000000000000000060448201526064016109fe565b60045460ff16611cbb5760405162461bcd60e51b81526004016109fe90613dbf565b3360009081526005602052604090208054611cd590613d85565b159050611cf45760405162461bcd60e51b81526004016109fe90613df6565b6001600160a01b0381166000908152600760209081526040808320601280855292529091205460ff1615611d3a5760405162461bcd60e51b81526004016109fe90613e2d565b333b15801590611d4a5750323314155b611d895760405162461bcd60e51b815260206004820152601060248201526f135d5cdd0818994818dbdb9d1c9858dd60821b60448201526064016109fe565b60008411611def5760405162461bcd60e51b815260206004820152602d60248201527f6d7573742070726f76696465206e6f6e2d7a65726f20616d6f756e74206f662060448201526c119391951cc81d1bc81b5a5b9d609a1b60648201526084016109fe565b60408051336020820152600091016040516020818303038152906040528051906020012060001c9050611e3c8482876040518060600160405280603081526020016142e26030913961304f565b610d7c8284612b5a565b611e4e612b00565b6004805460ff19166001179055565b60045460ff16611e7f5760405162461bcd60e51b81526004016109fe90613dbf565b3360009081526005602052604090208054611e9990613d85565b159050611eb85760405162461bcd60e51b81526004016109fe90613df6565b336000908152600760209081526040808320600280855292529091205460ff1615611ef55760405162461bcd60e51b81526004016109fe90613e2d565b60008233604051602001611f2592919091825260601b6bffffffffffffffffffffffff1916602082015260340190565b60408051601f1981840301815291905280516020909101209050611f4a600582614012565b15611f895760405162461bcd60e51b815260206004820152600f60248201526e19dd595cdcc81a5b98dbdc9c9958dd608a1b60448201526064016109fe565b61163b8233612b5a565b60045460ff16611fb55760405162461bcd60e51b81526004016109fe90613dbf565b3360009081526005602052604090208054611fcf90613d85565b159050611fee5760405162461bcd60e51b81526004016109fe90613df6565b336000908152600760209081526040808320600180855292529091205460ff161561202b5760405162461bcd60e51b81526004016109fe90613e2d565b34600a1461185b5760405162461bcd60e51b8152602060048201526015602482015274496e76616c6964204d6573736167652056616c756560581b60448201526064016109fe565b60045460ff166120955760405162461bcd60e51b81526004016109fe90613dbf565b33600090815260056020526040902080546120af90613d85565b1590506120ce5760405162461bcd60e51b81526004016109fe90613df6565b336000908152600760209081526040808320600e80855292529091205460ff161561210b5760405162461bcd60e51b81526004016109fe90613e2d565b336000908152600c602052604090205442116121775760405162461bcd60e51b815260206004820152602560248201527f63616e6e6f7420706c6179206d756c7469706c652074696d657320696e2073616044820152640daca40e8f60db1b60648201526084016109fe565b604080514260208201526bffffffffffffffffffffffff193360601b169181019190915243605482015260009060740160408051601f198184030181529190528051602090910120905060006121ce600683614012565b905080841461224157336000908152600b6020526040808220919091555162461bcd60e51b81526109fe9060040160208082526025908201527f476f74746120737465616c2074696d652066726f6d20746865206661756c747960408201526410383630b760d91b606082015260800190565b336000908152600b6020526040812080549161225c83613f13565b9091555050336000908152600c60209081526040808320429055600b90915290205460050361116f5761116f8333612b5a565b600560205260009081526040902080546122a890613d85565b80601f01602080910402602001604051908101604052809291908181526020018280546122d490613d85565b80156123215780601f106122f657610100808354040283529160200191612321565b820191906000526020600020905b81548152906001019060200180831161230457829003601f168201915b505050505081565b60045460ff1661234b5760405162461bcd60e51b81526004016109fe90613dbf565b336000908152600560205260409020805461236590613d85565b1590506123845760405162461bcd60e51b81526004016109fe90613df6565b6001600160a01b0383166000908152600760209081526040808320601180855292529091205460ff16156123ca5760405162461bcd60e51b81526004016109fe90613e2d565b7fb6ea80b6085378cd6b3bf06f9a2972a74f28dd7ac5bf6b3e1dd7e7bcc42a9a2760006123f7828561315c565b90506001600160a01b03811661245b5760405162461bcd60e51b8152602060048201526024808201527f6d75737420626520612076616c6964207369676e617475726520627920736f6d604482015263656f6e6560e01b60648201526084016109fe565b846001600160a01b0316816001600160a01b0316146124e25760405162461bcd60e51b815260206004820152603960248201527f5369676e6572206f6620746865206d65737361676520646964206e6f74206d6160448201527f7463682061637475616c206d657373616765207369676e65720000000000000060648201526084016109fe565b6001600160a01b0381166000908152600d602052604090205460ff161561253f5760405162461bcd60e51b81526020600482015260116024820152704e4f205245504c41592041545441434b5360781b60448201526064016109fe565b6001600160a01b0381166000908152600d60205260409020805460ff1916600117905561256c8387612b5a565b505050505050565b60045460ff166125965760405162461bcd60e51b81526004016109fe90613dbf565b33600090815260056020526040902080546125b090613d85565b1590506125cf5760405162461bcd60e51b81526004016109fe90613df6565b336000908152600760209081526040808320600a80855292529091205460ff161561260c5760405162461bcd60e51b81526004016109fe90613e2d565b60008312801561261c5750600082135b6126865760405162461bcd60e51b815260206004820152603560248201527f6669727374206e756d626572206d757374206265206e6567617469766520616e6044820152746420326e64206e756d62657220706f73697469766560581b60648201526084016109fe565b818303600a81136116305760405162461bcd60e51b81526004016109fe90613f94565b60045460ff166126cb5760405162461bcd60e51b81526004016109fe90613dbf565b33600090815260056020526040902080546126e590613d85565b1590506127045760405162461bcd60e51b81526004016109fe90613df6565b336000908152600760209081526040808320600380855292529091205464098765432183189060ff161561274a5760405162461bcd60e51b81526004016109fe90613e2d565b8063beefdead14611f895760405162461bcd60e51b815260206004820152600d60248201526c125b9d985b1a5908125b9c1d5d609a1b60448201526064016109fe565b60045460ff166127af5760405162461bcd60e51b81526004016109fe90613dbf565b33600090815260056020526040902080546127c990613d85565b1590506127e85760405162461bcd60e51b81526004016109fe90613df6565b3360009081526007602081815260408084208385529091529091205460ff16156128245760405162461bcd60e51b81526004016109fe90613e2d565b626a584c5a1161185b5760405162461bcd60e51b815260206004820152601b60248201527f6e6f7420656e6f7567682067617320666f722066756e6374696f6e000000000060448201526064016109fe565b60045460ff166128985760405162461bcd60e51b81526004016109fe90613dbf565b33600090815260056020526040902080546128b290613d85565b1590506128d15760405162461bcd60e51b81526004016109fe90613df6565b6001600160a01b0381166000908152600760209081526040808320601080855292529091205460ff16156129175760405162461bcd60e51b81526004016109fe90613e2d565b333b156129665760405162461bcd60e51b815260206004820152601760248201527f4e6f20636f6e74726163747320746869732074696d652100000000000000000060448201526064016109fe565b6001600160a01b0382166000908152600a60205260408120549003610cff576001600160a01b0382166000908152600a602052604081208054916129a983613f13565b909155505060405160009033908281818181865af19150503d80600081146129ed576040519150601f19603f3d011682016040523d82523d6000602084013e6129f2565b606091505b5050905080612a3a5760405162461bcd60e51b8152602060048201526014602482015273195e1d195c9b985b0818d85b1b0819985a5b195960621b60448201526064016109fe565b50610d098183612b5a565b6001600160a01b038516331480612a615750612a618533610909565b612a7d5760405162461bcd60e51b81526004016109fe90613e81565b610d7c8585858585613233565b612a92612b00565b6001600160a01b038116612af75760405162461bcd60e51b815260206004820152602660248201527f4f776e61626c653a206e6577206f776e657220697320746865207a65726f206160448201526564647265737360d01b60648201526084016109fe565b61186581612f1f565b6000546001600160a01b031633146114365760405162461bcd60e51b815260206004820181905260248201527f4f776e61626c653a2063616c6c6572206973206e6f7420746865206f776e657260448201526064016109fe565b6000828152600e60205260408120805491612b7483613f13565b90915550506001600160a01b03811660008181526007602090815260408083208684528252808320805460ff191660011790556008825280832054938352600690915281208054909190612bc9908490614026565b90915550506000828152600e60205260408120549003612c12576001600160a01b0381166000908152600660205260408120805460059290612c0c908490614026565b90915550505b60098210612c3f576000828152600860205260408120805460029290612c3990849061403e565b90915550505b6000828152600e60205260408120805491612c5983613f13565b91905055505050565b8151835114612cc45760405162461bcd60e51b815260206004820152602860248201527f455243313135353a2069647320616e6420616d6f756e7473206c656e677468206044820152670dad2e6dac2e8c6d60c31b60648201526084016109fe565b6001600160a01b038416612cea5760405162461bcd60e51b81526004016109fe90614052565b3360005b8451811015612dd4576000858281518110612d0b57612d0b613efd565b602002602001015190506000858381518110612d2957612d29613efd565b60209081029190910181015160008481526001835260408082206001600160a01b038e168352909352919091205490915081811015612d7a5760405162461bcd60e51b81526004016109fe90614097565b60008381526001602090815260408083206001600160a01b038e8116855292528083208585039055908b16825281208054849290612db9908490614026565b9250508190555050505080612dcd90613f13565b9050612cee565b50846001600160a01b0316866001600160a01b0316826001600160a01b03167f4a39dc06d4c0dbc64b70af90fd698a233a518aa5d07e595d983b8c0526c8f7fb8787604051612e249291906140e1565b60405180910390a461256c818787878787613361565b61186581604051602401612e5091815260200190565b60408051601f198184030181529190526020810180516001600160e01b031663f82c50f160e01b1790526134bc565b6000604051733d602d80600a3d3981f3363d3d373d3d3d363d7360601b81528360601b60148201526e5af43d82803e903d91602b57fd5bf360881b6028820152826037826000f59150506001600160a01b038116610a2c5760405162461bcd60e51b815260206004820152601760248201527f455243313136373a2063726561746532206661696c656400000000000000000060448201526064016109fe565b600080546001600160a01b038381166001600160a01b0319831681178455604051919092169283917f8be0079c531659141344cd1fd0a4f28419497f9722a3daafe3b4186f6b6457e09190a35050565b816001600160a01b0316836001600160a01b031603612fe25760405162461bcd60e51b815260206004820152602960248201527f455243313135353a2073657474696e6720617070726f76616c20737461747573604482015268103337b91039b2b63360b91b60648201526084016109fe565b6001600160a01b03838116600081815260026020908152604080832094871680845294825291829020805460ff191686151590811790915591519182527f17307eab39ab6107e8899845ad3d59bd9653f200f220920489ca2b5937696c31910160405180910390a3505050565b6001600160a01b0384166130af5760405162461bcd60e51b815260206004820152602160248201527f455243313135353a206d696e7420746f20746865207a65726f206164647265736044820152607360f81b60648201526084016109fe565b3360006130bb856134dd565b905060006130c8856134dd565b905060008681526001602090815260408083206001600160a01b038b168452909152812080548792906130fc908490614026565b909155505060408051878152602081018790526001600160a01b03808a1692600092918716917fc3d58168c5ae7397731d063d5bbf3d657854427343f4c083240f7aacaa2d0f62910160405180910390a461101c83600089898989613528565b60008060008084516041146131775760009350505050610a2c565b50505060208201516040830151606084015160001a601b8110156131a3576131a0601b8261410f565b90505b8060ff16601b141580156131bb57508060ff16601c14155b156131cc5760009350505050610a2c565b60408051600081526020810180835288905260ff831691810191909152606081018490526080810183905260019060a0016020604051602081039080840390855afa15801561321f573d6000803e3d6000fd5b505050602060405103519350505050610a2c565b6001600160a01b0384166132595760405162461bcd60e51b81526004016109fe90614052565b336000613265856134dd565b90506000613272856134dd565b905060008681526001602090815260408083206001600160a01b038c168452909152902054858110156132b75760405162461bcd60e51b81526004016109fe90614097565b60008781526001602090815260408083206001600160a01b038d8116855292528083208985039055908a168252812080548892906132f6908490614026565b909155505060408051888152602081018890526001600160a01b03808b16928c821692918816917fc3d58168c5ae7397731d063d5bbf3d657854427343f4c083240f7aacaa2d0f62910160405180910390a4613356848a8a8a8a8a613528565b505050505050505050565b6001600160a01b0384163b1561256c5760405163bc197c8160e01b81526001600160a01b0385169063bc197c81906133a59089908990889088908890600401614134565b6020604051808303816000875af19250505080156133e0575060408051601f3d908101601f191682019092526133dd91810190614192565b60015b61348c576133ec6141af565b806308c379a00361342557506134006141ca565b8061340b5750613427565b8060405162461bcd60e51b81526004016109fe919061376d565b505b60405162461bcd60e51b815260206004820152603460248201527f455243313135353a207472616e7366657220746f206e6f6e20455243313135356044820152732932b1b2b4bb32b91034b6b83632b6b2b73a32b960611b60648201526084016109fe565b6001600160e01b0319811663bc197c8160e01b1461101c5760405162461bcd60e51b81526004016109fe90614254565b80516a636f6e736f6c652e6c6f67602083016000808483855afa5050505050565b6040805160018082528183019092526060916000919060208083019080368337019050509050828160008151811061351757613517613efd565b602090810291909101015292915050565b6001600160a01b0384163b1561256c5760405163f23a6e6160e01b81526001600160a01b0385169063f23a6e619061356c908990899088908890889060040161429c565b6020604051808303816000875af19250505080156135a7575060408051601f3d908101601f191682019092526135a491810190614192565b60015b6135b3576133ec6141af565b6001600160e01b0319811663f23a6e6160e01b1461101c5760405162461bcd60e51b81526004016109fe90614254565b8280546135ef90613d85565b90600052602060002090601f0160209004810192826136115760008555613657565b82601f1061362a57805160ff1916838001178555613657565b82800160010185558215613657579182015b8281111561365757825182559160200191906001019061363c565b50613663929150613667565b5090565b5b808211156136635760008155600101613668565b80356001600160a01b038116811461369357600080fd5b919050565b600080604083850312156136ab57600080fd5b6136b48361367c565b946020939093013593505050565b6001600160e01b03198116811461186557600080fd5b6000602082840312156136ea57600080fd5b81356136f5816136c2565b9392505050565b60006020828403121561370e57600080fd5b5035919050565b60005b83811015613730578181015183820152602001613718565b8381111561116f5750506000910152565b60008151808452613759816020860160208601613715565b601f01601f19169290920160200192915050565b6020815260006136f56020830184613741565b60006020828403121561379257600080fd5b6136f58261367c565b634e487b7160e01b600052604160045260246000fd5b601f8201601f1916810167ffffffffffffffff811182821017156137d7576137d761379b565b6040525050565b600067ffffffffffffffff8211156137f8576137f861379b565b5060051b60200190565b600082601f83011261381357600080fd5b81356020613820826137de565b60405161382d82826137b1565b83815260059390931b850182019282810191508684111561384d57600080fd5b8286015b848110156138685780358352918301918301613851565b509695505050505050565b600067ffffffffffffffff83111561388d5761388d61379b565b6040516138a4601f8501601f1916602001826137b1565b8091508381528484840111156138b957600080fd5b83836020830137600060208583010152509392505050565b600082601f8301126138e257600080fd5b6136f583833560208501613873565b600080600080600060a0868803121561390957600080fd5b6139128661367c565b94506139206020870161367c565b9350604086013567ffffffffffffffff8082111561393d57600080fd5b61394989838a01613802565b9450606088013591508082111561395f57600080fd5b61396b89838a01613802565b9350608088013591508082111561398157600080fd5b5061398e888289016138d1565b9150509295509295909350565b600080604083850312156139ae57600080fd5b823591506139be6020840161367c565b90509250929050565b600080604083850312156139da57600080fd5b6139e38361367c565b91506139be6020840161367c565b60008060408385031215613a0457600080fd5b823567ffffffffffffffff80821115613a1c57600080fd5b818501915085601f830112613a3057600080fd5b81356020613a3d826137de565b604051613a4a82826137b1565b83815260059390931b8501820192828101915089841115613a6a57600080fd5b948201945b83861015613a8f57613a808661367c565b82529482019490820190613a6f565b96505086013592505080821115613aa557600080fd5b50613ab285828601613802565b9150509250929050565b600081518084526020808501945080840160005b83811015613aec57815187529582019590820190600101613ad0565b509495945050505050565b6020815260006136f56020830184613abc565b600060208284031215613b1c57600080fd5b813567ffffffffffffffff811115613b3357600080fd5b613b3f848285016138d1565b949350505050565b60008060408385031215613b5a57600080fd5b50508035926020909101359150565b600060208284031215613b7b57600080fd5b813567ffffffffffffffff811115613b9257600080fd5b8201601f81018413613ba357600080fd5b613b3f84823560208401613873565b60008060208385031215613bc557600080fd5b823567ffffffffffffffff80821115613bdd57600080fd5b818501915085601f830112613bf157600080fd5b813581811115613c0057600080fd5b866020828501011115613c1257600080fd5b60209290920196919550909350505050565b801515811461186557600080fd5b60008060408385031215613c4557600080fd5b613c4e8361367c565b91506020830135613c5e81613c24565b809150509250929050565b600060208284031215613c7b57600080fd5b81356136f581613c24565b600080600060608486031215613c9b57600080fd5b83359250613cab6020850161367c565b9150613cb96040850161367c565b90509250925092565b600080600060608486031215613cd757600080fd5b613ce08461367c565b9250613cee6020850161367c565b9150604084013567ffffffffffffffff811115613d0a57600080fd5b613d16868287016138d1565b9150509250925092565b600080600080600060a08688031215613d3857600080fd5b613d418661367c565b9450613d4f6020870161367c565b93506040860135925060608601359150608086013567ffffffffffffffff811115613d7957600080fd5b61398e888289016138d1565b600181811c90821680613d9957607f821691505b602082108103613db957634e487b7160e01b600052602260045260246000fd5b50919050565b6020808252601b908201527f4861636b6174686f6e206973206e6f7420696e2073657373696f6e0000000000604082015260600190565b60208082526017908201527f416c72656164792072656769737465726564207465616d000000000000000000604082015260600190565b6020808252601f908201527f416c726561647920636f6d706c6574656420746869732066756e6374696f6e00604082015260600190565b600060208284031215613e7657600080fd5b81516136f581613c24565b6020808252602f908201527f455243313135353a2063616c6c6572206973206e6f7420746f6b656e206f776e60408201526e195c881b9bdc88185c1c1c9bdd9959608a1b606082015260800190565b634e487b7160e01b600052601160045260246000fd5b600082821015613ef857613ef8613ed0565b500390565b634e487b7160e01b600052603260045260246000fd5b600060018201613f2557613f25613ed0565b5060010190565b6020808252601c908201527f696e636f727265637420616464726573732e2074727920616761696e00000000604082015260600190565b6001600160e01b0319831681528151600090613f86816004850160208701613715565b919091016004019392505050565b6020808252602c908201527f446966666572656e6365206f66207468652074776f206d757374206265206d6f60408201526b7265207468616e207a65726f60a01b606082015260800190565b60008251613ff2818460208701613715565b9190910192915050565b634e487b7160e01b600052601260045260246000fd5b60008261402157614021613ffc565b500690565b6000821982111561403957614039613ed0565b500190565b60008261404d5761404d613ffc565b500490565b60208082526025908201527f455243313135353a207472616e7366657220746f20746865207a65726f206164604082015264647265737360d81b606082015260800190565b6020808252602a908201527f455243313135353a20696e73756666696369656e742062616c616e636520666f60408201526939103a3930b739b332b960b11b606082015260800190565b6040815260006140f46040830185613abc565b82810360208401526141068185613abc565b95945050505050565b600060ff821660ff84168060ff0382111561412c5761412c613ed0565b019392505050565b6001600160a01b0386811682528516602082015260a06040820181905260009061416090830186613abc565b82810360608401526141728186613abc565b905082810360808401526141868185613741565b98975050505050505050565b6000602082840312156141a457600080fd5b81516136f5816136c2565b600060033d1115610b9b5760046000803e5060005160e01c90565b600060443d10156141d85790565b6040516003193d81016004833e81513d67ffffffffffffffff816024840111818411171561420857505050505090565b82850191508151818111156142205750505050505090565b843d870101602082850101111561423a5750505050505090565b614249602082860101876137b1565b509095945050505050565b60208082526028908201527f455243313135353a204552433131353552656365697665722072656a656374656040820152676420746f6b656e7360c01b606082015260800190565b6001600160a01b03868116825285166020820152604081018490526060810183905260a0608082018190526000906142d690830184613741565b97965050505050505056fe736574207468652067656172736869667420666f722074686520686967682067656172206f6620796f757220736f756ca26469706673582212202e7136dcc23199d7f0c99feb97763103fdac3adddb601d5b6c87eefef9c3cd4264736f6c634300080d0033608060405234801561001057600080fd5b50610121806100206000396000f3fe6080604052348015600f57600080fd5b506004361060285760003560e01c8063d1f5d67014602d575b600080fd5b60336047565b604051603e91906063565b60405180910390f35b6040518060600160405280603681526020016100b66036913981565b600060208083528351808285015260005b81811015608e578581018301518582016040015282016074565b81811115609f576000604083870101525b50601f01601f191692909201604001939250505056fe62657420796f752063616e2774206775657373206d792061646472657373206265666f726520696d206576656e206465706c6f796564a26469706673582212205d63ab0899ca7fbe99e6337698053dc9314bd31c57f27338c1ca7a37a57a1f7064736f6c634300080d0033",
    "linkReferences": {}
  },
  "methodIdentifiers": {
    "balanceOf(address,uint256)": "00fdd58e",
    "balanceOfBatch(address[],uint256[])": "4e1273f4",
    "challengeHook()": "1545847c",
    "diceRollLastWin(address)": "ca9eaf59",
    "diceRollWins(address)": "c1a8f2c6",
    "entryCount(address)": "41dd1ef8",
    "f0(bool)": "aa91c62e",
    "f1()": "c27fc305",
    "f10(int256,int256)": "d75203c3",
    "f11(int256,int256)": "81e0f90c",
    "f12(bytes)": "a481b0e4",
    "f13()": "920f5c73",
    "f14(uint256)": "c28cb1d4",
    "f15(uint256)": "2f4dc9da",
    "f16(address)": "ed6a9904",
    "f17(address,address,bytes)": "c78de838",
    "f18(uint256,address,address)": "b1d8dd56",
    "f19(address)": "237b3bde",
    "f2(uint256)": "bf3724af",
    "f20(address,address)": "49b9dbe6",
    "f21(uint256,address)": "3cc73050",
    "f3(uint256)": "d7b7913b",
    "f4(address)": "50a48d2e",
    "f5(address)": "93d1758c",
    "f6(address)": "604f7523",
    "f7()": "df2025dc",
    "f8(bytes)": "964ef96b",
    "f9(bytes)": "787f485a",
    "isApprovedForAll(address,address)": "e985e9c5",
    "live()": "957aa58c",
    "owner()": "8da5cb5b",
    "points(uint256)": "9799b4e7",
    "progress(address,uint256)": "0c91cdbc",
    "registerTeam(string)": "8729e5c1",
    "renounceOwnership()": "715018a6",
    "safeBatchTransferFrom(address,address,uint256[],uint256[],bytes)": "2eb2c2d6",
    "safeTransferFrom(address,address,uint256,uint256,bytes)": "f242432a",
    "scores(address)": "76dd110f",
    "secondEntryCount(address)": "83e9ff47",
    "setApprovalForAll(address,bool)": "a22cb465",
    "signers(address)": "736c0d5b",
    "solves(uint256)": "3d056172",
    "start()": "be9a6555",
    "stop()": "07da68f5",
    "supportsInterface(bytes4)": "01ffc9a7",
    "teamAddresses(uint256)": "2419217e",
    "teams(address)": "c4583240",
    "template()": "6f2ddd93",
    "transferOwnership(address)": "f2fde38b",
    "uri(uint256)": "0e89341c"
  },
  "id": 0
}