{
  "abi": [
    {
      "inputs": [],
      "stateMutability": "nonpayable",
      "type": "constructor"
    },
    {
      "inputs": [
        {
          "internalType": "bool",
          "name": "val",
          "type": "bool"
        }
      ],
      "name": "f0",
      "outputs": [],
      "stateMutability": "nonpayable",
      "type": "function"
    },
    {
      "inputs": [
        {
          "internalType": "uint256",
          "name": "val",
          "type": "uint256"
        }
      ],
      "name": "f1",
      "outputs": [],
      "stateMutability": "nonpayable",
      "type": "function"
    },
    {
      "inputs": [],
      "name": "live",
      "outputs": [
        {
          "internalType": "bool",
          "name": "",
          "type": "bool"
        }
      ],
      "stateMutability": "view",
      "type": "function"
    },
    {
      "inputs": [],
      "name": "owner",
      "outputs": [
        {
          "internalType": "address",
          "name": "",
          "type": "address"
        }
      ],
      "stateMutability": "view",
      "type": "function"
    },
    {
      "inputs": [
        {
          "internalType": "uint256",
          "name": "",
          "type": "uint256"
        }
      ],
      "name": "points",
      "outputs": [
        {
          "internalType": "uint256",
          "name": "",
          "type": "uint256"
        }
      ],
      "stateMutability": "view",
      "type": "function"
    },
    {
      "inputs": [
        {
          "internalType": "address",
          "name": "",
          "type": "address"
        },
        {
          "internalType": "uint256",
          "name": "",
          "type": "uint256"
        }
      ],
      "name": "progress",
      "outputs": [
        {
          "internalType": "uint256",
          "name": "",
          "type": "uint256"
        }
      ],
      "stateMutability": "view",
      "type": "function"
    },
    {
      "inputs": [
        {
          "internalType": "string",
          "name": "team",
          "type": "string"
        }
      ],
      "name": "registerTeam",
      "outputs": [],
      "stateMutability": "nonpayable",
      "type": "function"
    },
    {
      "inputs": [
        {
          "internalType": "address",
          "name": "",
          "type": "address"
        }
      ],
      "name": "scores",
      "outputs": [
        {
          "internalType": "uint256",
          "name": "",
          "type": "uint256"
        }
      ],
      "stateMutability": "view",
      "type": "function"
    },
    {
      "inputs": [],
      "name": "start",
      "outputs": [],
      "stateMutability": "nonpayable",
      "type": "function"
    },
    {
      "inputs": [],
      "name": "stop",
      "outputs": [],
      "stateMutability": "nonpayable",
      "type": "function"
    },
    {
      "inputs": [
        {
          "internalType": "address",
          "name": "",
          "type": "address"
        }
      ],
      "name": "teams",
      "outputs": [
        {
          "internalType": "string",
          "name": "",
          "type": "string"
        }
      ],
      "stateMutability": "view",
      "type": "function"
    }
  ],
  "bytecode": {
    "object": "0x60c060405260016080908152600260a081905261001e91600491610043565b5034801561002b57600080fd5b50600080546001600160a01b0319163317905561009b565b8260028101928215610076579160200282015b82811115610076578251829060ff16905591602001919060010190610056565b50610082929150610086565b5090565b5b808211156100825760008155600101610087565b610a6c806100aa6000396000f3fe608060405234801561001057600080fd5b50600436106100a95760003560e01c8063957aa58c11610071578063957aa58c1461013c5780639799b4e7146101605780639adbf69114610173578063aa91c62e14610186578063be9a655514610199578063c4583240146101a157600080fd5b806307da68f5146100ae5780630c91cdbc146100b857806376dd110f146100de5780638729e5c1146100fe5780638da5cb5b14610111575b600080fd5b6100b66101c1565b005b6100cb6100c63660046107c4565b61021c565b6040519081526020015b60405180910390f35b6100cb6100ec3660046107ee565b60026020526000908152604090205481565b6100b661010c366004610826565b610241565b600054610124906001600160a01b031681565b6040516001600160a01b0390911681526020016100d5565b60005461015090600160a01b900460ff1681565b60405190151581526020016100d5565b6100cb61016e3660046108d7565b6102f7565b6100b66101813660046108d7565b61030e565b6100b66101943660046108f0565b6104b4565b6100b6610619565b6101b46101af3660046107ee565b610675565b6040516100d59190610912565b6000546001600160a01b0316331461020d5760405162461bcd60e51b815260206004820152600a60248201526927b7363c9037bbb732b960b11b60448201526064015b60405180910390fd5b6000805460ff60a01b19169055565b6003602052816000526040600020816002811061023857600080fd5b01549150829050565b600054600160a01b900460ff1661026a5760405162461bcd60e51b815260040161020490610967565b33600090815260016020526040902080546102849061099e565b1590506102d35760405162461bcd60e51b815260206004820152601760248201527f416c72656164792072656769737465726564207465616d0000000000000000006044820152606401610204565b33600090815260016020908152604090912082516102f39284019061070f565b5050565b6004816002811061030757600080fd5b0154905081565b600054600190600160a01b900460ff1661033a5760405162461bcd60e51b815260040161020490610967565b33600090815260016020526040902080546103549061099e565b905060000361039f5760405162461bcd60e51b81526020600482015260176024820152764d757374207265676973746572207465616d206e616d6560481b6044820152606401610204565b33600090815260036020526040902081600281106103bf576103bf6109d8565b01541561040e5760405162461bcd60e51b815260206004820152601f60248201527f416c726561647920636f6d706c6574656420746869732066756e6374696f6e006044820152606401610204565b60008260405160200161042391815260200190565b60408051601f1981840301815291905280516020909101209050610449610194826109ee565b6000036104af573360009081526003602052604090206001908360028110610473576104736109d8565b015560048260028110610488576104886109d8565b015433600090815260026020526040812080549091906104a9908490610a10565b90915550505b505050565b60008054600160a01b900460ff166104de5760405162461bcd60e51b815260040161020490610967565b33600090815260016020526040902080546104f89061099e565b90506000036105435760405162461bcd60e51b81526020600482015260176024820152764d757374207265676973746572207465616d206e616d6560481b6044820152606401610204565b3360009081526003602052604090208160028110610563576105636109d8565b0154156105b25760405162461bcd60e51b815260206004820152601f60248201527f416c726561647920636f6d706c6574656420746869732066756e6374696f6e006044820152606401610204565b816102f35733600090815260036020526040902060019082600281106105da576105da6109d8565b0155600481600281106105ef576105ef6109d8565b01543360009081526002602052604081208054909190610610908490610a10565b90915550505050565b6000546001600160a01b031633146106605760405162461bcd60e51b815260206004820152600a60248201526927b7363c9037bbb732b960b11b6044820152606401610204565b6000805460ff60a01b1916600160a01b179055565b6001602052600090815260409020805461068e9061099e565b80601f01602080910402602001604051908101604052809291908181526020018280546106ba9061099e565b80156107075780601f106106dc57610100808354040283529160200191610707565b820191906000526020600020905b8154815290600101906020018083116106ea57829003601f168201915b505050505081565b82805461071b9061099e565b90600052602060002090601f01602090048101928261073d5760008555610783565b82601f1061075657805160ff1916838001178555610783565b82800160010185558215610783579182015b82811115610783578251825591602001919060010190610768565b5061078f929150610793565b5090565b5b8082111561078f5760008155600101610794565b80356001600160a01b03811681146107bf57600080fd5b919050565b600080604083850312156107d757600080fd5b6107e0836107a8565b946020939093013593505050565b60006020828403121561080057600080fd5b610809826107a8565b9392505050565b634e487b7160e01b600052604160045260246000fd5b60006020828403121561083857600080fd5b813567ffffffffffffffff8082111561085057600080fd5b818401915084601f83011261086457600080fd5b81358181111561087657610876610810565b604051601f8201601f19908116603f0116810190838211818310171561089e5761089e610810565b816040528281528760208487010111156108b757600080fd5b826020860160208301376000928101602001929092525095945050505050565b6000602082840312156108e957600080fd5b5035919050565b60006020828403121561090257600080fd5b8135801515811461080957600080fd5b600060208083528351808285015260005b8181101561093f57858101830151858201604001528201610923565b81811115610951576000604083870101525b50601f01601f1916929092016040019392505050565b60208082526018908201527f4861636b6174686f6e206e6f7420696e2073657373696f6e0000000000000000604082015260600190565b600181811c908216806109b257607f821691505b6020821081036109d257634e487b7160e01b600052602260045260246000fd5b50919050565b634e487b7160e01b600052603260045260246000fd5b600082610a0b57634e487b7160e01b600052601260045260246000fd5b500690565b60008219821115610a3157634e487b7160e01b600052601160045260246000fd5b50019056fea26469706673582212206d8ac2cf9d2be4522c53104328be816ac071ada3dd8d50aa4a29f73360f0bdf564736f6c634300080d0033",
    "linkReferences": {}
  },
  "methodIdentifiers": {
    "f0(bool)": "aa91c62e",
    "f1(uint256)": "9adbf691",
    "live()": "957aa58c",
    "owner()": "8da5cb5b",
    "points(uint256)": "9799b4e7",
    "progress(address,uint256)": "0c91cdbc",
    "registerTeam(string)": "8729e5c1",
    "scores(address)": "76dd110f",
    "start()": "be9a6555",
    "stop()": "07da68f5",
    "teams(address)": "c4583240"
  },
  "id": 0
}