{
  "abi": [
    {
      "inputs": [
        {
          "internalType": "string",
          "name": "uri",
          "type": "string"
        }
      ],
      "stateMutability": "nonpayable",
      "type": "constructor"
    },
    {
      "anonymous": false,
      "inputs": [
        {
          "indexed": true,
          "internalType": "address",
          "name": "account",
          "type": "address"
        },
        {
          "indexed": true,
          "internalType": "address",
          "name": "operator",
          "type": "address"
        },
        {
          "indexed": false,
          "internalType": "bool",
          "name": "approved",
          "type": "bool"
        }
      ],
      "name": "ApprovalForAll",
      "type": "event"
    },
    {
      "anonymous": false,
      "inputs": [
        {
          "indexed": true,
          "internalType": "address",
          "name": "previousOwner",
          "type": "address"
        },
        {
          "indexed": true,
          "internalType": "address",
          "name": "newOwner",
          "type": "address"
        }
      ],
      "name": "OwnershipTransferred",
      "type": "event"
    },
    {
      "anonymous": false,
      "inputs": [
        {
          "indexed": true,
          "internalType": "address",
          "name": "operator",
          "type": "address"
        },
        {
          "indexed": true,
          "internalType": "address",
          "name": "from",
          "type": "address"
        },
        {
          "indexed": true,
          "internalType": "address",
          "name": "to",
          "type": "address"
        },
        {
          "indexed": false,
          "internalType": "uint256[]",
          "name": "ids",
          "type": "uint256[]"
        },
        {
          "indexed": false,
          "internalType": "uint256[]",
          "name": "values",
          "type": "uint256[]"
        }
      ],
      "name": "TransferBatch",
      "type": "event"
    },
    {
      "anonymous": false,
      "inputs": [
        {
          "indexed": true,
          "internalType": "address",
          "name": "operator",
          "type": "address"
        },
        {
          "indexed": true,
          "internalType": "address",
          "name": "from",
          "type": "address"
        },
        {
          "indexed": true,
          "internalType": "address",
          "name": "to",
          "type": "address"
        },
        {
          "indexed": false,
          "internalType": "uint256",
          "name": "id",
          "type": "uint256"
        },
        {
          "indexed": false,
          "internalType": "uint256",
          "name": "value",
          "type": "uint256"
        }
      ],
      "name": "TransferSingle",
      "type": "event"
    },
    {
      "anonymous": false,
      "inputs": [
        {
          "indexed": false,
          "internalType": "string",
          "name": "value",
          "type": "string"
        },
        {
          "indexed": true,
          "internalType": "uint256",
          "name": "id",
          "type": "uint256"
        }
      ],
      "name": "URI",
      "type": "event"
    },
    {
      "inputs": [
        {
          "internalType": "address",
          "name": "account",
          "type": "address"
        },
        {
          "internalType": "uint256",
          "name": "id",
          "type": "uint256"
        }
      ],
      "name": "balanceOf",
      "outputs": [
        {
          "internalType": "uint256",
          "name": "",
          "type": "uint256"
        }
      ],
      "stateMutability": "view",
      "type": "function"
    },
    {
      "inputs": [
        {
          "internalType": "address[]",
          "name": "accounts",
          "type": "address[]"
        },
        {
          "internalType": "uint256[]",
          "name": "ids",
          "type": "uint256[]"
        }
      ],
      "name": "balanceOfBatch",
      "outputs": [
        {
          "internalType": "uint256[]",
          "name": "",
          "type": "uint256[]"
        }
      ],
      "stateMutability": "view",
      "type": "function"
    },
    {
      "inputs": [],
      "name": "challengeHook",
      "outputs": [
        {
          "internalType": "uint256",
          "name": "",
          "type": "uint256"
        }
      ],
      "stateMutability": "view",
      "type": "function"
    },
    {
      "inputs": [
        {
          "internalType": "address",
          "name": "",
          "type": "address"
        }
      ],
      "name": "diceRollLastWin",
      "outputs": [
        {
          "internalType": "uint256",
          "name": "",
          "type": "uint256"
        }
      ],
      "stateMutability": "view",
      "type": "function"
    },
    {
      "inputs": [
        {
          "internalType": "address",
          "name": "",
          "type": "address"
        }
      ],
      "name": "diceRollWins",
      "outputs": [
        {
          "internalType": "uint256",
          "name": "",
          "type": "uint256"
        }
      ],
      "stateMutability": "view",
      "type": "function"
    },
    {
      "inputs": [
        {
          "internalType": "address",
          "name": "",
          "type": "address"
        }
      ],
      "name": "entryCount",
      "outputs": [
        {
          "internalType": "uint256",
          "name": "",
          "type": "uint256"
        }
      ],
      "stateMutability": "view",
      "type": "function"
    },
    {
      "inputs": [
        {
          "internalType": "bool",
          "name": "val",
          "type": "bool"
        }
      ],
      "name": "f0",
      "outputs": [],
      "stateMutability": "nonpayable",
      "type": "function"
    },
    {
      "inputs": [],
      "name": "f1",
      "outputs": [],
      "stateMutability": "payable",
      "type": "function"
    },
    {
      "inputs": [
        {
          "internalType": "int256",
          "name": "num1",
          "type": "int256"
        },
        {
          "internalType": "int256",
          "name": "num2",
          "type": "int256"
        }
      ],
      "name": "f10",
      "outputs": [],
      "stateMutability": "nonpayable",
      "type": "function"
    },
    {
      "inputs": [
        {
          "internalType": "int256",
          "name": "num1",
          "type": "int256"
        },
        {
          "internalType": "int256",
          "name": "num2",
          "type": "int256"
        }
      ],
      "name": "f11",
      "outputs": [],
      "stateMutability": "nonpayable",
      "type": "function"
    },
    {
      "inputs": [
        {
          "internalType": "bytes",
          "name": "data",
          "type": "bytes"
        }
      ],
      "name": "f12",
      "outputs": [],
      "stateMutability": "nonpayable",
      "type": "function"
    },
    {
      "inputs": [],
      "name": "f13",
      "outputs": [],
      "stateMutability": "payable",
      "type": "function"
    },
    {
      "inputs": [
        {
          "internalType": "uint256",
          "name": "diceRoll",
          "type": "uint256"
        }
      ],
      "name": "f14",
      "outputs": [],
      "stateMutability": "payable",
      "type": "function"
    },
    {
      "inputs": [
        {
          "internalType": "uint256",
          "name": "difficulty",
          "type": "uint256"
        }
      ],
      "name": "f15",
      "outputs": [],
      "stateMutability": "nonpayable",
      "type": "function"
    },
    {
      "inputs": [
        {
          "internalType": "address",
          "name": "team",
          "type": "address"
        }
      ],
      "name": "f16",
      "outputs": [],
      "stateMutability": "nonpayable",
      "type": "function"
    },
    {
      "inputs": [
        {
          "internalType": "address",
          "name": "team",
          "type": "address"
        },
        {
          "internalType": "address",
          "name": "expectedSigner",
          "type": "address"
        },
        {
          "internalType": "bytes",
          "name": "signature",
          "type": "bytes"
        }
      ],
      "name": "f17",
      "outputs": [],
      "stateMutability": "nonpayable",
      "type": "function"
    },
    {
      "inputs": [
        {
          "internalType": "uint256",
          "name": "amount",
          "type": "uint256"
        },
        {
          "internalType": "address",
          "name": "dest",
          "type": "address"
        },
        {
          "internalType": "address",
          "name": "team",
          "type": "address"
        }
      ],
      "name": "f18",
      "outputs": [],
      "stateMutability": "nonpayable",
      "type": "function"
    },
    {
      "inputs": [
        {
          "internalType": "address",
          "name": "team",
          "type": "address"
        }
      ],
      "name": "f19",
      "outputs": [],
      "stateMutability": "nonpayable",
      "type": "function"
    },
    {
      "inputs": [
        {
          "internalType": "uint256",
          "name": "val",
          "type": "uint256"
        }
      ],
      "name": "f2",
      "outputs": [],
      "stateMutability": "nonpayable",
      "type": "function"
    },
    {
      "inputs": [
        {
          "internalType": "address",
          "name": "newContract",
          "type": "address"
        },
        {
          "internalType": "address",
          "name": "team",
          "type": "address"
        }
      ],
      "name": "f20",
      "outputs": [],
      "stateMutability": "nonpayable",
      "type": "function"
    },
    {
      "inputs": [
        {
          "internalType": "uint256",
          "name": "data",
          "type": "uint256"
        }
      ],
      "name": "f3",
      "outputs": [],
      "stateMutability": "nonpayable",
      "type": "function"
    },
    {
      "inputs": [
        {
          "internalType": "address",
          "name": "destAddr",
          "type": "address"
        }
      ],
      "name": "f4",
      "outputs": [],
      "stateMutability": "nonpayable",
      "type": "function"
    },
    {
      "inputs": [
        {
          "internalType": "address",
          "name": "destAddr",
          "type": "address"
        }
      ],
      "name": "f5",
      "outputs": [],
      "stateMutability": "nonpayable",
      "type": "function"
    },
    {
      "inputs": [
        {
          "internalType": "address",
          "name": "destAddr",
          "type": "address"
        }
      ],
      "name": "f6",
      "outputs": [],
      "stateMutability": "nonpayable",
      "type": "function"
    },
    {
      "inputs": [],
      "name": "f7",
      "outputs": [],
      "stateMutability": "nonpayable",
      "type": "function"
    },
    {
      "inputs": [
        {
          "internalType": "bytes",
          "name": "data",
          "type": "bytes"
        }
      ],
      "name": "f8",
      "outputs": [],
      "stateMutability": "nonpayable",
      "type": "function"
    },
    {
      "inputs": [
        {
          "internalType": "bytes",
          "name": "data",
          "type": "bytes"
        }
      ],
      "name": "f9",
      "outputs": [],
      "stateMutability": "nonpayable",
      "type": "function"
    },
    {
      "inputs": [
        {
          "internalType": "address",
          "name": "account",
          "type": "address"
        },
        {
          "internalType": "address",
          "name": "operator",
          "type": "address"
        }
      ],
      "name": "isApprovedForAll",
      "outputs": [
        {
          "internalType": "bool",
          "name": "",
          "type": "bool"
        }
      ],
      "stateMutability": "view",
      "type": "function"
    },
    {
      "inputs": [],
      "name": "live",
      "outputs": [
        {
          "internalType": "bool",
          "name": "",
          "type": "bool"
        }
      ],
      "stateMutability": "view",
      "type": "function"
    },
    {
      "inputs": [],
      "name": "owner",
      "outputs": [
        {
          "internalType": "address",
          "name": "",
          "type": "address"
        }
      ],
      "stateMutability": "view",
      "type": "function"
    },
    {
      "inputs": [
        {
          "internalType": "uint256",
          "name": "",
          "type": "uint256"
        }
      ],
      "name": "points",
      "outputs": [
        {
          "internalType": "uint256",
          "name": "",
          "type": "uint256"
        }
      ],
      "stateMutability": "view",
      "type": "function"
    },
    {
      "inputs": [
        {
          "internalType": "address",
          "name": "",
          "type": "address"
        },
        {
          "internalType": "uint256",
          "name": "",
          "type": "uint256"
        }
      ],
      "name": "progress",
      "outputs": [
        {
          "internalType": "bool",
          "name": "",
          "type": "bool"
        }
      ],
      "stateMutability": "view",
      "type": "function"
    },
    {
      "inputs": [
        {
          "internalType": "string",
          "name": "team",
          "type": "string"
        }
      ],
      "name": "registerTeam",
      "outputs": [],
      "stateMutability": "nonpayable",
      "type": "function"
    },
    {
      "inputs": [],
      "name": "renounceOwnership",
      "outputs": [],
      "stateMutability": "nonpayable",
      "type": "function"
    },
    {
      "inputs": [
        {
          "internalType": "address",
          "name": "from",
          "type": "address"
        },
        {
          "internalType": "address",
          "name": "to",
          "type": "address"
        },
        {
          "internalType": "uint256[]",
          "name": "ids",
          "type": "uint256[]"
        },
        {
          "internalType": "uint256[]",
          "name": "amounts",
          "type": "uint256[]"
        },
        {
          "internalType": "bytes",
          "name": "data",
          "type": "bytes"
        }
      ],
      "name": "safeBatchTransferFrom",
      "outputs": [],
      "stateMutability": "nonpayable",
      "type": "function"
    },
    {
      "inputs": [
        {
          "internalType": "address",
          "name": "from",
          "type": "address"
        },
        {
          "internalType": "address",
          "name": "to",
          "type": "address"
        },
        {
          "internalType": "uint256",
          "name": "id",
          "type": "uint256"
        },
        {
          "internalType": "uint256",
          "name": "amount",
          "type": "uint256"
        },
        {
          "internalType": "bytes",
          "name": "data",
          "type": "bytes"
        }
      ],
      "name": "safeTransferFrom",
      "outputs": [],
      "stateMutability": "nonpayable",
      "type": "function"
    },
    {
      "inputs": [
        {
          "internalType": "address",
          "name": "",
          "type": "address"
        }
      ],
      "name": "scores",
      "outputs": [
        {
          "internalType": "uint256",
          "name": "",
          "type": "uint256"
        }
      ],
      "stateMutability": "view",
      "type": "function"
    },
    {
      "inputs": [
        {
          "internalType": "address",
          "name": "",
          "type": "address"
        }
      ],
      "name": "secondEntryCount",
      "outputs": [
        {
          "internalType": "uint256",
          "name": "",
          "type": "uint256"
        }
      ],
      "stateMutability": "view",
      "type": "function"
    },
    {
      "inputs": [
        {
          "internalType": "address",
          "name": "operator",
          "type": "address"
        },
        {
          "internalType": "bool",
          "name": "approved",
          "type": "bool"
        }
      ],
      "name": "setApprovalForAll",
      "outputs": [],
      "stateMutability": "nonpayable",
      "type": "function"
    },
    {
      "inputs": [
        {
          "internalType": "address",
          "name": "",
          "type": "address"
        }
      ],
      "name": "signers",
      "outputs": [
        {
          "internalType": "bool",
          "name": "",
          "type": "bool"
        }
      ],
      "stateMutability": "view",
      "type": "function"
    },
    {
      "inputs": [
        {
          "internalType": "uint256",
          "name": "",
          "type": "uint256"
        }
      ],
      "name": "solves",
      "outputs": [
        {
          "internalType": "uint256",
          "name": "",
          "type": "uint256"
        }
      ],
      "stateMutability": "view",
      "type": "function"
    },
    {
      "inputs": [],
      "name": "start",
      "outputs": [],
      "stateMutability": "nonpayable",
      "type": "function"
    },
    {
      "inputs": [],
      "name": "stop",
      "outputs": [],
      "stateMutability": "nonpayable",
      "type": "function"
    },
    {
      "inputs": [
        {
          "internalType": "bytes4",
          "name": "interfaceId",
          "type": "bytes4"
        }
      ],
      "name": "supportsInterface",
      "outputs": [
        {
          "internalType": "bool",
          "name": "",
          "type": "bool"
        }
      ],
      "stateMutability": "view",
      "type": "function"
    },
    {
      "inputs": [
        {
          "internalType": "uint256",
          "name": "",
          "type": "uint256"
        }
      ],
      "name": "teamAddresses",
      "outputs": [
        {
          "internalType": "address",
          "name": "",
          "type": "address"
        }
      ],
      "stateMutability": "view",
      "type": "function"
    },
    {
      "inputs": [
        {
          "internalType": "address",
          "name": "",
          "type": "address"
        }
      ],
      "name": "teams",
      "outputs": [
        {
          "internalType": "string",
          "name": "",
          "type": "string"
        }
      ],
      "stateMutability": "view",
      "type": "function"
    },
    {
      "inputs": [],
      "name": "template",
      "outputs": [
        {
          "internalType": "contract create2Challenge",
          "name": "",
          "type": "address"
        }
      ],
      "stateMutability": "view",
      "type": "function"
    },
    {
      "inputs": [
        {
          "internalType": "address",
          "name": "newOwner",
          "type": "address"
        }
      ],
      "name": "transferOwnership",
      "outputs": [],
      "stateMutability": "nonpayable",
      "type": "function"
    },
    {
      "inputs": [
        {
          "internalType": "uint256",
          "name": "",
          "type": "uint256"
        }
      ],
      "name": "uri",
      "outputs": [
        {
          "internalType": "string",
          "name": "",
          "type": "string"
        }
      ],
      "stateMutability": "view",
      "type": "function"
    }
  ],
  "bytecode": {
    "object": "0x608060405260006011553480156200001657600080fd5b506040516200458138038062004581833981016040819052620000399162000222565b806200004533620000ef565b62000050816200013f565b5060005b601481116200009b576200006a8160c862000314565b620000779060c862000336565b60008281526008602052604090205580620000928162000351565b91505062000054565b50604051620000aa9062000158565b604051809103906000f080158015620000c7573d6000803e3d6000fd5b50601080546001600160a01b0319166001600160a01b039290921691909117905550620003a9565b600080546001600160a01b038381166001600160a01b0319831681178455604051919092169283917f8be0079c531659141344cd1fd0a4f28419497f9722a3daafe3b4186f6b6457e09190a35050565b80516200015490600390602084019062000166565b5050565b610141806200444083390190565b82805462000174906200036d565b90600052602060002090601f016020900481019282620001985760008555620001e3565b82601f10620001b357805160ff1916838001178555620001e3565b82800160010185558215620001e3579182015b82811115620001e3578251825591602001919060010190620001c6565b50620001f1929150620001f5565b5090565b5b80821115620001f15760008155600101620001f6565b634e487b7160e01b600052604160045260246000fd5b600060208083850312156200023657600080fd5b82516001600160401b03808211156200024e57600080fd5b818501915085601f8301126200026357600080fd5b8151818111156200027857620002786200020c565b604051601f8201601f19908116603f01168101908382118183101715620002a357620002a36200020c565b816040528281528886848701011115620002bc57600080fd5b600093505b82841015620002e05784840186015181850187015292850192620002c1565b82841115620002f25760008684830101525b98975050505050505050565b634e487b7160e01b600052601160045260246000fd5b6000816000190483118215151615620003315762000331620002fe565b500290565b600082198211156200034c576200034c620002fe565b500190565b600060018201620003665762000366620002fe565b5060010190565b600181811c908216806200038257607f821691505b602082108103620003a357634e487b7160e01b600052602260045260246000fd5b50919050565b61408780620003b96000396000f3fe6080604052600436106102ad5760003560e01c80638da5cb5b11610175578063c1a8f2c6116100dc578063d75203c311610095578063e985e9c51161006f578063e985e9c5146108b3578063ed6a9904146108fc578063f242432a1461091c578063f2fde38b1461093c57600080fd5b8063d75203c31461085e578063d7b7913b1461087e578063df2025dc1461089e57600080fd5b8063c1a8f2c6146107a9578063c27fc305146107d6578063c28cb1d4146107de578063c4583240146107f1578063c78de83814610811578063ca9eaf591461083157600080fd5b8063a22cb4651161012e578063a22cb465146106f4578063a481b0e414610714578063aa91c62e14610734578063b1d8dd5614610754578063be9a655514610774578063bf3724af1461078957600080fd5b80638da5cb5b14610647578063920f5c731461066557806393d1758c1461066d578063957aa58c1461068d578063964ef96b146106a75780639799b4e7146106c757600080fd5b806349b9dbe611610219578063736c0d5b116101d2578063736c0d5b1461055d57806376dd110f1461058d578063787f485a146105ba57806381e0f90c146105da57806383e9ff47146105fa5780638729e5c11461062757600080fd5b806349b9dbe61461049b5780634e1273f4146104bb57806350a48d2e146104e8578063604f7523146105085780636f2ddd9314610528578063715018a61461054857600080fd5b8063237b3bde1161026b578063237b3bde146103a95780632419217e146103c95780632eb2c2d6146104015780632f4dc9da146104215780633d0561721461044157806341dd1ef81461046e57600080fd5b8062fdd58e146102b257806301ffc9a7146102e557806307da68f5146103155780630c91cdbc1461032c5780630e89341c146103675780631545847c14610394575b600080fd5b3480156102be57600080fd5b506102d26102cd366004613412565b61095c565b6040519081526020015b60405180910390f35b3480156102f157600080fd5b50610305610300366004613452565b6109f7565b60405190151581526020016102dc565b34801561032157600080fd5b5061032a610a47565b005b34801561033857600080fd5b50610305610347366004613412565b600760209081526000928352604080842090915290825290205460ff1681565b34801561037357600080fd5b50610387610382366004613476565b610a5b565b6040516102dc91906134e7565b3480156103a057600080fd5b506102d2610aef565b3480156103b557600080fd5b5061032a6103c43660046134fa565b610b63565b3480156103d557600080fd5b506103e96103e4366004613476565b610cd2565b6040516001600160a01b0390911681526020016102dc565b34801561040d57600080fd5b5061032a61041c36600461366b565b610cfc565b34801561042d57600080fd5b5061032a61043c366004613476565b610d48565b34801561044d57600080fd5b506102d261045c366004613476565b600e6020526000908152604090205481565b34801561047a57600080fd5b506102d26104893660046134fa565b60096020526000908152604090205481565b3480156104a757600080fd5b5061032a6104b6366004613715565b610e6d565b3480156104c757600080fd5b506104db6104d6366004613748565b610fbd565b6040516102dc919061384e565b3480156104f457600080fd5b5061032a6105033660046134fa565b6110e7565b34801561051457600080fd5b5061032a6105233660046134fa565b6111a7565b34801561053457600080fd5b506010546103e9906001600160a01b031681565b34801561055457600080fd5b5061032a61126c565b34801561056957600080fd5b506103056105783660046134fa565b600d6020526000908152604090205460ff1681565b34801561059957600080fd5b506102d26105a83660046134fa565b60066020526000908152604090205481565b3480156105c657600080fd5b5061032a6105d5366004613861565b611280565b3480156105e657600080fd5b5061032a6105f536600461389e565b611356565b34801561060657600080fd5b506102d26106153660046134fa565b600a6020526000908152604090205481565b34801561063357600080fd5b5061032a6106423660046138c0565b611488565b34801561065357600080fd5b506000546001600160a01b03166103e9565b61032a611549565b34801561067957600080fd5b5061032a6106883660046134fa565b6116b0565b34801561069957600080fd5b506004546103059060ff1681565b3480156106b357600080fd5b5061032a6106c2366004613909565b611770565b3480156106d357600080fd5b506102d26106e2366004613476565b60086020526000908152604090205481565b34801561070057600080fd5b5061032a61070f366004613989565b61185b565b34801561072057600080fd5b5061032a61072f366004613861565b611866565b34801561074057600080fd5b5061032a61074f3660046139c0565b6119fd565b34801561076057600080fd5b5061032a61076f3660046139dd565b611ae1565b34801561078057600080fd5b5061032a611c80565b34801561079557600080fd5b5061032a6107a4366004613476565b611c97565b3480156107b557600080fd5b506102d26107c43660046134fa565b600b6020526000908152604090205481565b61032a611dcd565b61032a6107ec366004613476565b611eae565b3480156107fd57600080fd5b5061038761080c3660046134fa565b6120ca565b34801561081d57600080fd5b5061032a61082c366004613a19565b612164565b34801561083d57600080fd5b506102d261084c3660046134fa565b600c6020526000908152604090205481565b34801561086a57600080fd5b5061032a61087936600461389e565b6123af565b34801561088a57600080fd5b5061032a610899366004613476565b6124e4565b3480156108aa57600080fd5b5061032a6125c8565b3480156108bf57600080fd5b506103056108ce366004613715565b6001600160a01b03918216600090815260026020908152604080832093909416825291909152205460ff1690565b34801561090857600080fd5b5061032a6109173660046134fa565b6126b1565b34801561092857600080fd5b5061032a610937366004613a77565b612880565b34801561094857600080fd5b5061032a6109573660046134fa565b6128c5565b60006001600160a01b0383166109cc5760405162461bcd60e51b815260206004820152602a60248201527f455243313135353a2061646472657373207a65726f206973206e6f742061207660448201526930b634b21037bbb732b960b11b60648201526084015b60405180910390fd5b5060008181526001602090815260408083206001600160a01b03861684529091529020545b92915050565b60006001600160e01b03198216636cdb3d1360e11b1480610a2857506001600160e01b031982166303a24d0760e21b145b806109f157506301ffc9a760e01b6001600160e01b03198316146109f1565b610a4f61293b565b6004805460ff19169055565b606060038054610a6a90613adc565b80601f0160208091040260200160405190810160405280929190818152602001828054610a9690613adc565b8015610ae35780601f10610ab857610100808354040283529160200191610ae3565b820191906000526020600020905b815481529060010190602001808311610ac657829003601f168201915b50505050509050919050565b60045460009060ff16610b145760405162461bcd60e51b81526004016109c390613b16565b3360009081526005602052604090208054610b2e90613adc565b159050610b4d5760405162461bcd60e51b81526004016109c390613b4d565b333014610b5957600080fd5b5063deadbeef5b90565b60045460ff16610b855760405162461bcd60e51b81526004016109c390613b16565b3360009081526005602052604090208054610b9f90613adc565b159050610bbe5760405162461bcd60e51b81526004016109c390613b4d565b6001600160a01b0381166000908152600760209081526040808320601380855292529091205460ff1615610c045760405162461bcd60e51b81526004016109c390613b84565b6040516301ffc9a760e01b81526336372b0760e01b600482015233906301ffc9a790602401602060405180830381865afa158015610c46573d6000803e3d6000fd5b505050506040513d601f19601f82011682018060405250810190610c6a9190613bbb565b610cc45760405162461bcd60e51b815260206004820152602560248201527f6d73672073656e64657220646f6573206e6f7420737570706f727420696e7465604482015264726661636560d81b60648201526084016109c3565b610cce8183612995565b5050565b600f8181548110610ce257600080fd5b6000918252602090912001546001600160a01b0316905081565b6001600160a01b038516331480610d185750610d1885336108ce565b610d345760405162461bcd60e51b81526004016109c390613bd8565b610d418585858585612a39565b5050505050565b60045460ff16610d6a5760405162461bcd60e51b81526004016109c390613b16565b3360009081526005602052604090208054610d8490613adc565b159050610da35760405162461bcd60e51b81526004016109c390613b4d565b336000908152600760209081526040808320600f80855292529091205460ff1615610de05760405162461bcd60e51b81526004016109c390613b84565b60408051446020820152016040516020818303038152906040528051906020012060001c8214610e635760405162461bcd60e51b815260206004820152602860248201527f4469642049206d616b652074686973206368616c6c656e676520746f6f20646960448201526766666963756c743f60c01b60648201526084016109c3565b610cce8133612995565b60045460ff16610e8f5760405162461bcd60e51b81526004016109c390613b16565b3360009081526005602052604090208054610ea990613adc565b159050610ec85760405162461bcd60e51b81526004016109c390613b4d565b6001600160a01b0381166000908152600760209081526040808320601480855292529091205460ff1615610f0e5760405162461bcd60e51b81526004016109c390613b84565b60105460408051336020820152600092610f4a926001600160a01b03909116910160405160208183030381529060405280519060200120612c11565b9050806001600160a01b0316846001600160a01b031614610fad5760405162461bcd60e51b815260206004820152601b60248201527f507265646963746564206164647265737320696e636f7272656374000000000060448201526064016109c3565b610fb78284612995565b50505050565b606081518351146110225760405162461bcd60e51b815260206004820152602960248201527f455243313135353a206163636f756e747320616e6420696473206c656e677468604482015268040dad2e6dac2e8c6d60bb1b60648201526084016109c3565b6000835167ffffffffffffffff81111561103e5761103e613515565b604051908082528060200260200182016040528015611067578160200160208202803683370190505b50905060005b84518110156110df576110b285828151811061108b5761108b613c27565b60200260200101518583815181106110a5576110a5613c27565b602002602001015161095c565b8282815181106110c4576110c4613c27565b60209081029190910101526110d881613c53565b905061106d565b509392505050565b60045460ff166111095760405162461bcd60e51b81526004016109c390613b16565b336000908152600560205260409020805461112390613adc565b1590506111425760405162461bcd60e51b81526004016109c390613b4d565b336000908152600760209081526040808320600480855292529091205460ff161561117f5760405162461bcd60e51b81526004016109c390613b84565b6001600160a01b0382163014610e635760405162461bcd60e51b81526004016109c390613c6c565b60045460ff166111c95760405162461bcd60e51b81526004016109c390613b16565b33600090815260056020526040902080546111e390613adc565b1590506112025760405162461bcd60e51b81526004016109c390613b4d565b336000908152600760209081526040808320600680855292529091205460ff161561123f5760405162461bcd60e51b81526004016109c390613b84565b6000546001600160a01b03838116911614610e635760405162461bcd60e51b81526004016109c390613c6c565b61127461293b565b61127e6000612cb1565b565b60045460ff166112a25760405162461bcd60e51b81526004016109c390613b16565b33600090815260056020526040902080546112bc90613adc565b1590506112db5760405162461bcd60e51b81526004016109c390613b4d565b336000908152600760209081526040808320600980855292529091205460ff16156113185760405162461bcd60e51b81526004016109c390613b84565b6000356001600160e01b03191682604051602001611337929190613ca3565b60405160208183030381529060405291508151602014610e6357600080fd5b60045460ff166113785760405162461bcd60e51b81526004016109c390613b16565b336000908152600560205260409020805461139290613adc565b1590506113b15760405162461bcd60e51b81526004016109c390613b4d565b336000908152600760209081526040808320600b80855292529091205460ff16156113ee5760405162461bcd60e51b81526004016109c390613b84565b6000831380156113fe5750600082135b6114545760405162461bcd60e51b815260206004820152602160248201527f4e756d62657273206d7573742062652067726561746572207468616e207a65726044820152606f60f81b60648201526084016109c3565b82820160091981126114785760405162461bcd60e51b81526004016109c390613cd4565b506114838133612995565b505050565b60045460ff166114aa5760405162461bcd60e51b81526004016109c390613b16565b33600090815260056020526040902080546114c490613adc565b1590506114e35760405162461bcd60e51b81526004016109c390613b4d565b33600090815260056020908152604090912082516115039284019061335d565b5050600f80546001810182556000919091527f8d1108e10bcb7c27dddfc02ed9d693a074039d026cf4ea4240b40f7d581ac8020180546001600160a01b03191633179055565b60045460ff1661156b5760405162461bcd60e51b81526004016109c390613b16565b336000908152600560205260409020805461158590613adc565b1590506115a45760405162461bcd60e51b81526004016109c390613b4d565b336000908152600760209081526040808320600d80855292529091205460ff16156115e15760405162461bcd60e51b81526004016109c390613b84565b33600090815260096020526040902054600a106116a35733600090815260096020526040812080549161161383613c53565b909155505060405160009033908281818181865af19150503d8060008114611657576040519150601f19603f3d011682016040523d82523d6000602084013e61165c565b606091505b50509050806116a15760405162461bcd60e51b81526020600482015260116024820152701d985b1d59481cd95b990819985a5b1959607a1b60448201526064016109c3565b505b6116ad8133612995565b50565b60045460ff166116d25760405162461bcd60e51b81526004016109c390613b16565b33600090815260056020526040902080546116ec90613adc565b15905061170b5760405162461bcd60e51b81526004016109c390613b4d565b336000908152600760209081526040808320600580855292529091205460ff16156117485760405162461bcd60e51b81526004016109c390613b84565b6001600160a01b0382163314610e635760405162461bcd60e51b81526004016109c390613c6c565b60045460ff166117925760405162461bcd60e51b81526004016109c390613b16565b33600090815260056020526040902080546117ac90613adc565b1590506117cb5760405162461bcd60e51b81526004016109c390613b4d565b336000908152600760209081526040808320600880855292529091205460ff16156118085760405162461bcd60e51b81526004016109c390613b84565b602082146118515760405162461bcd60e51b8152602060048201526016602482015275696e76616c6964206c656e677468206f66206461746160501b60448201526064016109c3565b6114838133612995565b610cce338383612d01565b60045460ff166118885760405162461bcd60e51b81526004016109c390613b16565b33600090815260056020526040902080546118a290613adc565b1590506118c15760405162461bcd60e51b81526004016109c390613b4d565b336000908152600760209081526040808320600c80855292529091205460ff16156118fe5760405162461bcd60e51b81526004016109c390613b84565b600080306001600160a01b0316846040516119199190613d20565b6000604051808303816000865af19150503d8060008114611956576040519150601f19603f3d011682016040523d82523d6000602084013e61195b565b606091505b5091509150816119bc5760405162461bcd60e51b815260206004820152602660248201527f696e7465726e616c2066756e6374696f6e2063616c6c20646964206e6f7420736044820152651d58d8d9595960d21b60648201526084016109c3565b6040805163deadbeef602082015201604051602081830303815290604052805190602001208180519060200120146119f357600080fd5b610fb78333612995565b60045460ff16611a1f5760405162461bcd60e51b81526004016109c390613b16565b3360009081526005602052604090208054611a3990613adc565b159050611a585760405162461bcd60e51b81526004016109c390613b4d565b33600090815260076020908152604080832083805290915281205460ff1615611a935760405162461bcd60e51b81526004016109c390613b84565b8115610e635760405162461bcd60e51b815260206004820152601760248201527f696e636f727265637420626f6f6c65616e2076616c756500000000000000000060448201526064016109c3565b60045460ff16611b035760405162461bcd60e51b81526004016109c390613b16565b3360009081526005602052604090208054611b1d90613adc565b159050611b3c5760405162461bcd60e51b81526004016109c390613b4d565b6001600160a01b0381166000908152600760209081526040808320601280855292529091205460ff1615611b825760405162461bcd60e51b81526004016109c390613b84565b333b611bc35760405162461bcd60e51b815260206004820152601060248201526f135d5cdd0818994818dbdb9d1c9858dd60821b60448201526064016109c3565b60008411611c295760405162461bcd60e51b815260206004820152602d60248201527f6d7573742070726f76696465206e6f6e2d7a65726f20616d6f756e74206f662060448201526c119391951cc81d1bc81b5a5b9d609a1b60648201526084016109c3565b60408051336020820152600091016040516020818303038152906040528051906020012060001c9050611c7684828760405180606001604052806030815260200161402260309139612de1565b610d418284612995565b611c8861293b565b6004805460ff19166001179055565b60045460ff16611cb95760405162461bcd60e51b81526004016109c390613b16565b3360009081526005602052604090208054611cd390613adc565b159050611cf25760405162461bcd60e51b81526004016109c390613b4d565b336000908152600760209081526040808320600280855292529091205460ff1615611d2f5760405162461bcd60e51b81526004016109c390613b84565b60008233604051602001611d5f92919091825260601b6bffffffffffffffffffffffff1916602082015260340190565b60408051601f1981840301815291905280516020909101209050611d84600582613d52565b15611dc35760405162461bcd60e51b815260206004820152600f60248201526e19dd595cdcc81a5b98dbdc9c9958dd608a1b60448201526064016109c3565b6114838233612995565b60045460ff16611def5760405162461bcd60e51b81526004016109c390613b16565b3360009081526005602052604090208054611e0990613adc565b159050611e285760405162461bcd60e51b81526004016109c390613b4d565b336000908152600760209081526040808320600180855292529091205460ff1615611e655760405162461bcd60e51b81526004016109c390613b84565b346103e8146116a35760405162461bcd60e51b8152602060048201526015602482015274496e76616c6964204d6573736167652056616c756560581b60448201526064016109c3565b60045460ff16611ed05760405162461bcd60e51b81526004016109c390613b16565b3360009081526005602052604090208054611eea90613adc565b159050611f095760405162461bcd60e51b81526004016109c390613b4d565b336000908152600760209081526040808320600e80855292529091205460ff1615611f465760405162461bcd60e51b81526004016109c390613b84565b336000908152600c60205260409020544211611fb25760405162461bcd60e51b815260206004820152602560248201527f63616e6e6f7420706c6179206d756c7469706c652074696d657320696e2073616044820152640daca40e8f60db1b60648201526084016109c3565b604080514260208201526bffffffffffffffffffffffff193360601b169181019190915243605482015260009060740160408051601f19818403018152919052805160209091012090506000612009600683613d52565b905080841461207c57336000908152600b6020526040808220919091555162461bcd60e51b81526109c39060040160208082526025908201527f476f74746120737465616c2074696d652066726f6d20746865206661756c747960408201526410383630b760d91b606082015260800190565b336000908152600b6020526040812080549161209783613c53565b9091555050336000908152600c60209081526040808320429055600b909152902054600503610fb757610fb78333612995565b600560205260009081526040902080546120e390613adc565b80601f016020809104026020016040519081016040528092919081815260200182805461210f90613adc565b801561215c5780601f106121315761010080835404028352916020019161215c565b820191906000526020600020905b81548152906001019060200180831161213f57829003601f168201915b505050505081565b60045460ff166121865760405162461bcd60e51b81526004016109c390613b16565b33600090815260056020526040902080546121a090613adc565b1590506121bf5760405162461bcd60e51b81526004016109c390613b4d565b6001600160a01b0383166000908152600760209081526040808320601180855292529091205460ff16156122055760405162461bcd60e51b81526004016109c390613b84565b7fb6ea80b6085378cd6b3bf06f9a2972a74f28dd7ac5bf6b3e1dd7e7bcc42a9a2760006122328285612ef7565b90506001600160a01b0381166122965760405162461bcd60e51b8152602060048201526024808201527f6d75737420626520612076616c6964207369676e617475726520627920736f6d604482015263656f6e6560e01b60648201526084016109c3565b846001600160a01b0316816001600160a01b03161461231d5760405162461bcd60e51b815260206004820152603960248201527f5369676e6572206f6620746865206d65737361676520646964206e6f74206d6160448201527f7463682061637475616c206d657373616765207369676e65720000000000000060648201526084016109c3565b6001600160a01b0381166000908152600d602052604090205460ff161561237a5760405162461bcd60e51b81526020600482015260116024820152704e4f205245504c41592041545441434b5360781b60448201526064016109c3565b6001600160a01b0381166000908152600d60205260409020805460ff191660011790556123a78387612995565b505050505050565b60045460ff166123d15760405162461bcd60e51b81526004016109c390613b16565b33600090815260056020526040902080546123eb90613adc565b15905061240a5760405162461bcd60e51b81526004016109c390613b4d565b336000908152600760209081526040808320600a80855292529091205460ff16156124475760405162461bcd60e51b81526004016109c390613b84565b6000831280156124575750600082135b6124c15760405162461bcd60e51b815260206004820152603560248201527f6669727374206e756d626572206d757374206265206e6567617469766520616e6044820152746420326e64206e756d62657220706f73697469766560581b60648201526084016109c3565b818303600a81136114785760405162461bcd60e51b81526004016109c390613cd4565b60045460ff166125065760405162461bcd60e51b81526004016109c390613b16565b336000908152600560205260409020805461252090613adc565b15905061253f5760405162461bcd60e51b81526004016109c390613b4d565b336000908152600760209081526040808320600380855292529091205464098765432183189060ff16156125855760405162461bcd60e51b81526004016109c390613b84565b8063beefdead14611dc35760405162461bcd60e51b815260206004820152600d60248201526c125b9d985b1a5908125b9c1d5d609a1b60448201526064016109c3565b60045460ff166125ea5760405162461bcd60e51b81526004016109c390613b16565b336000908152600560205260409020805461260490613adc565b1590506126235760405162461bcd60e51b81526004016109c390613b4d565b3360009081526007602081815260408084208385529091529091205460ff161561265f5760405162461bcd60e51b81526004016109c390613b84565b626a584c5a116116a35760405162461bcd60e51b815260206004820152601b60248201527f6e6f7420656e6f7567682067617320666f722066756e6374696f6e000000000060448201526064016109c3565b60045460ff166126d35760405162461bcd60e51b81526004016109c390613b16565b33600090815260056020526040902080546126ed90613adc565b15905061270c5760405162461bcd60e51b81526004016109c390613b4d565b6001600160a01b0381166000908152600760209081526040808320601080855292529091205460ff16156127525760405162461bcd60e51b81526004016109c390613b84565b333b156127a15760405162461bcd60e51b815260206004820152601760248201527f4e6f20636f6e74726163747320746869732074696d652100000000000000000060448201526064016109c3565b6001600160a01b0382166000908152600a60205260408120549003610cc4576001600160a01b0382166000908152600a602052604081208054916127e483613c53565b909155505060405160009033908281818181865af19150503d8060008114612828576040519150601f19603f3d011682016040523d82523d6000602084013e61282d565b606091505b50509050806128755760405162461bcd60e51b8152602060048201526014602482015273195e1d195c9b985b0818d85b1b0819985a5b195960621b60448201526064016109c3565b50610cce8183612995565b6001600160a01b03851633148061289c575061289c85336108ce565b6128b85760405162461bcd60e51b81526004016109c390613bd8565b610d418585858585612fce565b6128cd61293b565b6001600160a01b0381166129325760405162461bcd60e51b815260206004820152602660248201527f4f776e61626c653a206e6577206f776e657220697320746865207a65726f206160448201526564647265737360d01b60648201526084016109c3565b6116ad81612cb1565b6000546001600160a01b0316331461127e5760405162461bcd60e51b815260206004820181905260248201527f4f776e61626c653a2063616c6c6572206973206e6f7420746865206f776e657260448201526064016109c3565b6000828152600e602052604081208054916129af83613c53565b90915550506001600160a01b03811660008181526007602090815260408083208684528252808320805460ff191660011790556008825280832054938352600690915281208054909190612a04908490613d66565b909155505060098210610cce576000828152600860205260408120805460029290612a30908490613d7e565b90915550505050565b8151835114612a9b5760405162461bcd60e51b815260206004820152602860248201527f455243313135353a2069647320616e6420616d6f756e7473206c656e677468206044820152670dad2e6dac2e8c6d60c31b60648201526084016109c3565b6001600160a01b038416612ac15760405162461bcd60e51b81526004016109c390613d92565b3360005b8451811015612bab576000858281518110612ae257612ae2613c27565b602002602001015190506000858381518110612b0057612b00613c27565b60209081029190910181015160008481526001835260408082206001600160a01b038e168352909352919091205490915081811015612b515760405162461bcd60e51b81526004016109c390613dd7565b60008381526001602090815260408083206001600160a01b038e8116855292528083208585039055908b16825281208054849290612b90908490613d66565b9250508190555050505080612ba490613c53565b9050612ac5565b50846001600160a01b0316866001600160a01b0316826001600160a01b03167f4a39dc06d4c0dbc64b70af90fd698a233a518aa5d07e595d983b8c0526c8f7fb8787604051612bfb929190613e21565b60405180910390a46123a78187878787876130fc565b6000604051733d602d80600a3d3981f3363d3d373d3d3d363d7360601b81528360601b60148201526e5af43d82803e903d91602b57fd5bf360881b6028820152826037826000f59150506001600160a01b0381166109f15760405162461bcd60e51b815260206004820152601760248201527f455243313136373a2063726561746532206661696c656400000000000000000060448201526064016109c3565b600080546001600160a01b038381166001600160a01b0319831681178455604051919092169283917f8be0079c531659141344cd1fd0a4f28419497f9722a3daafe3b4186f6b6457e09190a35050565b816001600160a01b0316836001600160a01b031603612d745760405162461bcd60e51b815260206004820152602960248201527f455243313135353a2073657474696e6720617070726f76616c20737461747573604482015268103337b91039b2b63360b91b60648201526084016109c3565b6001600160a01b03838116600081815260026020908152604080832094871680845294825291829020805460ff191686151590811790915591519182527f17307eab39ab6107e8899845ad3d59bd9653f200f220920489ca2b5937696c31910160405180910390a3505050565b6001600160a01b038416612e415760405162461bcd60e51b815260206004820152602160248201527f455243313135353a206d696e7420746f20746865207a65726f206164647265736044820152607360f81b60648201526084016109c3565b336000612e4d85613257565b90506000612e5a85613257565b905060008681526001602090815260408083206001600160a01b038b16845290915281208054879290612e8e908490613d66565b909155505060408051878152602081018790526001600160a01b03808a1692600092918716917fc3d58168c5ae7397731d063d5bbf3d657854427343f4c083240f7aacaa2d0f62910160405180910390a4612eee836000898989896132a2565b50505050505050565b6000806000808451604114612f1257600093505050506109f1565b50505060208201516040830151606084015160001a601b811015612f3e57612f3b601b82613e4f565b90505b8060ff16601b14158015612f5657508060ff16601c14155b15612f6757600093505050506109f1565b60408051600081526020810180835288905260ff831691810191909152606081018490526080810183905260019060a0016020604051602081039080840390855afa158015612fba573d6000803e3d6000fd5b5050506020604051035193505050506109f1565b6001600160a01b038416612ff45760405162461bcd60e51b81526004016109c390613d92565b33600061300085613257565b9050600061300d85613257565b905060008681526001602090815260408083206001600160a01b038c168452909152902054858110156130525760405162461bcd60e51b81526004016109c390613dd7565b60008781526001602090815260408083206001600160a01b038d8116855292528083208985039055908a16825281208054889290613091908490613d66565b909155505060408051888152602081018890526001600160a01b03808b16928c821692918816917fc3d58168c5ae7397731d063d5bbf3d657854427343f4c083240f7aacaa2d0f62910160405180910390a46130f1848a8a8a8a8a6132a2565b505050505050505050565b6001600160a01b0384163b156123a75760405163bc197c8160e01b81526001600160a01b0385169063bc197c81906131409089908990889088908890600401613e74565b6020604051808303816000875af192505050801561317b575060408051601f3d908101601f1916820190925261317891810190613ed2565b60015b61322757613187613eef565b806308c379a0036131c0575061319b613f0a565b806131a657506131c2565b8060405162461bcd60e51b81526004016109c391906134e7565b505b60405162461bcd60e51b815260206004820152603460248201527f455243313135353a207472616e7366657220746f206e6f6e20455243313135356044820152732932b1b2b4bb32b91034b6b83632b6b2b73a32b960611b60648201526084016109c3565b6001600160e01b0319811663bc197c8160e01b14612eee5760405162461bcd60e51b81526004016109c390613f94565b6040805160018082528183019092526060916000919060208083019080368337019050509050828160008151811061329157613291613c27565b602090810291909101015292915050565b6001600160a01b0384163b156123a75760405163f23a6e6160e01b81526001600160a01b0385169063f23a6e61906132e69089908990889088908890600401613fdc565b6020604051808303816000875af1925050508015613321575060408051601f3d908101601f1916820190925261331e91810190613ed2565b60015b61332d57613187613eef565b6001600160e01b0319811663f23a6e6160e01b14612eee5760405162461bcd60e51b81526004016109c390613f94565b82805461336990613adc565b90600052602060002090601f01602090048101928261338b57600085556133d1565b82601f106133a457805160ff19168380011785556133d1565b828001600101855582156133d1579182015b828111156133d15782518255916020019190600101906133b6565b506133dd9291506133e1565b5090565b5b808211156133dd57600081556001016133e2565b80356001600160a01b038116811461340d57600080fd5b919050565b6000806040838503121561342557600080fd5b61342e836133f6565b946020939093013593505050565b6001600160e01b0319811681146116ad57600080fd5b60006020828403121561346457600080fd5b813561346f8161343c565b9392505050565b60006020828403121561348857600080fd5b5035919050565b60005b838110156134aa578181015183820152602001613492565b83811115610fb75750506000910152565b600081518084526134d381602086016020860161348f565b601f01601f19169290920160200192915050565b60208152600061346f60208301846134bb565b60006020828403121561350c57600080fd5b61346f826133f6565b634e487b7160e01b600052604160045260246000fd5b601f8201601f1916810167ffffffffffffffff8111828210171561355157613551613515565b6040525050565b600067ffffffffffffffff82111561357257613572613515565b5060051b60200190565b600082601f83011261358d57600080fd5b8135602061359a82613558565b6040516135a7828261352b565b83815260059390931b85018201928281019150868411156135c757600080fd5b8286015b848110156135e257803583529183019183016135cb565b509695505050505050565b600067ffffffffffffffff83111561360757613607613515565b60405161361e601f8501601f19166020018261352b565b80915083815284848401111561363357600080fd5b83836020830137600060208583010152509392505050565b600082601f83011261365c57600080fd5b61346f838335602085016135ed565b600080600080600060a0868803121561368357600080fd5b61368c866133f6565b945061369a602087016133f6565b9350604086013567ffffffffffffffff808211156136b757600080fd5b6136c389838a0161357c565b945060608801359150808211156136d957600080fd5b6136e589838a0161357c565b935060808801359150808211156136fb57600080fd5b506137088882890161364b565b9150509295509295909350565b6000806040838503121561372857600080fd5b613731836133f6565b915061373f602084016133f6565b90509250929050565b6000806040838503121561375b57600080fd5b823567ffffffffffffffff8082111561377357600080fd5b818501915085601f83011261378757600080fd5b8135602061379482613558565b6040516137a1828261352b565b83815260059390931b85018201928281019150898411156137c157600080fd5b948201945b838610156137e6576137d7866133f6565b825294820194908201906137c6565b965050860135925050808211156137fc57600080fd5b506138098582860161357c565b9150509250929050565b600081518084526020808501945080840160005b8381101561384357815187529582019590820190600101613827565b509495945050505050565b60208152600061346f6020830184613813565b60006020828403121561387357600080fd5b813567ffffffffffffffff81111561388a57600080fd5b6138968482850161364b565b949350505050565b600080604083850312156138b157600080fd5b50508035926020909101359150565b6000602082840312156138d257600080fd5b813567ffffffffffffffff8111156138e957600080fd5b8201601f810184136138fa57600080fd5b613896848235602084016135ed565b6000806020838503121561391c57600080fd5b823567ffffffffffffffff8082111561393457600080fd5b818501915085601f83011261394857600080fd5b81358181111561395757600080fd5b86602082850101111561396957600080fd5b60209290920196919550909350505050565b80151581146116ad57600080fd5b6000806040838503121561399c57600080fd5b6139a5836133f6565b915060208301356139b58161397b565b809150509250929050565b6000602082840312156139d257600080fd5b813561346f8161397b565b6000806000606084860312156139f257600080fd5b83359250613a02602085016133f6565b9150613a10604085016133f6565b90509250925092565b600080600060608486031215613a2e57600080fd5b613a37846133f6565b9250613a45602085016133f6565b9150604084013567ffffffffffffffff811115613a6157600080fd5b613a6d8682870161364b565b9150509250925092565b600080600080600060a08688031215613a8f57600080fd5b613a98866133f6565b9450613aa6602087016133f6565b93506040860135925060608601359150608086013567ffffffffffffffff811115613ad057600080fd5b6137088882890161364b565b600181811c90821680613af057607f821691505b602082108103613b1057634e487b7160e01b600052602260045260246000fd5b50919050565b6020808252601b908201527f4861636b6174686f6e206973206e6f7420696e2073657373696f6e0000000000604082015260600190565b60208082526017908201527f416c72656164792072656769737465726564207465616d000000000000000000604082015260600190565b6020808252601f908201527f416c726561647920636f6d706c6574656420746869732066756e6374696f6e00604082015260600190565b600060208284031215613bcd57600080fd5b815161346f8161397b565b6020808252602f908201527f455243313135353a2063616c6c6572206973206e6f7420746f6b656e206f776e60408201526e195c881b9bdc88185c1c1c9bdd9959608a1b606082015260800190565b634e487b7160e01b600052603260045260246000fd5b634e487b7160e01b600052601160045260246000fd5b600060018201613c6557613c65613c3d565b5060010190565b6020808252601c908201527f696e636f727265637420616464726573732e2074727920616761696e00000000604082015260600190565b6001600160e01b0319831681528151600090613cc681600485016020870161348f565b919091016004019392505050565b6020808252602c908201527f446966666572656e6365206f66207468652074776f206d757374206265206d6f60408201526b7265207468616e207a65726f60a01b606082015260800190565b60008251613d3281846020870161348f565b9190910192915050565b634e487b7160e01b600052601260045260246000fd5b600082613d6157613d61613d3c565b500690565b60008219821115613d7957613d79613c3d565b500190565b600082613d8d57613d8d613d3c565b500490565b60208082526025908201527f455243313135353a207472616e7366657220746f20746865207a65726f206164604082015264647265737360d81b606082015260800190565b6020808252602a908201527f455243313135353a20696e73756666696369656e742062616c616e636520666f60408201526939103a3930b739b332b960b11b606082015260800190565b604081526000613e346040830185613813565b8281036020840152613e468185613813565b95945050505050565b600060ff821660ff84168060ff03821115613e6c57613e6c613c3d565b019392505050565b6001600160a01b0386811682528516602082015260a060408201819052600090613ea090830186613813565b8281036060840152613eb28186613813565b90508281036080840152613ec681856134bb565b98975050505050505050565b600060208284031215613ee457600080fd5b815161346f8161343c565b600060033d1115610b605760046000803e5060005160e01c90565b600060443d1015613f185790565b6040516003193d81016004833e81513d67ffffffffffffffff8160248401118184111715613f4857505050505090565b8285019150815181811115613f605750505050505090565b843d8701016020828501011115613f7a5750505050505090565b613f896020828601018761352b565b509095945050505050565b60208082526028908201527f455243313135353a204552433131353552656365697665722072656a656374656040820152676420746f6b656e7360c01b606082015260800190565b6001600160a01b03868116825285166020820152604081018490526060810183905260a060808201819052600090614016908301846134bb565b97965050505050505056fe736574207468652067656172736869667420666f722074686520686967682067656172206f6620796f757220736f756ca264697066735822122015e04e4fc4e5dddf28f3b1906636fd432ada936c38c23adc7ed7b86bb9932a4364736f6c634300080d0033608060405234801561001057600080fd5b50610121806100206000396000f3fe6080604052348015600f57600080fd5b506004361060285760003560e01c8063d1f5d67014602d575b600080fd5b60336047565b604051603e91906063565b60405180910390f35b6040518060600160405280603681526020016100b66036913981565b600060208083528351808285015260005b81811015608e578581018301518582016040015282016074565b81811115609f576000604083870101525b50601f01601f191692909201604001939250505056fe62657420796f752063616e2774206775657373206d792061646472657373206265666f726520696d206576656e206465706c6f796564a2646970667358221220e1b388f70e6bd0e147159031f8e3aef569a59fa6c35ba16391c1f84544d7d63e64736f6c634300080d0033",
    "linkReferences": {}
  },
  "methodIdentifiers": {
    "balanceOf(address,uint256)": "00fdd58e",
    "balanceOfBatch(address[],uint256[])": "4e1273f4",
    "challengeHook()": "1545847c",
    "diceRollLastWin(address)": "ca9eaf59",
    "diceRollWins(address)": "c1a8f2c6",
    "entryCount(address)": "41dd1ef8",
    "f0(bool)": "aa91c62e",
    "f1()": "c27fc305",
    "f10(int256,int256)": "d75203c3",
    "f11(int256,int256)": "81e0f90c",
    "f12(bytes)": "a481b0e4",
    "f13()": "920f5c73",
    "f14(uint256)": "c28cb1d4",
    "f15(uint256)": "2f4dc9da",
    "f16(address)": "ed6a9904",
    "f17(address,address,bytes)": "c78de838",
    "f18(uint256,address,address)": "b1d8dd56",
    "f19(address)": "237b3bde",
    "f2(uint256)": "bf3724af",
    "f20(address,address)": "49b9dbe6",
    "f3(uint256)": "d7b7913b",
    "f4(address)": "50a48d2e",
    "f5(address)": "93d1758c",
    "f6(address)": "604f7523",
    "f7()": "df2025dc",
    "f8(bytes)": "964ef96b",
    "f9(bytes)": "787f485a",
    "isApprovedForAll(address,address)": "e985e9c5",
    "live()": "957aa58c",
    "owner()": "8da5cb5b",
    "points(uint256)": "9799b4e7",
    "progress(address,uint256)": "0c91cdbc",
    "registerTeam(string)": "8729e5c1",
    "renounceOwnership()": "715018a6",
    "safeBatchTransferFrom(address,address,uint256[],uint256[],bytes)": "2eb2c2d6",
    "safeTransferFrom(address,address,uint256,uint256,bytes)": "f242432a",
    "scores(address)": "76dd110f",
    "secondEntryCount(address)": "83e9ff47",
    "setApprovalForAll(address,bool)": "a22cb465",
    "signers(address)": "736c0d5b",
    "solves(uint256)": "3d056172",
    "start()": "be9a6555",
    "stop()": "07da68f5",
    "supportsInterface(bytes4)": "01ffc9a7",
    "teamAddresses(uint256)": "2419217e",
    "teams(address)": "c4583240",
    "template()": "6f2ddd93",
    "transferOwnership(address)": "f2fde38b",
    "uri(uint256)": "0e89341c"
  },
  "id": 0
}