{
  "abi": [
    {
      "inputs": [
        {
          "internalType": "string",
          "name": "uri",
          "type": "string"
        },
        {
          "internalType": "address",
          "name": "_weth",
          "type": "address"
        }
      ],
      "stateMutability": "nonpayable",
      "type": "constructor"
    },
    {
      "anonymous": false,
      "inputs": [
        {
          "indexed": true,
          "internalType": "address",
          "name": "account",
          "type": "address"
        },
        {
          "indexed": true,
          "internalType": "address",
          "name": "operator",
          "type": "address"
        },
        {
          "indexed": false,
          "internalType": "bool",
          "name": "approved",
          "type": "bool"
        }
      ],
      "name": "ApprovalForAll",
      "type": "event"
    },
    {
      "anonymous": false,
      "inputs": [
        {
          "indexed": true,
          "internalType": "address",
          "name": "previousOwner",
          "type": "address"
        },
        {
          "indexed": true,
          "internalType": "address",
          "name": "newOwner",
          "type": "address"
        }
      ],
      "name": "OwnershipTransferred",
      "type": "event"
    },
    {
      "anonymous": false,
      "inputs": [
        {
          "indexed": true,
          "internalType": "address",
          "name": "operator",
          "type": "address"
        },
        {
          "indexed": true,
          "internalType": "address",
          "name": "from",
          "type": "address"
        },
        {
          "indexed": true,
          "internalType": "address",
          "name": "to",
          "type": "address"
        },
        {
          "indexed": false,
          "internalType": "uint256[]",
          "name": "ids",
          "type": "uint256[]"
        },
        {
          "indexed": false,
          "internalType": "uint256[]",
          "name": "values",
          "type": "uint256[]"
        }
      ],
      "name": "TransferBatch",
      "type": "event"
    },
    {
      "anonymous": false,
      "inputs": [
        {
          "indexed": true,
          "internalType": "address",
          "name": "operator",
          "type": "address"
        },
        {
          "indexed": true,
          "internalType": "address",
          "name": "from",
          "type": "address"
        },
        {
          "indexed": true,
          "internalType": "address",
          "name": "to",
          "type": "address"
        },
        {
          "indexed": false,
          "internalType": "uint256",
          "name": "id",
          "type": "uint256"
        },
        {
          "indexed": false,
          "internalType": "uint256",
          "name": "value",
          "type": "uint256"
        }
      ],
      "name": "TransferSingle",
      "type": "event"
    },
    {
      "anonymous": false,
      "inputs": [
        {
          "indexed": false,
          "internalType": "string",
          "name": "value",
          "type": "string"
        },
        {
          "indexed": true,
          "internalType": "uint256",
          "name": "id",
          "type": "uint256"
        }
      ],
      "name": "URI",
      "type": "event"
    },
    {
      "inputs": [
        {
          "internalType": "address",
          "name": "account",
          "type": "address"
        },
        {
          "internalType": "uint256",
          "name": "id",
          "type": "uint256"
        }
      ],
      "name": "balanceOf",
      "outputs": [
        {
          "internalType": "uint256",
          "name": "",
          "type": "uint256"
        }
      ],
      "stateMutability": "view",
      "type": "function"
    },
    {
      "inputs": [
        {
          "internalType": "address[]",
          "name": "accounts",
          "type": "address[]"
        },
        {
          "internalType": "uint256[]",
          "name": "ids",
          "type": "uint256[]"
        }
      ],
      "name": "balanceOfBatch",
      "outputs": [
        {
          "internalType": "uint256[]",
          "name": "",
          "type": "uint256[]"
        }
      ],
      "stateMutability": "view",
      "type": "function"
    },
    {
      "inputs": [
        {
          "internalType": "address",
          "name": "",
          "type": "address"
        }
      ],
      "name": "diceRollLastWin",
      "outputs": [
        {
          "internalType": "uint256",
          "name": "",
          "type": "uint256"
        }
      ],
      "stateMutability": "view",
      "type": "function"
    },
    {
      "inputs": [
        {
          "internalType": "address",
          "name": "",
          "type": "address"
        }
      ],
      "name": "diceRollWins",
      "outputs": [
        {
          "internalType": "uint256",
          "name": "",
          "type": "uint256"
        }
      ],
      "stateMutability": "view",
      "type": "function"
    },
    {
      "inputs": [
        {
          "internalType": "address",
          "name": "",
          "type": "address"
        }
      ],
      "name": "entryCount",
      "outputs": [
        {
          "internalType": "uint256",
          "name": "",
          "type": "uint256"
        }
      ],
      "stateMutability": "view",
      "type": "function"
    },
    {
      "inputs": [],
      "name": "extendTime",
      "outputs": [],
      "stateMutability": "nonpayable",
      "type": "function"
    },
    {
      "inputs": [
        {
          "internalType": "bool",
          "name": "val",
          "type": "bool"
        }
      ],
      "name": "f0",
      "outputs": [],
      "stateMutability": "nonpayable",
      "type": "function"
    },
    {
      "inputs": [],
      "name": "f1",
      "outputs": [],
      "stateMutability": "payable",
      "type": "function"
    },
    {
      "inputs": [
        {
          "internalType": "int256",
          "name": "num1",
          "type": "int256"
        },
        {
          "internalType": "int256",
          "name": "num2",
          "type": "int256"
        }
      ],
      "name": "f10",
      "outputs": [],
      "stateMutability": "nonpayable",
      "type": "function"
    },
    {
      "inputs": [
        {
          "internalType": "int256",
          "name": "num1",
          "type": "int256"
        },
        {
          "internalType": "int256",
          "name": "num2",
          "type": "int256"
        }
      ],
      "name": "f11",
      "outputs": [],
      "stateMutability": "nonpayable",
      "type": "function"
    },
    {
      "inputs": [
        {
          "internalType": "bytes",
          "name": "data",
          "type": "bytes"
        }
      ],
      "name": "f12",
      "outputs": [],
      "stateMutability": "nonpayable",
      "type": "function"
    },
    {
      "inputs": [],
      "name": "f13",
      "outputs": [],
      "stateMutability": "payable",
      "type": "function"
    },
    {
      "inputs": [
        {
          "internalType": "uint256",
          "name": "diceRoll",
          "type": "uint256"
        }
      ],
      "name": "f14",
      "outputs": [],
      "stateMutability": "payable",
      "type": "function"
    },
    {
      "inputs": [
        {
          "internalType": "uint256",
          "name": "difficulty",
          "type": "uint256"
        }
      ],
      "name": "f15",
      "outputs": [],
      "stateMutability": "nonpayable",
      "type": "function"
    },
    {
      "inputs": [
        {
          "internalType": "address",
          "name": "team",
          "type": "address"
        }
      ],
      "name": "f16",
      "outputs": [],
      "stateMutability": "nonpayable",
      "type": "function"
    },
    {
      "inputs": [
        {
          "internalType": "address",
          "name": "team",
          "type": "address"
        },
        {
          "internalType": "address",
          "name": "expectedSigner",
          "type": "address"
        },
        {
          "internalType": "bytes",
          "name": "signature",
          "type": "bytes"
        }
      ],
      "name": "f17",
      "outputs": [],
      "stateMutability": "nonpayable",
      "type": "function"
    },
    {
      "inputs": [
        {
          "internalType": "uint256",
          "name": "amount",
          "type": "uint256"
        },
        {
          "internalType": "address",
          "name": "dest",
          "type": "address"
        },
        {
          "internalType": "address",
          "name": "team",
          "type": "address"
        }
      ],
      "name": "f18",
      "outputs": [],
      "stateMutability": "nonpayable",
      "type": "function"
    },
    {
      "inputs": [
        {
          "internalType": "address",
          "name": "team",
          "type": "address"
        }
      ],
      "name": "f19",
      "outputs": [],
      "stateMutability": "nonpayable",
      "type": "function"
    },
    {
      "inputs": [
        {
          "internalType": "uint256",
          "name": "val",
          "type": "uint256"
        }
      ],
      "name": "f2",
      "outputs": [],
      "stateMutability": "nonpayable",
      "type": "function"
    },
    {
      "inputs": [
        {
          "internalType": "address",
          "name": "newContract",
          "type": "address"
        },
        {
          "internalType": "address",
          "name": "team",
          "type": "address"
        }
      ],
      "name": "f20",
      "outputs": [],
      "stateMutability": "nonpayable",
      "type": "function"
    },
    {
      "inputs": [
        {
          "internalType": "address",
          "name": "team",
          "type": "address"
        }
      ],
      "name": "f21",
      "outputs": [],
      "stateMutability": "nonpayable",
      "type": "function"
    },
    {
      "inputs": [
        {
          "internalType": "address",
          "name": "team",
          "type": "address"
        }
      ],
      "name": "f22",
      "outputs": [],
      "stateMutability": "nonpayable",
      "type": "function"
    },
    {
      "inputs": [
        {
          "internalType": "address",
          "name": "team",
          "type": "address"
        },
        {
          "internalType": "bytes32[]",
          "name": "proof",
          "type": "bytes32[]"
        },
        {
          "internalType": "bytes32",
          "name": "leaf",
          "type": "bytes32"
        }
      ],
      "name": "f23",
      "outputs": [],
      "stateMutability": "nonpayable",
      "type": "function"
    },
    {
      "inputs": [
        {
          "internalType": "address",
          "name": "team",
          "type": "address"
        },
        {
          "internalType": "uint256",
          "name": "value",
          "type": "uint256"
        }
      ],
      "name": "f24",
      "outputs": [],
      "stateMutability": "nonpayable",
      "type": "function"
    },
    {
      "inputs": [
        {
          "internalType": "uint256",
          "name": "data",
          "type": "uint256"
        }
      ],
      "name": "f3",
      "outputs": [],
      "stateMutability": "nonpayable",
      "type": "function"
    },
    {
      "inputs": [
        {
          "internalType": "address",
          "name": "destAddr",
          "type": "address"
        }
      ],
      "name": "f4",
      "outputs": [],
      "stateMutability": "nonpayable",
      "type": "function"
    },
    {
      "inputs": [
        {
          "internalType": "address",
          "name": "destAddr",
          "type": "address"
        }
      ],
      "name": "f5",
      "outputs": [],
      "stateMutability": "nonpayable",
      "type": "function"
    },
    {
      "inputs": [
        {
          "internalType": "address",
          "name": "destAddr",
          "type": "address"
        }
      ],
      "name": "f6",
      "outputs": [],
      "stateMutability": "nonpayable",
      "type": "function"
    },
    {
      "inputs": [],
      "name": "f7",
      "outputs": [],
      "stateMutability": "nonpayable",
      "type": "function"
    },
    {
      "inputs": [
        {
          "internalType": "bytes",
          "name": "data",
          "type": "bytes"
        }
      ],
      "name": "f8",
      "outputs": [],
      "stateMutability": "nonpayable",
      "type": "function"
    },
    {
      "inputs": [
        {
          "internalType": "bytes",
          "name": "data",
          "type": "bytes"
        }
      ],
      "name": "f9",
      "outputs": [],
      "stateMutability": "nonpayable",
      "type": "function"
    },
    {
      "inputs": [],
      "name": "internalChallengeHook",
      "outputs": [
        {
          "internalType": "uint256",
          "name": "",
          "type": "uint256"
        }
      ],
      "stateMutability": "view",
      "type": "function"
    },
    {
      "inputs": [
        {
          "internalType": "address",
          "name": "account",
          "type": "address"
        },
        {
          "internalType": "address",
          "name": "operator",
          "type": "address"
        }
      ],
      "name": "isApprovedForAll",
      "outputs": [
        {
          "internalType": "bool",
          "name": "",
          "type": "bool"
        }
      ],
      "stateMutability": "view",
      "type": "function"
    },
    {
      "inputs": [],
      "name": "live",
      "outputs": [
        {
          "internalType": "bool",
          "name": "",
          "type": "bool"
        }
      ],
      "stateMutability": "view",
      "type": "function"
    },
    {
      "inputs": [],
      "name": "merkleRoot",
      "outputs": [
        {
          "internalType": "bytes32",
          "name": "",
          "type": "bytes32"
        }
      ],
      "stateMutability": "view",
      "type": "function"
    },
    {
      "inputs": [],
      "name": "owner",
      "outputs": [
        {
          "internalType": "address",
          "name": "",
          "type": "address"
        }
      ],
      "stateMutability": "view",
      "type": "function"
    },
    {
      "inputs": [
        {
          "internalType": "uint256",
          "name": "",
          "type": "uint256"
        }
      ],
      "name": "points",
      "outputs": [
        {
          "internalType": "uint256",
          "name": "",
          "type": "uint256"
        }
      ],
      "stateMutability": "view",
      "type": "function"
    },
    {
      "inputs": [
        {
          "internalType": "address",
          "name": "",
          "type": "address"
        },
        {
          "internalType": "uint256",
          "name": "",
          "type": "uint256"
        }
      ],
      "name": "progress",
      "outputs": [
        {
          "internalType": "bool",
          "name": "",
          "type": "bool"
        }
      ],
      "stateMutability": "view",
      "type": "function"
    },
    {
      "inputs": [
        {
          "internalType": "string",
          "name": "team",
          "type": "string"
        }
      ],
      "name": "registerTeam",
      "outputs": [],
      "stateMutability": "nonpayable",
      "type": "function"
    },
    {
      "inputs": [],
      "name": "renounceOwnership",
      "outputs": [],
      "stateMutability": "nonpayable",
      "type": "function"
    },
    {
      "inputs": [
        {
          "internalType": "address",
          "name": "from",
          "type": "address"
        },
        {
          "internalType": "address",
          "name": "to",
          "type": "address"
        },
        {
          "internalType": "uint256[]",
          "name": "ids",
          "type": "uint256[]"
        },
        {
          "internalType": "uint256[]",
          "name": "amounts",
          "type": "uint256[]"
        },
        {
          "internalType": "bytes",
          "name": "data",
          "type": "bytes"
        }
      ],
      "name": "safeBatchTransferFrom",
      "outputs": [],
      "stateMutability": "nonpayable",
      "type": "function"
    },
    {
      "inputs": [
        {
          "internalType": "address",
          "name": "from",
          "type": "address"
        },
        {
          "internalType": "address",
          "name": "to",
          "type": "address"
        },
        {
          "internalType": "uint256",
          "name": "id",
          "type": "uint256"
        },
        {
          "internalType": "uint256",
          "name": "amount",
          "type": "uint256"
        },
        {
          "internalType": "bytes",
          "name": "data",
          "type": "bytes"
        }
      ],
      "name": "safeTransferFrom",
      "outputs": [],
      "stateMutability": "nonpayable",
      "type": "function"
    },
    {
      "inputs": [
        {
          "internalType": "address",
          "name": "",
          "type": "address"
        }
      ],
      "name": "scores",
      "outputs": [
        {
          "internalType": "uint256",
          "name": "",
          "type": "uint256"
        }
      ],
      "stateMutability": "view",
      "type": "function"
    },
    {
      "inputs": [
        {
          "internalType": "address",
          "name": "",
          "type": "address"
        }
      ],
      "name": "secondEntryCount",
      "outputs": [
        {
          "internalType": "uint256",
          "name": "",
          "type": "uint256"
        }
      ],
      "stateMutability": "view",
      "type": "function"
    },
    {
      "inputs": [
        {
          "internalType": "address",
          "name": "operator",
          "type": "address"
        },
        {
          "internalType": "bool",
          "name": "approved",
          "type": "bool"
        }
      ],
      "name": "setApprovalForAll",
      "outputs": [],
      "stateMutability": "nonpayable",
      "type": "function"
    },
    {
      "inputs": [
        {
          "internalType": "address",
          "name": "",
          "type": "address"
        }
      ],
      "name": "signers",
      "outputs": [
        {
          "internalType": "bool",
          "name": "",
          "type": "bool"
        }
      ],
      "stateMutability": "view",
      "type": "function"
    },
    {
      "inputs": [
        {
          "internalType": "uint256",
          "name": "",
          "type": "uint256"
        }
      ],
      "name": "solves",
      "outputs": [
        {
          "internalType": "uint256",
          "name": "",
          "type": "uint256"
        }
      ],
      "stateMutability": "view",
      "type": "function"
    },
    {
      "inputs": [],
      "name": "start",
      "outputs": [],
      "stateMutability": "nonpayable",
      "type": "function"
    },
    {
      "inputs": [],
      "name": "stop",
      "outputs": [],
      "stateMutability": "nonpayable",
      "type": "function"
    },
    {
      "inputs": [
        {
          "internalType": "bytes4",
          "name": "interfaceId",
          "type": "bytes4"
        }
      ],
      "name": "supportsInterface",
      "outputs": [
        {
          "internalType": "bool",
          "name": "",
          "type": "bool"
        }
      ],
      "stateMutability": "view",
      "type": "function"
    },
    {
      "inputs": [
        {
          "internalType": "uint256",
          "name": "",
          "type": "uint256"
        }
      ],
      "name": "teamAddresses",
      "outputs": [
        {
          "internalType": "address",
          "name": "",
          "type": "address"
        }
      ],
      "stateMutability": "view",
      "type": "function"
    },
    {
      "inputs": [
        {
          "internalType": "address",
          "name": "",
          "type": "address"
        }
      ],
      "name": "teams",
      "outputs": [
        {
          "internalType": "string",
          "name": "",
          "type": "string"
        }
      ],
      "stateMutability": "view",
      "type": "function"
    },
    {
      "inputs": [],
      "name": "template",
      "outputs": [
        {
          "internalType": "contract create2Challenge",
          "name": "",
          "type": "address"
        }
      ],
      "stateMutability": "view",
      "type": "function"
    },
    {
      "inputs": [],
      "name": "timeExtended",
      "outputs": [
        {
          "internalType": "bool",
          "name": "",
          "type": "bool"
        }
      ],
      "stateMutability": "view",
      "type": "function"
    },
    {
      "inputs": [
        {
          "internalType": "address",
          "name": "newOwner",
          "type": "address"
        }
      ],
      "name": "transferOwnership",
      "outputs": [],
      "stateMutability": "nonpayable",
      "type": "function"
    },
    {
      "inputs": [
        {
          "internalType": "uint256",
          "name": "",
          "type": "uint256"
        }
      ],
      "name": "uri",
      "outputs": [
        {
          "internalType": "string",
          "name": "",
          "type": "string"
        }
      ],
      "stateMutability": "view",
      "type": "function"
    },
    {
      "inputs": [
        {
          "internalType": "bytes32",
          "name": "",
          "type": "bytes32"
        }
      ],
      "name": "usedLeaves",
      "outputs": [
        {
          "internalType": "bool",
          "name": "",
          "type": "bool"
        }
      ],
      "stateMutability": "view",
      "type": "function"
    },
    {
      "inputs": [],
      "name": "weth",
      "outputs": [
        {
          "internalType": "address",
          "name": "",
          "type": "address"
        }
      ],
      "stateMutability": "view",
      "type": "function"
    }
  ],
  "bytecode": {
    "object": "0x60c06040526004805461ff001916905560006012553480156200002157600080fd5b5060405162005ca438038062005ca483398101604081905262000044916200035c565b8162000050336200020c565b6200005b816200025c565b5060005b60198111620000a657620000758160c862000463565b620000829060c862000485565b600082815260086020526040902055806200009d81620004a0565b9150506200005f565b5042601355604051620000b99062000275565b604051809103906000f080158015620000d6573d6000803e3d6000fd5b50601180546001600160a01b0319166001600160a01b0392831617905581166080526040805160148082526102a08201909252600091602082016102808036833701905050905060005b6014811015620001815760408051602081018390520160405160208183030381529060405280519060200120828281518110620001615762000161620004bc565b6020908102919091010152806200017881620004a0565b91505062000120565b506040516317046b0160e11b815273__$c60b12d58dd7f461ff4845dd59be76adc9$__90632e08d60290620001bb908490600401620004d2565b602060405180830381865af4158015620001d9573d6000803e3d6000fd5b505050506040513d601f19601f82011682018060405250810190620001ff919062000518565b60a052506200056e915050565b600080546001600160a01b038381166001600160a01b0319831681178455604051919092169283917f8be0079c531659141344cd1fd0a4f28419497f9722a3daafe3b4186f6b6457e09190a35050565b80516200027190600390602084019062000283565b5050565b6101418062005b6383390190565b828054620002919062000532565b90600052602060002090601f016020900481019282620002b5576000855562000300565b82601f10620002d057805160ff191683800117855562000300565b8280016001018555821562000300579182015b8281111562000300578251825591602001919060010190620002e3565b506200030e92915062000312565b5090565b5b808211156200030e576000815560010162000313565b634e487b7160e01b600052604160045260246000fd5b80516001600160a01b03811681146200035757600080fd5b919050565b600080604083850312156200037057600080fd5b82516001600160401b03808211156200038857600080fd5b818501915085601f8301126200039d57600080fd5b815181811115620003b257620003b262000329565b604051601f8201601f19908116603f01168101908382118183101715620003dd57620003dd62000329565b81604052828152602093508884848701011115620003fa57600080fd5b600091505b828210156200041e5784820184015181830185015290830190620003ff565b82821115620004305760008484830101525b9550620004429150508582016200033f565b925050509250929050565b634e487b7160e01b600052601160045260246000fd5b60008160001904831182151516156200048057620004806200044d565b500290565b600082198211156200049b576200049b6200044d565b500190565b600060018201620004b557620004b56200044d565b5060010190565b634e487b7160e01b600052603260045260246000fd5b6020808252825182820181905260009190848201906040850190845b818110156200050c57835183529284019291840191600101620004ee565b50909695505050505050565b6000602082840312156200052b57600080fd5b5051919050565b600181811c908216806200054757607f821691505b6020821081036200056857634e487b7160e01b600052602260045260246000fd5b50919050565b60805160a0516155ba620005a9600039600081816105260152611eec0152600081816105d701528181610e39015261270b01526155ba6000f3fe6080604052600436106103805760003560e01c80638da5cb5b116101d1578063bf3724af11610102578063d75203c3116100a0578063e985e9c51161006f578063e985e9c514610ad2578063ed6a990414610b1b578063f242432a14610b3b578063f2fde38b14610b5b57600080fd5b8063d75203c314610a5e578063d7b7913b14610a7e578063db0fff3714610a9e578063df2025dc14610abd57600080fd5b8063c28cb1d4116100dc578063c28cb1d4146109de578063c4583240146109f1578063c78de83814610a11578063ca9eaf5914610a3157600080fd5b8063bf3724af14610989578063c1a8f2c6146109a9578063c27fc305146109d657600080fd5b8063a481b0e41161016f578063abb6ae8911610149578063abb6ae891461091f578063b1d8dd5614610934578063b33260a214610954578063be9a65551461097457600080fd5b8063a481b0e4146108bf578063a60463e4146108df578063aa91c62e146108ff57600080fd5b8063957aa58c116101ab578063957aa58c14610838578063964ef96b146108525780639799b4e714610872578063a22cb4651461089f57600080fd5b80638da5cb5b146107f2578063920f5c731461081057806393d1758c1461081857600080fd5b80633fc8cef3116102b6578063715018a61161025457806381e0f90c1161022357806381e0f90c1461076557806383e9ff47146107855780638729e5c1146107b25780638b1fe8de146107d257600080fd5b8063715018a6146106d3578063736c0d5b146106e857806376dd110f14610718578063787f485a1461074557600080fd5b80634e1273f4116102905780634e1273f41461064657806350a48d2e14610673578063604f7523146106935780636f2ddd93146106b357600080fd5b80633fc8cef3146105c557806341dd1ef8146105f957806349b9dbe61461062657600080fd5b8063237b3bde116103235780632eb4a7ab116102fd5780632eb4a7ab146105145780632f4dc9da146105485780633b5e60c2146105685780633d0561721461059857600080fd5b8063237b3bde1461049c5780632419217e146104bc5780632eb2c2d6146104f457600080fd5b80630c91cdbc1161035f5780630c91cdbc146103ff5780630e89341c1461043a578063100a818c146104675780631625d7fe1461048757600080fd5b8062fdd58e1461038557806301ffc9a7146103b857806307da68f5146103e8575b600080fd5b34801561039157600080fd5b506103a56103a0366004614889565b610b7b565b6040519081526020015b60405180910390f35b3480156103c457600080fd5b506103d86103d33660046148c9565b610c16565b60405190151581526020016103af565b3480156103f457600080fd5b506103fd610c66565b005b34801561040b57600080fd5b506103d861041a366004614889565b600760209081526000928352604080842090915290825290205460ff1681565b34801561044657600080fd5b5061045a6104553660046148e6565b610c7a565b6040516103af9190614957565b34801561047357600080fd5b506103fd61048236600461496a565b610d0e565b34801561049357600080fd5b506103a5610f00565b3480156104a857600080fd5b506103fd6104b736600461496a565b610fe3565b3480156104c857600080fd5b506104dc6104d73660046148e6565b6111b3565b6040516001600160a01b0390911681526020016103af565b34801561050057600080fd5b506103fd61050f366004614ad8565b6111dd565b34801561052057600080fd5b506103a57f000000000000000000000000000000000000000000000000000000000000000081565b34801561055457600080fd5b506103fd6105633660046148e6565b611229565b34801561057457600080fd5b506103d86105833660046148e6565b600f6020526000908152604090205460ff1681565b3480156105a457600080fd5b506103a56105b33660046148e6565b600e6020526000908152604090205481565b3480156105d157600080fd5b506104dc7f000000000000000000000000000000000000000000000000000000000000000081565b34801561060557600080fd5b506103a561061436600461496a565b60096020526000908152604090205481565b34801561063257600080fd5b506103fd610641366004614b81565b6113bd565b34801561065257600080fd5b50610666610661366004614bb4565b61157c565b6040516103af9190614cb9565b34801561067f57600080fd5b506103fd61068e36600461496a565b6116a5565b34801561069f57600080fd5b506103fd6106ae36600461496a565b6117d4565b3480156106bf57600080fd5b506011546104dc906001600160a01b031681565b3480156106df57600080fd5b506103fd611908565b3480156106f457600080fd5b506103d861070336600461496a565b600d6020526000908152604090205460ff1681565b34801561072457600080fd5b506103a561073336600461496a565b60066020526000908152604090205481565b34801561075157600080fd5b506103fd610760366004614ccc565b61191c565b34801561077157600080fd5b506103fd610780366004614d08565b611a61565b34801561079157600080fd5b506103a56107a036600461496a565b600a6020526000908152604090205481565b3480156107be57600080fd5b506103fd6107cd366004614d2a565b611c02565b3480156107de57600080fd5b506103fd6107ed366004614d72565b611d32565b3480156107fe57600080fd5b506000546001600160a01b03166104dc565b6103fd611f66565b34801561082457600080fd5b506103fd61083336600461496a565b61213c565b34801561084457600080fd5b506004546103d89060ff1681565b34801561085e57600080fd5b506103fd61086d366004614dfd565b61226b565b34801561087e57600080fd5b506103a561088d3660046148e6565b60086020526000908152604090205481565b3480156108ab57600080fd5b506103fd6108ba366004614e7c565b6123c5565b3480156108cb57600080fd5b506103fd6108da366004614ccc565b6123d0565b3480156108eb57600080fd5b506103fd6108fa36600461496a565b6125d6565b34801561090b57600080fd5b506103fd61091a366004614eb3565b61278b565b34801561092b57600080fd5b506103fd6128de565b34801561094057600080fd5b506103fd61094f366004614ed0565b6128f7565b34801561096057600080fd5b506103fd61096f366004614889565b612b13565b34801561098057600080fd5b506103fd612c9a565b34801561099557600080fd5b506103fd6109a43660046148e6565b612cb1565b3480156109b557600080fd5b506103a56109c436600461496a565b600b6020526000908152604090205481565b6103fd612e56565b6103fd6109ec3660046148e6565b612fa5565b3480156109fd57600080fd5b5061045a610a0c36600461496a565b613230565b348015610a1d57600080fd5b506103fd610a2c366004614f0c565b6132ca565b348015610a3d57600080fd5b506103a5610a4c36600461496a565b600c6020526000908152604090205481565b348015610a6a57600080fd5b506103fd610a79366004614d08565b613584565b348015610a8a57600080fd5b506103fd610a993660046148e6565b613728565b348015610aaa57600080fd5b506004546103d890610100900460ff1681565b348015610ac957600080fd5b506103fd61387b565b348015610ade57600080fd5b506103d8610aed366004614b81565b6001600160a01b03918216600090815260026020908152604080832093909416825291909152205460ff1690565b348015610b2757600080fd5b506103fd610b3636600461496a565b6139d3565b348015610b4757600080fd5b506103fd610b56366004614f69565b613c06565b348015610b6757600080fd5b506103fd610b7636600461496a565b613c4b565b60006001600160a01b038316610beb5760405162461bcd60e51b815260206004820152602a60248201527f455243313135353a2061646472657373207a65726f206973206e6f742061207660448201526930b634b21037bbb732b960b11b60648201526084015b60405180910390fd5b5060008181526001602090815260408083206001600160a01b03861684529091529020545b92915050565b60006001600160e01b03198216636cdb3d1360e11b1480610c4757506001600160e01b031982166303a24d0760e21b145b80610c1057506301ffc9a760e01b6001600160e01b0319831614610c10565b610c6e613cc1565b6004805460ff19169055565b606060038054610c8990614fcd565b80601f0160208091040260200160405190810160405280929190818152602001828054610cb590614fcd565b8015610d025780601f10610cd757610100808354040283529160200191610d02565b820191906000526020600020905b815481529060010190602001808311610ce557829003601f168201915b50505050509050919050565b60045460ff16610d305760405162461bcd60e51b8152600401610be290615007565b3360009081526005602052604090208054610d4a90614fcd565b159050610d695760405162461bcd60e51b8152600401610be29061503e565b600454610100900460ff1615610dab57601354610d8890612a3061508b565b4210610da65760405162461bcd60e51b8152600401610be2906150a3565b610dd8565b601354610dba90611c2061508b565b4210610dd85760405162461bcd60e51b8152600401610be2906150a3565b6001600160a01b0381166000908152600760209081526040808320601580855292529091205460ff1615610e1e5760405162461bcd60e51b8152600401610be2906150cd565b6040516370a0823160e01b8152336004820152633b9aca00907f00000000000000000000000000000000000000000000000000000000000000006001600160a01b0316906370a0823190602401602060405180830381865afa158015610e88573d6000803e3d6000fd5b505050506040513d601f19601f82011682018060405250810190610eac9190615104565b11610ef25760405162461bcd60e51b815260206004820152601660248201527562616c616e63652063616e6e6f74206265207a65726f60501b6044820152606401610be2565b610efc8183613d1b565b5050565b60045460009060ff16610f255760405162461bcd60e51b8152600401610be290615007565b3360009081526005602052604090208054610f3f90614fcd565b159050610f5e5760405162461bcd60e51b8152600401610be29061503e565b600454610100900460ff1615610fa057601354610f7d90612a3061508b565b4210610f9b5760405162461bcd60e51b8152600401610be2906150a3565b610fcd565b601354610faf90611c2061508b565b4210610fcd5760405162461bcd60e51b8152600401610be2906150a3565b333014610fd957600080fd5b5063deadbeef5b90565b60045460ff166110055760405162461bcd60e51b8152600401610be290615007565b336000908152600560205260409020805461101f90614fcd565b15905061103e5760405162461bcd60e51b8152600401610be29061503e565b600454610100900460ff16156110805760135461105d90612a3061508b565b421061107b5760405162461bcd60e51b8152600401610be2906150a3565b6110ad565b60135461108f90611c2061508b565b42106110ad5760405162461bcd60e51b8152600401610be2906150a3565b6001600160a01b0381166000908152600760209081526040808320601380855292529091205460ff16156110f35760405162461bcd60e51b8152600401610be2906150cd565b6040516301ffc9a760e01b81526336372b0760e01b600482015233906301ffc9a790602401602060405180830381865afa158015611135573d6000803e3d6000fd5b505050506040513d601f19601f82011682018060405250810190611159919061511d565b610ef25760405162461bcd60e51b815260206004820152602560248201527f6d73672073656e64657220646f6573206e6f7420737570706f727420696e7465604482015264726661636560d81b6064820152608401610be2565b601081815481106111c357600080fd5b6000918252602090912001546001600160a01b0316905081565b6001600160a01b0385163314806111f957506111f98533610aed565b6112155760405162461bcd60e51b8152600401610be29061513a565b6112228585858585613e23565b5050505050565b60045460ff1661124b5760405162461bcd60e51b8152600401610be290615007565b336000908152600560205260409020805461126590614fcd565b1590506112845760405162461bcd60e51b8152600401610be29061503e565b600454610100900460ff16156112c6576013546112a390612a3061508b565b42106112c15760405162461bcd60e51b8152600401610be2906150a3565b6112f3565b6013546112d590611c2061508b565b42106112f35760405162461bcd60e51b8152600401610be2906150a3565b336000908152600760209081526040808320600f80855292529091205460ff16156113305760405162461bcd60e51b8152600401610be2906150cd565b60408051446020820152016040516020818303038152906040528051906020012060001c82146113b35760405162461bcd60e51b815260206004820152602860248201527f4469642049206d616b652074686973206368616c6c656e676520746f6f20646960448201526766666963756c743f60c01b6064820152608401610be2565b610efc8133613d1b565b60045460ff166113df5760405162461bcd60e51b8152600401610be290615007565b33600090815260056020526040902080546113f990614fcd565b1590506114185760405162461bcd60e51b8152600401610be29061503e565b600454610100900460ff161561145a5760135461143790612a3061508b565b42106114555760405162461bcd60e51b8152600401610be2906150a3565b611487565b60135461146990611c2061508b565b42106114875760405162461bcd60e51b8152600401610be2906150a3565b6001600160a01b0381166000908152600760209081526040808320601480855292529091205460ff16156114cd5760405162461bcd60e51b8152600401610be2906150cd565b60115460408051336020820152600092611509926001600160a01b03909116910160405160208183030381529060405280519060200120613ffb565b9050806001600160a01b0316846001600160a01b03161461156c5760405162461bcd60e51b815260206004820152601b60248201527f507265646963746564206164647265737320696e636f727265637400000000006044820152606401610be2565b6115768284613d1b565b50505050565b606081518351146115e15760405162461bcd60e51b815260206004820152602960248201527f455243313135353a206163636f756e747320616e6420696473206c656e677468604482015268040dad2e6dac2e8c6d60bb1b6064820152608401610be2565b600083516001600160401b038111156115fc576115fc614985565b604051908082528060200260200182016040528015611625578160200160208202803683370190505b50905060005b845181101561169d5761167085828151811061164957611649615189565b602002602001015185838151811061166357611663615189565b6020026020010151610b7b565b82828151811061168257611682615189565b60209081029190910101526116968161519f565b905061162b565b509392505050565b60045460ff166116c75760405162461bcd60e51b8152600401610be290615007565b33600090815260056020526040902080546116e190614fcd565b1590506117005760405162461bcd60e51b8152600401610be29061503e565b600454610100900460ff16156117425760135461171f90612a3061508b565b421061173d5760405162461bcd60e51b8152600401610be2906150a3565b61176f565b60135461175190611c2061508b565b421061176f5760405162461bcd60e51b8152600401610be2906150a3565b336000908152600760209081526040808320600480855292529091205460ff16156117ac5760405162461bcd60e51b8152600401610be2906150cd565b6001600160a01b03821630146113b35760405162461bcd60e51b8152600401610be2906151b8565b60045460ff166117f65760405162461bcd60e51b8152600401610be290615007565b336000908152600560205260409020805461181090614fcd565b15905061182f5760405162461bcd60e51b8152600401610be29061503e565b600454610100900460ff16156118715760135461184e90612a3061508b565b421061186c5760405162461bcd60e51b8152600401610be2906150a3565b61189e565b60135461188090611c2061508b565b421061189e5760405162461bcd60e51b8152600401610be2906150a3565b336000908152600760209081526040808320600680855292529091205460ff16156118db5760405162461bcd60e51b8152600401610be2906150cd565b6000546001600160a01b038381169116146113b35760405162461bcd60e51b8152600401610be2906151b8565b611910613cc1565b61191a600061409b565b565b60045460ff1661193e5760405162461bcd60e51b8152600401610be290615007565b336000908152600560205260409020805461195890614fcd565b1590506119775760405162461bcd60e51b8152600401610be29061503e565b600454610100900460ff16156119b95760135461199690612a3061508b565b42106119b45760405162461bcd60e51b8152600401610be2906150a3565b6119e6565b6013546119c890611c2061508b565b42106119e65760405162461bcd60e51b8152600401610be2906150a3565b336000908152600760209081526040808320600980855292529091205460ff1615611a235760405162461bcd60e51b8152600401610be2906150cd565b6000356001600160e01b03191682604051602001611a429291906151ef565b604051602081830303815290604052915081516020146113b357600080fd5b60045460ff16611a835760405162461bcd60e51b8152600401610be290615007565b3360009081526005602052604090208054611a9d90614fcd565b159050611abc5760405162461bcd60e51b8152600401610be29061503e565b600454610100900460ff1615611afe57601354611adb90612a3061508b565b4210611af95760405162461bcd60e51b8152600401610be2906150a3565b611b2b565b601354611b0d90611c2061508b565b4210611b2b5760405162461bcd60e51b8152600401610be2906150a3565b336000908152600760209081526040808320600b80855292529091205460ff1615611b685760405162461bcd60e51b8152600401610be2906150cd565b600083138015611b785750600082135b611bce5760405162461bcd60e51b815260206004820152602160248201527f4e756d62657273206d7573742062652067726561746572207468616e207a65726044820152606f60f81b6064820152608401610be2565b8282016009198112611bf25760405162461bcd60e51b8152600401610be290615220565b50611bfd8133613d1b565b505050565b60045460ff16611c245760405162461bcd60e51b8152600401610be290615007565b3360009081526005602052604090208054611c3e90614fcd565b159050611c5d5760405162461bcd60e51b8152600401610be29061503e565b600454610100900460ff1615611c9f57601354611c7c90612a3061508b565b4210611c9a5760405162461bcd60e51b8152600401610be2906150a3565b611ccc565b601354611cae90611c2061508b565b4210611ccc5760405162461bcd60e51b8152600401610be2906150a3565b3360009081526005602090815260409091208251611cec928401906147d4565b5050601080546001810182556000919091527f1b6847dc741a1b0cd08d278845f9d819d87b734759afb55fe2de5cb82a9ae6720180546001600160a01b03191633179055565b60045460ff16611d545760405162461bcd60e51b8152600401610be290615007565b3360009081526005602052604090208054611d6e90614fcd565b159050611d8d5760405162461bcd60e51b8152600401610be29061503e565b600454610100900460ff1615611dcf57601354611dac90612a3061508b565b4210611dca5760405162461bcd60e51b8152600401610be2906150a3565b611dfc565b601354611dde90611c2061508b565b4210611dfc5760405162461bcd60e51b8152600401610be2906150a3565b6001600160a01b0384166000908152600760209081526040808320601780855292529091205460ff1615611e425760405162461bcd60e51b8152600401610be2906150cd565b6000828152600f602052604090205460ff1615611eb75760405162461bcd60e51b815260206004820152602d60248201527f50726f6f66206f662074686973206c6561642068617320616c7265616479206260448201526c195959881cdd589b5a5d1d1959609a1b6064820152608401610be2565b611f178484808060200260200160405190810160405280939291908181526020018383602002808284376000920191909152507f000000000000000000000000000000000000000000000000000000000000000092508691506140eb9050565b611f5c5760405162461bcd60e51b815260206004820152601660248201527550726f6f6620636f756c64206e6f742076657269667960501b6044820152606401610be2565b6112228186613d1b565b60045460ff16611f885760405162461bcd60e51b8152600401610be290615007565b3360009081526005602052604090208054611fa290614fcd565b159050611fc15760405162461bcd60e51b8152600401610be29061503e565b600454610100900460ff161561200357601354611fe090612a3061508b565b4210611ffe5760405162461bcd60e51b8152600401610be2906150a3565b612030565b60135461201290611c2061508b565b42106120305760405162461bcd60e51b8152600401610be2906150a3565b336000908152600760209081526040808320600d80855292529091205460ff161561206d5760405162461bcd60e51b8152600401610be2906150cd565b33600090815260096020526040902054600a1061212f5733600090815260096020526040812080549161209f8361519f565b909155505060405160009033908281818181865af19150503d80600081146120e3576040519150601f19603f3d011682016040523d82523d6000602084013e6120e8565b606091505b505090508061212d5760405162461bcd60e51b81526020600482015260116024820152701d985b1d59481cd95b990819985a5b1959607a1b6044820152606401610be2565b505b6121398133613d1b565b50565b60045460ff1661215e5760405162461bcd60e51b8152600401610be290615007565b336000908152600560205260409020805461217890614fcd565b1590506121975760405162461bcd60e51b8152600401610be29061503e565b600454610100900460ff16156121d9576013546121b690612a3061508b565b42106121d45760405162461bcd60e51b8152600401610be2906150a3565b612206565b6013546121e890611c2061508b565b42106122065760405162461bcd60e51b8152600401610be2906150a3565b336000908152600760209081526040808320600580855292529091205460ff16156122435760405162461bcd60e51b8152600401610be2906150cd565b6001600160a01b03821633146113b35760405162461bcd60e51b8152600401610be2906151b8565b60045460ff1661228d5760405162461bcd60e51b8152600401610be290615007565b33600090815260056020526040902080546122a790614fcd565b1590506122c65760405162461bcd60e51b8152600401610be29061503e565b600454610100900460ff1615612308576013546122e590612a3061508b565b42106123035760405162461bcd60e51b8152600401610be2906150a3565b612335565b60135461231790611c2061508b565b42106123355760405162461bcd60e51b8152600401610be2906150a3565b336000908152600760209081526040808320600880855292529091205460ff16156123725760405162461bcd60e51b8152600401610be2906150cd565b602082146123bb5760405162461bcd60e51b8152602060048201526016602482015275696e76616c6964206c656e677468206f66206461746160501b6044820152606401610be2565b611bfd8133613d1b565b610efc338383614101565b60045460ff166123f25760405162461bcd60e51b8152600401610be290615007565b336000908152600560205260409020805461240c90614fcd565b15905061242b5760405162461bcd60e51b8152600401610be29061503e565b600454610100900460ff161561246d5760135461244a90612a3061508b565b42106124685760405162461bcd60e51b8152600401610be2906150a3565b61249a565b60135461247c90611c2061508b565b421061249a5760405162461bcd60e51b8152600401610be2906150a3565b336000908152600760209081526040808320600c80855292529091205460ff16156124d75760405162461bcd60e51b8152600401610be2906150cd565b600080306001600160a01b0316846040516124f2919061526c565b6000604051808303816000865af19150503d806000811461252f576040519150601f19603f3d011682016040523d82523d6000602084013e612534565b606091505b5091509150816125955760405162461bcd60e51b815260206004820152602660248201527f696e7465726e616c2066756e6374696f6e2063616c6c20646964206e6f7420736044820152651d58d8d9595960d21b6064820152608401610be2565b6040805163deadbeef602082015201604051602081830303815290604052805190602001208180519060200120146125cc57600080fd5b6115768333613d1b565b60045460ff166125f85760405162461bcd60e51b8152600401610be290615007565b336000908152600560205260409020805461261290614fcd565b1590506126315760405162461bcd60e51b8152600401610be29061503e565b600454610100900460ff16156126735760135461265090612a3061508b565b421061266e5760405162461bcd60e51b8152600401610be2906150a3565b6126a0565b60135461268290611c2061508b565b42106126a05760405162461bcd60e51b8152600401610be2906150a3565b6001600160a01b0381166000908152600760209081526040808320601680855292529091205460ff16156126e65760405162461bcd60e51b8152600401610be2906150cd565b6040516323b872dd60e01b8152336004820152306024820152633b9aca0060448201527f00000000000000000000000000000000000000000000000000000000000000006001600160a01b0316906323b872dd906064016020604051808303816000875af115801561275c573d6000803e3d6000fd5b505050506040513d601f19601f82011682018060405250810190612780919061511d565b50610efc8183613d1b565b60045460ff166127ad5760405162461bcd60e51b8152600401610be290615007565b33600090815260056020526040902080546127c790614fcd565b1590506127e65760405162461bcd60e51b8152600401610be29061503e565b600454610100900460ff16156128285760135461280590612a3061508b565b42106128235760405162461bcd60e51b8152600401610be2906150a3565b612855565b60135461283790611c2061508b565b42106128555760405162461bcd60e51b8152600401610be2906150a3565b33600090815260076020908152604080832083805290915281205460ff16156128905760405162461bcd60e51b8152600401610be2906150cd565b81156113b35760405162461bcd60e51b815260206004820152601760248201527f696e636f727265637420626f6f6c65616e2076616c75650000000000000000006044820152606401610be2565b6128e6613cc1565b6004805461ff001916610100179055565b60045460ff166129195760405162461bcd60e51b8152600401610be290615007565b336000908152600560205260409020805461293390614fcd565b1590506129525760405162461bcd60e51b8152600401610be29061503e565b600454610100900460ff16156129945760135461297190612a3061508b565b421061298f5760405162461bcd60e51b8152600401610be2906150a3565b6129c1565b6013546129a390611c2061508b565b42106129c15760405162461bcd60e51b8152600401610be2906150a3565b6001600160a01b0381166000908152600760209081526040808320601280855292529091205460ff1615612a075760405162461bcd60e51b8152600401610be2906150cd565b333b15801590612a175750323314155b612a565760405162461bcd60e51b815260206004820152601060248201526f135d5cdd0818994818dbdb9d1c9858dd60821b6044820152606401610be2565b60008411612abc5760405162461bcd60e51b815260206004820152602d60248201527f6d7573742070726f76696465206e6f6e2d7a65726f20616d6f756e74206f662060448201526c119391951cc81d1bc81b5a5b9d609a1b6064820152608401610be2565b60408051336020820152600091016040516020818303038152906040528051906020012060001c9050612b09848287604051806060016040528060308152602001615555603091396141e1565b6112228284613d1b565b60045460ff16612b355760405162461bcd60e51b8152600401610be290615007565b3360009081526005602052604090208054612b4f90614fcd565b159050612b6e5760405162461bcd60e51b8152600401610be29061503e565b600454610100900460ff1615612bb057601354612b8d90612a3061508b565b4210612bab5760405162461bcd60e51b8152600401610be2906150a3565b612bdd565b601354612bbf90611c2061508b565b4210612bdd5760405162461bcd60e51b8152600401610be2906150a3565b6001600160a01b0382166000908152600760209081526040808320601880855292529091205460ff1615612c235760405162461bcd60e51b8152600401610be2906150cd565b601860005260086020527f83ba890607818823e46eb1e5ed8f7282277ac60de8c863727688b48d92a8da6d54828114612c905760405162461bcd60e51b815260206004820152600f60248201526e696e636f72726563742076616c756560881b6044820152606401610be2565b6115768285613d1b565b612ca2613cc1565b6004805460ff19166001179055565b60045460ff16612cd35760405162461bcd60e51b8152600401610be290615007565b3360009081526005602052604090208054612ced90614fcd565b159050612d0c5760405162461bcd60e51b8152600401610be29061503e565b600454610100900460ff1615612d4e57601354612d2b90612a3061508b565b4210612d495760405162461bcd60e51b8152600401610be2906150a3565b612d7b565b601354612d5d90611c2061508b565b4210612d7b5760405162461bcd60e51b8152600401610be2906150a3565b336000908152600760209081526040808320600280855292529091205460ff1615612db85760405162461bcd60e51b8152600401610be2906150cd565b60008233604051602001612de892919091825260601b6bffffffffffffffffffffffff1916602082015260340190565b60408051601f1981840301815291905280516020909101209050612e0d60058261529e565b15612e4c5760405162461bcd60e51b815260206004820152600f60248201526e19dd595cdcc81a5b98dbdc9c9958dd608a1b6044820152606401610be2565b611bfd8233613d1b565b60045460ff16612e785760405162461bcd60e51b8152600401610be290615007565b3360009081526005602052604090208054612e9290614fcd565b159050612eb15760405162461bcd60e51b8152600401610be29061503e565b600454610100900460ff1615612ef357601354612ed090612a3061508b565b4210612eee5760405162461bcd60e51b8152600401610be2906150a3565b612f20565b601354612f0290611c2061508b565b4210612f205760405162461bcd60e51b8152600401610be2906150a3565b336000908152600760209081526040808320600180855292529091205460ff1615612f5d5760405162461bcd60e51b8152600401610be2906150cd565b34600a1461212f5760405162461bcd60e51b8152602060048201526015602482015274496e76616c6964204d6573736167652056616c756560581b6044820152606401610be2565b60045460ff16612fc75760405162461bcd60e51b8152600401610be290615007565b3360009081526005602052604090208054612fe190614fcd565b1590506130005760405162461bcd60e51b8152600401610be29061503e565b600454610100900460ff16156130425760135461301f90612a3061508b565b421061303d5760405162461bcd60e51b8152600401610be2906150a3565b61306f565b60135461305190611c2061508b565b421061306f5760405162461bcd60e51b8152600401610be2906150a3565b336000908152600760209081526040808320600e80855292529091205460ff16156130ac5760405162461bcd60e51b8152600401610be2906150cd565b336000908152600c602052604090205442116131185760405162461bcd60e51b815260206004820152602560248201527f63616e6e6f7420706c6179206d756c7469706c652074696d657320696e2073616044820152640daca40e8f60db1b6064820152608401610be2565b604080514260208201526bffffffffffffffffffffffff193360601b169181019190915243605482015260009060740160408051601f1981840301815291905280516020909101209050600061316f60068361529e565b90508084146131e257336000908152600b6020526040808220919091555162461bcd60e51b8152610be29060040160208082526025908201527f476f74746120737465616c2074696d652066726f6d20746865206661756c747960408201526410383630b760d91b606082015260800190565b336000908152600b602052604081208054916131fd8361519f565b9091555050336000908152600c60209081526040808320429055600b909152902054600503611576576115768333613d1b565b6005602052600090815260409020805461324990614fcd565b80601f016020809104026020016040519081016040528092919081815260200182805461327590614fcd565b80156132c25780601f10613297576101008083540402835291602001916132c2565b820191906000526020600020905b8154815290600101906020018083116132a557829003601f168201915b505050505081565b60045460ff166132ec5760405162461bcd60e51b8152600401610be290615007565b336000908152600560205260409020805461330690614fcd565b1590506133255760405162461bcd60e51b8152600401610be29061503e565b600454610100900460ff16156133675760135461334490612a3061508b565b42106133625760405162461bcd60e51b8152600401610be2906150a3565b613394565b60135461337690611c2061508b565b42106133945760405162461bcd60e51b8152600401610be2906150a3565b6001600160a01b0383166000908152600760209081526040808320601180855292529091205460ff16156133da5760405162461bcd60e51b8152600401610be2906150cd565b7f5c8aed31bcb9e9889970b4a7647843b7ab31487f575ba97a73c104aeacc53223600061340782856142f7565b90506001600160a01b03811661346b5760405162461bcd60e51b8152602060048201526024808201527f6d75737420626520612076616c6964207369676e617475726520627920736f6d604482015263656f6e6560e01b6064820152608401610be2565b846001600160a01b0316816001600160a01b0316146134f25760405162461bcd60e51b815260206004820152603960248201527f5369676e6572206f6620746865206d65737361676520646964206e6f74206d6160448201527f7463682061637475616c206d657373616765207369676e6572000000000000006064820152608401610be2565b6001600160a01b0381166000908152600d602052604090205460ff161561354f5760405162461bcd60e51b81526020600482015260116024820152704e4f205245504c41592041545441434b5360781b6044820152606401610be2565b6001600160a01b0381166000908152600d60205260409020805460ff1916600117905561357c8387613d1b565b505050505050565b60045460ff166135a65760405162461bcd60e51b8152600401610be290615007565b33600090815260056020526040902080546135c090614fcd565b1590506135df5760405162461bcd60e51b8152600401610be29061503e565b600454610100900460ff1615613621576013546135fe90612a3061508b565b421061361c5760405162461bcd60e51b8152600401610be2906150a3565b61364e565b60135461363090611c2061508b565b421061364e5760405162461bcd60e51b8152600401610be2906150a3565b336000908152600760209081526040808320600a80855292529091205460ff161561368b5760405162461bcd60e51b8152600401610be2906150cd565b60008312801561369b5750600082135b6137055760405162461bcd60e51b815260206004820152603560248201527f6669727374206e756d626572206d757374206265206e6567617469766520616e6044820152746420326e64206e756d62657220706f73697469766560581b6064820152608401610be2565b818303600a8113611bf25760405162461bcd60e51b8152600401610be290615220565b60045460ff1661374a5760405162461bcd60e51b8152600401610be290615007565b336000908152600560205260409020805461376490614fcd565b1590506137835760405162461bcd60e51b8152600401610be29061503e565b600454610100900460ff16156137c5576013546137a290612a3061508b565b42106137c05760405162461bcd60e51b8152600401610be2906150a3565b6137f2565b6013546137d490611c2061508b565b42106137f25760405162461bcd60e51b8152600401610be2906150a3565b336000908152600760209081526040808320600380855292529091205464098765432183189060ff16156138385760405162461bcd60e51b8152600401610be2906150cd565b8063beefdead14612e4c5760405162461bcd60e51b815260206004820152600d60248201526c125b9d985b1a5908125b9c1d5d609a1b6044820152606401610be2565b60045460ff1661389d5760405162461bcd60e51b8152600401610be290615007565b33600090815260056020526040902080546138b790614fcd565b1590506138d65760405162461bcd60e51b8152600401610be29061503e565b600454610100900460ff1615613918576013546138f590612a3061508b565b42106139135760405162461bcd60e51b8152600401610be2906150a3565b613945565b60135461392790611c2061508b565b42106139455760405162461bcd60e51b8152600401610be2906150a3565b3360009081526007602081815260408084208385529091529091205460ff16156139815760405162461bcd60e51b8152600401610be2906150cd565b626a584c5a1161212f5760405162461bcd60e51b815260206004820152601b60248201527f6e6f7420656e6f7567682067617320666f722066756e6374696f6e00000000006044820152606401610be2565b60045460ff166139f55760405162461bcd60e51b8152600401610be290615007565b3360009081526005602052604090208054613a0f90614fcd565b159050613a2e5760405162461bcd60e51b8152600401610be29061503e565b600454610100900460ff1615613a7057601354613a4d90612a3061508b565b4210613a6b5760405162461bcd60e51b8152600401610be2906150a3565b613a9d565b601354613a7f90611c2061508b565b4210613a9d5760405162461bcd60e51b8152600401610be2906150a3565b6001600160a01b0381166000908152600760209081526040808320601080855292529091205460ff1615613ae35760405162461bcd60e51b8152600401610be2906150cd565b333b15613b325760405162461bcd60e51b815260206004820152601760248201527f4e6f20636f6e74726163747320746869732074696d65210000000000000000006044820152606401610be2565b6001600160a01b0382166000908152600a60205260408120549003610ef2576001600160a01b0382166000908152600a60205260408120805491613b758361519f565b909155505060405160009033908281818181865af19150503d8060008114613bb9576040519150601f19603f3d011682016040523d82523d6000602084013e613bbe565b606091505b50509050806127805760405162461bcd60e51b8152602060048201526014602482015273195e1d195c9b985b0818d85b1b0819985a5b195960621b6044820152606401610be2565b6001600160a01b038516331480613c225750613c228533610aed565b613c3e5760405162461bcd60e51b8152600401610be29061513a565b61122285858585856143ce565b613c53613cc1565b6001600160a01b038116613cb85760405162461bcd60e51b815260206004820152602660248201527f4f776e61626c653a206e6577206f776e657220697320746865207a65726f206160448201526564647265737360d01b6064820152608401610be2565b6121398161409b565b6000546001600160a01b0316331461191a5760405162461bcd60e51b815260206004820181905260248201527f4f776e61626c653a2063616c6c6572206973206e6f7420746865206f776e65726044820152606401610be2565b6000828152600e60205260408120805491613d358361519f565b90915550506001600160a01b03811660008181526007602090815260408083208684528252808320805460ff191660011790556008825280832054938352600690915281208054909190613d8a90849061508b565b90915550506000828152600e60205260408120549003613dd3576001600160a01b0381166000908152600660205260408120805460059290613dcd90849061508b565b90915550505b60098210613e00576000828152600860205260408120805460029290613dfa9084906152b2565b90915550505b6000828152600e60205260408120805491613e1a8361519f565b91905055505050565b8151835114613e855760405162461bcd60e51b815260206004820152602860248201527f455243313135353a2069647320616e6420616d6f756e7473206c656e677468206044820152670dad2e6dac2e8c6d60c31b6064820152608401610be2565b6001600160a01b038416613eab5760405162461bcd60e51b8152600401610be2906152c6565b3360005b8451811015613f95576000858281518110613ecc57613ecc615189565b602002602001015190506000858381518110613eea57613eea615189565b60209081029190910181015160008481526001835260408082206001600160a01b038e168352909352919091205490915081811015613f3b5760405162461bcd60e51b8152600401610be29061530b565b60008381526001602090815260408083206001600160a01b038e8116855292528083208585039055908b16825281208054849290613f7a90849061508b565b9250508190555050505080613f8e9061519f565b9050613eaf565b50846001600160a01b0316866001600160a01b0316826001600160a01b03167f4a39dc06d4c0dbc64b70af90fd698a233a518aa5d07e595d983b8c0526c8f7fb8787604051613fe5929190615355565b60405180910390a461357c8187878787876144fc565b6000604051733d602d80600a3d3981f3363d3d373d3d3d363d7360601b81528360601b60148201526e5af43d82803e903d91602b57fd5bf360881b6028820152826037826000f59150506001600160a01b038116610c105760405162461bcd60e51b815260206004820152601760248201527f455243313136373a2063726561746532206661696c65640000000000000000006044820152606401610be2565b600080546001600160a01b038381166001600160a01b0319831681178455604051919092169283917f8be0079c531659141344cd1fd0a4f28419497f9722a3daafe3b4186f6b6457e09190a35050565b6000826140f88584614657565b14949350505050565b816001600160a01b0316836001600160a01b0316036141745760405162461bcd60e51b815260206004820152602960248201527f455243313135353a2073657474696e6720617070726f76616c20737461747573604482015268103337b91039b2b63360b91b6064820152608401610be2565b6001600160a01b03838116600081815260026020908152604080832094871680845294825291829020805460ff191686151590811790915591519182527f17307eab39ab6107e8899845ad3d59bd9653f200f220920489ca2b5937696c31910160405180910390a3505050565b6001600160a01b0384166142415760405162461bcd60e51b815260206004820152602160248201527f455243313135353a206d696e7420746f20746865207a65726f206164647265736044820152607360f81b6064820152608401610be2565b33600061424d8561469c565b9050600061425a8561469c565b905060008681526001602090815260408083206001600160a01b038b1684529091528120805487929061428e90849061508b565b909155505060408051878152602081018790526001600160a01b03808a1692600092918716917fc3d58168c5ae7397731d063d5bbf3d657854427343f4c083240f7aacaa2d0f62910160405180910390a46142ee836000898989896146e7565b50505050505050565b60008060008084516041146143125760009350505050610c10565b50505060208201516040830151606084015160001a601b81101561433e5761433b601b82615383565b90505b8060ff16601b1415801561435657508060ff16601c14155b156143675760009350505050610c10565b60408051600081526020810180835288905260ff831691810191909152606081018490526080810183905260019060a0016020604051602081039080840390855afa1580156143ba573d6000803e3d6000fd5b505050602060405103519350505050610c10565b6001600160a01b0384166143f45760405162461bcd60e51b8152600401610be2906152c6565b3360006144008561469c565b9050600061440d8561469c565b905060008681526001602090815260408083206001600160a01b038c168452909152902054858110156144525760405162461bcd60e51b8152600401610be29061530b565b60008781526001602090815260408083206001600160a01b038d8116855292528083208985039055908a1682528120805488929061449190849061508b565b909155505060408051888152602081018890526001600160a01b03808b16928c821692918816917fc3d58168c5ae7397731d063d5bbf3d657854427343f4c083240f7aacaa2d0f62910160405180910390a46144f1848a8a8a8a8a6146e7565b505050505050505050565b6001600160a01b0384163b1561357c5760405163bc197c8160e01b81526001600160a01b0385169063bc197c819061454090899089908890889088906004016153a8565b6020604051808303816000875af192505050801561457b575060408051601f3d908101601f1916820190925261457891810190615406565b60015b61462757614587615423565b806308c379a0036145c0575061459b61543e565b806145a657506145c2565b8060405162461bcd60e51b8152600401610be29190614957565b505b60405162461bcd60e51b815260206004820152603460248201527f455243313135353a207472616e7366657220746f206e6f6e20455243313135356044820152732932b1b2b4bb32b91034b6b83632b6b2b73a32b960611b6064820152608401610be2565b6001600160e01b0319811663bc197c8160e01b146142ee5760405162461bcd60e51b8152600401610be2906154c7565b600081815b845181101561169d576146888286838151811061467b5761467b615189565b60200260200101516147a2565b9150806146948161519f565b91505061465c565b604080516001808252818301909252606091600091906020808301908036833701905050905082816000815181106146d6576146d6615189565b602090810291909101015292915050565b6001600160a01b0384163b1561357c5760405163f23a6e6160e01b81526001600160a01b0385169063f23a6e619061472b908990899088908890889060040161550f565b6020604051808303816000875af1925050508015614766575060408051601f3d908101601f1916820190925261476391810190615406565b60015b61477257614587615423565b6001600160e01b0319811663f23a6e6160e01b146142ee5760405162461bcd60e51b8152600401610be2906154c7565b60008183106147be5760008281526020849052604090206147cd565b60008381526020839052604090205b9392505050565b8280546147e090614fcd565b90600052602060002090601f0160209004810192826148025760008555614848565b82601f1061481b57805160ff1916838001178555614848565b82800160010185558215614848579182015b8281111561484857825182559160200191906001019061482d565b50614854929150614858565b5090565b5b808211156148545760008155600101614859565b80356001600160a01b038116811461488457600080fd5b919050565b6000806040838503121561489c57600080fd5b6148a58361486d565b946020939093013593505050565b6001600160e01b03198116811461213957600080fd5b6000602082840312156148db57600080fd5b81356147cd816148b3565b6000602082840312156148f857600080fd5b5035919050565b60005b8381101561491a578181015183820152602001614902565b838111156115765750506000910152565b600081518084526149438160208601602086016148ff565b601f01601f19169290920160200192915050565b6020815260006147cd602083018461492b565b60006020828403121561497c57600080fd5b6147cd8261486d565b634e487b7160e01b600052604160045260246000fd5b601f8201601f191681016001600160401b03811182821017156149c0576149c0614985565b6040525050565b60006001600160401b038211156149e0576149e0614985565b5060051b60200190565b600082601f8301126149fb57600080fd5b81356020614a08826149c7565b604051614a15828261499b565b83815260059390931b8501820192828101915086841115614a3557600080fd5b8286015b84811015614a505780358352918301918301614a39565b509695505050505050565b60006001600160401b03831115614a7457614a74614985565b604051614a8b601f8501601f19166020018261499b565b809150838152848484011115614aa057600080fd5b83836020830137600060208583010152509392505050565b600082601f830112614ac957600080fd5b6147cd83833560208501614a5b565b600080600080600060a08688031215614af057600080fd5b614af98661486d565b9450614b076020870161486d565b935060408601356001600160401b0380821115614b2357600080fd5b614b2f89838a016149ea565b94506060880135915080821115614b4557600080fd5b614b5189838a016149ea565b93506080880135915080821115614b6757600080fd5b50614b7488828901614ab8565b9150509295509295909350565b60008060408385031215614b9457600080fd5b614b9d8361486d565b9150614bab6020840161486d565b90509250929050565b60008060408385031215614bc757600080fd5b82356001600160401b0380821115614bde57600080fd5b818501915085601f830112614bf257600080fd5b81356020614bff826149c7565b604051614c0c828261499b565b83815260059390931b8501820192828101915089841115614c2c57600080fd5b948201945b83861015614c5157614c428661486d565b82529482019490820190614c31565b96505086013592505080821115614c6757600080fd5b50614c74858286016149ea565b9150509250929050565b600081518084526020808501945080840160005b83811015614cae57815187529582019590820190600101614c92565b509495945050505050565b6020815260006147cd6020830184614c7e565b600060208284031215614cde57600080fd5b81356001600160401b03811115614cf457600080fd5b614d0084828501614ab8565b949350505050565b60008060408385031215614d1b57600080fd5b50508035926020909101359150565b600060208284031215614d3c57600080fd5b81356001600160401b03811115614d5257600080fd5b8201601f81018413614d6357600080fd5b614d0084823560208401614a5b565b60008060008060608587031215614d8857600080fd5b614d918561486d565b935060208501356001600160401b0380821115614dad57600080fd5b818701915087601f830112614dc157600080fd5b813581811115614dd057600080fd5b8860208260051b8501011115614de557600080fd5b95986020929092019750949560400135945092505050565b60008060208385031215614e1057600080fd5b82356001600160401b0380821115614e2757600080fd5b818501915085601f830112614e3b57600080fd5b813581811115614e4a57600080fd5b866020828501011115614e5c57600080fd5b60209290920196919550909350505050565b801515811461213957600080fd5b60008060408385031215614e8f57600080fd5b614e988361486d565b91506020830135614ea881614e6e565b809150509250929050565b600060208284031215614ec557600080fd5b81356147cd81614e6e565b600080600060608486031215614ee557600080fd5b83359250614ef56020850161486d565b9150614f036040850161486d565b90509250925092565b600080600060608486031215614f2157600080fd5b614f2a8461486d565b9250614f386020850161486d565b915060408401356001600160401b03811115614f5357600080fd5b614f5f86828701614ab8565b9150509250925092565b600080600080600060a08688031215614f8157600080fd5b614f8a8661486d565b9450614f986020870161486d565b9350604086013592506060860135915060808601356001600160401b03811115614fc157600080fd5b614b7488828901614ab8565b600181811c90821680614fe157607f821691505b60208210810361500157634e487b7160e01b600052602260045260246000fd5b50919050565b6020808252601b908201527f4861636b6174686f6e206973206e6f7420696e2073657373696f6e0000000000604082015260600190565b60208082526017908201527f416c72656164792072656769737465726564207465616d000000000000000000604082015260600190565b634e487b7160e01b600052601160045260246000fd5b6000821982111561509e5761509e615075565b500190565b60208082526010908201526f151a5b59481a185cc8195e1c1a5c995960821b604082015260600190565b6020808252601f908201527f416c726561647920636f6d706c6574656420746869732066756e6374696f6e00604082015260600190565b60006020828403121561511657600080fd5b5051919050565b60006020828403121561512f57600080fd5b81516147cd81614e6e565b6020808252602f908201527f455243313135353a2063616c6c6572206973206e6f7420746f6b656e206f776e60408201526e195c881b9bdc88185c1c1c9bdd9959608a1b606082015260800190565b634e487b7160e01b600052603260045260246000fd5b6000600182016151b1576151b1615075565b5060010190565b6020808252601c908201527f696e636f727265637420616464726573732e2074727920616761696e00000000604082015260600190565b6001600160e01b03198316815281516000906152128160048501602087016148ff565b919091016004019392505050565b6020808252602c908201527f446966666572656e6365206f66207468652074776f206d757374206265206d6f60408201526b7265207468616e207a65726f60a01b606082015260800190565b6000825161527e8184602087016148ff565b9190910192915050565b634e487b7160e01b600052601260045260246000fd5b6000826152ad576152ad615288565b500690565b6000826152c1576152c1615288565b500490565b60208082526025908201527f455243313135353a207472616e7366657220746f20746865207a65726f206164604082015264647265737360d81b606082015260800190565b6020808252602a908201527f455243313135353a20696e73756666696369656e742062616c616e636520666f60408201526939103a3930b739b332b960b11b606082015260800190565b6040815260006153686040830185614c7e565b828103602084015261537a8185614c7e565b95945050505050565b600060ff821660ff84168060ff038211156153a0576153a0615075565b019392505050565b6001600160a01b0386811682528516602082015260a0604082018190526000906153d490830186614c7e565b82810360608401526153e68186614c7e565b905082810360808401526153fa818561492b565b98975050505050505050565b60006020828403121561541857600080fd5b81516147cd816148b3565b600060033d1115610fe05760046000803e5060005160e01c90565b600060443d101561544c5790565b6040516003193d81016004833e81513d6001600160401b03816024840111818411171561547b57505050505090565b82850191508151818111156154935750505050505090565b843d87010160208285010111156154ad5750505050505090565b6154bc6020828601018761499b565b509095945050505050565b60208082526028908201527f455243313135353a204552433131353552656365697665722072656a656374656040820152676420746f6b656e7360c01b606082015260800190565b6001600160a01b03868116825285166020820152604081018490526060810183905260a0608082018190526000906155499083018461492b565b97965050505050505056fe736574207468652067656172736869667420666f722074686520686967682067656172206f6620796f757220736f756ca2646970667358221220c8ebf05ddef1b69947e49999918d316bf1e51a00f03d7be478697f29b68aa22364736f6c634300080d0033608060405234801561001057600080fd5b50610121806100206000396000f3fe6080604052348015600f57600080fd5b506004361060285760003560e01c8063d1f5d67014602d575b600080fd5b60336047565b604051603e91906063565b60405180910390f35b6040518060600160405280603681526020016100b66036913981565b600060208083528351808285015260005b81811015608e578581018301518582016040015282016074565b81811115609f576000604083870101525b50601f01601f191692909201604001939250505056fe62657420796f752063616e2774206775657373206d792061646472657373206265666f726520696d206576656e206465706c6f796564a26469706673582212205b1c20dcb0415f63d7256b594ecd78bb4b1d546bf9b7d99631f5a8950f29c41e64736f6c634300080d0033",
    "linkReferences": {
      "contracts/MerkleTree.sol": {
        "merkleTree": [
          {
            "start": 401,
            "length": 20
          }
        ]
      }
    }
  },
  "methodIdentifiers": {
    "balanceOf(address,uint256)": "00fdd58e",
    "balanceOfBatch(address[],uint256[])": "4e1273f4",
    "diceRollLastWin(address)": "ca9eaf59",
    "diceRollWins(address)": "c1a8f2c6",
    "entryCount(address)": "41dd1ef8",
    "extendTime()": "abb6ae89",
    "f0(bool)": "aa91c62e",
    "f1()": "c27fc305",
    "f10(int256,int256)": "d75203c3",
    "f11(int256,int256)": "81e0f90c",
    "f12(bytes)": "a481b0e4",
    "f13()": "920f5c73",
    "f14(uint256)": "c28cb1d4",
    "f15(uint256)": "2f4dc9da",
    "f16(address)": "ed6a9904",
    "f17(address,address,bytes)": "c78de838",
    "f18(uint256,address,address)": "b1d8dd56",
    "f19(address)": "237b3bde",
    "f2(uint256)": "bf3724af",
    "f20(address,address)": "49b9dbe6",
    "f21(address)": "100a818c",
    "f22(address)": "a60463e4",
    "f23(address,bytes32[],bytes32)": "8b1fe8de",
    "f24(address,uint256)": "b33260a2",
    "f3(uint256)": "d7b7913b",
    "f4(address)": "50a48d2e",
    "f5(address)": "93d1758c",
    "f6(address)": "604f7523",
    "f7()": "df2025dc",
    "f8(bytes)": "964ef96b",
    "f9(bytes)": "787f485a",
    "internalChallengeHook()": "1625d7fe",
    "isApprovedForAll(address,address)": "e985e9c5",
    "live()": "957aa58c",
    "merkleRoot()": "2eb4a7ab",
    "owner()": "8da5cb5b",
    "points(uint256)": "9799b4e7",
    "progress(address,uint256)": "0c91cdbc",
    "registerTeam(string)": "8729e5c1",
    "renounceOwnership()": "715018a6",
    "safeBatchTransferFrom(address,address,uint256[],uint256[],bytes)": "2eb2c2d6",
    "safeTransferFrom(address,address,uint256,uint256,bytes)": "f242432a",
    "scores(address)": "76dd110f",
    "secondEntryCount(address)": "83e9ff47",
    "setApprovalForAll(address,bool)": "a22cb465",
    "signers(address)": "736c0d5b",
    "solves(uint256)": "3d056172",
    "start()": "be9a6555",
    "stop()": "07da68f5",
    "supportsInterface(bytes4)": "01ffc9a7",
    "teamAddresses(uint256)": "2419217e",
    "teams(address)": "c4583240",
    "template()": "6f2ddd93",
    "timeExtended()": "db0fff37",
    "transferOwnership(address)": "f2fde38b",
    "uri(uint256)": "0e89341c",
    "usedLeaves(bytes32)": "3b5e60c2",
    "weth()": "3fc8cef3"
  },
  "id": 0
}