{
  "abi": [
    {
      "inputs": [
        {
          "internalType": "string",
          "name": "uri",
          "type": "string"
        },
        {
          "internalType": "address",
          "name": "_weth",
          "type": "address"
        }
      ],
      "stateMutability": "nonpayable",
      "type": "constructor"
    },
    {
      "inputs": [],
      "name": "getBetterAtAssemblyBro",
      "type": "error"
    },
    {
      "anonymous": false,
      "inputs": [
        {
          "indexed": true,
          "internalType": "address",
          "name": "account",
          "type": "address"
        },
        {
          "indexed": true,
          "internalType": "address",
          "name": "operator",
          "type": "address"
        },
        {
          "indexed": false,
          "internalType": "bool",
          "name": "approved",
          "type": "bool"
        }
      ],
      "name": "ApprovalForAll",
      "type": "event"
    },
    {
      "anonymous": false,
      "inputs": [
        {
          "indexed": true,
          "internalType": "address",
          "name": "previousOwner",
          "type": "address"
        },
        {
          "indexed": true,
          "internalType": "address",
          "name": "newOwner",
          "type": "address"
        }
      ],
      "name": "OwnershipTransferred",
      "type": "event"
    },
    {
      "anonymous": false,
      "inputs": [
        {
          "indexed": true,
          "internalType": "address",
          "name": "operator",
          "type": "address"
        },
        {
          "indexed": true,
          "internalType": "address",
          "name": "from",
          "type": "address"
        },
        {
          "indexed": true,
          "internalType": "address",
          "name": "to",
          "type": "address"
        },
        {
          "indexed": false,
          "internalType": "uint256[]",
          "name": "ids",
          "type": "uint256[]"
        },
        {
          "indexed": false,
          "internalType": "uint256[]",
          "name": "values",
          "type": "uint256[]"
        }
      ],
      "name": "TransferBatch",
      "type": "event"
    },
    {
      "anonymous": false,
      "inputs": [
        {
          "indexed": true,
          "internalType": "address",
          "name": "operator",
          "type": "address"
        },
        {
          "indexed": true,
          "internalType": "address",
          "name": "from",
          "type": "address"
        },
        {
          "indexed": true,
          "internalType": "address",
          "name": "to",
          "type": "address"
        },
        {
          "indexed": false,
          "internalType": "uint256",
          "name": "id",
          "type": "uint256"
        },
        {
          "indexed": false,
          "internalType": "uint256",
          "name": "value",
          "type": "uint256"
        }
      ],
      "name": "TransferSingle",
      "type": "event"
    },
    {
      "anonymous": false,
      "inputs": [
        {
          "indexed": false,
          "internalType": "string",
          "name": "value",
          "type": "string"
        },
        {
          "indexed": true,
          "internalType": "uint256",
          "name": "id",
          "type": "uint256"
        }
      ],
      "name": "URI",
      "type": "event"
    },
    {
      "inputs": [
        {
          "internalType": "address",
          "name": "account",
          "type": "address"
        },
        {
          "internalType": "uint256",
          "name": "id",
          "type": "uint256"
        }
      ],
      "name": "balanceOf",
      "outputs": [
        {
          "internalType": "uint256",
          "name": "",
          "type": "uint256"
        }
      ],
      "stateMutability": "view",
      "type": "function"
    },
    {
      "inputs": [
        {
          "internalType": "address[]",
          "name": "accounts",
          "type": "address[]"
        },
        {
          "internalType": "uint256[]",
          "name": "ids",
          "type": "uint256[]"
        }
      ],
      "name": "balanceOfBatch",
      "outputs": [
        {
          "internalType": "uint256[]",
          "name": "",
          "type": "uint256[]"
        }
      ],
      "stateMutability": "view",
      "type": "function"
    },
    {
      "inputs": [
        {
          "internalType": "address",
          "name": "",
          "type": "address"
        }
      ],
      "name": "diceRollLastWin",
      "outputs": [
        {
          "internalType": "uint256",
          "name": "",
          "type": "uint256"
        }
      ],
      "stateMutability": "view",
      "type": "function"
    },
    {
      "inputs": [
        {
          "internalType": "address",
          "name": "",
          "type": "address"
        }
      ],
      "name": "diceRollWins",
      "outputs": [
        {
          "internalType": "uint256",
          "name": "",
          "type": "uint256"
        }
      ],
      "stateMutability": "view",
      "type": "function"
    },
    {
      "inputs": [
        {
          "internalType": "address",
          "name": "",
          "type": "address"
        }
      ],
      "name": "entryCount",
      "outputs": [
        {
          "internalType": "uint256",
          "name": "",
          "type": "uint256"
        }
      ],
      "stateMutability": "view",
      "type": "function"
    },
    {
      "inputs": [],
      "name": "extendTime",
      "outputs": [],
      "stateMutability": "nonpayable",
      "type": "function"
    },
    {
      "inputs": [
        {
          "internalType": "bool",
          "name": "val",
          "type": "bool"
        }
      ],
      "name": "f0",
      "outputs": [],
      "stateMutability": "nonpayable",
      "type": "function"
    },
    {
      "inputs": [],
      "name": "f1",
      "outputs": [],
      "stateMutability": "payable",
      "type": "function"
    },
    {
      "inputs": [
        {
          "internalType": "int256",
          "name": "num1",
          "type": "int256"
        },
        {
          "internalType": "int256",
          "name": "num2",
          "type": "int256"
        }
      ],
      "name": "f10",
      "outputs": [],
      "stateMutability": "nonpayable",
      "type": "function"
    },
    {
      "inputs": [
        {
          "internalType": "int256",
          "name": "num1",
          "type": "int256"
        },
        {
          "internalType": "int256",
          "name": "num2",
          "type": "int256"
        }
      ],
      "name": "f11",
      "outputs": [],
      "stateMutability": "nonpayable",
      "type": "function"
    },
    {
      "inputs": [
        {
          "internalType": "bytes",
          "name": "data",
          "type": "bytes"
        }
      ],
      "name": "f12",
      "outputs": [],
      "stateMutability": "nonpayable",
      "type": "function"
    },
    {
      "inputs": [],
      "name": "f13",
      "outputs": [],
      "stateMutability": "payable",
      "type": "function"
    },
    {
      "inputs": [
        {
          "internalType": "uint256",
          "name": "diceRoll",
          "type": "uint256"
        }
      ],
      "name": "f14",
      "outputs": [],
      "stateMutability": "payable",
      "type": "function"
    },
    {
      "inputs": [
        {
          "internalType": "uint256",
          "name": "difficulty",
          "type": "uint256"
        }
      ],
      "name": "f15",
      "outputs": [],
      "stateMutability": "nonpayable",
      "type": "function"
    },
    {
      "inputs": [
        {
          "internalType": "address",
          "name": "team",
          "type": "address"
        }
      ],
      "name": "f16",
      "outputs": [],
      "stateMutability": "nonpayable",
      "type": "function"
    },
    {
      "inputs": [
        {
          "internalType": "address",
          "name": "team",
          "type": "address"
        },
        {
          "internalType": "address",
          "name": "expectedSigner",
          "type": "address"
        },
        {
          "internalType": "bytes",
          "name": "signature",
          "type": "bytes"
        }
      ],
      "name": "f17",
      "outputs": [],
      "stateMutability": "nonpayable",
      "type": "function"
    },
    {
      "inputs": [
        {
          "internalType": "uint256",
          "name": "amount",
          "type": "uint256"
        },
        {
          "internalType": "address",
          "name": "dest",
          "type": "address"
        },
        {
          "internalType": "address",
          "name": "team",
          "type": "address"
        }
      ],
      "name": "f18",
      "outputs": [],
      "stateMutability": "nonpayable",
      "type": "function"
    },
    {
      "inputs": [
        {
          "internalType": "address",
          "name": "team",
          "type": "address"
        }
      ],
      "name": "f19",
      "outputs": [],
      "stateMutability": "nonpayable",
      "type": "function"
    },
    {
      "inputs": [
        {
          "internalType": "uint256",
          "name": "val",
          "type": "uint256"
        }
      ],
      "name": "f2",
      "outputs": [],
      "stateMutability": "nonpayable",
      "type": "function"
    },
    {
      "inputs": [
        {
          "internalType": "address",
          "name": "newContract",
          "type": "address"
        },
        {
          "internalType": "address",
          "name": "team",
          "type": "address"
        }
      ],
      "name": "f20",
      "outputs": [],
      "stateMutability": "nonpayable",
      "type": "function"
    },
    {
      "inputs": [
        {
          "internalType": "address",
          "name": "team",
          "type": "address"
        }
      ],
      "name": "f21",
      "outputs": [],
      "stateMutability": "nonpayable",
      "type": "function"
    },
    {
      "inputs": [
        {
          "internalType": "address",
          "name": "team",
          "type": "address"
        }
      ],
      "name": "f22",
      "outputs": [],
      "stateMutability": "nonpayable",
      "type": "function"
    },
    {
      "inputs": [
        {
          "internalType": "address",
          "name": "team",
          "type": "address"
        },
        {
          "internalType": "bytes32[]",
          "name": "proof",
          "type": "bytes32[]"
        },
        {
          "internalType": "bytes32",
          "name": "leaf",
          "type": "bytes32"
        }
      ],
      "name": "f23",
      "outputs": [],
      "stateMutability": "nonpayable",
      "type": "function"
    },
    {
      "inputs": [
        {
          "internalType": "address",
          "name": "team",
          "type": "address"
        },
        {
          "internalType": "uint256",
          "name": "value",
          "type": "uint256"
        }
      ],
      "name": "f24",
      "outputs": [],
      "stateMutability": "nonpayable",
      "type": "function"
    },
    {
      "inputs": [
        {
          "internalType": "address",
          "name": "team",
          "type": "address"
        },
        {
          "internalType": "uint256",
          "name": "value",
          "type": "uint256"
        }
      ],
      "name": "f25",
      "outputs": [],
      "stateMutability": "nonpayable",
      "type": "function"
    },
    {
      "inputs": [
        {
          "internalType": "uint256",
          "name": "data",
          "type": "uint256"
        }
      ],
      "name": "f3",
      "outputs": [],
      "stateMutability": "nonpayable",
      "type": "function"
    },
    {
      "inputs": [
        {
          "internalType": "address",
          "name": "destAddr",
          "type": "address"
        }
      ],
      "name": "f4",
      "outputs": [],
      "stateMutability": "nonpayable",
      "type": "function"
    },
    {
      "inputs": [
        {
          "internalType": "address",
          "name": "destAddr",
          "type": "address"
        }
      ],
      "name": "f5",
      "outputs": [],
      "stateMutability": "nonpayable",
      "type": "function"
    },
    {
      "inputs": [
        {
          "internalType": "address",
          "name": "destAddr",
          "type": "address"
        }
      ],
      "name": "f6",
      "outputs": [],
      "stateMutability": "nonpayable",
      "type": "function"
    },
    {
      "inputs": [],
      "name": "f7",
      "outputs": [],
      "stateMutability": "nonpayable",
      "type": "function"
    },
    {
      "inputs": [
        {
          "internalType": "bytes",
          "name": "data",
          "type": "bytes"
        }
      ],
      "name": "f8",
      "outputs": [],
      "stateMutability": "nonpayable",
      "type": "function"
    },
    {
      "inputs": [
        {
          "internalType": "bytes",
          "name": "data",
          "type": "bytes"
        }
      ],
      "name": "f9",
      "outputs": [],
      "stateMutability": "nonpayable",
      "type": "function"
    },
    {
      "inputs": [],
      "name": "internalChallengeHook",
      "outputs": [
        {
          "internalType": "uint256",
          "name": "",
          "type": "uint256"
        }
      ],
      "stateMutability": "view",
      "type": "function"
    },
    {
      "inputs": [
        {
          "internalType": "address",
          "name": "account",
          "type": "address"
        },
        {
          "internalType": "address",
          "name": "operator",
          "type": "address"
        }
      ],
      "name": "isApprovedForAll",
      "outputs": [
        {
          "internalType": "bool",
          "name": "",
          "type": "bool"
        }
      ],
      "stateMutability": "view",
      "type": "function"
    },
    {
      "inputs": [],
      "name": "live",
      "outputs": [
        {
          "internalType": "bool",
          "name": "",
          "type": "bool"
        }
      ],
      "stateMutability": "view",
      "type": "function"
    },
    {
      "inputs": [],
      "name": "merkleRoot",
      "outputs": [
        {
          "internalType": "bytes32",
          "name": "",
          "type": "bytes32"
        }
      ],
      "stateMutability": "view",
      "type": "function"
    },
    {
      "inputs": [],
      "name": "owner",
      "outputs": [
        {
          "internalType": "address",
          "name": "",
          "type": "address"
        }
      ],
      "stateMutability": "view",
      "type": "function"
    },
    {
      "inputs": [
        {
          "internalType": "uint256",
          "name": "",
          "type": "uint256"
        }
      ],
      "name": "points",
      "outputs": [
        {
          "internalType": "uint256",
          "name": "",
          "type": "uint256"
        }
      ],
      "stateMutability": "view",
      "type": "function"
    },
    {
      "inputs": [
        {
          "internalType": "address",
          "name": "",
          "type": "address"
        },
        {
          "internalType": "uint256",
          "name": "",
          "type": "uint256"
        }
      ],
      "name": "progress",
      "outputs": [
        {
          "internalType": "bool",
          "name": "",
          "type": "bool"
        }
      ],
      "stateMutability": "view",
      "type": "function"
    },
    {
      "inputs": [
        {
          "internalType": "string",
          "name": "team",
          "type": "string"
        }
      ],
      "name": "registerTeam",
      "outputs": [],
      "stateMutability": "nonpayable",
      "type": "function"
    },
    {
      "inputs": [],
      "name": "renounceOwnership",
      "outputs": [],
      "stateMutability": "nonpayable",
      "type": "function"
    },
    {
      "inputs": [
        {
          "internalType": "address",
          "name": "from",
          "type": "address"
        },
        {
          "internalType": "address",
          "name": "to",
          "type": "address"
        },
        {
          "internalType": "uint256[]",
          "name": "ids",
          "type": "uint256[]"
        },
        {
          "internalType": "uint256[]",
          "name": "amounts",
          "type": "uint256[]"
        },
        {
          "internalType": "bytes",
          "name": "data",
          "type": "bytes"
        }
      ],
      "name": "safeBatchTransferFrom",
      "outputs": [],
      "stateMutability": "nonpayable",
      "type": "function"
    },
    {
      "inputs": [
        {
          "internalType": "address",
          "name": "from",
          "type": "address"
        },
        {
          "internalType": "address",
          "name": "to",
          "type": "address"
        },
        {
          "internalType": "uint256",
          "name": "id",
          "type": "uint256"
        },
        {
          "internalType": "uint256",
          "name": "amount",
          "type": "uint256"
        },
        {
          "internalType": "bytes",
          "name": "data",
          "type": "bytes"
        }
      ],
      "name": "safeTransferFrom",
      "outputs": [],
      "stateMutability": "nonpayable",
      "type": "function"
    },
    {
      "inputs": [
        {
          "internalType": "address",
          "name": "",
          "type": "address"
        }
      ],
      "name": "scores",
      "outputs": [
        {
          "internalType": "uint256",
          "name": "",
          "type": "uint256"
        }
      ],
      "stateMutability": "view",
      "type": "function"
    },
    {
      "inputs": [
        {
          "internalType": "address",
          "name": "",
          "type": "address"
        }
      ],
      "name": "secondEntryCount",
      "outputs": [
        {
          "internalType": "uint256",
          "name": "",
          "type": "uint256"
        }
      ],
      "stateMutability": "view",
      "type": "function"
    },
    {
      "inputs": [
        {
          "internalType": "address",
          "name": "operator",
          "type": "address"
        },
        {
          "internalType": "bool",
          "name": "approved",
          "type": "bool"
        }
      ],
      "name": "setApprovalForAll",
      "outputs": [],
      "stateMutability": "nonpayable",
      "type": "function"
    },
    {
      "inputs": [
        {
          "internalType": "address",
          "name": "",
          "type": "address"
        }
      ],
      "name": "signers",
      "outputs": [
        {
          "internalType": "bool",
          "name": "",
          "type": "bool"
        }
      ],
      "stateMutability": "view",
      "type": "function"
    },
    {
      "inputs": [
        {
          "internalType": "uint256",
          "name": "",
          "type": "uint256"
        }
      ],
      "name": "solves",
      "outputs": [
        {
          "internalType": "uint256",
          "name": "",
          "type": "uint256"
        }
      ],
      "stateMutability": "view",
      "type": "function"
    },
    {
      "inputs": [],
      "name": "start",
      "outputs": [],
      "stateMutability": "nonpayable",
      "type": "function"
    },
    {
      "inputs": [],
      "name": "stop",
      "outputs": [],
      "stateMutability": "nonpayable",
      "type": "function"
    },
    {
      "inputs": [
        {
          "internalType": "bytes4",
          "name": "interfaceId",
          "type": "bytes4"
        }
      ],
      "name": "supportsInterface",
      "outputs": [
        {
          "internalType": "bool",
          "name": "",
          "type": "bool"
        }
      ],
      "stateMutability": "view",
      "type": "function"
    },
    {
      "inputs": [
        {
          "internalType": "uint256",
          "name": "",
          "type": "uint256"
        }
      ],
      "name": "teamAddresses",
      "outputs": [
        {
          "internalType": "address",
          "name": "",
          "type": "address"
        }
      ],
      "stateMutability": "view",
      "type": "function"
    },
    {
      "inputs": [
        {
          "internalType": "address",
          "name": "",
          "type": "address"
        }
      ],
      "name": "teams",
      "outputs": [
        {
          "internalType": "string",
          "name": "",
          "type": "string"
        }
      ],
      "stateMutability": "view",
      "type": "function"
    },
    {
      "inputs": [],
      "name": "template",
      "outputs": [
        {
          "internalType": "contract create2Challenge",
          "name": "",
          "type": "address"
        }
      ],
      "stateMutability": "view",
      "type": "function"
    },
    {
      "inputs": [],
      "name": "timeExtended",
      "outputs": [
        {
          "internalType": "bool",
          "name": "",
          "type": "bool"
        }
      ],
      "stateMutability": "view",
      "type": "function"
    },
    {
      "inputs": [
        {
          "internalType": "address",
          "name": "",
          "type": "address"
        }
      ],
      "name": "totallyLegitMapping",
      "outputs": [
        {
          "internalType": "uint256",
          "name": "",
          "type": "uint256"
        }
      ],
      "stateMutability": "view",
      "type": "function"
    },
    {
      "inputs": [
        {
          "internalType": "address",
          "name": "newOwner",
          "type": "address"
        }
      ],
      "name": "transferOwnership",
      "outputs": [],
      "stateMutability": "nonpayable",
      "type": "function"
    },
    {
      "inputs": [
        {
          "internalType": "uint256",
          "name": "",
          "type": "uint256"
        }
      ],
      "name": "uri",
      "outputs": [
        {
          "internalType": "string",
          "name": "",
          "type": "string"
        }
      ],
      "stateMutability": "view",
      "type": "function"
    },
    {
      "inputs": [
        {
          "internalType": "bytes32",
          "name": "",
          "type": "bytes32"
        }
      ],
      "name": "usedLeaves",
      "outputs": [
        {
          "internalType": "bool",
          "name": "",
          "type": "bool"
        }
      ],
      "stateMutability": "view",
      "type": "function"
    },
    {
      "inputs": [],
      "name": "weth",
      "outputs": [
        {
          "internalType": "address",
          "name": "",
          "type": "address"
        }
      ],
      "stateMutability": "view",
      "type": "function"
    }
  ],
  "bytecode": {
    "object": "0x60c06040526004805461ff001916905560006013553480156200002157600080fd5b5060405162005ef938038062005ef98339810160408190526200004491620002af565b8162000050336200020c565b6200005b816200025c565b5060005b60198111620000a657620000758160c8620003ad565b620000829060c8620003cf565b600082815260086020526040902055806200009d81620003eb565b9150506200005f565b5042601455604051620000b9906200026e565b604051809103906000f080158015620000d6573d6000803e3d6000fd5b50601280546001600160a01b0319166001600160a01b0392831617905581166080526040805160148082526102a08201909252600091602082016102808036833701905050905060005b601481101562000181576040805160208101839052016040516020818303038152906040528051906020012082828151811062000161576200016162000407565b6020908102919091010152806200017881620003eb565b91505062000120565b506040516317046b0160e11b815273__$c60b12d58dd7f461ff4845dd59be76adc9$__90632e08d60290620001bb9084906004016200041d565b602060405180830381865af4158015620001d9573d6000803e3d6000fd5b505050506040513d601f19601f82011682018060405250810190620001ff919062000463565b60a05250620005d8915050565b600080546001600160a01b038381166001600160a01b0319831681178455604051919092169283917f8be0079c531659141344cd1fd0a4f28419497f9722a3daafe3b4186f6b6457e09190a35050565b60036200026a82826200050c565b5050565b61013b8062005dbe83390190565b634e487b7160e01b600052604160045260246000fd5b80516001600160a01b0381168114620002aa57600080fd5b919050565b60008060408385031215620002c357600080fd5b82516001600160401b0380821115620002db57600080fd5b818501915085601f830112620002f057600080fd5b8151818111156200030557620003056200027c565b604051601f8201601f19908116603f011681019083821181831017156200033057620003306200027c565b816040528281526020935088848487010111156200034d57600080fd5b600091505b8282101562000371578482018401518183018501529083019062000352565b60008484830101528096505050506200038c81860162000292565b925050509250929050565b634e487b7160e01b600052601160045260246000fd5b6000816000190483118215151615620003ca57620003ca62000397565b500290565b80820180821115620003e557620003e562000397565b92915050565b60006001820162000400576200040062000397565b5060010190565b634e487b7160e01b600052603260045260246000fd5b6020808252825182820181905260009190848201906040850190845b81811015620004575783518352928401929184019160010162000439565b50909695505050505050565b6000602082840312156200047657600080fd5b5051919050565b600181811c908216806200049257607f821691505b602082108103620004b357634e487b7160e01b600052602260045260246000fd5b50919050565b601f8211156200050757600081815260208120601f850160051c81016020861015620004e25750805b601f850160051c820191505b818110156200050357828155600101620004ee565b5050505b505050565b81516001600160401b038111156200052857620005286200027c565b62000540816200053984546200047d565b84620004b9565b602080601f8311600181146200057857600084156200055f5750858301515b600019600386901b1c1916600185901b17855562000503565b600085815260208120601f198616915b82811015620005a95788860151825594840194600190910190840162000588565b5085821015620005c85787850151600019600388901b60f8161c191681555b5050505050600190811b01905550565b60805160a0516157ab620006136000396000818161053c0152611f480152600081816105ed01528181610e9c015261276701526157ab6000f3fe6080604052600436106103965760003560e01c8063920f5c73116101dc578063c191764f11610102578063d75203c3116100a0578063e985e9c51161006f578063e985e9c514610b35578063ed6a990414610b7e578063f242432a14610b9e578063f2fde38b14610bbe57600080fd5b8063d75203c314610ac1578063d7b7913b14610ae1578063db0fff3714610b01578063df2025dc14610b2057600080fd5b8063c28cb1d4116100dc578063c28cb1d414610a41578063c458324014610a54578063c78de83814610a74578063ca9eaf5914610a9457600080fd5b8063c191764f146109ec578063c1a8f2c614610a0c578063c27fc30514610a3957600080fd5b8063a60463e41161017a578063b33260a211610149578063b33260a21461096a578063bd8d97c01461098a578063be9a6555146109b7578063bf3724af146109cc57600080fd5b8063a60463e4146108f5578063aa91c62e14610915578063abb6ae8914610935578063b1d8dd561461094a57600080fd5b8063964ef96b116101b6578063964ef96b146108685780639799b4e714610888578063a22cb465146108b5578063a481b0e4146108d557600080fd5b8063920f5c731461082657806393d1758c1461082e578063957aa58c1461084e57600080fd5b806341dd1ef8116102c1578063736c0d5b1161025f57806383e9ff471161022e57806383e9ff471461079b5780638729e5c1146107c85780638b1fe8de146107e85780638da5cb5b1461080857600080fd5b8063736c0d5b146106fe57806376dd110f1461072e578063787f485a1461075b57806381e0f90c1461077b57600080fd5b806350a48d2e1161029b57806350a48d2e14610689578063604f7523146106a95780636f2ddd93146106c9578063715018a6146106e957600080fd5b806341dd1ef81461060f57806349b9dbe61461063c5780634e1273f41461065c57600080fd5b8063237b3bde116103395780632f4dc9da116103085780632f4dc9da1461055e5780633b5e60c21461057e5780633d056172146105ae5780633fc8cef3146105db57600080fd5b8063237b3bde146104b25780632419217e146104d25780632eb2c2d61461050a5780632eb4a7ab1461052a57600080fd5b80630c91cdbc116103755780630c91cdbc146104155780630e89341c14610450578063100a818c1461047d5780631625d7fe1461049d57600080fd5b8062fdd58e1461039b57806301ffc9a7146103ce57806307da68f5146103fe575b600080fd5b3480156103a757600080fd5b506103bb6103b636600461498e565b610bde565b6040519081526020015b60405180910390f35b3480156103da57600080fd5b506103ee6103e93660046149ce565b610c79565b60405190151581526020016103c5565b34801561040a57600080fd5b50610413610cc9565b005b34801561042157600080fd5b506103ee61043036600461498e565b600760209081526000928352604080842090915290825290205460ff1681565b34801561045c57600080fd5b5061047061046b3660046149eb565b610cdd565b6040516103c59190614a54565b34801561048957600080fd5b50610413610498366004614a67565b610d71565b3480156104a957600080fd5b506103bb610f63565b3480156104be57600080fd5b506104136104cd366004614a67565b611046565b3480156104de57600080fd5b506104f26104ed3660046149eb565b611216565b6040516001600160a01b0390911681526020016103c5565b34801561051657600080fd5b50610413610525366004614bd5565b611240565b34801561053657600080fd5b506103bb7f000000000000000000000000000000000000000000000000000000000000000081565b34801561056a57600080fd5b506104136105793660046149eb565b61128c565b34801561058a57600080fd5b506103ee6105993660046149eb565b600f6020526000908152604090205460ff1681565b3480156105ba57600080fd5b506103bb6105c93660046149eb565b600e6020526000908152604090205481565b3480156105e757600080fd5b506104f27f000000000000000000000000000000000000000000000000000000000000000081565b34801561061b57600080fd5b506103bb61062a366004614a67565b60096020526000908152604090205481565b34801561064857600080fd5b50610413610657366004614c7e565b611420565b34801561066857600080fd5b5061067c610677366004614cb1565b6115df565b6040516103c59190614db6565b34801561069557600080fd5b506104136106a4366004614a67565b611708565b3480156106b557600080fd5b506104136106c4366004614a67565b611837565b3480156106d557600080fd5b506012546104f2906001600160a01b031681565b3480156106f557600080fd5b5061041361196b565b34801561070a57600080fd5b506103ee610719366004614a67565b600d6020526000908152604090205460ff1681565b34801561073a57600080fd5b506103bb610749366004614a67565b60066020526000908152604090205481565b34801561076757600080fd5b50610413610776366004614dc9565b61197f565b34801561078757600080fd5b50610413610796366004614e05565b611ac4565b3480156107a757600080fd5b506103bb6107b6366004614a67565b600a6020526000908152604090205481565b3480156107d457600080fd5b506104136107e3366004614e27565b611c65565b3480156107f457600080fd5b50610413610803366004614e6f565b611d8e565b34801561081457600080fd5b506000546001600160a01b03166104f2565b610413611fc2565b34801561083a57600080fd5b50610413610849366004614a67565b612198565b34801561085a57600080fd5b506004546103ee9060ff1681565b34801561087457600080fd5b50610413610883366004614efa565b6122c7565b34801561089457600080fd5b506103bb6108a33660046149eb565b60086020526000908152604090205481565b3480156108c157600080fd5b506104136108d0366004614f79565b612421565b3480156108e157600080fd5b506104136108f0366004614dc9565b61242c565b34801561090157600080fd5b50610413610910366004614a67565b612632565b34801561092157600080fd5b50610413610930366004614fb0565b6127e7565b34801561094157600080fd5b5061041361293a565b34801561095657600080fd5b50610413610965366004614fcd565b612953565b34801561097657600080fd5b5061041361098536600461498e565b612b6f565b34801561099657600080fd5b506103bb6109a5366004614a67565b60106020526000908152604090205481565b3480156109c357600080fd5b50610413612cf6565b3480156109d857600080fd5b506104136109e73660046149eb565b612d0d565b3480156109f857600080fd5b50610413610a0736600461498e565b612eb2565b348015610a1857600080fd5b506103bb610a27366004614a67565b600b6020526000908152604090205481565b610413612ff4565b610413610a4f3660046149eb565b613143565b348015610a6057600080fd5b50610470610a6f366004614a67565b6133ce565b348015610a8057600080fd5b50610413610a8f366004615009565b613468565b348015610aa057600080fd5b506103bb610aaf366004614a67565b600c6020526000908152604090205481565b348015610acd57600080fd5b50610413610adc366004614e05565b613722565b348015610aed57600080fd5b50610413610afc3660046149eb565b6138c6565b348015610b0d57600080fd5b506004546103ee90610100900460ff1681565b348015610b2c57600080fd5b50610413613a19565b348015610b4157600080fd5b506103ee610b50366004614c7e565b6001600160a01b03918216600090815260026020908152604080832093909416825291909152205460ff1690565b348015610b8a57600080fd5b50610413610b99366004614a67565b613b71565b348015610baa57600080fd5b50610413610bb9366004615066565b613da4565b348015610bca57600080fd5b50610413610bd9366004614a67565b613de9565b60006001600160a01b038316610c4e5760405162461bcd60e51b815260206004820152602a60248201527f455243313135353a2061646472657373207a65726f206973206e6f742061207660448201526930b634b21037bbb732b960b11b60648201526084015b60405180910390fd5b5060008181526001602090815260408083206001600160a01b03861684529091529020545b92915050565b60006001600160e01b03198216636cdb3d1360e11b1480610caa57506001600160e01b031982166303a24d0760e21b145b80610c7357506301ffc9a760e01b6001600160e01b0319831614610c73565b610cd1613e5f565b6004805460ff19169055565b606060038054610cec906150ca565b80601f0160208091040260200160405190810160405280929190818152602001828054610d18906150ca565b8015610d655780601f10610d3a57610100808354040283529160200191610d65565b820191906000526020600020905b815481529060010190602001808311610d4857829003601f168201915b50505050509050919050565b60045460ff16610d935760405162461bcd60e51b8152600401610c4590615104565b3360009081526005602052604090208054610dad906150ca565b159050610dcc5760405162461bcd60e51b8152600401610c459061513b565b600454610100900460ff1615610e0e57601454610deb90612a30615188565b4210610e095760405162461bcd60e51b8152600401610c459061519b565b610e3b565b601454610e1d90611c20615188565b4210610e3b5760405162461bcd60e51b8152600401610c459061519b565b6001600160a01b0381166000908152600760209081526040808320601580855292529091205460ff1615610e815760405162461bcd60e51b8152600401610c45906151c5565b6040516370a0823160e01b8152336004820152633b9aca00907f00000000000000000000000000000000000000000000000000000000000000006001600160a01b0316906370a0823190602401602060405180830381865afa158015610eeb573d6000803e3d6000fd5b505050506040513d601f19601f82011682018060405250810190610f0f91906151fc565b11610f555760405162461bcd60e51b815260206004820152601660248201527562616c616e63652063616e6e6f74206265207a65726f60501b6044820152606401610c45565b610f5f8183613eb9565b5050565b60045460009060ff16610f885760405162461bcd60e51b8152600401610c4590615104565b3360009081526005602052604090208054610fa2906150ca565b159050610fc15760405162461bcd60e51b8152600401610c459061513b565b600454610100900460ff161561100357601454610fe090612a30615188565b4210610ffe5760405162461bcd60e51b8152600401610c459061519b565b611030565b60145461101290611c20615188565b42106110305760405162461bcd60e51b8152600401610c459061519b565b33301461103c57600080fd5b5063deadbeef5b90565b60045460ff166110685760405162461bcd60e51b8152600401610c4590615104565b3360009081526005602052604090208054611082906150ca565b1590506110a15760405162461bcd60e51b8152600401610c459061513b565b600454610100900460ff16156110e3576014546110c090612a30615188565b42106110de5760405162461bcd60e51b8152600401610c459061519b565b611110565b6014546110f290611c20615188565b42106111105760405162461bcd60e51b8152600401610c459061519b565b6001600160a01b0381166000908152600760209081526040808320601380855292529091205460ff16156111565760405162461bcd60e51b8152600401610c45906151c5565b6040516301ffc9a760e01b81526336372b0760e01b600482015233906301ffc9a790602401602060405180830381865afa158015611198573d6000803e3d6000fd5b505050506040513d601f19601f820116820180604052508101906111bc9190615215565b610f555760405162461bcd60e51b815260206004820152602560248201527f6d73672073656e64657220646f6573206e6f7420737570706f727420696e7465604482015264726661636560d81b6064820152608401610c45565b6011818154811061122657600080fd5b6000918252602090912001546001600160a01b0316905081565b6001600160a01b03851633148061125c575061125c8533610b50565b6112785760405162461bcd60e51b8152600401610c4590615232565b6112858585858585613fc1565b5050505050565b60045460ff166112ae5760405162461bcd60e51b8152600401610c4590615104565b33600090815260056020526040902080546112c8906150ca565b1590506112e75760405162461bcd60e51b8152600401610c459061513b565b600454610100900460ff16156113295760145461130690612a30615188565b42106113245760405162461bcd60e51b8152600401610c459061519b565b611356565b60145461133890611c20615188565b42106113565760405162461bcd60e51b8152600401610c459061519b565b336000908152600760209081526040808320600f80855292529091205460ff16156113935760405162461bcd60e51b8152600401610c45906151c5565b60408051446020820152016040516020818303038152906040528051906020012060001c82146114165760405162461bcd60e51b815260206004820152602860248201527f4469642049206d616b652074686973206368616c6c656e676520746f6f20646960448201526766666963756c743f60c01b6064820152608401610c45565b610f5f8133613eb9565b60045460ff166114425760405162461bcd60e51b8152600401610c4590615104565b336000908152600560205260409020805461145c906150ca565b15905061147b5760405162461bcd60e51b8152600401610c459061513b565b600454610100900460ff16156114bd5760145461149a90612a30615188565b42106114b85760405162461bcd60e51b8152600401610c459061519b565b6114ea565b6014546114cc90611c20615188565b42106114ea5760405162461bcd60e51b8152600401610c459061519b565b6001600160a01b0381166000908152600760209081526040808320601480855292529091205460ff16156115305760405162461bcd60e51b8152600401610c45906151c5565b6012546040805133602082015260009261156c926001600160a01b03909116910160405160208183030381529060405280519060200120614199565b9050806001600160a01b0316846001600160a01b0316146115cf5760405162461bcd60e51b815260206004820152601b60248201527f507265646963746564206164647265737320696e636f727265637400000000006044820152606401610c45565b6115d98284613eb9565b50505050565b606081518351146116445760405162461bcd60e51b815260206004820152602960248201527f455243313135353a206163636f756e747320616e6420696473206c656e677468604482015268040dad2e6dac2e8c6d60bb1b6064820152608401610c45565b600083516001600160401b0381111561165f5761165f614a82565b604051908082528060200260200182016040528015611688578160200160208202803683370190505b50905060005b8451811015611700576116d38582815181106116ac576116ac615281565b60200260200101518583815181106116c6576116c6615281565b6020026020010151610bde565b8282815181106116e5576116e5615281565b60209081029190910101526116f981615297565b905061168e565b509392505050565b60045460ff1661172a5760405162461bcd60e51b8152600401610c4590615104565b3360009081526005602052604090208054611744906150ca565b1590506117635760405162461bcd60e51b8152600401610c459061513b565b600454610100900460ff16156117a55760145461178290612a30615188565b42106117a05760405162461bcd60e51b8152600401610c459061519b565b6117d2565b6014546117b490611c20615188565b42106117d25760405162461bcd60e51b8152600401610c459061519b565b336000908152600760209081526040808320600480855292529091205460ff161561180f5760405162461bcd60e51b8152600401610c45906151c5565b6001600160a01b03821630146114165760405162461bcd60e51b8152600401610c45906152b0565b60045460ff166118595760405162461bcd60e51b8152600401610c4590615104565b3360009081526005602052604090208054611873906150ca565b1590506118925760405162461bcd60e51b8152600401610c459061513b565b600454610100900460ff16156118d4576014546118b190612a30615188565b42106118cf5760405162461bcd60e51b8152600401610c459061519b565b611901565b6014546118e390611c20615188565b42106119015760405162461bcd60e51b8152600401610c459061519b565b336000908152600760209081526040808320600680855292529091205460ff161561193e5760405162461bcd60e51b8152600401610c45906151c5565b6000546001600160a01b038381169116146114165760405162461bcd60e51b8152600401610c45906152b0565b611973613e5f565b61197d6000614239565b565b60045460ff166119a15760405162461bcd60e51b8152600401610c4590615104565b33600090815260056020526040902080546119bb906150ca565b1590506119da5760405162461bcd60e51b8152600401610c459061513b565b600454610100900460ff1615611a1c576014546119f990612a30615188565b4210611a175760405162461bcd60e51b8152600401610c459061519b565b611a49565b601454611a2b90611c20615188565b4210611a495760405162461bcd60e51b8152600401610c459061519b565b336000908152600760209081526040808320600980855292529091205460ff1615611a865760405162461bcd60e51b8152600401610c45906151c5565b6000356001600160e01b03191682604051602001611aa59291906152e7565b6040516020818303038152906040529150815160201461141657600080fd5b60045460ff16611ae65760405162461bcd60e51b8152600401610c4590615104565b3360009081526005602052604090208054611b00906150ca565b159050611b1f5760405162461bcd60e51b8152600401610c459061513b565b600454610100900460ff1615611b6157601454611b3e90612a30615188565b4210611b5c5760405162461bcd60e51b8152600401610c459061519b565b611b8e565b601454611b7090611c20615188565b4210611b8e5760405162461bcd60e51b8152600401610c459061519b565b336000908152600760209081526040808320600b80855292529091205460ff1615611bcb5760405162461bcd60e51b8152600401610c45906151c5565b600083138015611bdb5750600082135b611c315760405162461bcd60e51b815260206004820152602160248201527f4e756d62657273206d7573742062652067726561746572207468616e207a65726044820152606f60f81b6064820152608401610c45565b8282016009198112611c555760405162461bcd60e51b8152600401610c4590615318565b50611c608133613eb9565b505050565b60045460ff16611c875760405162461bcd60e51b8152600401610c4590615104565b3360009081526005602052604090208054611ca1906150ca565b159050611cc05760405162461bcd60e51b8152600401610c459061513b565b600454610100900460ff1615611d0257601454611cdf90612a30615188565b4210611cfd5760405162461bcd60e51b8152600401610c459061519b565b611d2f565b601454611d1190611c20615188565b4210611d2f5760405162461bcd60e51b8152600401610c459061519b565b336000908152600560205260409020611d4882826153aa565b5050601180546001810182556000919091527f31ecc21a745e3968a04e9570e4425bc18fa8019c68028196b546d1669c200c680180546001600160a01b03191633179055565b60045460ff16611db05760405162461bcd60e51b8152600401610c4590615104565b3360009081526005602052604090208054611dca906150ca565b159050611de95760405162461bcd60e51b8152600401610c459061513b565b600454610100900460ff1615611e2b57601454611e0890612a30615188565b4210611e265760405162461bcd60e51b8152600401610c459061519b565b611e58565b601454611e3a90611c20615188565b4210611e585760405162461bcd60e51b8152600401610c459061519b565b6001600160a01b0384166000908152600760209081526040808320601780855292529091205460ff1615611e9e5760405162461bcd60e51b8152600401610c45906151c5565b6000828152600f602052604090205460ff1615611f135760405162461bcd60e51b815260206004820152602d60248201527f50726f6f66206f662074686973206c6561642068617320616c7265616479206260448201526c195959881cdd589b5a5d1d1959609a1b6064820152608401610c45565b611f738484808060200260200160405190810160405280939291908181526020018383602002808284376000920191909152507f000000000000000000000000000000000000000000000000000000000000000092508691506142899050565b611fb85760405162461bcd60e51b815260206004820152601660248201527550726f6f6620636f756c64206e6f742076657269667960501b6044820152606401610c45565b6112858186613eb9565b60045460ff16611fe45760405162461bcd60e51b8152600401610c4590615104565b3360009081526005602052604090208054611ffe906150ca565b15905061201d5760405162461bcd60e51b8152600401610c459061513b565b600454610100900460ff161561205f5760145461203c90612a30615188565b421061205a5760405162461bcd60e51b8152600401610c459061519b565b61208c565b60145461206e90611c20615188565b421061208c5760405162461bcd60e51b8152600401610c459061519b565b336000908152600760209081526040808320600d80855292529091205460ff16156120c95760405162461bcd60e51b8152600401610c45906151c5565b33600090815260096020526040902054600a1061218b573360009081526009602052604081208054916120fb83615297565b909155505060405160009033908281818181865af19150503d806000811461213f576040519150601f19603f3d011682016040523d82523d6000602084013e612144565b606091505b50509050806121895760405162461bcd60e51b81526020600482015260116024820152701d985b1d59481cd95b990819985a5b1959607a1b6044820152606401610c45565b505b6121958133613eb9565b50565b60045460ff166121ba5760405162461bcd60e51b8152600401610c4590615104565b33600090815260056020526040902080546121d4906150ca565b1590506121f35760405162461bcd60e51b8152600401610c459061513b565b600454610100900460ff16156122355760145461221290612a30615188565b42106122305760405162461bcd60e51b8152600401610c459061519b565b612262565b60145461224490611c20615188565b42106122625760405162461bcd60e51b8152600401610c459061519b565b336000908152600760209081526040808320600580855292529091205460ff161561229f5760405162461bcd60e51b8152600401610c45906151c5565b6001600160a01b03821633146114165760405162461bcd60e51b8152600401610c45906152b0565b60045460ff166122e95760405162461bcd60e51b8152600401610c4590615104565b3360009081526005602052604090208054612303906150ca565b1590506123225760405162461bcd60e51b8152600401610c459061513b565b600454610100900460ff16156123645760145461234190612a30615188565b421061235f5760405162461bcd60e51b8152600401610c459061519b565b612391565b60145461237390611c20615188565b42106123915760405162461bcd60e51b8152600401610c459061519b565b336000908152600760209081526040808320600880855292529091205460ff16156123ce5760405162461bcd60e51b8152600401610c45906151c5565b602082146124175760405162461bcd60e51b8152602060048201526016602482015275696e76616c6964206c656e677468206f66206461746160501b6044820152606401610c45565b611c608133613eb9565b610f5f33838361429f565b60045460ff1661244e5760405162461bcd60e51b8152600401610c4590615104565b3360009081526005602052604090208054612468906150ca565b1590506124875760405162461bcd60e51b8152600401610c459061513b565b600454610100900460ff16156124c9576014546124a690612a30615188565b42106124c45760405162461bcd60e51b8152600401610c459061519b565b6124f6565b6014546124d890611c20615188565b42106124f65760405162461bcd60e51b8152600401610c459061519b565b336000908152600760209081526040808320600c80855292529091205460ff16156125335760405162461bcd60e51b8152600401610c45906151c5565b600080306001600160a01b03168460405161254e9190615469565b6000604051808303816000865af19150503d806000811461258b576040519150601f19603f3d011682016040523d82523d6000602084013e612590565b606091505b5091509150816125f15760405162461bcd60e51b815260206004820152602660248201527f696e7465726e616c2066756e6374696f6e2063616c6c20646964206e6f7420736044820152651d58d8d9595960d21b6064820152608401610c45565b6040805163deadbeef6020820152016040516020818303038152906040528051906020012081805190602001201461262857600080fd5b6115d98333613eb9565b60045460ff166126545760405162461bcd60e51b8152600401610c4590615104565b336000908152600560205260409020805461266e906150ca565b15905061268d5760405162461bcd60e51b8152600401610c459061513b565b600454610100900460ff16156126cf576014546126ac90612a30615188565b42106126ca5760405162461bcd60e51b8152600401610c459061519b565b6126fc565b6014546126de90611c20615188565b42106126fc5760405162461bcd60e51b8152600401610c459061519b565b6001600160a01b0381166000908152600760209081526040808320601680855292529091205460ff16156127425760405162461bcd60e51b8152600401610c45906151c5565b6040516323b872dd60e01b8152336004820152306024820152633b9aca0060448201527f00000000000000000000000000000000000000000000000000000000000000006001600160a01b0316906323b872dd906064016020604051808303816000875af11580156127b8573d6000803e3d6000fd5b505050506040513d601f19601f820116820180604052508101906127dc9190615215565b50610f5f8183613eb9565b60045460ff166128095760405162461bcd60e51b8152600401610c4590615104565b3360009081526005602052604090208054612823906150ca565b1590506128425760405162461bcd60e51b8152600401610c459061513b565b600454610100900460ff16156128845760145461286190612a30615188565b421061287f5760405162461bcd60e51b8152600401610c459061519b565b6128b1565b60145461289390611c20615188565b42106128b15760405162461bcd60e51b8152600401610c459061519b565b33600090815260076020908152604080832083805290915281205460ff16156128ec5760405162461bcd60e51b8152600401610c45906151c5565b81156114165760405162461bcd60e51b815260206004820152601760248201527f696e636f727265637420626f6f6c65616e2076616c75650000000000000000006044820152606401610c45565b612942613e5f565b6004805461ff001916610100179055565b60045460ff166129755760405162461bcd60e51b8152600401610c4590615104565b336000908152600560205260409020805461298f906150ca565b1590506129ae5760405162461bcd60e51b8152600401610c459061513b565b600454610100900460ff16156129f0576014546129cd90612a30615188565b42106129eb5760405162461bcd60e51b8152600401610c459061519b565b612a1d565b6014546129ff90611c20615188565b4210612a1d5760405162461bcd60e51b8152600401610c459061519b565b6001600160a01b0381166000908152600760209081526040808320601280855292529091205460ff1615612a635760405162461bcd60e51b8152600401610c45906151c5565b333b15801590612a735750323314155b612ab25760405162461bcd60e51b815260206004820152601060248201526f135d5cdd0818994818dbdb9d1c9858dd60821b6044820152606401610c45565b60008411612b185760405162461bcd60e51b815260206004820152602d60248201527f6d7573742070726f76696465206e6f6e2d7a65726f20616d6f756e74206f662060448201526c119391951cc81d1bc81b5a5b9d609a1b6064820152608401610c45565b60408051336020820152600091016040516020818303038152906040528051906020012060001c9050612b658482876040518060600160405280603081526020016157466030913961437f565b6112858284613eb9565b60045460ff16612b915760405162461bcd60e51b8152600401610c4590615104565b3360009081526005602052604090208054612bab906150ca565b159050612bca5760405162461bcd60e51b8152600401610c459061513b565b600454610100900460ff1615612c0c57601454612be990612a30615188565b4210612c075760405162461bcd60e51b8152600401610c459061519b565b612c39565b601454612c1b90611c20615188565b4210612c395760405162461bcd60e51b8152600401610c459061519b565b6001600160a01b0382166000908152600760209081526040808320601880855292529091205460ff1615612c7f5760405162461bcd60e51b8152600401610c45906151c5565b601860005260086020527f83ba890607818823e46eb1e5ed8f7282277ac60de8c863727688b48d92a8da6d54828114612cec5760405162461bcd60e51b815260206004820152600f60248201526e696e636f72726563742076616c756560881b6044820152606401610c45565b6115d98285613eb9565b612cfe613e5f565b6004805460ff19166001179055565b60045460ff16612d2f5760405162461bcd60e51b8152600401610c4590615104565b3360009081526005602052604090208054612d49906150ca565b159050612d685760405162461bcd60e51b8152600401610c459061513b565b600454610100900460ff1615612daa57601454612d8790612a30615188565b4210612da55760405162461bcd60e51b8152600401610c459061519b565b612dd7565b601454612db990611c20615188565b4210612dd75760405162461bcd60e51b8152600401610c459061519b565b336000908152600760209081526040808320600280855292529091205460ff1615612e145760405162461bcd60e51b8152600401610c45906151c5565b60008233604051602001612e4492919091825260601b6bffffffffffffffffffffffff1916602082015260340190565b60408051601f1981840301815291905280516020909101209050612e6960058261549b565b15612ea85760405162461bcd60e51b815260206004820152600f60248201526e19dd595cdcc81a5b98dbdc9c9958dd608a1b6044820152606401610c45565b611c608233613eb9565b60045460ff16612ed45760405162461bcd60e51b8152600401610c4590615104565b3360009081526005602052604090208054612eee906150ca565b159050612f0d5760405162461bcd60e51b8152600401610c459061513b565b600454610100900460ff1615612f4f57601454612f2c90612a30615188565b4210612f4a5760405162461bcd60e51b8152600401610c459061519b565b612f7c565b601454612f5e90611c20615188565b4210612f7c5760405162461bcd60e51b8152600401610c459061519b565b6001600160a01b0382166000908152600760209081526040808320601980855292529091205460ff1615612fc25760405162461bcd60e51b8152600401610c45906151c5565b6000838152600660205260409020805490839055829061145081018214612fe857600080fd5b5050611c608184613eb9565b60045460ff166130165760405162461bcd60e51b8152600401610c4590615104565b3360009081526005602052604090208054613030906150ca565b15905061304f5760405162461bcd60e51b8152600401610c459061513b565b600454610100900460ff16156130915760145461306e90612a30615188565b421061308c5760405162461bcd60e51b8152600401610c459061519b565b6130be565b6014546130a090611c20615188565b42106130be5760405162461bcd60e51b8152600401610c459061519b565b336000908152600760209081526040808320600180855292529091205460ff16156130fb5760405162461bcd60e51b8152600401610c45906151c5565b34600a1461218b5760405162461bcd60e51b8152602060048201526015602482015274496e76616c6964204d6573736167652056616c756560581b6044820152606401610c45565b60045460ff166131655760405162461bcd60e51b8152600401610c4590615104565b336000908152600560205260409020805461317f906150ca565b15905061319e5760405162461bcd60e51b8152600401610c459061513b565b600454610100900460ff16156131e0576014546131bd90612a30615188565b42106131db5760405162461bcd60e51b8152600401610c459061519b565b61320d565b6014546131ef90611c20615188565b421061320d5760405162461bcd60e51b8152600401610c459061519b565b336000908152600760209081526040808320600e80855292529091205460ff161561324a5760405162461bcd60e51b8152600401610c45906151c5565b336000908152600c602052604090205442116132b65760405162461bcd60e51b815260206004820152602560248201527f63616e6e6f7420706c6179206d756c7469706c652074696d657320696e2073616044820152640daca40e8f60db1b6064820152608401610c45565b604080514260208201526bffffffffffffffffffffffff193360601b169181019190915243605482015260009060740160408051601f1981840301815291905280516020909101209050600061330d60068361549b565b905080841461338057336000908152600b6020526040808220919091555162461bcd60e51b8152610c459060040160208082526025908201527f476f74746120737465616c2074696d652066726f6d20746865206661756c747960408201526410383630b760d91b606082015260800190565b336000908152600b6020526040812080549161339b83615297565b9091555050336000908152600c60209081526040808320429055600b9091529020546005036115d9576115d98333613eb9565b600560205260009081526040902080546133e7906150ca565b80601f0160208091040260200160405190810160405280929190818152602001828054613413906150ca565b80156134605780601f1061343557610100808354040283529160200191613460565b820191906000526020600020905b81548152906001019060200180831161344357829003601f168201915b505050505081565b60045460ff1661348a5760405162461bcd60e51b8152600401610c4590615104565b33600090815260056020526040902080546134a4906150ca565b1590506134c35760405162461bcd60e51b8152600401610c459061513b565b600454610100900460ff1615613505576014546134e290612a30615188565b42106135005760405162461bcd60e51b8152600401610c459061519b565b613532565b60145461351490611c20615188565b42106135325760405162461bcd60e51b8152600401610c459061519b565b6001600160a01b0383166000908152600760209081526040808320601180855292529091205460ff16156135785760405162461bcd60e51b8152600401610c45906151c5565b7f5c8aed31bcb9e9889970b4a7647843b7ab31487f575ba97a73c104aeacc5322360006135a58285614495565b90506001600160a01b0381166136095760405162461bcd60e51b8152602060048201526024808201527f6d75737420626520612076616c6964207369676e617475726520627920736f6d604482015263656f6e6560e01b6064820152608401610c45565b846001600160a01b0316816001600160a01b0316146136905760405162461bcd60e51b815260206004820152603960248201527f5369676e6572206f6620746865206d65737361676520646964206e6f74206d6160448201527f7463682061637475616c206d657373616765207369676e6572000000000000006064820152608401610c45565b6001600160a01b0381166000908152600d602052604090205460ff16156136ed5760405162461bcd60e51b81526020600482015260116024820152704e4f205245504c41592041545441434b5360781b6044820152606401610c45565b6001600160a01b0381166000908152600d60205260409020805460ff1916600117905561371a8387613eb9565b505050505050565b60045460ff166137445760405162461bcd60e51b8152600401610c4590615104565b336000908152600560205260409020805461375e906150ca565b15905061377d5760405162461bcd60e51b8152600401610c459061513b565b600454610100900460ff16156137bf5760145461379c90612a30615188565b42106137ba5760405162461bcd60e51b8152600401610c459061519b565b6137ec565b6014546137ce90611c20615188565b42106137ec5760405162461bcd60e51b8152600401610c459061519b565b336000908152600760209081526040808320600a80855292529091205460ff16156138295760405162461bcd60e51b8152600401610c45906151c5565b6000831280156138395750600082135b6138a35760405162461bcd60e51b815260206004820152603560248201527f6669727374206e756d626572206d757374206265206e6567617469766520616e6044820152746420326e64206e756d62657220706f73697469766560581b6064820152608401610c45565b818303600a8113611c555760405162461bcd60e51b8152600401610c4590615318565b60045460ff166138e85760405162461bcd60e51b8152600401610c4590615104565b3360009081526005602052604090208054613902906150ca565b1590506139215760405162461bcd60e51b8152600401610c459061513b565b600454610100900460ff16156139635760145461394090612a30615188565b421061395e5760405162461bcd60e51b8152600401610c459061519b565b613990565b60145461397290611c20615188565b42106139905760405162461bcd60e51b8152600401610c459061519b565b336000908152600760209081526040808320600380855292529091205464098765432183189060ff16156139d65760405162461bcd60e51b8152600401610c45906151c5565b8063beefdead14612ea85760405162461bcd60e51b815260206004820152600d60248201526c125b9d985b1a5908125b9c1d5d609a1b6044820152606401610c45565b60045460ff16613a3b5760405162461bcd60e51b8152600401610c4590615104565b3360009081526005602052604090208054613a55906150ca565b159050613a745760405162461bcd60e51b8152600401610c459061513b565b600454610100900460ff1615613ab657601454613a9390612a30615188565b4210613ab15760405162461bcd60e51b8152600401610c459061519b565b613ae3565b601454613ac590611c20615188565b4210613ae35760405162461bcd60e51b8152600401610c459061519b565b3360009081526007602081815260408084208385529091529091205460ff1615613b1f5760405162461bcd60e51b8152600401610c45906151c5565b626a584c5a1161218b5760405162461bcd60e51b815260206004820152601b60248201527f6e6f7420656e6f7567682067617320666f722066756e6374696f6e00000000006044820152606401610c45565b60045460ff16613b935760405162461bcd60e51b8152600401610c4590615104565b3360009081526005602052604090208054613bad906150ca565b159050613bcc5760405162461bcd60e51b8152600401610c459061513b565b600454610100900460ff1615613c0e57601454613beb90612a30615188565b4210613c095760405162461bcd60e51b8152600401610c459061519b565b613c3b565b601454613c1d90611c20615188565b4210613c3b5760405162461bcd60e51b8152600401610c459061519b565b6001600160a01b0381166000908152600760209081526040808320601080855292529091205460ff1615613c815760405162461bcd60e51b8152600401610c45906151c5565b333b15613cd05760405162461bcd60e51b815260206004820152601760248201527f4e6f20636f6e74726163747320746869732074696d65210000000000000000006044820152606401610c45565b6001600160a01b0382166000908152600a60205260408120549003610f55576001600160a01b0382166000908152600a60205260408120805491613d1383615297565b909155505060405160009033908281818181865af19150503d8060008114613d57576040519150601f19603f3d011682016040523d82523d6000602084013e613d5c565b606091505b50509050806127dc5760405162461bcd60e51b8152602060048201526014602482015273195e1d195c9b985b0818d85b1b0819985a5b195960621b6044820152606401610c45565b6001600160a01b038516331480613dc05750613dc08533610b50565b613ddc5760405162461bcd60e51b8152600401610c4590615232565b611285858585858561456c565b613df1613e5f565b6001600160a01b038116613e565760405162461bcd60e51b815260206004820152602660248201527f4f776e61626c653a206e6577206f776e657220697320746865207a65726f206160448201526564647265737360d01b6064820152608401610c45565b61219581614239565b6000546001600160a01b0316331461197d5760405162461bcd60e51b815260206004820181905260248201527f4f776e61626c653a2063616c6c6572206973206e6f7420746865206f776e65726044820152606401610c45565b6000828152600e60205260408120805491613ed383615297565b90915550506001600160a01b03811660008181526007602090815260408083208684528252808320805460ff191660011790556008825280832054938352600690915281208054909190613f28908490615188565b90915550506000828152600e60205260408120549003613f71576001600160a01b0381166000908152600660205260408120805460059290613f6b908490615188565b90915550505b60098210613f9e576000828152600860205260408120805460029290613f989084906154af565b90915550505b6000828152600e60205260408120805491613fb883615297565b91905055505050565b81518351146140235760405162461bcd60e51b815260206004820152602860248201527f455243313135353a2069647320616e6420616d6f756e7473206c656e677468206044820152670dad2e6dac2e8c6d60c31b6064820152608401610c45565b6001600160a01b0384166140495760405162461bcd60e51b8152600401610c45906154c3565b3360005b845181101561413357600085828151811061406a5761406a615281565b60200260200101519050600085838151811061408857614088615281565b60209081029190910181015160008481526001835260408082206001600160a01b038e1683529093529190912054909150818110156140d95760405162461bcd60e51b8152600401610c4590615508565b60008381526001602090815260408083206001600160a01b038e8116855292528083208585039055908b16825281208054849290614118908490615188565b925050819055505050508061412c90615297565b905061404d565b50846001600160a01b0316866001600160a01b0316826001600160a01b03167f4a39dc06d4c0dbc64b70af90fd698a233a518aa5d07e595d983b8c0526c8f7fb8787604051614183929190615552565b60405180910390a461371a81878787878761469a565b6000604051733d602d80600a3d3981f3363d3d373d3d3d363d7360601b81528360601b60148201526e5af43d82803e903d91602b57fd5bf360881b6028820152826037826000f59150506001600160a01b038116610c735760405162461bcd60e51b815260206004820152601760248201527f455243313136373a2063726561746532206661696c65640000000000000000006044820152606401610c45565b600080546001600160a01b038381166001600160a01b0319831681178455604051919092169283917f8be0079c531659141344cd1fd0a4f28419497f9722a3daafe3b4186f6b6457e09190a35050565b60008261429685846147f5565b14949350505050565b816001600160a01b0316836001600160a01b0316036143125760405162461bcd60e51b815260206004820152602960248201527f455243313135353a2073657474696e6720617070726f76616c20737461747573604482015268103337b91039b2b63360b91b6064820152608401610c45565b6001600160a01b03838116600081815260026020908152604080832094871680845294825291829020805460ff191686151590811790915591519182527f17307eab39ab6107e8899845ad3d59bd9653f200f220920489ca2b5937696c31910160405180910390a3505050565b6001600160a01b0384166143df5760405162461bcd60e51b815260206004820152602160248201527f455243313135353a206d696e7420746f20746865207a65726f206164647265736044820152607360f81b6064820152608401610c45565b3360006143eb8561483a565b905060006143f88561483a565b905060008681526001602090815260408083206001600160a01b038b1684529091528120805487929061442c908490615188565b909155505060408051878152602081018790526001600160a01b03808a1692600092918716917fc3d58168c5ae7397731d063d5bbf3d657854427343f4c083240f7aacaa2d0f62910160405180910390a461448c83600089898989614885565b50505050505050565b60008060008084516041146144b05760009350505050610c73565b50505060208201516040830151606084015160001a601b8110156144dc576144d9601b82615580565b90505b8060ff16601b141580156144f457508060ff16601c14155b156145055760009350505050610c73565b60408051600081526020810180835288905260ff831691810191909152606081018490526080810183905260019060a0016020604051602081039080840390855afa158015614558573d6000803e3d6000fd5b505050602060405103519350505050610c73565b6001600160a01b0384166145925760405162461bcd60e51b8152600401610c45906154c3565b33600061459e8561483a565b905060006145ab8561483a565b905060008681526001602090815260408083206001600160a01b038c168452909152902054858110156145f05760405162461bcd60e51b8152600401610c4590615508565b60008781526001602090815260408083206001600160a01b038d8116855292528083208985039055908a1682528120805488929061462f908490615188565b909155505060408051888152602081018890526001600160a01b03808b16928c821692918816917fc3d58168c5ae7397731d063d5bbf3d657854427343f4c083240f7aacaa2d0f62910160405180910390a461468f848a8a8a8a8a614885565b505050505050505050565b6001600160a01b0384163b1561371a5760405163bc197c8160e01b81526001600160a01b0385169063bc197c81906146de9089908990889088908890600401615599565b6020604051808303816000875af1925050508015614719575060408051601f3d908101601f19168201909252614716918101906155f7565b60015b6147c557614725615614565b806308c379a00361475e575061473961562f565b806147445750614760565b8060405162461bcd60e51b8152600401610c459190614a54565b505b60405162461bcd60e51b815260206004820152603460248201527f455243313135353a207472616e7366657220746f206e6f6e20455243313135356044820152732932b1b2b4bb32b91034b6b83632b6b2b73a32b960611b6064820152608401610c45565b6001600160e01b0319811663bc197c8160e01b1461448c5760405162461bcd60e51b8152600401610c45906156b8565b600081815b8451811015611700576148268286838151811061481957614819615281565b6020026020010151614940565b91508061483281615297565b9150506147fa565b6040805160018082528183019092526060916000919060208083019080368337019050509050828160008151811061487457614874615281565b602090810291909101015292915050565b6001600160a01b0384163b1561371a5760405163f23a6e6160e01b81526001600160a01b0385169063f23a6e61906148c99089908990889088908890600401615700565b6020604051808303816000875af1925050508015614904575060408051601f3d908101601f19168201909252614901918101906155f7565b60015b61491057614725615614565b6001600160e01b0319811663f23a6e6160e01b1461448c5760405162461bcd60e51b8152600401610c45906156b8565b600081831061495c57600082815260208490526040902061496b565b60008381526020839052604090205b9392505050565b80356001600160a01b038116811461498957600080fd5b919050565b600080604083850312156149a157600080fd5b6149aa83614972565b946020939093013593505050565b6001600160e01b03198116811461219557600080fd5b6000602082840312156149e057600080fd5b813561496b816149b8565b6000602082840312156149fd57600080fd5b5035919050565b60005b83811015614a1f578181015183820152602001614a07565b50506000910152565b60008151808452614a40816020860160208601614a04565b601f01601f19169290920160200192915050565b60208152600061496b6020830184614a28565b600060208284031215614a7957600080fd5b61496b82614972565b634e487b7160e01b600052604160045260246000fd5b601f8201601f191681016001600160401b0381118282101715614abd57614abd614a82565b6040525050565b60006001600160401b03821115614add57614add614a82565b5060051b60200190565b600082601f830112614af857600080fd5b81356020614b0582614ac4565b604051614b128282614a98565b83815260059390931b8501820192828101915086841115614b3257600080fd5b8286015b84811015614b4d5780358352918301918301614b36565b509695505050505050565b60006001600160401b03831115614b7157614b71614a82565b604051614b88601f8501601f191660200182614a98565b809150838152848484011115614b9d57600080fd5b83836020830137600060208583010152509392505050565b600082601f830112614bc657600080fd5b61496b83833560208501614b58565b600080600080600060a08688031215614bed57600080fd5b614bf686614972565b9450614c0460208701614972565b935060408601356001600160401b0380821115614c2057600080fd5b614c2c89838a01614ae7565b94506060880135915080821115614c4257600080fd5b614c4e89838a01614ae7565b93506080880135915080821115614c6457600080fd5b50614c7188828901614bb5565b9150509295509295909350565b60008060408385031215614c9157600080fd5b614c9a83614972565b9150614ca860208401614972565b90509250929050565b60008060408385031215614cc457600080fd5b82356001600160401b0380821115614cdb57600080fd5b818501915085601f830112614cef57600080fd5b81356020614cfc82614ac4565b604051614d098282614a98565b83815260059390931b8501820192828101915089841115614d2957600080fd5b948201945b83861015614d4e57614d3f86614972565b82529482019490820190614d2e565b96505086013592505080821115614d6457600080fd5b50614d7185828601614ae7565b9150509250929050565b600081518084526020808501945080840160005b83811015614dab57815187529582019590820190600101614d8f565b509495945050505050565b60208152600061496b6020830184614d7b565b600060208284031215614ddb57600080fd5b81356001600160401b03811115614df157600080fd5b614dfd84828501614bb5565b949350505050565b60008060408385031215614e1857600080fd5b50508035926020909101359150565b600060208284031215614e3957600080fd5b81356001600160401b03811115614e4f57600080fd5b8201601f81018413614e6057600080fd5b614dfd84823560208401614b58565b60008060008060608587031215614e8557600080fd5b614e8e85614972565b935060208501356001600160401b0380821115614eaa57600080fd5b818701915087601f830112614ebe57600080fd5b813581811115614ecd57600080fd5b8860208260051b8501011115614ee257600080fd5b95986020929092019750949560400135945092505050565b60008060208385031215614f0d57600080fd5b82356001600160401b0380821115614f2457600080fd5b818501915085601f830112614f3857600080fd5b813581811115614f4757600080fd5b866020828501011115614f5957600080fd5b60209290920196919550909350505050565b801515811461219557600080fd5b60008060408385031215614f8c57600080fd5b614f9583614972565b91506020830135614fa581614f6b565b809150509250929050565b600060208284031215614fc257600080fd5b813561496b81614f6b565b600080600060608486031215614fe257600080fd5b83359250614ff260208501614972565b915061500060408501614972565b90509250925092565b60008060006060848603121561501e57600080fd5b61502784614972565b925061503560208501614972565b915060408401356001600160401b0381111561505057600080fd5b61505c86828701614bb5565b9150509250925092565b600080600080600060a0868803121561507e57600080fd5b61508786614972565b945061509560208701614972565b9350604086013592506060860135915060808601356001600160401b038111156150be57600080fd5b614c7188828901614bb5565b600181811c908216806150de57607f821691505b6020821081036150fe57634e487b7160e01b600052602260045260246000fd5b50919050565b6020808252601b908201527f4861636b6174686f6e206973206e6f7420696e2073657373696f6e0000000000604082015260600190565b60208082526017908201527f416c72656164792072656769737465726564207465616d000000000000000000604082015260600190565b634e487b7160e01b600052601160045260246000fd5b80820180821115610c7357610c73615172565b60208082526010908201526f151a5b59481a185cc8195e1c1a5c995960821b604082015260600190565b6020808252601f908201527f416c726561647920636f6d706c6574656420746869732066756e6374696f6e00604082015260600190565b60006020828403121561520e57600080fd5b5051919050565b60006020828403121561522757600080fd5b815161496b81614f6b565b6020808252602f908201527f455243313135353a2063616c6c6572206973206e6f7420746f6b656e206f776e60408201526e195c881b9bdc88185c1c1c9bdd9959608a1b606082015260800190565b634e487b7160e01b600052603260045260246000fd5b6000600182016152a9576152a9615172565b5060010190565b6020808252601c908201527f696e636f727265637420616464726573732e2074727920616761696e00000000604082015260600190565b6001600160e01b031983168152815160009061530a816004850160208701614a04565b919091016004019392505050565b6020808252602c908201527f446966666572656e6365206f66207468652074776f206d757374206265206d6f60408201526b7265207468616e207a65726f60a01b606082015260800190565b601f821115611c6057600081815260208120601f850160051c8101602086101561538b5750805b601f850160051c820191505b8181101561371a57828155600101615397565b81516001600160401b038111156153c3576153c3614a82565b6153d7816153d184546150ca565b84615364565b602080601f83116001811461540c57600084156153f45750858301515b600019600386901b1c1916600185901b17855561371a565b600085815260208120601f198616915b8281101561543b5788860151825594840194600190910190840161541c565b50858210156154595787850151600019600388901b60f8161c191681555b5050505050600190811b01905550565b6000825161547b818460208701614a04565b9190910192915050565b634e487b7160e01b600052601260045260246000fd5b6000826154aa576154aa615485565b500690565b6000826154be576154be615485565b500490565b60208082526025908201527f455243313135353a207472616e7366657220746f20746865207a65726f206164604082015264647265737360d81b606082015260800190565b6020808252602a908201527f455243313135353a20696e73756666696369656e742062616c616e636520666f60408201526939103a3930b739b332b960b11b606082015260800190565b6040815260006155656040830185614d7b565b82810360208401526155778185614d7b565b95945050505050565b60ff8181168382160190811115610c7357610c73615172565b6001600160a01b0386811682528516602082015260a0604082018190526000906155c590830186614d7b565b82810360608401526155d78186614d7b565b905082810360808401526155eb8185614a28565b98975050505050505050565b60006020828403121561560957600080fd5b815161496b816149b8565b600060033d11156110435760046000803e5060005160e01c90565b600060443d101561563d5790565b6040516003193d81016004833e81513d6001600160401b03816024840111818411171561566c57505050505090565b82850191508151818111156156845750505050505090565b843d870101602082850101111561569e5750505050505090565b6156ad60208286010187614a98565b509095945050505050565b60208082526028908201527f455243313135353a204552433131353552656365697665722072656a656374656040820152676420746f6b656e7360c01b606082015260800190565b6001600160a01b03868116825285166020820152604081018490526060810183905260a06080820181905260009061573a90830184614a28565b97965050505050505056fe736574207468652067656172736869667420666f722074686520686967682067656172206f6620796f757220736f756ca2646970667358221220f45cf68b3bebffcd847b3fd289cee92db4a63632085b738ae6ceb4b2a768768164736f6c63430008100033608060405234801561001057600080fd5b5061011b806100206000396000f3fe6080604052348015600f57600080fd5b506004361060285760003560e01c8063d1f5d67014602d575b600080fd5b60336047565b604051603e91906063565b60405180910390f35b6040518060600160405280603681526020016100b06036913981565b600060208083528351808285015260005b81811015608e578581018301518582016040015282016074565b506000604082860101526040601f19601f830116850101925050509291505056fe62657420796f752063616e2774206775657373206d792061646472657373206265666f726520696d206576656e206465706c6f796564a26469706673582212204434dbfae94e675549525dd26afdfef99bdde2927dbabc8acb03357e283916d564736f6c63430008100033",
    "linkReferences": {
      "contracts/MerkleTree.sol": {
        "merkleTree": [
          {
            "start": 401,
            "length": 20
          }
        ]
      }
    }
  },
  "methodIdentifiers": {
    "balanceOf(address,uint256)": "00fdd58e",
    "balanceOfBatch(address[],uint256[])": "4e1273f4",
    "diceRollLastWin(address)": "ca9eaf59",
    "diceRollWins(address)": "c1a8f2c6",
    "entryCount(address)": "41dd1ef8",
    "extendTime()": "abb6ae89",
    "f0(bool)": "aa91c62e",
    "f1()": "c27fc305",
    "f10(int256,int256)": "d75203c3",
    "f11(int256,int256)": "81e0f90c",
    "f12(bytes)": "a481b0e4",
    "f13()": "920f5c73",
    "f14(uint256)": "c28cb1d4",
    "f15(uint256)": "2f4dc9da",
    "f16(address)": "ed6a9904",
    "f17(address,address,bytes)": "c78de838",
    "f18(uint256,address,address)": "b1d8dd56",
    "f19(address)": "237b3bde",
    "f2(uint256)": "bf3724af",
    "f20(address,address)": "49b9dbe6",
    "f21(address)": "100a818c",
    "f22(address)": "a60463e4",
    "f23(address,bytes32[],bytes32)": "8b1fe8de",
    "f24(address,uint256)": "b33260a2",
    "f25(address,uint256)": "c191764f",
    "f3(uint256)": "d7b7913b",
    "f4(address)": "50a48d2e",
    "f5(address)": "93d1758c",
    "f6(address)": "604f7523",
    "f7()": "df2025dc",
    "f8(bytes)": "964ef96b",
    "f9(bytes)": "787f485a",
    "internalChallengeHook()": "1625d7fe",
    "isApprovedForAll(address,address)": "e985e9c5",
    "live()": "957aa58c",
    "merkleRoot()": "2eb4a7ab",
    "owner()": "8da5cb5b",
    "points(uint256)": "9799b4e7",
    "progress(address,uint256)": "0c91cdbc",
    "registerTeam(string)": "8729e5c1",
    "renounceOwnership()": "715018a6",
    "safeBatchTransferFrom(address,address,uint256[],uint256[],bytes)": "2eb2c2d6",
    "safeTransferFrom(address,address,uint256,uint256,bytes)": "f242432a",
    "scores(address)": "76dd110f",
    "secondEntryCount(address)": "83e9ff47",
    "setApprovalForAll(address,bool)": "a22cb465",
    "signers(address)": "736c0d5b",
    "solves(uint256)": "3d056172",
    "start()": "be9a6555",
    "stop()": "07da68f5",
    "supportsInterface(bytes4)": "01ffc9a7",
    "teamAddresses(uint256)": "2419217e",
    "teams(address)": "c4583240",
    "template()": "6f2ddd93",
    "timeExtended()": "db0fff37",
    "totallyLegitMapping(address)": "bd8d97c0",
    "transferOwnership(address)": "f2fde38b",
    "uri(uint256)": "0e89341c",
    "usedLeaves(bytes32)": "3b5e60c2",
    "weth()": "3fc8cef3"
  },
  "id": 0
}