{
  "abi": [
    {
      "inputs": [
        {
          "internalType": "string",
          "name": "uri",
          "type": "string"
        },
        {
          "internalType": "address",
          "name": "_weth",
          "type": "address"
        }
      ],
      "stateMutability": "nonpayable",
      "type": "constructor"
    },
    {
      "inputs": [],
      "name": "getBetterAtAssemblyBro",
      "type": "error"
    },
    {
      "anonymous": false,
      "inputs": [
        {
          "indexed": true,
          "internalType": "address",
          "name": "account",
          "type": "address"
        },
        {
          "indexed": true,
          "internalType": "address",
          "name": "operator",
          "type": "address"
        },
        {
          "indexed": false,
          "internalType": "bool",
          "name": "approved",
          "type": "bool"
        }
      ],
      "name": "ApprovalForAll",
      "type": "event"
    },
    {
      "anonymous": false,
      "inputs": [
        {
          "indexed": true,
          "internalType": "address",
          "name": "previousOwner",
          "type": "address"
        },
        {
          "indexed": true,
          "internalType": "address",
          "name": "newOwner",
          "type": "address"
        }
      ],
      "name": "OwnershipTransferred",
      "type": "event"
    },
    {
      "anonymous": false,
      "inputs": [
        {
          "indexed": true,
          "internalType": "address",
          "name": "operator",
          "type": "address"
        },
        {
          "indexed": true,
          "internalType": "address",
          "name": "from",
          "type": "address"
        },
        {
          "indexed": true,
          "internalType": "address",
          "name": "to",
          "type": "address"
        },
        {
          "indexed": false,
          "internalType": "uint256[]",
          "name": "ids",
          "type": "uint256[]"
        },
        {
          "indexed": false,
          "internalType": "uint256[]",
          "name": "values",
          "type": "uint256[]"
        }
      ],
      "name": "TransferBatch",
      "type": "event"
    },
    {
      "anonymous": false,
      "inputs": [
        {
          "indexed": true,
          "internalType": "address",
          "name": "operator",
          "type": "address"
        },
        {
          "indexed": true,
          "internalType": "address",
          "name": "from",
          "type": "address"
        },
        {
          "indexed": true,
          "internalType": "address",
          "name": "to",
          "type": "address"
        },
        {
          "indexed": false,
          "internalType": "uint256",
          "name": "id",
          "type": "uint256"
        },
        {
          "indexed": false,
          "internalType": "uint256",
          "name": "value",
          "type": "uint256"
        }
      ],
      "name": "TransferSingle",
      "type": "event"
    },
    {
      "anonymous": false,
      "inputs": [
        {
          "indexed": false,
          "internalType": "string",
          "name": "value",
          "type": "string"
        },
        {
          "indexed": true,
          "internalType": "uint256",
          "name": "id",
          "type": "uint256"
        }
      ],
      "name": "URI",
      "type": "event"
    },
    {
      "inputs": [
        {
          "internalType": "address",
          "name": "account",
          "type": "address"
        },
        {
          "internalType": "uint256",
          "name": "id",
          "type": "uint256"
        }
      ],
      "name": "balanceOf",
      "outputs": [
        {
          "internalType": "uint256",
          "name": "",
          "type": "uint256"
        }
      ],
      "stateMutability": "view",
      "type": "function"
    },
    {
      "inputs": [
        {
          "internalType": "address[]",
          "name": "accounts",
          "type": "address[]"
        },
        {
          "internalType": "uint256[]",
          "name": "ids",
          "type": "uint256[]"
        }
      ],
      "name": "balanceOfBatch",
      "outputs": [
        {
          "internalType": "uint256[]",
          "name": "",
          "type": "uint256[]"
        }
      ],
      "stateMutability": "view",
      "type": "function"
    },
    {
      "inputs": [
        {
          "internalType": "address",
          "name": "",
          "type": "address"
        }
      ],
      "name": "diceRollLastWin",
      "outputs": [
        {
          "internalType": "uint256",
          "name": "",
          "type": "uint256"
        }
      ],
      "stateMutability": "view",
      "type": "function"
    },
    {
      "inputs": [
        {
          "internalType": "address",
          "name": "",
          "type": "address"
        }
      ],
      "name": "diceRollWins",
      "outputs": [
        {
          "internalType": "uint256",
          "name": "",
          "type": "uint256"
        }
      ],
      "stateMutability": "view",
      "type": "function"
    },
    {
      "inputs": [
        {
          "internalType": "address",
          "name": "",
          "type": "address"
        }
      ],
      "name": "entryCount",
      "outputs": [
        {
          "internalType": "uint256",
          "name": "",
          "type": "uint256"
        }
      ],
      "stateMutability": "view",
      "type": "function"
    },
    {
      "inputs": [],
      "name": "extendTime",
      "outputs": [],
      "stateMutability": "nonpayable",
      "type": "function"
    },
    {
      "inputs": [
        {
          "internalType": "bool",
          "name": "val",
          "type": "bool"
        }
      ],
      "name": "f0",
      "outputs": [],
      "stateMutability": "nonpayable",
      "type": "function"
    },
    {
      "inputs": [],
      "name": "f1",
      "outputs": [],
      "stateMutability": "payable",
      "type": "function"
    },
    {
      "inputs": [
        {
          "internalType": "int256",
          "name": "num1",
          "type": "int256"
        },
        {
          "internalType": "int256",
          "name": "num2",
          "type": "int256"
        }
      ],
      "name": "f10",
      "outputs": [],
      "stateMutability": "nonpayable",
      "type": "function"
    },
    {
      "inputs": [
        {
          "internalType": "int256",
          "name": "num1",
          "type": "int256"
        },
        {
          "internalType": "int256",
          "name": "num2",
          "type": "int256"
        }
      ],
      "name": "f11",
      "outputs": [],
      "stateMutability": "nonpayable",
      "type": "function"
    },
    {
      "inputs": [
        {
          "internalType": "bytes",
          "name": "data",
          "type": "bytes"
        }
      ],
      "name": "f12",
      "outputs": [],
      "stateMutability": "nonpayable",
      "type": "function"
    },
    {
      "inputs": [],
      "name": "f13",
      "outputs": [],
      "stateMutability": "payable",
      "type": "function"
    },
    {
      "inputs": [
        {
          "internalType": "uint256",
          "name": "diceRoll",
          "type": "uint256"
        }
      ],
      "name": "f14",
      "outputs": [],
      "stateMutability": "payable",
      "type": "function"
    },
    {
      "inputs": [
        {
          "internalType": "uint256",
          "name": "difficulty",
          "type": "uint256"
        }
      ],
      "name": "f15",
      "outputs": [],
      "stateMutability": "nonpayable",
      "type": "function"
    },
    {
      "inputs": [
        {
          "internalType": "address",
          "name": "team",
          "type": "address"
        }
      ],
      "name": "f16",
      "outputs": [],
      "stateMutability": "nonpayable",
      "type": "function"
    },
    {
      "inputs": [
        {
          "internalType": "address",
          "name": "team",
          "type": "address"
        },
        {
          "internalType": "address",
          "name": "expectedSigner",
          "type": "address"
        },
        {
          "internalType": "bytes",
          "name": "signature",
          "type": "bytes"
        }
      ],
      "name": "f17",
      "outputs": [],
      "stateMutability": "nonpayable",
      "type": "function"
    },
    {
      "inputs": [
        {
          "internalType": "uint256",
          "name": "amount",
          "type": "uint256"
        },
        {
          "internalType": "address",
          "name": "dest",
          "type": "address"
        },
        {
          "internalType": "address",
          "name": "team",
          "type": "address"
        }
      ],
      "name": "f18",
      "outputs": [],
      "stateMutability": "nonpayable",
      "type": "function"
    },
    {
      "inputs": [
        {
          "internalType": "address",
          "name": "team",
          "type": "address"
        }
      ],
      "name": "f19",
      "outputs": [],
      "stateMutability": "nonpayable",
      "type": "function"
    },
    {
      "inputs": [
        {
          "internalType": "uint256",
          "name": "val",
          "type": "uint256"
        }
      ],
      "name": "f2",
      "outputs": [],
      "stateMutability": "nonpayable",
      "type": "function"
    },
    {
      "inputs": [
        {
          "internalType": "address",
          "name": "newContract",
          "type": "address"
        },
        {
          "internalType": "address",
          "name": "team",
          "type": "address"
        }
      ],
      "name": "f20",
      "outputs": [],
      "stateMutability": "nonpayable",
      "type": "function"
    },
    {
      "inputs": [
        {
          "internalType": "address",
          "name": "team",
          "type": "address"
        }
      ],
      "name": "f21",
      "outputs": [],
      "stateMutability": "nonpayable",
      "type": "function"
    },
    {
      "inputs": [
        {
          "internalType": "address",
          "name": "team",
          "type": "address"
        }
      ],
      "name": "f22",
      "outputs": [],
      "stateMutability": "nonpayable",
      "type": "function"
    },
    {
      "inputs": [
        {
          "internalType": "address",
          "name": "team",
          "type": "address"
        },
        {
          "internalType": "bytes32[]",
          "name": "proof",
          "type": "bytes32[]"
        },
        {
          "internalType": "bytes32",
          "name": "leaf",
          "type": "bytes32"
        }
      ],
      "name": "f23",
      "outputs": [],
      "stateMutability": "nonpayable",
      "type": "function"
    },
    {
      "inputs": [
        {
          "internalType": "address",
          "name": "team",
          "type": "address"
        },
        {
          "internalType": "uint256",
          "name": "value",
          "type": "uint256"
        }
      ],
      "name": "f24",
      "outputs": [],
      "stateMutability": "nonpayable",
      "type": "function"
    },
    {
      "inputs": [
        {
          "internalType": "address",
          "name": "team",
          "type": "address"
        },
        {
          "internalType": "uint256",
          "name": "value",
          "type": "uint256"
        }
      ],
      "name": "f25",
      "outputs": [],
      "stateMutability": "nonpayable",
      "type": "function"
    },
    {
      "inputs": [
        {
          "internalType": "address",
          "name": "team",
          "type": "address"
        },
        {
          "internalType": "bytes",
          "name": "data",
          "type": "bytes"
        },
        {
          "internalType": "bytes32",
          "name": "hashSlingingSlasher",
          "type": "bytes32"
        }
      ],
      "name": "f26",
      "outputs": [],
      "stateMutability": "nonpayable",
      "type": "function"
    },
    {
      "inputs": [
        {
          "internalType": "uint256",
          "name": "data",
          "type": "uint256"
        }
      ],
      "name": "f3",
      "outputs": [],
      "stateMutability": "nonpayable",
      "type": "function"
    },
    {
      "inputs": [
        {
          "internalType": "address",
          "name": "destAddr",
          "type": "address"
        }
      ],
      "name": "f4",
      "outputs": [],
      "stateMutability": "nonpayable",
      "type": "function"
    },
    {
      "inputs": [
        {
          "internalType": "address",
          "name": "destAddr",
          "type": "address"
        }
      ],
      "name": "f5",
      "outputs": [],
      "stateMutability": "nonpayable",
      "type": "function"
    },
    {
      "inputs": [
        {
          "internalType": "address",
          "name": "destAddr",
          "type": "address"
        }
      ],
      "name": "f6",
      "outputs": [],
      "stateMutability": "nonpayable",
      "type": "function"
    },
    {
      "inputs": [],
      "name": "f7",
      "outputs": [],
      "stateMutability": "nonpayable",
      "type": "function"
    },
    {
      "inputs": [
        {
          "internalType": "bytes",
          "name": "data",
          "type": "bytes"
        }
      ],
      "name": "f8",
      "outputs": [],
      "stateMutability": "nonpayable",
      "type": "function"
    },
    {
      "inputs": [
        {
          "internalType": "bytes",
          "name": "data",
          "type": "bytes"
        }
      ],
      "name": "f9",
      "outputs": [],
      "stateMutability": "nonpayable",
      "type": "function"
    },
    {
      "inputs": [],
      "name": "internalChallengeHook",
      "outputs": [
        {
          "internalType": "uint256",
          "name": "",
          "type": "uint256"
        }
      ],
      "stateMutability": "view",
      "type": "function"
    },
    {
      "inputs": [
        {
          "internalType": "address",
          "name": "account",
          "type": "address"
        },
        {
          "internalType": "address",
          "name": "operator",
          "type": "address"
        }
      ],
      "name": "isApprovedForAll",
      "outputs": [
        {
          "internalType": "bool",
          "name": "",
          "type": "bool"
        }
      ],
      "stateMutability": "view",
      "type": "function"
    },
    {
      "inputs": [],
      "name": "live",
      "outputs": [
        {
          "internalType": "bool",
          "name": "",
          "type": "bool"
        }
      ],
      "stateMutability": "view",
      "type": "function"
    },
    {
      "inputs": [],
      "name": "merkleRoot",
      "outputs": [
        {
          "internalType": "bytes32",
          "name": "",
          "type": "bytes32"
        }
      ],
      "stateMutability": "view",
      "type": "function"
    },
    {
      "inputs": [],
      "name": "owner",
      "outputs": [
        {
          "internalType": "address",
          "name": "",
          "type": "address"
        }
      ],
      "stateMutability": "view",
      "type": "function"
    },
    {
      "inputs": [
        {
          "internalType": "uint256",
          "name": "",
          "type": "uint256"
        }
      ],
      "name": "points",
      "outputs": [
        {
          "internalType": "uint256",
          "name": "",
          "type": "uint256"
        }
      ],
      "stateMutability": "view",
      "type": "function"
    },
    {
      "inputs": [
        {
          "internalType": "address",
          "name": "",
          "type": "address"
        },
        {
          "internalType": "uint256",
          "name": "",
          "type": "uint256"
        }
      ],
      "name": "progress",
      "outputs": [
        {
          "internalType": "bool",
          "name": "",
          "type": "bool"
        }
      ],
      "stateMutability": "view",
      "type": "function"
    },
    {
      "inputs": [
        {
          "internalType": "string",
          "name": "team",
          "type": "string"
        }
      ],
      "name": "registerTeam",
      "outputs": [],
      "stateMutability": "nonpayable",
      "type": "function"
    },
    {
      "inputs": [],
      "name": "renounceOwnership",
      "outputs": [],
      "stateMutability": "nonpayable",
      "type": "function"
    },
    {
      "inputs": [
        {
          "internalType": "address",
          "name": "from",
          "type": "address"
        },
        {
          "internalType": "address",
          "name": "to",
          "type": "address"
        },
        {
          "internalType": "uint256[]",
          "name": "ids",
          "type": "uint256[]"
        },
        {
          "internalType": "uint256[]",
          "name": "amounts",
          "type": "uint256[]"
        },
        {
          "internalType": "bytes",
          "name": "data",
          "type": "bytes"
        }
      ],
      "name": "safeBatchTransferFrom",
      "outputs": [],
      "stateMutability": "nonpayable",
      "type": "function"
    },
    {
      "inputs": [
        {
          "internalType": "address",
          "name": "from",
          "type": "address"
        },
        {
          "internalType": "address",
          "name": "to",
          "type": "address"
        },
        {
          "internalType": "uint256",
          "name": "id",
          "type": "uint256"
        },
        {
          "internalType": "uint256",
          "name": "amount",
          "type": "uint256"
        },
        {
          "internalType": "bytes",
          "name": "data",
          "type": "bytes"
        }
      ],
      "name": "safeTransferFrom",
      "outputs": [],
      "stateMutability": "nonpayable",
      "type": "function"
    },
    {
      "inputs": [
        {
          "internalType": "address",
          "name": "",
          "type": "address"
        }
      ],
      "name": "scores",
      "outputs": [
        {
          "internalType": "uint256",
          "name": "",
          "type": "uint256"
        }
      ],
      "stateMutability": "view",
      "type": "function"
    },
    {
      "inputs": [
        {
          "internalType": "address",
          "name": "",
          "type": "address"
        }
      ],
      "name": "secondEntryCount",
      "outputs": [
        {
          "internalType": "uint256",
          "name": "",
          "type": "uint256"
        }
      ],
      "stateMutability": "view",
      "type": "function"
    },
    {
      "inputs": [
        {
          "internalType": "address",
          "name": "operator",
          "type": "address"
        },
        {
          "internalType": "bool",
          "name": "approved",
          "type": "bool"
        }
      ],
      "name": "setApprovalForAll",
      "outputs": [],
      "stateMutability": "nonpayable",
      "type": "function"
    },
    {
      "inputs": [
        {
          "internalType": "address",
          "name": "",
          "type": "address"
        }
      ],
      "name": "signers",
      "outputs": [
        {
          "internalType": "bool",
          "name": "",
          "type": "bool"
        }
      ],
      "stateMutability": "view",
      "type": "function"
    },
    {
      "inputs": [
        {
          "internalType": "uint256",
          "name": "",
          "type": "uint256"
        }
      ],
      "name": "solves",
      "outputs": [
        {
          "internalType": "uint256",
          "name": "",
          "type": "uint256"
        }
      ],
      "stateMutability": "view",
      "type": "function"
    },
    {
      "inputs": [],
      "name": "start",
      "outputs": [],
      "stateMutability": "nonpayable",
      "type": "function"
    },
    {
      "inputs": [],
      "name": "stop",
      "outputs": [],
      "stateMutability": "nonpayable",
      "type": "function"
    },
    {
      "inputs": [
        {
          "internalType": "bytes4",
          "name": "interfaceId",
          "type": "bytes4"
        }
      ],
      "name": "supportsInterface",
      "outputs": [
        {
          "internalType": "bool",
          "name": "",
          "type": "bool"
        }
      ],
      "stateMutability": "view",
      "type": "function"
    },
    {
      "inputs": [
        {
          "internalType": "uint256",
          "name": "",
          "type": "uint256"
        }
      ],
      "name": "teamAddresses",
      "outputs": [
        {
          "internalType": "address",
          "name": "",
          "type": "address"
        }
      ],
      "stateMutability": "view",
      "type": "function"
    },
    {
      "inputs": [
        {
          "internalType": "address",
          "name": "",
          "type": "address"
        }
      ],
      "name": "teams",
      "outputs": [
        {
          "internalType": "string",
          "name": "",
          "type": "string"
        }
      ],
      "stateMutability": "view",
      "type": "function"
    },
    {
      "inputs": [],
      "name": "template",
      "outputs": [
        {
          "internalType": "contract create2Challenge",
          "name": "",
          "type": "address"
        }
      ],
      "stateMutability": "view",
      "type": "function"
    },
    {
      "inputs": [],
      "name": "timeExtended",
      "outputs": [
        {
          "internalType": "bool",
          "name": "",
          "type": "bool"
        }
      ],
      "stateMutability": "view",
      "type": "function"
    },
    {
      "inputs": [
        {
          "internalType": "address",
          "name": "",
          "type": "address"
        }
      ],
      "name": "totallyLegitMapping",
      "outputs": [
        {
          "internalType": "uint256",
          "name": "",
          "type": "uint256"
        }
      ],
      "stateMutability": "view",
      "type": "function"
    },
    {
      "inputs": [
        {
          "internalType": "address",
          "name": "newOwner",
          "type": "address"
        }
      ],
      "name": "transferOwnership",
      "outputs": [],
      "stateMutability": "nonpayable",
      "type": "function"
    },
    {
      "inputs": [
        {
          "internalType": "uint256",
          "name": "",
          "type": "uint256"
        }
      ],
      "name": "uri",
      "outputs": [
        {
          "internalType": "string",
          "name": "",
          "type": "string"
        }
      ],
      "stateMutability": "view",
      "type": "function"
    },
    {
      "inputs": [
        {
          "internalType": "bytes32",
          "name": "",
          "type": "bytes32"
        }
      ],
      "name": "usedLeaves",
      "outputs": [
        {
          "internalType": "bool",
          "name": "",
          "type": "bool"
        }
      ],
      "stateMutability": "view",
      "type": "function"
    },
    {
      "inputs": [],
      "name": "weth",
      "outputs": [
        {
          "internalType": "address",
          "name": "",
          "type": "address"
        }
      ],
      "stateMutability": "view",
      "type": "function"
    }
  ],
  "bytecode": {
    "object": "0x60c06040526004805461ff001916905560006013553480156200002157600080fd5b5060405162006134380380620061348339810160408190526200004491620002af565b8162000050336200020c565b6200005b816200025c565b5060005b601a8111620000a657620000758160c8620003ad565b620000829060c8620003cf565b600082815260086020526040902055806200009d81620003eb565b9150506200005f565b5042601455604051620000b9906200026e565b604051809103906000f080158015620000d6573d6000803e3d6000fd5b50601280546001600160a01b0319166001600160a01b0392831617905581166080526040805160148082526102a08201909252600091602082016102808036833701905050905060005b601481101562000181576040805160208101839052016040516020818303038152906040528051906020012082828151811062000161576200016162000407565b6020908102919091010152806200017881620003eb565b91505062000120565b506040516317046b0160e11b815273__$c60b12d58dd7f461ff4845dd59be76adc9$__90632e08d60290620001bb9084906004016200041d565b602060405180830381865af4158015620001d9573d6000803e3d6000fd5b505050506040513d601f19601f82011682018060405250810190620001ff919062000463565b60a05250620005d8915050565b600080546001600160a01b038381166001600160a01b0319831681178455604051919092169283917f8be0079c531659141344cd1fd0a4f28419497f9722a3daafe3b4186f6b6457e09190a35050565b60036200026a82826200050c565b5050565b61013b8062005ff983390190565b634e487b7160e01b600052604160045260246000fd5b80516001600160a01b0381168114620002aa57600080fd5b919050565b60008060408385031215620002c357600080fd5b82516001600160401b0380821115620002db57600080fd5b818501915085601f830112620002f057600080fd5b8151818111156200030557620003056200027c565b604051601f8201601f19908116603f011681019083821181831017156200033057620003306200027c565b816040528281526020935088848487010111156200034d57600080fd5b600091505b8282101562000371578482018401518183018501529083019062000352565b60008484830101528096505050506200038c81860162000292565b925050509250929050565b634e487b7160e01b600052601160045260246000fd5b6000816000190483118215151615620003ca57620003ca62000397565b500290565b80820180821115620003e557620003e562000397565b92915050565b60006001820162000400576200040062000397565b5060010190565b634e487b7160e01b600052603260045260246000fd5b6020808252825182820181905260009190848201906040850190845b81811015620004575783518352928401929184019160010162000439565b50909695505050505050565b6000602082840312156200047657600080fd5b5051919050565b600181811c908216806200049257607f821691505b602082108103620004b357634e487b7160e01b600052602260045260246000fd5b50919050565b601f8211156200050757600081815260208120601f850160051c81016020861015620004e25750805b601f850160051c820191505b818110156200050357828155600101620004ee565b5050505b505050565b81516001600160401b038111156200052857620005286200027c565b62000540816200053984546200047d565b84620004b9565b602080601f8311600181146200057857600084156200055f5750858301515b600019600386901b1c1916600185901b17855562000503565b600085815260208120601f198616915b82811015620005a95788860151825594840194600190910190840162000588565b5085821015620005c85787850151600019600388901b60f8161c191681555b5050505050600190811b01905550565b60805160a0516159e6620006136000396000818161054701526120ee0152600081816105f801528181610ec7015261290d01526159e66000f3fe6080604052600436106103a15760003560e01c80638da5cb5b116101e7578063bf3724af1161010d578063d75203c3116100a0578063e985e9c51161006f578063e985e9c514610b60578063ed6a990414610ba9578063f242432a14610bc9578063f2fde38b14610be957600080fd5b8063d75203c314610aec578063d7b7913b14610b0c578063db0fff3714610b2c578063df2025dc14610b4b57600080fd5b8063c28cb1d4116100dc578063c28cb1d414610a6c578063c458324014610a7f578063c78de83814610a9f578063ca9eaf5914610abf57600080fd5b8063bf3724af146109f7578063c191764f14610a17578063c1a8f2c614610a37578063c27fc30514610a6457600080fd5b8063a481b0e411610185578063b1d8dd5611610154578063b1d8dd5614610975578063b33260a214610995578063bd8d97c0146109b5578063be9a6555146109e257600080fd5b8063a481b0e414610900578063a60463e414610920578063aa91c62e14610940578063abb6ae891461096057600080fd5b8063957aa58c116101c1578063957aa58c14610879578063964ef96b146108935780639799b4e7146108b3578063a22cb465146108e057600080fd5b80638da5cb5b14610833578063920f5c731461085157806393d1758c1461085957600080fd5b806341dd1ef8116102cc578063715018a61161026a57806381e0f90c1161023957806381e0f90c146107a657806383e9ff47146107c65780638729e5c1146107f35780638b1fe8de1461081357600080fd5b8063715018a614610714578063736c0d5b1461072957806376dd110f14610759578063787f485a1461078657600080fd5b806350a48d2e116102a657806350a48d2e14610694578063604f7523146106b45780636f0514c6146106d45780636f2ddd93146106f457600080fd5b806341dd1ef81461061a57806349b9dbe6146106475780634e1273f41461066757600080fd5b8063237b3bde116103445780632f4dc9da116103135780632f4dc9da146105695780633b5e60c2146105895780633d056172146105b95780633fc8cef3146105e657600080fd5b8063237b3bde146104bd5780632419217e146104dd5780632eb2c2d6146105155780632eb4a7ab1461053557600080fd5b80630c91cdbc116103805780630c91cdbc146104205780630e89341c1461045b578063100a818c146104885780631625d7fe146104a857600080fd5b8062fdd58e146103a657806301ffc9a7146103d957806307da68f514610409575b600080fd5b3480156103b257600080fd5b506103c66103c1366004614b48565b610c09565b6040519081526020015b60405180910390f35b3480156103e557600080fd5b506103f96103f4366004614b88565b610ca4565b60405190151581526020016103d0565b34801561041557600080fd5b5061041e610cf4565b005b34801561042c57600080fd5b506103f961043b366004614b48565b600760209081526000928352604080842090915290825290205460ff1681565b34801561046757600080fd5b5061047b610476366004614ba5565b610d08565b6040516103d09190614c0e565b34801561049457600080fd5b5061041e6104a3366004614c21565b610d9c565b3480156104b457600080fd5b506103c6610f8e565b3480156104c957600080fd5b5061041e6104d8366004614c21565b611071565b3480156104e957600080fd5b506104fd6104f8366004614ba5565b611241565b6040516001600160a01b0390911681526020016103d0565b34801561052157600080fd5b5061041e610530366004614d8f565b61126b565b34801561054157600080fd5b506103c67f000000000000000000000000000000000000000000000000000000000000000081565b34801561057557600080fd5b5061041e610584366004614ba5565b6112b7565b34801561059557600080fd5b506103f96105a4366004614ba5565b600f6020526000908152604090205460ff1681565b3480156105c557600080fd5b506103c66105d4366004614ba5565b600e6020526000908152604090205481565b3480156105f257600080fd5b506104fd7f000000000000000000000000000000000000000000000000000000000000000081565b34801561062657600080fd5b506103c6610635366004614c21565b60096020526000908152604090205481565b34801561065357600080fd5b5061041e610662366004614e38565b61144b565b34801561067357600080fd5b50610687610682366004614e6b565b61160a565b6040516103d09190614f70565b3480156106a057600080fd5b5061041e6106af366004614c21565b611733565b3480156106c057600080fd5b5061041e6106cf366004614c21565b611862565b3480156106e057600080fd5b5061041e6106ef366004614fcb565b611996565b34801561070057600080fd5b506012546104fd906001600160a01b031681565b34801561072057600080fd5b5061041e611b11565b34801561073557600080fd5b506103f9610744366004614c21565b600d6020526000908152604090205460ff1681565b34801561076557600080fd5b506103c6610774366004614c21565b60066020526000908152604090205481565b34801561079257600080fd5b5061041e6107a1366004615024565b611b25565b3480156107b257600080fd5b5061041e6107c1366004615060565b611c6a565b3480156107d257600080fd5b506103c66107e1366004614c21565b600a6020526000908152604090205481565b3480156107ff57600080fd5b5061041e61080e366004615082565b611e0b565b34801561081f57600080fd5b5061041e61082e3660046150ca565b611f34565b34801561083f57600080fd5b506000546001600160a01b03166104fd565b61041e612168565b34801561086557600080fd5b5061041e610874366004614c21565b61233e565b34801561088557600080fd5b506004546103f99060ff1681565b34801561089f57600080fd5b5061041e6108ae366004615155565b61246d565b3480156108bf57600080fd5b506103c66108ce366004614ba5565b60086020526000908152604090205481565b3480156108ec57600080fd5b5061041e6108fb3660046151a4565b6125c7565b34801561090c57600080fd5b5061041e61091b366004615024565b6125d2565b34801561092c57600080fd5b5061041e61093b366004614c21565b6127d8565b34801561094c57600080fd5b5061041e61095b3660046151db565b61298d565b34801561096c57600080fd5b5061041e612ae0565b34801561098157600080fd5b5061041e6109903660046151f8565b612af9565b3480156109a157600080fd5b5061041e6109b0366004614b48565b612d15565b3480156109c157600080fd5b506103c66109d0366004614c21565b60106020526000908152604090205481565b3480156109ee57600080fd5b5061041e612e9c565b348015610a0357600080fd5b5061041e610a12366004614ba5565b612eb3565b348015610a2357600080fd5b5061041e610a32366004614b48565b613058565b348015610a4357600080fd5b506103c6610a52366004614c21565b600b6020526000908152604090205481565b61041e61319a565b61041e610a7a366004614ba5565b6132e9565b348015610a8b57600080fd5b5061047b610a9a366004614c21565b613574565b348015610aab57600080fd5b5061041e610aba366004615234565b61360e565b348015610acb57600080fd5b506103c6610ada366004614c21565b600c6020526000908152604090205481565b348015610af857600080fd5b5061041e610b07366004615060565b6138c8565b348015610b1857600080fd5b5061041e610b27366004614ba5565b613a6c565b348015610b3857600080fd5b506004546103f990610100900460ff1681565b348015610b5757600080fd5b5061041e613bbf565b348015610b6c57600080fd5b506103f9610b7b366004614e38565b6001600160a01b03918216600090815260026020908152604080832093909416825291909152205460ff1690565b348015610bb557600080fd5b5061041e610bc4366004614c21565b613d17565b348015610bd557600080fd5b5061041e610be4366004615291565b613f4a565b348015610bf557600080fd5b5061041e610c04366004614c21565b613f8f565b60006001600160a01b038316610c795760405162461bcd60e51b815260206004820152602a60248201527f455243313135353a2061646472657373207a65726f206973206e6f742061207660448201526930b634b21037bbb732b960b11b60648201526084015b60405180910390fd5b5060008181526001602090815260408083206001600160a01b03861684529091529020545b92915050565b60006001600160e01b03198216636cdb3d1360e11b1480610cd557506001600160e01b031982166303a24d0760e21b145b80610c9e57506301ffc9a760e01b6001600160e01b0319831614610c9e565b610cfc614005565b6004805460ff19169055565b606060038054610d17906152f5565b80601f0160208091040260200160405190810160405280929190818152602001828054610d43906152f5565b8015610d905780601f10610d6557610100808354040283529160200191610d90565b820191906000526020600020905b815481529060010190602001808311610d7357829003601f168201915b50505050509050919050565b60045460ff16610dbe5760405162461bcd60e51b8152600401610c709061532f565b3360009081526005602052604090208054610dd8906152f5565b159050610df75760405162461bcd60e51b8152600401610c7090615366565b600454610100900460ff1615610e3957601454610e1690612a306153b3565b4210610e345760405162461bcd60e51b8152600401610c70906153c6565b610e66565b601454610e4890611c206153b3565b4210610e665760405162461bcd60e51b8152600401610c70906153c6565b6001600160a01b0381166000908152600760209081526040808320601580855292529091205460ff1615610eac5760405162461bcd60e51b8152600401610c70906153f0565b6040516370a0823160e01b8152336004820152633b9aca00907f00000000000000000000000000000000000000000000000000000000000000006001600160a01b0316906370a0823190602401602060405180830381865afa158015610f16573d6000803e3d6000fd5b505050506040513d601f19601f82011682018060405250810190610f3a9190615427565b11610f805760405162461bcd60e51b815260206004820152601660248201527562616c616e63652063616e6e6f74206265207a65726f60501b6044820152606401610c70565b610f8a818361405f565b5050565b60045460009060ff16610fb35760405162461bcd60e51b8152600401610c709061532f565b3360009081526005602052604090208054610fcd906152f5565b159050610fec5760405162461bcd60e51b8152600401610c7090615366565b600454610100900460ff161561102e5760145461100b90612a306153b3565b42106110295760405162461bcd60e51b8152600401610c70906153c6565b61105b565b60145461103d90611c206153b3565b421061105b5760405162461bcd60e51b8152600401610c70906153c6565b33301461106757600080fd5b5063deadbeef5b90565b60045460ff166110935760405162461bcd60e51b8152600401610c709061532f565b33600090815260056020526040902080546110ad906152f5565b1590506110cc5760405162461bcd60e51b8152600401610c7090615366565b600454610100900460ff161561110e576014546110eb90612a306153b3565b42106111095760405162461bcd60e51b8152600401610c70906153c6565b61113b565b60145461111d90611c206153b3565b421061113b5760405162461bcd60e51b8152600401610c70906153c6565b6001600160a01b0381166000908152600760209081526040808320601380855292529091205460ff16156111815760405162461bcd60e51b8152600401610c70906153f0565b6040516301ffc9a760e01b81526336372b0760e01b600482015233906301ffc9a790602401602060405180830381865afa1580156111c3573d6000803e3d6000fd5b505050506040513d601f19601f820116820180604052508101906111e79190615440565b610f805760405162461bcd60e51b815260206004820152602560248201527f6d73672073656e64657220646f6573206e6f7420737570706f727420696e7465604482015264726661636560d81b6064820152608401610c70565b6011818154811061125157600080fd5b6000918252602090912001546001600160a01b0316905081565b6001600160a01b03851633148061128757506112878533610b7b565b6112a35760405162461bcd60e51b8152600401610c709061545d565b6112b08585858585614184565b5050505050565b60045460ff166112d95760405162461bcd60e51b8152600401610c709061532f565b33600090815260056020526040902080546112f3906152f5565b1590506113125760405162461bcd60e51b8152600401610c7090615366565b600454610100900460ff16156113545760145461133190612a306153b3565b421061134f5760405162461bcd60e51b8152600401610c70906153c6565b611381565b60145461136390611c206153b3565b42106113815760405162461bcd60e51b8152600401610c70906153c6565b336000908152600760209081526040808320600f80855292529091205460ff16156113be5760405162461bcd60e51b8152600401610c70906153f0565b60408051446020820152016040516020818303038152906040528051906020012060001c82146114415760405162461bcd60e51b815260206004820152602860248201527f4469642049206d616b652074686973206368616c6c656e676520746f6f20646960448201526766666963756c743f60c01b6064820152608401610c70565b610f8a813361405f565b60045460ff1661146d5760405162461bcd60e51b8152600401610c709061532f565b3360009081526005602052604090208054611487906152f5565b1590506114a65760405162461bcd60e51b8152600401610c7090615366565b600454610100900460ff16156114e8576014546114c590612a306153b3565b42106114e35760405162461bcd60e51b8152600401610c70906153c6565b611515565b6014546114f790611c206153b3565b42106115155760405162461bcd60e51b8152600401610c70906153c6565b6001600160a01b0381166000908152600760209081526040808320601480855292529091205460ff161561155b5760405162461bcd60e51b8152600401610c70906153f0565b60125460408051336020820152600092611597926001600160a01b0390911691016040516020818303038152906040528051906020012061435c565b9050806001600160a01b0316846001600160a01b0316146115fa5760405162461bcd60e51b815260206004820152601b60248201527f507265646963746564206164647265737320696e636f727265637400000000006044820152606401610c70565b611604828461405f565b50505050565b6060815183511461166f5760405162461bcd60e51b815260206004820152602960248201527f455243313135353a206163636f756e747320616e6420696473206c656e677468604482015268040dad2e6dac2e8c6d60bb1b6064820152608401610c70565b600083516001600160401b0381111561168a5761168a614c3c565b6040519080825280602002602001820160405280156116b3578160200160208202803683370190505b50905060005b845181101561172b576116fe8582815181106116d7576116d76154ac565b60200260200101518583815181106116f1576116f16154ac565b6020026020010151610c09565b828281518110611710576117106154ac565b6020908102919091010152611724816154c2565b90506116b9565b509392505050565b60045460ff166117555760405162461bcd60e51b8152600401610c709061532f565b336000908152600560205260409020805461176f906152f5565b15905061178e5760405162461bcd60e51b8152600401610c7090615366565b600454610100900460ff16156117d0576014546117ad90612a306153b3565b42106117cb5760405162461bcd60e51b8152600401610c70906153c6565b6117fd565b6014546117df90611c206153b3565b42106117fd5760405162461bcd60e51b8152600401610c70906153c6565b336000908152600760209081526040808320600480855292529091205460ff161561183a5760405162461bcd60e51b8152600401610c70906153f0565b6001600160a01b03821630146114415760405162461bcd60e51b8152600401610c70906154db565b60045460ff166118845760405162461bcd60e51b8152600401610c709061532f565b336000908152600560205260409020805461189e906152f5565b1590506118bd5760405162461bcd60e51b8152600401610c7090615366565b600454610100900460ff16156118ff576014546118dc90612a306153b3565b42106118fa5760405162461bcd60e51b8152600401610c70906153c6565b61192c565b60145461190e90611c206153b3565b421061192c5760405162461bcd60e51b8152600401610c70906153c6565b336000908152600760209081526040808320600680855292529091205460ff16156119695760405162461bcd60e51b8152600401610c70906153f0565b6000546001600160a01b038381169116146114415760405162461bcd60e51b8152600401610c70906154db565b60045460ff166119b85760405162461bcd60e51b8152600401610c709061532f565b33600090815260056020526040902080546119d2906152f5565b1590506119f15760405162461bcd60e51b8152600401610c7090615366565b600454610100900460ff1615611a3357601454611a1090612a306153b3565b4210611a2e5760405162461bcd60e51b8152600401610c70906153c6565b611a60565b601454611a4290611c206153b3565b4210611a605760405162461bcd60e51b8152600401610c70906153c6565b6001600160a01b0384166000908152600760209081526040808320601a80855292529091205460ff1615611aa65760405162461bcd60e51b8152600401610c70906153f0565b60008484604051611ab8929190615512565b604051908190039020905033803b80611ad057600080fd5b328203611adc57600080fd5b828514611ae857600080fd5b80600080843c600020828114611afd57600080fd5b50611b08838861405f565b50505050505050565b611b19614005565b611b2360006143fc565b565b60045460ff16611b475760405162461bcd60e51b8152600401610c709061532f565b3360009081526005602052604090208054611b61906152f5565b159050611b805760405162461bcd60e51b8152600401610c7090615366565b600454610100900460ff1615611bc257601454611b9f90612a306153b3565b4210611bbd5760405162461bcd60e51b8152600401610c70906153c6565b611bef565b601454611bd190611c206153b3565b4210611bef5760405162461bcd60e51b8152600401610c70906153c6565b336000908152600760209081526040808320600980855292529091205460ff1615611c2c5760405162461bcd60e51b8152600401610c70906153f0565b6000356001600160e01b03191682604051602001611c4b929190615522565b6040516020818303038152906040529150815160201461144157600080fd5b60045460ff16611c8c5760405162461bcd60e51b8152600401610c709061532f565b3360009081526005602052604090208054611ca6906152f5565b159050611cc55760405162461bcd60e51b8152600401610c7090615366565b600454610100900460ff1615611d0757601454611ce490612a306153b3565b4210611d025760405162461bcd60e51b8152600401610c70906153c6565b611d34565b601454611d1690611c206153b3565b4210611d345760405162461bcd60e51b8152600401610c70906153c6565b336000908152600760209081526040808320600b80855292529091205460ff1615611d715760405162461bcd60e51b8152600401610c70906153f0565b600083138015611d815750600082135b611dd75760405162461bcd60e51b815260206004820152602160248201527f4e756d62657273206d7573742062652067726561746572207468616e207a65726044820152606f60f81b6064820152608401610c70565b8282016009198112611dfb5760405162461bcd60e51b8152600401610c7090615553565b50611e06813361405f565b505050565b60045460ff16611e2d5760405162461bcd60e51b8152600401610c709061532f565b3360009081526005602052604090208054611e47906152f5565b159050611e665760405162461bcd60e51b8152600401610c7090615366565b600454610100900460ff1615611ea857601454611e8590612a306153b3565b4210611ea35760405162461bcd60e51b8152600401610c70906153c6565b611ed5565b601454611eb790611c206153b3565b4210611ed55760405162461bcd60e51b8152600401610c70906153c6565b336000908152600560205260409020611eee82826155e5565b5050601180546001810182556000919091527f31ecc21a745e3968a04e9570e4425bc18fa8019c68028196b546d1669c200c680180546001600160a01b03191633179055565b60045460ff16611f565760405162461bcd60e51b8152600401610c709061532f565b3360009081526005602052604090208054611f70906152f5565b159050611f8f5760405162461bcd60e51b8152600401610c7090615366565b600454610100900460ff1615611fd157601454611fae90612a306153b3565b4210611fcc5760405162461bcd60e51b8152600401610c70906153c6565b611ffe565b601454611fe090611c206153b3565b4210611ffe5760405162461bcd60e51b8152600401610c70906153c6565b6001600160a01b0384166000908152600760209081526040808320601780855292529091205460ff16156120445760405162461bcd60e51b8152600401610c70906153f0565b6000828152600f602052604090205460ff16156120b95760405162461bcd60e51b815260206004820152602d60248201527f50726f6f66206f662074686973206c6561642068617320616c7265616479206260448201526c195959881cdd589b5a5d1d1959609a1b6064820152608401610c70565b6121198484808060200260200160405190810160405280939291908181526020018383602002808284376000920191909152507f0000000000000000000000000000000000000000000000000000000000000000925086915061444c9050565b61215e5760405162461bcd60e51b815260206004820152601660248201527550726f6f6620636f756c64206e6f742076657269667960501b6044820152606401610c70565b6112b0818661405f565b60045460ff1661218a5760405162461bcd60e51b8152600401610c709061532f565b33600090815260056020526040902080546121a4906152f5565b1590506121c35760405162461bcd60e51b8152600401610c7090615366565b600454610100900460ff1615612205576014546121e290612a306153b3565b42106122005760405162461bcd60e51b8152600401610c70906153c6565b612232565b60145461221490611c206153b3565b42106122325760405162461bcd60e51b8152600401610c70906153c6565b336000908152600760209081526040808320600d80855292529091205460ff161561226f5760405162461bcd60e51b8152600401610c70906153f0565b33600090815260096020526040902054600a10612331573360009081526009602052604081208054916122a1836154c2565b909155505060405160009033908281818181865af19150503d80600081146122e5576040519150601f19603f3d011682016040523d82523d6000602084013e6122ea565b606091505b505090508061232f5760405162461bcd60e51b81526020600482015260116024820152701d985b1d59481cd95b990819985a5b1959607a1b6044820152606401610c70565b505b61233b813361405f565b50565b60045460ff166123605760405162461bcd60e51b8152600401610c709061532f565b336000908152600560205260409020805461237a906152f5565b1590506123995760405162461bcd60e51b8152600401610c7090615366565b600454610100900460ff16156123db576014546123b890612a306153b3565b42106123d65760405162461bcd60e51b8152600401610c70906153c6565b612408565b6014546123ea90611c206153b3565b42106124085760405162461bcd60e51b8152600401610c70906153c6565b336000908152600760209081526040808320600580855292529091205460ff16156124455760405162461bcd60e51b8152600401610c70906153f0565b6001600160a01b03821633146114415760405162461bcd60e51b8152600401610c70906154db565b60045460ff1661248f5760405162461bcd60e51b8152600401610c709061532f565b33600090815260056020526040902080546124a9906152f5565b1590506124c85760405162461bcd60e51b8152600401610c7090615366565b600454610100900460ff161561250a576014546124e790612a306153b3565b42106125055760405162461bcd60e51b8152600401610c70906153c6565b612537565b60145461251990611c206153b3565b42106125375760405162461bcd60e51b8152600401610c70906153c6565b336000908152600760209081526040808320600880855292529091205460ff16156125745760405162461bcd60e51b8152600401610c70906153f0565b602082146125bd5760405162461bcd60e51b8152602060048201526016602482015275696e76616c6964206c656e677468206f66206461746160501b6044820152606401610c70565b611e06813361405f565b610f8a338383614462565b60045460ff166125f45760405162461bcd60e51b8152600401610c709061532f565b336000908152600560205260409020805461260e906152f5565b15905061262d5760405162461bcd60e51b8152600401610c7090615366565b600454610100900460ff161561266f5760145461264c90612a306153b3565b421061266a5760405162461bcd60e51b8152600401610c70906153c6565b61269c565b60145461267e90611c206153b3565b421061269c5760405162461bcd60e51b8152600401610c70906153c6565b336000908152600760209081526040808320600c80855292529091205460ff16156126d95760405162461bcd60e51b8152600401610c70906153f0565b600080306001600160a01b0316846040516126f491906156a4565b6000604051808303816000865af19150503d8060008114612731576040519150601f19603f3d011682016040523d82523d6000602084013e612736565b606091505b5091509150816127975760405162461bcd60e51b815260206004820152602660248201527f696e7465726e616c2066756e6374696f6e2063616c6c20646964206e6f7420736044820152651d58d8d9595960d21b6064820152608401610c70565b6040805163deadbeef602082015201604051602081830303815290604052805190602001208180519060200120146127ce57600080fd5b611604833361405f565b60045460ff166127fa5760405162461bcd60e51b8152600401610c709061532f565b3360009081526005602052604090208054612814906152f5565b1590506128335760405162461bcd60e51b8152600401610c7090615366565b600454610100900460ff16156128755760145461285290612a306153b3565b42106128705760405162461bcd60e51b8152600401610c70906153c6565b6128a2565b60145461288490611c206153b3565b42106128a25760405162461bcd60e51b8152600401610c70906153c6565b6001600160a01b0381166000908152600760209081526040808320601680855292529091205460ff16156128e85760405162461bcd60e51b8152600401610c70906153f0565b6040516323b872dd60e01b8152336004820152306024820152633b9aca0060448201527f00000000000000000000000000000000000000000000000000000000000000006001600160a01b0316906323b872dd906064016020604051808303816000875af115801561295e573d6000803e3d6000fd5b505050506040513d601f19601f820116820180604052508101906129829190615440565b50610f8a818361405f565b60045460ff166129af5760405162461bcd60e51b8152600401610c709061532f565b33600090815260056020526040902080546129c9906152f5565b1590506129e85760405162461bcd60e51b8152600401610c7090615366565b600454610100900460ff1615612a2a57601454612a0790612a306153b3565b4210612a255760405162461bcd60e51b8152600401610c70906153c6565b612a57565b601454612a3990611c206153b3565b4210612a575760405162461bcd60e51b8152600401610c70906153c6565b33600090815260076020908152604080832083805290915281205460ff1615612a925760405162461bcd60e51b8152600401610c70906153f0565b81156114415760405162461bcd60e51b815260206004820152601760248201527f696e636f727265637420626f6f6c65616e2076616c75650000000000000000006044820152606401610c70565b612ae8614005565b6004805461ff001916610100179055565b60045460ff16612b1b5760405162461bcd60e51b8152600401610c709061532f565b3360009081526005602052604090208054612b35906152f5565b159050612b545760405162461bcd60e51b8152600401610c7090615366565b600454610100900460ff1615612b9657601454612b7390612a306153b3565b4210612b915760405162461bcd60e51b8152600401610c70906153c6565b612bc3565b601454612ba590611c206153b3565b4210612bc35760405162461bcd60e51b8152600401610c70906153c6565b6001600160a01b0381166000908152600760209081526040808320601280855292529091205460ff1615612c095760405162461bcd60e51b8152600401610c70906153f0565b333b15801590612c195750323314155b612c585760405162461bcd60e51b815260206004820152601060248201526f135d5cdd0818994818dbdb9d1c9858dd60821b6044820152606401610c70565b60008411612cbe5760405162461bcd60e51b815260206004820152602d60248201527f6d7573742070726f76696465206e6f6e2d7a65726f20616d6f756e74206f662060448201526c119391951cc81d1bc81b5a5b9d609a1b6064820152608401610c70565b60408051336020820152600091016040516020818303038152906040528051906020012060001c9050612d0b84828760405180606001604052806030815260200161598160309139614542565b6112b0828461405f565b60045460ff16612d375760405162461bcd60e51b8152600401610c709061532f565b3360009081526005602052604090208054612d51906152f5565b159050612d705760405162461bcd60e51b8152600401610c7090615366565b600454610100900460ff1615612db257601454612d8f90612a306153b3565b4210612dad5760405162461bcd60e51b8152600401610c70906153c6565b612ddf565b601454612dc190611c206153b3565b4210612ddf5760405162461bcd60e51b8152600401610c70906153c6565b6001600160a01b0382166000908152600760209081526040808320601880855292529091205460ff1615612e255760405162461bcd60e51b8152600401610c70906153f0565b601860005260086020527f83ba890607818823e46eb1e5ed8f7282277ac60de8c863727688b48d92a8da6d54828114612e925760405162461bcd60e51b815260206004820152600f60248201526e696e636f72726563742076616c756560881b6044820152606401610c70565b611604828561405f565b612ea4614005565b6004805460ff19166001179055565b60045460ff16612ed55760405162461bcd60e51b8152600401610c709061532f565b3360009081526005602052604090208054612eef906152f5565b159050612f0e5760405162461bcd60e51b8152600401610c7090615366565b600454610100900460ff1615612f5057601454612f2d90612a306153b3565b4210612f4b5760405162461bcd60e51b8152600401610c70906153c6565b612f7d565b601454612f5f90611c206153b3565b4210612f7d5760405162461bcd60e51b8152600401610c70906153c6565b336000908152600760209081526040808320600280855292529091205460ff1615612fba5760405162461bcd60e51b8152600401610c70906153f0565b60008233604051602001612fea92919091825260601b6bffffffffffffffffffffffff1916602082015260340190565b60408051601f198184030181529190528051602090910120905061300f6005826156d6565b1561304e5760405162461bcd60e51b815260206004820152600f60248201526e19dd595cdcc81a5b98dbdc9c9958dd608a1b6044820152606401610c70565b611e06823361405f565b60045460ff1661307a5760405162461bcd60e51b8152600401610c709061532f565b3360009081526005602052604090208054613094906152f5565b1590506130b35760405162461bcd60e51b8152600401610c7090615366565b600454610100900460ff16156130f5576014546130d290612a306153b3565b42106130f05760405162461bcd60e51b8152600401610c70906153c6565b613122565b60145461310490611c206153b3565b42106131225760405162461bcd60e51b8152600401610c70906153c6565b6001600160a01b0382166000908152600760209081526040808320601980855292529091205460ff16156131685760405162461bcd60e51b8152600401610c70906153f0565b600083815260066020526040902080549083905582906114508101821461318e57600080fd5b5050611e06818461405f565b60045460ff166131bc5760405162461bcd60e51b8152600401610c709061532f565b33600090815260056020526040902080546131d6906152f5565b1590506131f55760405162461bcd60e51b8152600401610c7090615366565b600454610100900460ff16156132375760145461321490612a306153b3565b42106132325760405162461bcd60e51b8152600401610c70906153c6565b613264565b60145461324690611c206153b3565b42106132645760405162461bcd60e51b8152600401610c70906153c6565b336000908152600760209081526040808320600180855292529091205460ff16156132a15760405162461bcd60e51b8152600401610c70906153f0565b34600a146123315760405162461bcd60e51b8152602060048201526015602482015274496e76616c6964204d6573736167652056616c756560581b6044820152606401610c70565b60045460ff1661330b5760405162461bcd60e51b8152600401610c709061532f565b3360009081526005602052604090208054613325906152f5565b1590506133445760405162461bcd60e51b8152600401610c7090615366565b600454610100900460ff16156133865760145461336390612a306153b3565b42106133815760405162461bcd60e51b8152600401610c70906153c6565b6133b3565b60145461339590611c206153b3565b42106133b35760405162461bcd60e51b8152600401610c70906153c6565b336000908152600760209081526040808320600e80855292529091205460ff16156133f05760405162461bcd60e51b8152600401610c70906153f0565b336000908152600c6020526040902054421161345c5760405162461bcd60e51b815260206004820152602560248201527f63616e6e6f7420706c6179206d756c7469706c652074696d657320696e2073616044820152640daca40e8f60db1b6064820152608401610c70565b604080514260208201526bffffffffffffffffffffffff193360601b169181019190915243605482015260009060740160408051601f198184030181529190528051602090910120905060006134b36006836156d6565b905080841461352657336000908152600b6020526040808220919091555162461bcd60e51b8152610c709060040160208082526025908201527f476f74746120737465616c2074696d652066726f6d20746865206661756c747960408201526410383630b760d91b606082015260800190565b336000908152600b60205260408120805491613541836154c2565b9091555050336000908152600c60209081526040808320429055600b90915290205460050361160457611604833361405f565b6005602052600090815260409020805461358d906152f5565b80601f01602080910402602001604051908101604052809291908181526020018280546135b9906152f5565b80156136065780601f106135db57610100808354040283529160200191613606565b820191906000526020600020905b8154815290600101906020018083116135e957829003601f168201915b505050505081565b60045460ff166136305760405162461bcd60e51b8152600401610c709061532f565b336000908152600560205260409020805461364a906152f5565b1590506136695760405162461bcd60e51b8152600401610c7090615366565b600454610100900460ff16156136ab5760145461368890612a306153b3565b42106136a65760405162461bcd60e51b8152600401610c70906153c6565b6136d8565b6014546136ba90611c206153b3565b42106136d85760405162461bcd60e51b8152600401610c70906153c6565b6001600160a01b0383166000908152600760209081526040808320601180855292529091205460ff161561371e5760405162461bcd60e51b8152600401610c70906153f0565b7f5c8aed31bcb9e9889970b4a7647843b7ab31487f575ba97a73c104aeacc53223600061374b828561464f565b90506001600160a01b0381166137af5760405162461bcd60e51b8152602060048201526024808201527f6d75737420626520612076616c6964207369676e617475726520627920736f6d604482015263656f6e6560e01b6064820152608401610c70565b846001600160a01b0316816001600160a01b0316146138365760405162461bcd60e51b815260206004820152603960248201527f5369676e6572206f6620746865206d65737361676520646964206e6f74206d6160448201527f7463682061637475616c206d657373616765207369676e6572000000000000006064820152608401610c70565b6001600160a01b0381166000908152600d602052604090205460ff16156138935760405162461bcd60e51b81526020600482015260116024820152704e4f205245504c41592041545441434b5360781b6044820152606401610c70565b6001600160a01b0381166000908152600d60205260409020805460ff191660011790556138c0838761405f565b505050505050565b60045460ff166138ea5760405162461bcd60e51b8152600401610c709061532f565b3360009081526005602052604090208054613904906152f5565b1590506139235760405162461bcd60e51b8152600401610c7090615366565b600454610100900460ff16156139655760145461394290612a306153b3565b42106139605760405162461bcd60e51b8152600401610c70906153c6565b613992565b60145461397490611c206153b3565b42106139925760405162461bcd60e51b8152600401610c70906153c6565b336000908152600760209081526040808320600a80855292529091205460ff16156139cf5760405162461bcd60e51b8152600401610c70906153f0565b6000831280156139df5750600082135b613a495760405162461bcd60e51b815260206004820152603560248201527f6669727374206e756d626572206d757374206265206e6567617469766520616e6044820152746420326e64206e756d62657220706f73697469766560581b6064820152608401610c70565b818303600a8113611dfb5760405162461bcd60e51b8152600401610c7090615553565b60045460ff16613a8e5760405162461bcd60e51b8152600401610c709061532f565b3360009081526005602052604090208054613aa8906152f5565b159050613ac75760405162461bcd60e51b8152600401610c7090615366565b600454610100900460ff1615613b0957601454613ae690612a306153b3565b4210613b045760405162461bcd60e51b8152600401610c70906153c6565b613b36565b601454613b1890611c206153b3565b4210613b365760405162461bcd60e51b8152600401610c70906153c6565b336000908152600760209081526040808320600380855292529091205464098765432183189060ff1615613b7c5760405162461bcd60e51b8152600401610c70906153f0565b8063beefdead1461304e5760405162461bcd60e51b815260206004820152600d60248201526c125b9d985b1a5908125b9c1d5d609a1b6044820152606401610c70565b60045460ff16613be15760405162461bcd60e51b8152600401610c709061532f565b3360009081526005602052604090208054613bfb906152f5565b159050613c1a5760405162461bcd60e51b8152600401610c7090615366565b600454610100900460ff1615613c5c57601454613c3990612a306153b3565b4210613c575760405162461bcd60e51b8152600401610c70906153c6565b613c89565b601454613c6b90611c206153b3565b4210613c895760405162461bcd60e51b8152600401610c70906153c6565b3360009081526007602081815260408084208385529091529091205460ff1615613cc55760405162461bcd60e51b8152600401610c70906153f0565b626a584c5a116123315760405162461bcd60e51b815260206004820152601b60248201527f6e6f7420656e6f7567682067617320666f722066756e6374696f6e00000000006044820152606401610c70565b60045460ff16613d395760405162461bcd60e51b8152600401610c709061532f565b3360009081526005602052604090208054613d53906152f5565b159050613d725760405162461bcd60e51b8152600401610c7090615366565b600454610100900460ff1615613db457601454613d9190612a306153b3565b4210613daf5760405162461bcd60e51b8152600401610c70906153c6565b613de1565b601454613dc390611c206153b3565b4210613de15760405162461bcd60e51b8152600401610c70906153c6565b6001600160a01b0381166000908152600760209081526040808320601080855292529091205460ff1615613e275760405162461bcd60e51b8152600401610c70906153f0565b333b15613e765760405162461bcd60e51b815260206004820152601760248201527f4e6f20636f6e74726163747320746869732074696d65210000000000000000006044820152606401610c70565b6001600160a01b0382166000908152600a60205260408120549003610f80576001600160a01b0382166000908152600a60205260408120805491613eb9836154c2565b909155505060405160009033908281818181865af19150503d8060008114613efd576040519150601f19603f3d011682016040523d82523d6000602084013e613f02565b606091505b50509050806129825760405162461bcd60e51b8152602060048201526014602482015273195e1d195c9b985b0818d85b1b0819985a5b195960621b6044820152606401610c70565b6001600160a01b038516331480613f665750613f668533610b7b565b613f825760405162461bcd60e51b8152600401610c709061545d565b6112b08585858585614726565b613f97614005565b6001600160a01b038116613ffc5760405162461bcd60e51b815260206004820152602660248201527f4f776e61626c653a206e6577206f776e657220697320746865207a65726f206160448201526564647265737360d01b6064820152608401610c70565b61233b816143fc565b6000546001600160a01b03163314611b235760405162461bcd60e51b815260206004820181905260248201527f4f776e61626c653a2063616c6c6572206973206e6f7420746865206f776e65726044820152606401610c70565b6000828152600e60205260408120805491614079836154c2565b90915550506001600160a01b03811660009081526007602090815260408083208584529091529020805460ff19166001179055601982146140f0576000828152600860209081526040808320546001600160a01b0385168452600690925282208054919290916140ea9084906153b3565b90915550505b6000828152600e60205260408120549003614134576001600160a01b038116600090815260066020526040812080546005929061412e9084906153b3565b90915550505b6009821061416157600082815260086020526040812080546002929061415b9084906156ea565b90915550505b6000828152600e6020526040812080549161417b836154c2565b91905055505050565b81518351146141e65760405162461bcd60e51b815260206004820152602860248201527f455243313135353a2069647320616e6420616d6f756e7473206c656e677468206044820152670dad2e6dac2e8c6d60c31b6064820152608401610c70565b6001600160a01b03841661420c5760405162461bcd60e51b8152600401610c70906156fe565b3360005b84518110156142f657600085828151811061422d5761422d6154ac565b60200260200101519050600085838151811061424b5761424b6154ac565b60209081029190910181015160008481526001835260408082206001600160a01b038e16835290935291909120549091508181101561429c5760405162461bcd60e51b8152600401610c7090615743565b60008381526001602090815260408083206001600160a01b038e8116855292528083208585039055908b168252812080548492906142db9084906153b3565b92505081905550505050806142ef906154c2565b9050614210565b50846001600160a01b0316866001600160a01b0316826001600160a01b03167f4a39dc06d4c0dbc64b70af90fd698a233a518aa5d07e595d983b8c0526c8f7fb878760405161434692919061578d565b60405180910390a46138c0818787878787614854565b6000604051733d602d80600a3d3981f3363d3d373d3d3d363d7360601b81528360601b60148201526e5af43d82803e903d91602b57fd5bf360881b6028820152826037826000f59150506001600160a01b038116610c9e5760405162461bcd60e51b815260206004820152601760248201527f455243313136373a2063726561746532206661696c65640000000000000000006044820152606401610c70565b600080546001600160a01b038381166001600160a01b0319831681178455604051919092169283917f8be0079c531659141344cd1fd0a4f28419497f9722a3daafe3b4186f6b6457e09190a35050565b60008261445985846149af565b14949350505050565b816001600160a01b0316836001600160a01b0316036144d55760405162461bcd60e51b815260206004820152602960248201527f455243313135353a2073657474696e6720617070726f76616c20737461747573604482015268103337b91039b2b63360b91b6064820152608401610c70565b6001600160a01b03838116600081815260026020908152604080832094871680845294825291829020805460ff191686151590811790915591519182527f17307eab39ab6107e8899845ad3d59bd9653f200f220920489ca2b5937696c31910160405180910390a3505050565b6001600160a01b0384166145a25760405162461bcd60e51b815260206004820152602160248201527f455243313135353a206d696e7420746f20746865207a65726f206164647265736044820152607360f81b6064820152608401610c70565b3360006145ae856149f4565b905060006145bb856149f4565b905060008681526001602090815260408083206001600160a01b038b168452909152812080548792906145ef9084906153b3565b909155505060408051878152602081018790526001600160a01b03808a1692600092918716917fc3d58168c5ae7397731d063d5bbf3d657854427343f4c083240f7aacaa2d0f62910160405180910390a4611b0883600089898989614a3f565b600080600080845160411461466a5760009350505050610c9e565b50505060208201516040830151606084015160001a601b81101561469657614693601b826157bb565b90505b8060ff16601b141580156146ae57508060ff16601c14155b156146bf5760009350505050610c9e565b60408051600081526020810180835288905260ff831691810191909152606081018490526080810183905260019060a0016020604051602081039080840390855afa158015614712573d6000803e3d6000fd5b505050602060405103519350505050610c9e565b6001600160a01b03841661474c5760405162461bcd60e51b8152600401610c70906156fe565b336000614758856149f4565b90506000614765856149f4565b905060008681526001602090815260408083206001600160a01b038c168452909152902054858110156147aa5760405162461bcd60e51b8152600401610c7090615743565b60008781526001602090815260408083206001600160a01b038d8116855292528083208985039055908a168252812080548892906147e99084906153b3565b909155505060408051888152602081018890526001600160a01b03808b16928c821692918816917fc3d58168c5ae7397731d063d5bbf3d657854427343f4c083240f7aacaa2d0f62910160405180910390a4614849848a8a8a8a8a614a3f565b505050505050505050565b6001600160a01b0384163b156138c05760405163bc197c8160e01b81526001600160a01b0385169063bc197c819061489890899089908890889088906004016157d4565b6020604051808303816000875af19250505080156148d3575060408051601f3d908101601f191682019092526148d091810190615832565b60015b61497f576148df61584f565b806308c379a00361491857506148f361586a565b806148fe575061491a565b8060405162461bcd60e51b8152600401610c709190614c0e565b505b60405162461bcd60e51b815260206004820152603460248201527f455243313135353a207472616e7366657220746f206e6f6e20455243313135356044820152732932b1b2b4bb32b91034b6b83632b6b2b73a32b960611b6064820152608401610c70565b6001600160e01b0319811663bc197c8160e01b14611b085760405162461bcd60e51b8152600401610c70906158f3565b600081815b845181101561172b576149e0828683815181106149d3576149d36154ac565b6020026020010151614afa565b9150806149ec816154c2565b9150506149b4565b60408051600180825281830190925260609160009190602080830190803683370190505090508281600081518110614a2e57614a2e6154ac565b602090810291909101015292915050565b6001600160a01b0384163b156138c05760405163f23a6e6160e01b81526001600160a01b0385169063f23a6e6190614a83908990899088908890889060040161593b565b6020604051808303816000875af1925050508015614abe575060408051601f3d908101601f19168201909252614abb91810190615832565b60015b614aca576148df61584f565b6001600160e01b0319811663f23a6e6160e01b14611b085760405162461bcd60e51b8152600401610c70906158f3565b6000818310614b16576000828152602084905260409020614b25565b60008381526020839052604090205b9392505050565b80356001600160a01b0381168114614b4357600080fd5b919050565b60008060408385031215614b5b57600080fd5b614b6483614b2c565b946020939093013593505050565b6001600160e01b03198116811461233b57600080fd5b600060208284031215614b9a57600080fd5b8135614b2581614b72565b600060208284031215614bb757600080fd5b5035919050565b60005b83811015614bd9578181015183820152602001614bc1565b50506000910152565b60008151808452614bfa816020860160208601614bbe565b601f01601f19169290920160200192915050565b602081526000614b256020830184614be2565b600060208284031215614c3357600080fd5b614b2582614b2c565b634e487b7160e01b600052604160045260246000fd5b601f8201601f191681016001600160401b0381118282101715614c7757614c77614c3c565b6040525050565b60006001600160401b03821115614c9757614c97614c3c565b5060051b60200190565b600082601f830112614cb257600080fd5b81356020614cbf82614c7e565b604051614ccc8282614c52565b83815260059390931b8501820192828101915086841115614cec57600080fd5b8286015b84811015614d075780358352918301918301614cf0565b509695505050505050565b60006001600160401b03831115614d2b57614d2b614c3c565b604051614d42601f8501601f191660200182614c52565b809150838152848484011115614d5757600080fd5b83836020830137600060208583010152509392505050565b600082601f830112614d8057600080fd5b614b2583833560208501614d12565b600080600080600060a08688031215614da757600080fd5b614db086614b2c565b9450614dbe60208701614b2c565b935060408601356001600160401b0380821115614dda57600080fd5b614de689838a01614ca1565b94506060880135915080821115614dfc57600080fd5b614e0889838a01614ca1565b93506080880135915080821115614e1e57600080fd5b50614e2b88828901614d6f565b9150509295509295909350565b60008060408385031215614e4b57600080fd5b614e5483614b2c565b9150614e6260208401614b2c565b90509250929050565b60008060408385031215614e7e57600080fd5b82356001600160401b0380821115614e9557600080fd5b818501915085601f830112614ea957600080fd5b81356020614eb682614c7e565b604051614ec38282614c52565b83815260059390931b8501820192828101915089841115614ee357600080fd5b948201945b83861015614f0857614ef986614b2c565b82529482019490820190614ee8565b96505086013592505080821115614f1e57600080fd5b50614f2b85828601614ca1565b9150509250929050565b600081518084526020808501945080840160005b83811015614f6557815187529582019590820190600101614f49565b509495945050505050565b602081526000614b256020830184614f35565b60008083601f840112614f9557600080fd5b5081356001600160401b03811115614fac57600080fd5b602083019150836020828501011115614fc457600080fd5b9250929050565b60008060008060608587031215614fe157600080fd5b614fea85614b2c565b935060208501356001600160401b0381111561500557600080fd5b61501187828801614f83565b9598909750949560400135949350505050565b60006020828403121561503657600080fd5b81356001600160401b0381111561504c57600080fd5b61505884828501614d6f565b949350505050565b6000806040838503121561507357600080fd5b50508035926020909101359150565b60006020828403121561509457600080fd5b81356001600160401b038111156150aa57600080fd5b8201601f810184136150bb57600080fd5b61505884823560208401614d12565b600080600080606085870312156150e057600080fd5b6150e985614b2c565b935060208501356001600160401b038082111561510557600080fd5b818701915087601f83011261511957600080fd5b81358181111561512857600080fd5b8860208260051b850101111561513d57600080fd5b95986020929092019750949560400135945092505050565b6000806020838503121561516857600080fd5b82356001600160401b0381111561517e57600080fd5b61518a85828601614f83565b90969095509350505050565b801515811461233b57600080fd5b600080604083850312156151b757600080fd5b6151c083614b2c565b915060208301356151d081615196565b809150509250929050565b6000602082840312156151ed57600080fd5b8135614b2581615196565b60008060006060848603121561520d57600080fd5b8335925061521d60208501614b2c565b915061522b60408501614b2c565b90509250925092565b60008060006060848603121561524957600080fd5b61525284614b2c565b925061526060208501614b2c565b915060408401356001600160401b0381111561527b57600080fd5b61528786828701614d6f565b9150509250925092565b600080600080600060a086880312156152a957600080fd5b6152b286614b2c565b94506152c060208701614b2c565b9350604086013592506060860135915060808601356001600160401b038111156152e957600080fd5b614e2b88828901614d6f565b600181811c9082168061530957607f821691505b60208210810361532957634e487b7160e01b600052602260045260246000fd5b50919050565b6020808252601b908201527f4861636b6174686f6e206973206e6f7420696e2073657373696f6e0000000000604082015260600190565b60208082526017908201527f416c72656164792072656769737465726564207465616d000000000000000000604082015260600190565b634e487b7160e01b600052601160045260246000fd5b80820180821115610c9e57610c9e61539d565b60208082526010908201526f151a5b59481a185cc8195e1c1a5c995960821b604082015260600190565b6020808252601f908201527f416c726561647920636f6d706c6574656420746869732066756e6374696f6e00604082015260600190565b60006020828403121561543957600080fd5b5051919050565b60006020828403121561545257600080fd5b8151614b2581615196565b6020808252602f908201527f455243313135353a2063616c6c6572206973206e6f7420746f6b656e206f776e60408201526e195c881b9bdc88185c1c1c9bdd9959608a1b606082015260800190565b634e487b7160e01b600052603260045260246000fd5b6000600182016154d4576154d461539d565b5060010190565b6020808252601c908201527f696e636f727265637420616464726573732e2074727920616761696e00000000604082015260600190565b8183823760009101908152919050565b6001600160e01b0319831681528151600090615545816004850160208701614bbe565b919091016004019392505050565b6020808252602c908201527f446966666572656e6365206f66207468652074776f206d757374206265206d6f60408201526b7265207468616e207a65726f60a01b606082015260800190565b601f821115611e0657600081815260208120601f850160051c810160208610156155c65750805b601f850160051c820191505b818110156138c0578281556001016155d2565b81516001600160401b038111156155fe576155fe614c3c565b6156128161560c84546152f5565b8461559f565b602080601f831160018114615647576000841561562f5750858301515b600019600386901b1c1916600185901b1785556138c0565b600085815260208120601f198616915b8281101561567657888601518255948401946001909101908401615657565b50858210156156945787850151600019600388901b60f8161c191681555b5050505050600190811b01905550565b600082516156b6818460208701614bbe565b9190910192915050565b634e487b7160e01b600052601260045260246000fd5b6000826156e5576156e56156c0565b500690565b6000826156f9576156f96156c0565b500490565b60208082526025908201527f455243313135353a207472616e7366657220746f20746865207a65726f206164604082015264647265737360d81b606082015260800190565b6020808252602a908201527f455243313135353a20696e73756666696369656e742062616c616e636520666f60408201526939103a3930b739b332b960b11b606082015260800190565b6040815260006157a06040830185614f35565b82810360208401526157b28185614f35565b95945050505050565b60ff8181168382160190811115610c9e57610c9e61539d565b6001600160a01b0386811682528516602082015260a06040820181905260009061580090830186614f35565b82810360608401526158128186614f35565b905082810360808401526158268185614be2565b98975050505050505050565b60006020828403121561584457600080fd5b8151614b2581614b72565b600060033d111561106e5760046000803e5060005160e01c90565b600060443d10156158785790565b6040516003193d81016004833e81513d6001600160401b0381602484011181841117156158a757505050505090565b82850191508151818111156158bf5750505050505090565b843d87010160208285010111156158d95750505050505090565b6158e860208286010187614c52565b509095945050505050565b60208082526028908201527f455243313135353a204552433131353552656365697665722072656a656374656040820152676420746f6b656e7360c01b606082015260800190565b6001600160a01b03868116825285166020820152604081018490526060810183905260a06080820181905260009061597590830184614be2565b97965050505050505056fe736574207468652067656172736869667420666f722074686520686967682067656172206f6620796f757220736f756ca2646970667358221220d87d6029ee4f668f0ee7995de4753acd3278b138b1d002242d725768e8b5a6e764736f6c63430008100033608060405234801561001057600080fd5b5061011b806100206000396000f3fe6080604052348015600f57600080fd5b506004361060285760003560e01c8063d1f5d67014602d575b600080fd5b60336047565b604051603e91906063565b60405180910390f35b6040518060600160405280603681526020016100b06036913981565b600060208083528351808285015260005b81811015608e578581018301518582016040015282016074565b506000604082860101526040601f19601f830116850101925050509291505056fe62657420796f752063616e2774206775657373206d792061646472657373206265666f726520696d206576656e206465706c6f796564a264697066735822122098cc5d8ca967cc26123793c48e8de6709636420f9d178503b4116ed19656d6ee64736f6c63430008100033",
    "linkReferences": {
      "contracts/MerkleTree.sol": {
        "merkleTree": [
          {
            "start": 401,
            "length": 20
          }
        ]
      }
    }
  },
  "methodIdentifiers": {
    "balanceOf(address,uint256)": "00fdd58e",
    "balanceOfBatch(address[],uint256[])": "4e1273f4",
    "diceRollLastWin(address)": "ca9eaf59",
    "diceRollWins(address)": "c1a8f2c6",
    "entryCount(address)": "41dd1ef8",
    "extendTime()": "abb6ae89",
    "f0(bool)": "aa91c62e",
    "f1()": "c27fc305",
    "f10(int256,int256)": "d75203c3",
    "f11(int256,int256)": "81e0f90c",
    "f12(bytes)": "a481b0e4",
    "f13()": "920f5c73",
    "f14(uint256)": "c28cb1d4",
    "f15(uint256)": "2f4dc9da",
    "f16(address)": "ed6a9904",
    "f17(address,address,bytes)": "c78de838",
    "f18(uint256,address,address)": "b1d8dd56",
    "f19(address)": "237b3bde",
    "f2(uint256)": "bf3724af",
    "f20(address,address)": "49b9dbe6",
    "f21(address)": "100a818c",
    "f22(address)": "a60463e4",
    "f23(address,bytes32[],bytes32)": "8b1fe8de",
    "f24(address,uint256)": "b33260a2",
    "f25(address,uint256)": "c191764f",
    "f26(address,bytes,bytes32)": "6f0514c6",
    "f3(uint256)": "d7b7913b",
    "f4(address)": "50a48d2e",
    "f5(address)": "93d1758c",
    "f6(address)": "604f7523",
    "f7()": "df2025dc",
    "f8(bytes)": "964ef96b",
    "f9(bytes)": "787f485a",
    "internalChallengeHook()": "1625d7fe",
    "isApprovedForAll(address,address)": "e985e9c5",
    "live()": "957aa58c",
    "merkleRoot()": "2eb4a7ab",
    "owner()": "8da5cb5b",
    "points(uint256)": "9799b4e7",
    "progress(address,uint256)": "0c91cdbc",
    "registerTeam(string)": "8729e5c1",
    "renounceOwnership()": "715018a6",
    "safeBatchTransferFrom(address,address,uint256[],uint256[],bytes)": "2eb2c2d6",
    "safeTransferFrom(address,address,uint256,uint256,bytes)": "f242432a",
    "scores(address)": "76dd110f",
    "secondEntryCount(address)": "83e9ff47",
    "setApprovalForAll(address,bool)": "a22cb465",
    "signers(address)": "736c0d5b",
    "solves(uint256)": "3d056172",
    "start()": "be9a6555",
    "stop()": "07da68f5",
    "supportsInterface(bytes4)": "01ffc9a7",
    "teamAddresses(uint256)": "2419217e",
    "teams(address)": "c4583240",
    "template()": "6f2ddd93",
    "timeExtended()": "db0fff37",
    "totallyLegitMapping(address)": "bd8d97c0",
    "transferOwnership(address)": "f2fde38b",
    "uri(uint256)": "0e89341c",
    "usedLeaves(bytes32)": "3b5e60c2",
    "weth()": "3fc8cef3"
  },
  "id": 0
}